{
  "contractName": "RoleControl",
  "abi": [
    {
      "inputs": [
        {
          "internalType": "address",
          "name": "root",
          "type": "address"
        }
      ],
      "stateMutability": "nonpayable",
      "type": "constructor"
    },
    {
      "anonymous": false,
      "inputs": [
        {
          "indexed": true,
          "internalType": "address",
          "name": "sender",
          "type": "address"
        },
        {
          "indexed": false,
          "internalType": "string",
          "name": "message",
          "type": "string"
        }
      ],
      "name": "IndexedLog",
      "type": "event"
    },
    {
      "anonymous": false,
      "inputs": [
        {
          "indexed": true,
          "internalType": "bytes32",
          "name": "role",
          "type": "bytes32"
        },
        {
          "indexed": true,
          "internalType": "bytes32",
          "name": "previousAdminRole",
          "type": "bytes32"
        },
        {
          "indexed": true,
          "internalType": "bytes32",
          "name": "newAdminRole",
          "type": "bytes32"
        }
      ],
      "name": "RoleAdminChanged",
      "type": "event"
    },
    {
      "anonymous": false,
      "inputs": [
        {
          "indexed": true,
          "internalType": "bytes32",
          "name": "role",
          "type": "bytes32"
        },
        {
          "indexed": true,
          "internalType": "address",
          "name": "account",
          "type": "address"
        },
        {
          "indexed": true,
          "internalType": "address",
          "name": "sender",
          "type": "address"
        }
      ],
      "name": "RoleGranted",
      "type": "event"
    },
    {
      "anonymous": false,
      "inputs": [
        {
          "indexed": true,
          "internalType": "bytes32",
          "name": "role",
          "type": "bytes32"
        },
        {
          "indexed": true,
          "internalType": "address",
          "name": "account",
          "type": "address"
        },
        {
          "indexed": true,
          "internalType": "address",
          "name": "sender",
          "type": "address"
        }
      ],
      "name": "RoleRevoked",
      "type": "event"
    },
    {
      "inputs": [],
      "name": "DEFAULT_ADMIN_ROLE",
      "outputs": [
        {
          "internalType": "bytes32",
          "name": "",
          "type": "bytes32"
        }
      ],
      "stateMutability": "view",
      "type": "function"
    },
    {
      "inputs": [],
      "name": "FACULTY_ROLE",
      "outputs": [
        {
          "internalType": "bytes32",
          "name": "",
          "type": "bytes32"
        }
      ],
      "stateMutability": "view",
      "type": "function"
    },
    {
      "inputs": [
        {
          "internalType": "bytes32",
          "name": "role",
          "type": "bytes32"
        }
      ],
      "name": "getRoleAdmin",
      "outputs": [
        {
          "internalType": "bytes32",
          "name": "",
          "type": "bytes32"
        }
      ],
      "stateMutability": "view",
      "type": "function"
    },
    {
      "inputs": [
        {
          "internalType": "bytes32",
          "name": "role",
          "type": "bytes32"
        },
        {
          "internalType": "uint256",
          "name": "index",
          "type": "uint256"
        }
      ],
      "name": "getRoleMember",
      "outputs": [
        {
          "internalType": "address",
          "name": "",
          "type": "address"
        }
      ],
      "stateMutability": "view",
      "type": "function"
    },
    {
      "inputs": [
        {
          "internalType": "bytes32",
          "name": "role",
          "type": "bytes32"
        }
      ],
      "name": "getRoleMemberCount",
      "outputs": [
        {
          "internalType": "uint256",
          "name": "",
          "type": "uint256"
        }
      ],
      "stateMutability": "view",
      "type": "function"
    },
    {
      "inputs": [
        {
          "internalType": "bytes32",
          "name": "role",
          "type": "bytes32"
        },
        {
          "internalType": "address",
          "name": "account",
          "type": "address"
        }
      ],
      "name": "grantRole",
      "outputs": [],
      "stateMutability": "nonpayable",
      "type": "function"
    },
    {
      "inputs": [
        {
          "internalType": "bytes32",
          "name": "role",
          "type": "bytes32"
        },
        {
          "internalType": "address",
          "name": "account",
          "type": "address"
        }
      ],
      "name": "hasRole",
      "outputs": [
        {
          "internalType": "bool",
          "name": "",
          "type": "bool"
        }
      ],
      "stateMutability": "view",
      "type": "function"
    },
    {
      "inputs": [
        {
          "internalType": "bytes32",
          "name": "role",
          "type": "bytes32"
        },
        {
          "internalType": "address",
          "name": "account",
          "type": "address"
        }
      ],
      "name": "renounceRole",
      "outputs": [],
      "stateMutability": "nonpayable",
      "type": "function"
    },
    {
      "inputs": [
        {
          "internalType": "bytes32",
          "name": "role",
          "type": "bytes32"
        },
        {
          "internalType": "address",
          "name": "account",
          "type": "address"
        }
      ],
      "name": "revokeRole",
      "outputs": [],
      "stateMutability": "nonpayable",
      "type": "function"
    },
    {
      "inputs": [
        {
          "internalType": "bytes4",
          "name": "interfaceId",
          "type": "bytes4"
        }
      ],
      "name": "supportsInterface",
      "outputs": [
        {
          "internalType": "bool",
          "name": "",
          "type": "bool"
        }
      ],
      "stateMutability": "view",
      "type": "function"
    },
    {
      "inputs": [
        {
          "internalType": "address",
          "name": "account",
          "type": "address"
        }
      ],
      "name": "isAdmin",
      "outputs": [
        {
          "internalType": "bool",
          "name": "",
          "type": "bool"
        }
      ],
      "stateMutability": "view",
      "type": "function"
    },
    {
      "inputs": [
        {
          "internalType": "address",
          "name": "account",
          "type": "address"
        }
      ],
      "name": "isFaculty",
      "outputs": [
        {
          "internalType": "bool",
          "name": "",
          "type": "bool"
        }
      ],
      "stateMutability": "view",
      "type": "function"
    },
    {
      "inputs": [
        {
          "internalType": "address",
          "name": "account",
          "type": "address"
        }
      ],
      "name": "addAdmin",
      "outputs": [],
      "stateMutability": "nonpayable",
      "type": "function"
    },
    {
      "inputs": [
        {
          "internalType": "address",
          "name": "account",
          "type": "address"
        }
      ],
      "name": "addFaculty",
      "outputs": [],
      "stateMutability": "nonpayable",
      "type": "function"
    },
    {
      "inputs": [
        {
          "internalType": "address[]",
          "name": "_array",
          "type": "address[]"
        }
      ],
      "name": "multiAddFaculty",
      "outputs": [],
      "stateMutability": "nonpayable",
      "type": "function"
    },
    {
      "inputs": [
        {
          "internalType": "address",
          "name": "account",
          "type": "address"
        }
      ],
      "name": "removeAdmin",
      "outputs": [],
      "stateMutability": "nonpayable",
      "type": "function"
    },
    {
      "inputs": [
        {
          "internalType": "address",
          "name": "account",
          "type": "address"
        }
      ],
      "name": "removeFaculty",
      "outputs": [],
      "stateMutability": "nonpayable",
      "type": "function"
    },
    {
      "inputs": [],
      "name": "getOwner",
      "outputs": [
        {
          "internalType": "address",
          "name": "",
          "type": "address"
        }
      ],
      "stateMutability": "view",
      "type": "function"
    }
  ],
  "bytecode": "0x60806040523480156200001157600080fd5b506040516200153e3803806200153e833981016040819052620000349162000254565b6001600160a01b0381166200004857600080fd5b600280546001600160a01b0319166001600160a01b03831617905562000070600082620000a4565b6200009d7f573a495ec6f39d095bd4855f18069a9236d77216cfb96e453909f2408c333cfa6000620000b4565b5062000286565b620000b08282620000ff565b5050565b600082815260208190526040808220600101805490849055905190918391839186917fbd79b86ffe0ab8e8776151514217cd7cacd52c909f66475c3af44e129f0b00ff9190a4505050565b6200011682826200014260201b6200090e1760201c565b60008281526001602090815260409091206200013d918390620009ac620001e2821b17901c565b505050565b6000828152602081815260408083206001600160a01b038516845290915290205460ff16620000b0576000828152602081815260408083206001600160a01b03851684529091529020805460ff191660011790556200019e3390565b6001600160a01b0316816001600160a01b0316837f2f8788117e7eff1d82e926ec794901d17c78024a50270940304540a733656f0d60405160405180910390a45050565b6000620001f9836001600160a01b03841662000202565b90505b92915050565b60008181526001830160205260408120546200024b57508154600181810184556000848152602080822090930184905584548482528286019093526040902091909155620001fc565b506000620001fc565b6000602082840312156200026757600080fd5b81516001600160a01b03811681146200027f57600080fd5b9392505050565b6112a880620002966000396000f3fe608060405234801561001057600080fd5b50600436106101365760003560e01c806370480275116100b257806393a8653211610081578063c2a7870211610066578063c2a78702146102cc578063ca15c873146102df578063d547741f146102f257600080fd5b806393a86532146102b1578063a217fddf146102c457600080fd5b8063704802751461022f578063893d20e8146102425780639010d07c1461026757806391d148541461027a57600080fd5b80632f2ff15d11610109578063396ff3ed116100ee578063396ff3ed146101e257806362f746d2146101f55780636fe3ceb81461020857600080fd5b80632f2ff15d146101bc57806336568abe146101cf57600080fd5b806301ffc9a71461013b5780631785f53c14610163578063248a9ca31461017857806324d7806c146101a9575b600080fd5b61014e610149366004610f63565b610305565b60405190151581526020015b60405180910390f35b610176610171366004610fc1565b610361565b005b61019b610186366004610fdc565b60009081526020819052604090206001015490565b60405190815260200161015a565b61014e6101b7366004610fc1565b6103c9565b6101766101ca366004610ff5565b610409565b6101766101dd366004610ff5565b610433565b6101766101f0366004610fc1565b6104bf565b610176610203366004611021565b610594565b61019b7f573a495ec6f39d095bd4855f18069a9236d77216cfb96e453909f2408c333cfa81565b61017661023d366004610fc1565b61073e565b6002546001600160a01b03165b6040516001600160a01b03909116815260200161015a565b61024f610275366004611096565b6107f4565b61014e610288366004610ff5565b6000918252602082815260408084206001600160a01b0393909316845291905290205460ff1690565b6101766102bf366004610fc1565b610813565b61019b600081565b61014e6102da366004610fc1565b610892565b61019b6102ed366004610fdc565b6108d2565b610176610300366004610ff5565b6108e9565b60007fffffffff0000000000000000000000000000000000000000000000000000000082167f5a05180f00000000000000000000000000000000000000000000000000000000148061035b575061035b826109c1565b92915050565b61036a336103c9565b6103bb5760405162461bcd60e51b815260206004820152601560248201527f5265737472696374656420746f2061646d696e732e000000000000000000000060448201526064015b60405180910390fd5b6103c66000826108e9565b50565b6001600160a01b03811660009081527fad3228b676f7d3cd4284a5443f17f1962b36e491b30a40b2405849e597ba5fb5602052604081205460ff1661035b565b60008281526020819052604090206001015461042481610a58565b61042e8383610a62565b505050565b6001600160a01b03811633146104b15760405162461bcd60e51b815260206004820152602f60248201527f416363657373436f6e74726f6c3a2063616e206f6e6c792072656e6f756e636560448201527f20726f6c657320666f722073656c66000000000000000000000000000000000060648201526084016103b2565b6104bb8282610a84565b5050565b6104c8336103c9565b6105145760405162461bcd60e51b815260206004820152601560248201527f5265737472696374656420746f2061646d696e732e000000000000000000000060448201526064016103b2565b61051d816103c9565b1561056a5760405162461bcd60e51b815260206004820152601a60248201527f41646d696e2063616e6e6f74206265206120666163756c74792e00000000000060448201526064016103b2565b6103c67f573a495ec6f39d095bd4855f18069a9236d77216cfb96e453909f2408c333cfa82610409565b61059d336103c9565b6105e95760405162461bcd60e51b815260206004820152601560248201527f5265737472696374656420746f2061646d696e732e000000000000000000000060448201526064016103b2565b60005b818110156106c85761061e838383818110610609576106096110b8565b90506020020160208101906101b79190610fc1565b1561066b5760405162461bcd60e51b815260206004820152601a60248201527f41646d696e2063616e6e6f74206265206120666163756c74792e00000000000060448201526064016103b2565b6106b67f573a495ec6f39d095bd4855f18069a9236d77216cfb96e453909f2408c333cfa8484848181106106a1576106a16110b8565b90506020020160208101906101ca9190610fc1565b806106c0816110e4565b9150506105ec565b50336001600160a01b03167fa66ae13e5605ba8fbc32dd24e75cd0f527810c48b5d0cbd0290be290217b2da06040516107329060208082526016908201527f6d756c7469416464466163756c74795375636365656400000000000000000000604082015260600190565b60405180910390a25050565b610747336103c9565b6107935760405162461bcd60e51b815260206004820152601560248201527f5265737472696374656420746f2061646d696e732e000000000000000000000060448201526064016103b2565b61079c81610892565b156107e95760405162461bcd60e51b815260206004820152601b60248201527f466163756c74792063616e6e6f7420626520616e2061646d696e2e000000000060448201526064016103b2565b6103c6600082610409565b600082815260016020526040812061080c9083610aa6565b9392505050565b61081c336103c9565b6108685760405162461bcd60e51b815260206004820152601560248201527f5265737472696374656420746f2061646d696e732e000000000000000000000060448201526064016103b2565b6103c67f573a495ec6f39d095bd4855f18069a9236d77216cfb96e453909f2408c333cfa826108e9565b6001600160a01b03811660009081527f2eebf4af96fc62a009d0e5de30d8a7b496a3072b6fe678a5d20e762eb812fd46602052604081205460ff1661035b565b600081815260016020526040812061035b90610ab2565b60008281526020819052604090206001015461090481610a58565b61042e8383610a84565b6000828152602081815260408083206001600160a01b038516845290915290205460ff166104bb576000828152602081815260408083206001600160a01b03851684529091529020805460ff191660011790556109683390565b6001600160a01b0316816001600160a01b0316837f2f8788117e7eff1d82e926ec794901d17c78024a50270940304540a733656f0d60405160405180910390a45050565b600061080c836001600160a01b038416610abc565b60007fffffffff0000000000000000000000000000000000000000000000000000000082167f7965db0b00000000000000000000000000000000000000000000000000000000148061035b57507f01ffc9a7000000000000000000000000000000000000000000000000000000007fffffffff0000000000000000000000000000000000000000000000000000000083161461035b565b6103c68133610b0b565b610a6c828261090e565b600082815260016020526040902061042e90826109ac565b610a8e8282610b89565b600082815260016020526040902061042e9082610c08565b600061080c8383610c1d565b600061035b825490565b6000818152600183016020526040812054610b035750815460018181018455600084815260208082209093018490558454848252828601909352604090209190915561035b565b50600061035b565b6000828152602081815260408083206001600160a01b038516845290915290205460ff166104bb57610b47816001600160a01b03166014610c47565b610b52836020610c47565b604051602001610b6392919061112d565b60408051601f198184030181529082905262461bcd60e51b82526103b2916004016111ae565b6000828152602081815260408083206001600160a01b038516845290915290205460ff16156104bb576000828152602081815260408083206001600160a01b0385168085529252808320805460ff1916905551339285917ff6391f5c32d9c69d2a47ea670b442974b53935d1edc7fd64eb21e047a839171b9190a45050565b600061080c836001600160a01b038416610e70565b6000826000018281548110610c3457610c346110b8565b9060005260206000200154905092915050565b60606000610c568360026111e1565b610c61906002611200565b67ffffffffffffffff811115610c7957610c79611218565b6040519080825280601f01601f191660200182016040528015610ca3576020820181803683370190505b5090507f300000000000000000000000000000000000000000000000000000000000000081600081518110610cda57610cda6110b8565b60200101907effffffffffffffffffffffffffffffffffffffffffffffffffffffffffffff1916908160001a9053507f780000000000000000000000000000000000000000000000000000000000000081600181518110610d3d57610d3d6110b8565b60200101907effffffffffffffffffffffffffffffffffffffffffffffffffffffffffffff1916908160001a9053506000610d798460026111e1565b610d84906001611200565b90505b6001811115610e21577f303132333435363738396162636465660000000000000000000000000000000085600f1660108110610dc557610dc56110b8565b1a60f81b828281518110610ddb57610ddb6110b8565b60200101907effffffffffffffffffffffffffffffffffffffffffffffffffffffffffffff1916908160001a90535060049490941c93610e1a8161122e565b9050610d87565b50831561080c5760405162461bcd60e51b815260206004820181905260248201527f537472696e67733a20686578206c656e67746820696e73756666696369656e7460448201526064016103b2565b60008181526001830160205260408120548015610f59576000610e94600183611245565b8554909150600090610ea890600190611245565b9050818114610f0d576000866000018281548110610ec857610ec86110b8565b9060005260206000200154905080876000018481548110610eeb57610eeb6110b8565b6000918252602080832090910192909255918252600188019052604090208390555b8554869080610f1e57610f1e61125c565b60019003818190600052602060002001600090559055856001016000868152602001908152602001600020600090556001935050505061035b565b600091505061035b565b600060208284031215610f7557600080fd5b81357fffffffff000000000000000000000000000000000000000000000000000000008116811461080c57600080fd5b80356001600160a01b0381168114610fbc57600080fd5b919050565b600060208284031215610fd357600080fd5b61080c82610fa5565b600060208284031215610fee57600080fd5b5035919050565b6000806040838503121561100857600080fd5b8235915061101860208401610fa5565b90509250929050565b6000806020838503121561103457600080fd5b823567ffffffffffffffff8082111561104c57600080fd5b818501915085601f83011261106057600080fd5b81358181111561106f57600080fd5b8660208260051b850101111561108457600080fd5b60209290920196919550909350505050565b600080604083850312156110a957600080fd5b50508035926020909101359150565b634e487b7160e01b600052603260045260246000fd5b634e487b7160e01b600052601160045260246000fd5b6000600182016110f6576110f66110ce565b5060010190565b60005b83811015611118578181015183820152602001611100565b83811115611127576000848401525b50505050565b7f416363657373436f6e74726f6c3a206163636f756e74200000000000000000008152600083516111658160178501602088016110fd565b7f206973206d697373696e6720726f6c652000000000000000000000000000000060179184019182015283516111a28160288401602088016110fd565b01602801949350505050565b60208152600082518060208401526111cd8160408501602087016110fd565b601f01601f19169190910160400192915050565b60008160001904831182151516156111fb576111fb6110ce565b500290565b60008219821115611213576112136110ce565b500190565b634e487b7160e01b600052604160045260246000fd5b60008161123d5761123d6110ce565b506000190190565b600082821015611257576112576110ce565b500390565b634e487b7160e01b600052603160045260246000fdfea2646970667358221220018cbf609f0599c313fb8e0ce6548ee49e7faa9c52bf97b2cec9c2eb943aaba064736f6c634300080e0033",
  "immutableReferences": {},
  "source": "// SPDX-License-Identifier: GPL3\r\n\r\npragma solidity ^0.8.0;\r\n\r\n// Import the OpenZeppelin AccessControl contract\r\nimport \"@openzeppelin/contracts/access/AccessControlEnumerable.sol\";\r\n\r\n// create control that extends OpenZeppelin Access Control\r\ncontract RoleControl is AccessControlEnumerable {\r\n    // keccak256 to create hash that identify constant in contract\r\n    bytes32 public constant FACULTY_ROLE = keccak256(\"FACULTY\"); // hash FACULTY as role constant\r\n    address private owner;\r\n\r\n   event IndexedLog(address indexed sender, string message);\r\n\r\n    /*\r\n     * @dev Add 'root' to admin role.\r\n     */\r\n    constructor(address root) {\r\n        require(root != address(0));\r\n        owner = root;\r\n        // give msg.sender roles\r\n        _setupRole(DEFAULT_ADMIN_ROLE, root);\r\n        // Set role hierarchy\r\n        _setRoleAdmin(FACULTY_ROLE, DEFAULT_ADMIN_ROLE);\r\n    }\r\n\r\n    // Check to see if address has the ADMIN role\r\n    function isAdmin(address account) public view virtual returns (bool) {\r\n        return hasRole(DEFAULT_ADMIN_ROLE, account);\r\n    }\r\n\r\n    // Check to see if address has the FACULTY role\r\n\r\n    function isFaculty(address account) public view virtual returns (bool) {\r\n        return hasRole(FACULTY_ROLE, account);\r\n    }\r\n\r\n    // Modifier to check if msg.sender is admin.\r\n    modifier onlyAdmin() {\r\n        require(isAdmin(msg.sender), \"Restricted to admins.\");\r\n        _;\r\n    }\r\n\r\n    // Modifier to check if msg.sender is faculty.\r\n    modifier onlyFaculty() {\r\n        require(isFaculty(msg.sender), \"Restricted to faculty.\");\r\n        _;\r\n    }\r\n\r\n    // Grant admin privilege to an address.\r\n    function addAdmin(address account) external virtual onlyAdmin {\r\n        require(!isFaculty(account), \"Faculty cannot be an admin.\");\r\n        grantRole(DEFAULT_ADMIN_ROLE, account);\r\n    }\r\n\r\n    // Grant faculty privilege to an address. Restricted to Admins.\r\n    function addFaculty(address account) external virtual onlyAdmin {\r\n        require(!isAdmin(account), \"Admin cannot be a faculty.\");\r\n        grantRole(FACULTY_ROLE, account);\r\n    }\r\n\r\n    // Grant faculty privilege to multiple addresses\r\n    function multiAddFaculty(address[] calldata _array) external virtual onlyAdmin {\r\n    for(uint i=0; i <_array.length; i++) {\r\n        require(!isAdmin(_array[i]), \"Admin cannot be a faculty.\");\r\n        grantRole(FACULTY_ROLE, _array[i]);\r\n    }\r\n    emit IndexedLog(msg.sender,\"multiAddFacultySucceed\");\r\n  }\r\n\r\n    // Remove admin privilege on an address.\r\n    function removeAdmin(address account) external virtual onlyAdmin {\r\n        revokeRole(DEFAULT_ADMIN_ROLE, account);\r\n    }\r\n\r\n    // Remove faculty privilege on an address.\r\n    function removeFaculty(address account) external virtual onlyAdmin {\r\n        revokeRole(FACULTY_ROLE, account);\r\n    }\r\n\r\n    // Get owner of contract\r\n    function getOwner() public view returns (address) {\r\n        return owner;\r\n    }\r\n}\r\n",
  "sourcePath": "C:\\Users\\ngjun\\Downloads\\Blockchain-Trusted-Model\\contracts\\RoleControl.sol",
  "compiler": {
    "name": "solc",
    "version": "0.8.14+commit.80d49f37.Emscripten.clang"
  },
  "schemaVersion": "3.4.8",
  "updatedAt": "2022-07-18T08:47:07.151Z",
  "devdoc": {
    "kind": "dev",
    "methods": {
      "getRoleAdmin(bytes32)": {
        "details": "Returns the admin role that controls `role`. See {grantRole} and {revokeRole}. To change a role's admin, use {_setRoleAdmin}."
      },
      "getRoleMember(bytes32,uint256)": {
        "details": "Returns one of the accounts that have `role`. `index` must be a value between 0 and {getRoleMemberCount}, non-inclusive. Role bearers are not sorted in any particular way, and their ordering may change at any point. WARNING: When using {getRoleMember} and {getRoleMemberCount}, make sure you perform all queries on the same block. See the following https://forum.openzeppelin.com/t/iterating-over-elements-on-enumerableset-in-openzeppelin-contracts/2296[forum post] for more information."
      },
      "getRoleMemberCount(bytes32)": {
        "details": "Returns the number of accounts that have `role`. Can be used together with {getRoleMember} to enumerate all bearers of a role."
      },
      "grantRole(bytes32,address)": {
        "details": "Grants `role` to `account`. If `account` had not been already granted `role`, emits a {RoleGranted} event. Requirements: - the caller must have ``role``'s admin role. May emit a {RoleGranted} event."
      },
      "hasRole(bytes32,address)": {
        "details": "Returns `true` if `account` has been granted `role`."
      },
      "renounceRole(bytes32,address)": {
        "details": "Revokes `role` from the calling account. Roles are often managed via {grantRole} and {revokeRole}: this function's purpose is to provide a mechanism for accounts to lose their privileges if they are compromised (such as when a trusted device is misplaced). If the calling account had been revoked `role`, emits a {RoleRevoked} event. Requirements: - the caller must be `account`. May emit a {RoleRevoked} event."
      },
      "revokeRole(bytes32,address)": {
        "details": "Revokes `role` from `account`. If `account` had been granted `role`, emits a {RoleRevoked} event. Requirements: - the caller must have ``role``'s admin role. May emit a {RoleRevoked} event."
      },
      "supportsInterface(bytes4)": {
        "details": "See {IERC165-supportsInterface}."
      }
    },
    "version": 1
  },
  "userdoc": {
    "kind": "user",
    "methods": {},
    "version": 1
  }
}