{
  "contractName": "RoleControl",
  "abi": [
    {
      "inputs": [
        {
          "internalType": "address",
          "name": "root",
          "type": "address"
        }
      ],
      "stateMutability": "nonpayable",
      "type": "constructor"
    },
    {
      "anonymous": false,
      "inputs": [
        {
          "indexed": true,
          "internalType": "address",
          "name": "sender",
          "type": "address"
        },
        {
          "indexed": false,
          "internalType": "string",
          "name": "message",
          "type": "string"
        }
      ],
      "name": "IndexedLog",
      "type": "event"
    },
    {
      "anonymous": false,
      "inputs": [
        {
          "indexed": true,
          "internalType": "bytes32",
          "name": "role",
          "type": "bytes32"
        },
        {
          "indexed": true,
          "internalType": "bytes32",
          "name": "previousAdminRole",
          "type": "bytes32"
        },
        {
          "indexed": true,
          "internalType": "bytes32",
          "name": "newAdminRole",
          "type": "bytes32"
        }
      ],
      "name": "RoleAdminChanged",
      "type": "event"
    },
    {
      "anonymous": false,
      "inputs": [
        {
          "indexed": true,
          "internalType": "bytes32",
          "name": "role",
          "type": "bytes32"
        },
        {
          "indexed": true,
          "internalType": "address",
          "name": "account",
          "type": "address"
        },
        {
          "indexed": true,
          "internalType": "address",
          "name": "sender",
          "type": "address"
        }
      ],
      "name": "RoleGranted",
      "type": "event"
    },
    {
      "anonymous": false,
      "inputs": [
        {
          "indexed": true,
          "internalType": "bytes32",
          "name": "role",
          "type": "bytes32"
        },
        {
          "indexed": true,
          "internalType": "address",
          "name": "account",
          "type": "address"
        },
        {
          "indexed": true,
          "internalType": "address",
          "name": "sender",
          "type": "address"
        }
      ],
      "name": "RoleRevoked",
      "type": "event"
    },
    {
      "inputs": [],
      "name": "DEFAULT_ADMIN_ROLE",
      "outputs": [
        {
          "internalType": "bytes32",
          "name": "",
          "type": "bytes32"
        }
      ],
      "stateMutability": "view",
      "type": "function"
    },
    {
      "inputs": [],
      "name": "FACULTY_ROLE",
      "outputs": [
        {
          "internalType": "bytes32",
          "name": "",
          "type": "bytes32"
        }
      ],
      "stateMutability": "view",
      "type": "function"
    },
    {
      "inputs": [
        {
          "internalType": "bytes32",
          "name": "role",
          "type": "bytes32"
        }
      ],
      "name": "getRoleAdmin",
      "outputs": [
        {
          "internalType": "bytes32",
          "name": "",
          "type": "bytes32"
        }
      ],
      "stateMutability": "view",
      "type": "function"
    },
    {
      "inputs": [
        {
          "internalType": "bytes32",
          "name": "role",
          "type": "bytes32"
        },
        {
          "internalType": "uint256",
          "name": "index",
          "type": "uint256"
        }
      ],
      "name": "getRoleMember",
      "outputs": [
        {
          "internalType": "address",
          "name": "",
          "type": "address"
        }
      ],
      "stateMutability": "view",
      "type": "function"
    },
    {
      "inputs": [
        {
          "internalType": "bytes32",
          "name": "role",
          "type": "bytes32"
        }
      ],
      "name": "getRoleMemberCount",
      "outputs": [
        {
          "internalType": "uint256",
          "name": "",
          "type": "uint256"
        }
      ],
      "stateMutability": "view",
      "type": "function"
    },
    {
      "inputs": [
        {
          "internalType": "bytes32",
          "name": "role",
          "type": "bytes32"
        },
        {
          "internalType": "address",
          "name": "account",
          "type": "address"
        }
      ],
      "name": "grantRole",
      "outputs": [],
      "stateMutability": "nonpayable",
      "type": "function"
    },
    {
      "inputs": [
        {
          "internalType": "bytes32",
          "name": "role",
          "type": "bytes32"
        },
        {
          "internalType": "address",
          "name": "account",
          "type": "address"
        }
      ],
      "name": "hasRole",
      "outputs": [
        {
          "internalType": "bool",
          "name": "",
          "type": "bool"
        }
      ],
      "stateMutability": "view",
      "type": "function"
    },
    {
      "inputs": [
        {
          "internalType": "bytes32",
          "name": "role",
          "type": "bytes32"
        },
        {
          "internalType": "address",
          "name": "account",
          "type": "address"
        }
      ],
      "name": "renounceRole",
      "outputs": [],
      "stateMutability": "nonpayable",
      "type": "function"
    },
    {
      "inputs": [
        {
          "internalType": "bytes32",
          "name": "role",
          "type": "bytes32"
        },
        {
          "internalType": "address",
          "name": "account",
          "type": "address"
        }
      ],
      "name": "revokeRole",
      "outputs": [],
      "stateMutability": "nonpayable",
      "type": "function"
    },
    {
      "inputs": [
        {
          "internalType": "bytes4",
          "name": "interfaceId",
          "type": "bytes4"
        }
      ],
      "name": "supportsInterface",
      "outputs": [
        {
          "internalType": "bool",
          "name": "",
          "type": "bool"
        }
      ],
      "stateMutability": "view",
      "type": "function"
    },
    {
      "inputs": [
        {
          "internalType": "address",
          "name": "account",
          "type": "address"
        }
      ],
      "name": "isAdmin",
      "outputs": [
        {
          "internalType": "bool",
          "name": "",
          "type": "bool"
        }
      ],
      "stateMutability": "view",
      "type": "function"
    },
    {
      "inputs": [
        {
          "internalType": "address",
          "name": "account",
          "type": "address"
        }
      ],
      "name": "isFaculty",
      "outputs": [
        {
          "internalType": "bool",
          "name": "",
          "type": "bool"
        }
      ],
      "stateMutability": "view",
      "type": "function"
    },
    {
      "inputs": [
        {
          "internalType": "address",
          "name": "account",
          "type": "address"
        }
      ],
      "name": "addAdmin",
      "outputs": [],
      "stateMutability": "nonpayable",
      "type": "function"
    },
    {
      "inputs": [
        {
          "internalType": "address",
          "name": "account",
          "type": "address"
        }
      ],
      "name": "addFaculty",
      "outputs": [],
      "stateMutability": "nonpayable",
      "type": "function"
    },
    {
      "inputs": [
        {
          "internalType": "address[]",
          "name": "_array",
          "type": "address[]"
        }
      ],
      "name": "multiAddFaculty",
      "outputs": [],
      "stateMutability": "nonpayable",
      "type": "function"
    },
    {
      "inputs": [
        {
          "internalType": "address",
          "name": "account",
          "type": "address"
        }
      ],
      "name": "removeAdmin",
      "outputs": [],
      "stateMutability": "nonpayable",
      "type": "function"
    },
    {
      "inputs": [
        {
          "internalType": "address",
          "name": "account",
          "type": "address"
        }
      ],
      "name": "removeFaculty",
      "outputs": [],
      "stateMutability": "nonpayable",
      "type": "function"
    },
    {
      "inputs": [],
      "name": "getOwner",
      "outputs": [
        {
          "internalType": "address",
          "name": "",
          "type": "address"
        }
      ],
      "stateMutability": "view",
      "type": "function"
    },
    {
      "inputs": [
        {
          "internalType": "string",
          "name": "_id",
          "type": "string"
        },
        {
          "internalType": "address",
          "name": "_address",
          "type": "address"
        }
      ],
      "name": "addStudentAddress",
      "outputs": [],
      "stateMutability": "nonpayable",
      "type": "function"
    },
    {
      "inputs": [
        {
          "components": [
            {
              "internalType": "string",
              "name": "id",
              "type": "string"
            },
            {
              "internalType": "address",
              "name": "addr",
              "type": "address"
            }
          ],
          "internalType": "struct RoleControl.IdAddress[]",
          "name": "_array",
          "type": "tuple[]"
        }
      ],
      "name": "multiAddStudentAddress",
      "outputs": [],
      "stateMutability": "nonpayable",
      "type": "function"
    },
    {
      "inputs": [
        {
          "internalType": "address",
          "name": "account",
          "type": "address"
        }
      ],
      "name": "isStudent",
      "outputs": [
        {
          "internalType": "bool",
          "name": "",
          "type": "bool"
        }
      ],
      "stateMutability": "view",
      "type": "function"
    }
  ],
  "bytecode": "0x60806040523480156200001157600080fd5b5060405162001b8738038062001b87833981016040819052620000349162000254565b6001600160a01b0381166200004857600080fd5b600280546001600160a01b0319166001600160a01b03831617905562000070600082620000a4565b6200009d7f573a495ec6f39d095bd4855f18069a9236d77216cfb96e453909f2408c333cfa6000620000b4565b5062000286565b620000b08282620000ff565b5050565b600082815260208190526040808220600101805490849055905190918391839186917fbd79b86ffe0ab8e8776151514217cd7cacd52c909f66475c3af44e129f0b00ff9190a4505050565b6200011682826200014260201b62000e0c1760201c565b60008281526001602090815260409091206200013d91839062000eaa620001e2821b17901c565b505050565b6000828152602081815260408083206001600160a01b038516845290915290205460ff16620000b0576000828152602081815260408083206001600160a01b03851684529091529020805460ff191660011790556200019e3390565b6001600160a01b0316816001600160a01b0316837f2f8788117e7eff1d82e926ec794901d17c78024a50270940304540a733656f0d60405160405180910390a45050565b6000620001f9836001600160a01b03841662000202565b90505b92915050565b60008181526001830160205260408120546200024b57508154600181810184556000848152602080822090930184905584548482528286019093526040902091909155620001fc565b506000620001fc565b6000602082840312156200026757600080fd5b81516001600160a01b03811681146200027f57600080fd5b9392505050565b6118f180620002966000396000f3fe608060405234801561001057600080fd5b50600436106101775760003560e01c806382f7d392116100d8578063a217fddf1161008c578063ca15c87311610066578063ca15c8731461035e578063d547741f14610371578063f408977b1461038457600080fd5b8063a217fddf14610330578063c2a7870214610338578063c8360ce81461034b57600080fd5b80639010d07c116100bd5780639010d07c146102d357806391d14854146102e657806393a865321461031d57600080fd5b806382f7d39214610283578063893d20e8146102ae57600080fd5b806336568abe1161012f57806362f746d21161011457806362f746d2146102365780636fe3ceb814610249578063704802751461027057600080fd5b806336568abe14610210578063396ff3ed1461022357600080fd5b8063248a9ca311610160578063248a9ca3146101b957806324d7806c146101ea5780632f2ff15d146101fd57600080fd5b806301ffc9a71461017c5780631785f53c146101a4575b600080fd5b61018f61018a366004611461565b610397565b60405190151581526020015b60405180910390f35b6101b76101b23660046114bf565b6103f3565b005b6101dc6101c73660046114da565b60009081526020819052604090206001015490565b60405190815260200161019b565b61018f6101f83660046114bf565b610453565b6101b761020b3660046114f3565b610493565b6101b761021e3660046114f3565b6104bd565b6101b76102313660046114bf565b610549565b6101b761024436600461156b565b61067c565b6101dc7f573a495ec6f39d095bd4855f18069a9236d77216cfb96e453909f2408c333cfa81565b6101b761027e3660046114bf565b610895565b61018f6102913660046114bf565b6001600160a01b0316600090815260046020526040902054151590565b6002546001600160a01b03165b6040516001600160a01b03909116815260200161019b565b6102bb6102e13660046115ad565b6109a9565b61018f6102f43660046114f3565b6000918252602082815260408084206001600160a01b0393909316845291905290205460ff1690565b6101b761032b3660046114bf565b6109c8565b6101dc600081565b61018f6103463660046114bf565b610a3f565b6101b761035936600461156b565b610a7f565b6101dc61036c3660046114da565b610bf0565b6101b761037f3660046114f3565b610c07565b6101b76103923660046115e5565b610c2c565b60007fffffffff0000000000000000000000000000000000000000000000000000000082167f5a05180f0000000000000000000000000000000000000000000000000000000014806103ed57506103ed82610ebf565b92915050565b6103fc33610453565b6104455760405162461bcd60e51b81526020600482015260156024820152742932b9ba3934b1ba32b2103a379030b236b4b7399760591b60448201526064015b60405180910390fd5b610450600082610c07565b50565b6001600160a01b03811660009081527fad3228b676f7d3cd4284a5443f17f1962b36e491b30a40b2405849e597ba5fb5602052604081205460ff166103ed565b6000828152602081905260409020600101546104ae81610f56565b6104b88383610f60565b505050565b6001600160a01b038116331461053b5760405162461bcd60e51b815260206004820152602f60248201527f416363657373436f6e74726f6c3a2063616e206f6e6c792072656e6f756e636560448201527f20726f6c657320666f722073656c660000000000000000000000000000000000606482015260840161043c565b6105458282610f82565b5050565b61055233610453565b6105965760405162461bcd60e51b81526020600482015260156024820152742932b9ba3934b1ba32b2103a379030b236b4b7399760591b604482015260640161043c565b61059f81610453565b156105ec5760405162461bcd60e51b815260206004820152601a60248201527f41646d696e2063616e6e6f74206265206120666163756c74792e000000000000604482015260640161043c565b6001600160a01b038116600090815260046020526040902054156106525760405162461bcd60e51b815260206004820152601b60248201527f53747564656e742063616e6e6f74206265206120666163756c74790000000000604482015260640161043c565b6104507f573a495ec6f39d095bd4855f18069a9236d77216cfb96e453909f2408c333cfa82610493565b61068533610453565b6106c95760405162461bcd60e51b81526020600482015260156024820152742932b9ba3934b1ba32b2103a379030b236b4b7399760591b604482015260640161043c565b60005b8181101561081f576106fe8383838181106106e9576106e961169e565b90506020020160208101906101f891906114bf565b1561074b5760405162461bcd60e51b815260206004820152601a60248201527f41646d696e2063616e6e6f74206265206120666163756c74792e000000000000604482015260640161043c565b6107758383838181106107605761076061169e565b905060200201602081019061029191906114bf565b156107c25760405162461bcd60e51b815260206004820152601b60248201527f53747564656e742063616e6e6f74206265206120666163756c74790000000000604482015260640161043c565b61080d7f573a495ec6f39d095bd4855f18069a9236d77216cfb96e453909f2408c333cfa8484848181106107f8576107f861169e565b905060200201602081019061020b91906114bf565b80610817816116ca565b9150506106cc565b50336001600160a01b03167fa66ae13e5605ba8fbc32dd24e75cd0f527810c48b5d0cbd0290be290217b2da06040516108899060208082526016908201527f6d756c7469416464466163756c74795375636365656400000000000000000000604082015260600190565b60405180910390a25050565b61089e33610453565b6108e25760405162461bcd60e51b81526020600482015260156024820152742932b9ba3934b1ba32b2103a379030b236b4b7399760591b604482015260640161043c565b6108eb81610a3f565b156109385760405162461bcd60e51b815260206004820152601b60248201527f466163756c74792063616e6e6f7420626520616e2061646d696e2e0000000000604482015260640161043c565b6001600160a01b0381166000908152600460205260409020541561099e5760405162461bcd60e51b815260206004820152601a60248201527f53747564656e742063616e6e6f7420626520616e2061646d696e000000000000604482015260640161043c565b610450600082610493565b60008281526001602052604081206109c19083610fa4565b9392505050565b6109d133610453565b610a155760405162461bcd60e51b81526020600482015260156024820152742932b9ba3934b1ba32b2103a379030b236b4b7399760591b604482015260640161043c565b6104507f573a495ec6f39d095bd4855f18069a9236d77216cfb96e453909f2408c333cfa82610c07565b6001600160a01b03811660009081527f2eebf4af96fc62a009d0e5de30d8a7b496a3072b6fe678a5d20e762eb812fd46602052604081205460ff166103ed565b610a8833610453565b610acc5760405162461bcd60e51b81526020600482015260156024820152742932b9ba3934b1ba32b2103a379030b236b4b7399760591b604482015260640161043c565b60005b81811015610b8657610b74838383818110610aec57610aec61169e565b9050602002810190610afe91906116e3565b610b089080611703565b8080601f016020809104026020016040519081016040528093929190818152602001838380828437600092019190915250879250869150859050818110610b5157610b5161169e565b9050602002810190610b6391906116e3565b6103929060408101906020016114bf565b80610b7e816116ca565b915050610acf565b50336001600160a01b03167fa66ae13e5605ba8fbc32dd24e75cd0f527810c48b5d0cbd0290be290217b2da06040516108899060208082526016908201527f6d756c746941646453747564656e745375636365656400000000000000000000604082015260600190565b60008181526001602052604081206103ed90610fb0565b600082815260208190526040902060010154610c2281610f56565b6104b88383610f82565b610c3533610453565b610c795760405162461bcd60e51b81526020600482015260156024820152742932b9ba3934b1ba32b2103a379030b236b4b7399760591b604482015260640161043c565b610c8281610453565b15610ccf5760405162461bcd60e51b815260206004820152601a60248201527f41646d696e2063616e6e6f7420626520612073747564656e742e000000000000604482015260640161043c565b610cd881610a3f565b15610d255760405162461bcd60e51b815260206004820152601c60248201527f466163756c74792063616e6e6f7420626520612073747564656e742e00000000604482015260640161043c565b600082604051602001610d38919061177a565b60408051601f19818403018152828252805160209182012060008181526003835283812080546001600160a01b0389167fffffffffffffffffffffffff0000000000000000000000000000000000000000909116811790915581526004909252919020819055915033907fa66ae13e5605ba8fbc32dd24e75cd0f527810c48b5d0cbd0290be290217b2da090610dff9060208082526011908201527f61646453747564656e7453756363656564000000000000000000000000000000604082015260600190565b60405180910390a2505050565b6000828152602081815260408083206001600160a01b038516845290915290205460ff16610545576000828152602081815260408083206001600160a01b03851684529091529020805460ff19166001179055610e663390565b6001600160a01b0316816001600160a01b0316837f2f8788117e7eff1d82e926ec794901d17c78024a50270940304540a733656f0d60405160405180910390a45050565b60006109c1836001600160a01b038416610fba565b60007fffffffff0000000000000000000000000000000000000000000000000000000082167f7965db0b0000000000000000000000000000000000000000000000000000000014806103ed57507f01ffc9a7000000000000000000000000000000000000000000000000000000007fffffffff000000000000000000000000000000000000000000000000000000008316146103ed565b6104508133611009565b610f6a8282610e0c565b60008281526001602052604090206104b89082610eaa565b610f8c8282611087565b60008281526001602052604090206104b89082611106565b60006109c1838361111b565b60006103ed825490565b6000818152600183016020526040812054611001575081546001818101845560008481526020808220909301849055845484825282860190935260409020919091556103ed565b5060006103ed565b6000828152602081815260408083206001600160a01b038516845290915290205460ff1661054557611045816001600160a01b03166014611145565b611050836020611145565b60405160200161106192919061178c565b60408051601f198184030181529082905262461bcd60e51b825261043c9160040161180d565b6000828152602081815260408083206001600160a01b038516845290915290205460ff1615610545576000828152602081815260408083206001600160a01b0385168085529252808320805460ff1916905551339285917ff6391f5c32d9c69d2a47ea670b442974b53935d1edc7fd64eb21e047a839171b9190a45050565b60006109c1836001600160a01b03841661136e565b60008260000182815481106111325761113261169e565b9060005260206000200154905092915050565b60606000611154836002611840565b61115f90600261185f565b67ffffffffffffffff811115611177576111776115cf565b6040519080825280601f01601f1916602001820160405280156111a1576020820181803683370190505b5090507f3000000000000000000000000000000000000000000000000000000000000000816000815181106111d8576111d861169e565b60200101907effffffffffffffffffffffffffffffffffffffffffffffffffffffffffffff1916908160001a9053507f78000000000000000000000000000000000000000000000000000000000000008160018151811061123b5761123b61169e565b60200101907effffffffffffffffffffffffffffffffffffffffffffffffffffffffffffff1916908160001a9053506000611277846002611840565b61128290600161185f565b90505b600181111561131f577f303132333435363738396162636465660000000000000000000000000000000085600f16601081106112c3576112c361169e565b1a60f81b8282815181106112d9576112d961169e565b60200101907effffffffffffffffffffffffffffffffffffffffffffffffffffffffffffff1916908160001a90535060049490941c9361131881611877565b9050611285565b5083156109c15760405162461bcd60e51b815260206004820181905260248201527f537472696e67733a20686578206c656e67746820696e73756666696369656e74604482015260640161043c565b6000818152600183016020526040812054801561145757600061139260018361188e565b85549091506000906113a69060019061188e565b905081811461140b5760008660000182815481106113c6576113c661169e565b90600052602060002001549050808760000184815481106113e9576113e961169e565b6000918252602080832090910192909255918252600188019052604090208390555b855486908061141c5761141c6118a5565b6001900381819060005260206000200160009055905585600101600086815260200190815260200160002060009055600193505050506103ed565b60009150506103ed565b60006020828403121561147357600080fd5b81357fffffffff00000000000000000000000000000000000000000000000000000000811681146109c157600080fd5b80356001600160a01b03811681146114ba57600080fd5b919050565b6000602082840312156114d157600080fd5b6109c1826114a3565b6000602082840312156114ec57600080fd5b5035919050565b6000806040838503121561150657600080fd5b82359150611516602084016114a3565b90509250929050565b60008083601f84011261153157600080fd5b50813567ffffffffffffffff81111561154957600080fd5b6020830191508360208260051b850101111561156457600080fd5b9250929050565b6000806020838503121561157e57600080fd5b823567ffffffffffffffff81111561159557600080fd5b6115a18582860161151f565b90969095509350505050565b600080604083850312156115c057600080fd5b50508035926020909101359150565b634e487b7160e01b600052604160045260246000fd5b600080604083850312156115f857600080fd5b823567ffffffffffffffff8082111561161057600080fd5b818501915085601f83011261162457600080fd5b813581811115611636576116366115cf565b604051601f8201601f19908116603f0116810190838211818310171561165e5761165e6115cf565b8160405282815288602084870101111561167757600080fd5b826020860160208301376000602084830101528096505050505050611516602084016114a3565b634e487b7160e01b600052603260045260246000fd5b634e487b7160e01b600052601160045260246000fd5b6000600182016116dc576116dc6116b4565b5060010190565b60008235603e198336030181126116f957600080fd5b9190910192915050565b6000808335601e1984360301811261171a57600080fd5b83018035915067ffffffffffffffff82111561173557600080fd5b60200191503681900382131561156457600080fd5b60005b8381101561176557818101518382015260200161174d565b83811115611774576000848401525b50505050565b600082516116f981846020870161174a565b7f416363657373436f6e74726f6c3a206163636f756e74200000000000000000008152600083516117c481601785016020880161174a565b7f206973206d697373696e6720726f6c6520000000000000000000000000000000601791840191820152835161180181602884016020880161174a565b01602801949350505050565b602081526000825180602084015261182c81604085016020870161174a565b601f01601f19169190910160400192915050565b600081600019048311821515161561185a5761185a6116b4565b500290565b60008219821115611872576118726116b4565b500190565b600081611886576118866116b4565b506000190190565b6000828210156118a0576118a06116b4565b500390565b634e487b7160e01b600052603160045260246000fdfea2646970667358221220c00dacf13564bdd29d045f366119c1911936709b852332d1483999555dd2eab964736f6c634300080e0033",
  "immutableReferences": {},
  "source": "// SPDX-License-Identifier: GPL3\r\n\r\npragma solidity ^0.8.12;\r\n\r\n// Import the OpenZeppelin AccessControl contract\r\nimport \"@openzeppelin/contracts/access/AccessControlEnumerable.sol\";\r\n\r\n// create control that extends OpenZeppelin Access Control\r\ncontract RoleControl is AccessControlEnumerable {\r\n    // keccak256 to create hash that identify constant in contract\r\n    bytes32 public constant FACULTY_ROLE = keccak256(\"FACULTY\"); // hash FACULTY as role constant\r\n    address private owner;\r\n    mapping(bytes32 => address) private _studentAddress;\r\n    mapping(address => bytes32) private _getStudentFromAddress;\r\n\r\n    struct IdAddress {\r\n        string id;\r\n        address addr;\r\n    }\r\n\r\n    event IndexedLog(address indexed sender, string message);\r\n\r\n    /*\r\n     * @dev Add 'root' to admin role.\r\n     */\r\n    constructor(address root) {\r\n        require(root != address(0));\r\n        owner = root;\r\n        // give msg.sender roles\r\n        _setupRole(DEFAULT_ADMIN_ROLE, root);\r\n        // Set role hierarchy\r\n        _setRoleAdmin(FACULTY_ROLE, DEFAULT_ADMIN_ROLE);\r\n    }\r\n\r\n    // Check to see if address has the ADMIN role\r\n    function isAdmin(address account) public view virtual returns (bool) {\r\n        return hasRole(DEFAULT_ADMIN_ROLE, account);\r\n    }\r\n\r\n    // Check to see if address has the FACULTY role\r\n\r\n    function isFaculty(address account) public view virtual returns (bool) {\r\n        return hasRole(FACULTY_ROLE, account);\r\n    }\r\n\r\n    // Modifier to check if msg.sender is admin.\r\n    modifier onlyAdmin() {\r\n        require(isAdmin(msg.sender), \"Restricted to admins.\");\r\n        _;\r\n    }\r\n\r\n    // Modifier to check if msg.sender is faculty.\r\n    modifier onlyFaculty() {\r\n        require(isFaculty(msg.sender), \"Restricted to faculty.\");\r\n        _;\r\n    }\r\n\r\n    // Grant admin privilege to an address.\r\n    function addAdmin(address account) external virtual onlyAdmin {\r\n        require(!isFaculty(account), \"Faculty cannot be an admin.\");\r\n        require(!isStudent(account), \"Student cannot be an admin\");\r\n        grantRole(DEFAULT_ADMIN_ROLE, account);\r\n    }\r\n\r\n    // Grant faculty privilege to an address. Restricted to Admins.\r\n    function addFaculty(address account) external virtual onlyAdmin {\r\n        require(!isAdmin(account), \"Admin cannot be a faculty.\");\r\n        require(!isStudent(account), \"Student cannot be a faculty\");\r\n        grantRole(FACULTY_ROLE, account);\r\n    }\r\n\r\n    // Grant faculty privilege to multiple addresses\r\n    function multiAddFaculty(address[] calldata _array)\r\n        external\r\n        virtual\r\n        onlyAdmin\r\n    {\r\n        for (uint256 i = 0; i < _array.length; i++) {\r\n            require(!isAdmin(_array[i]), \"Admin cannot be a faculty.\");\r\n            require(!isStudent(_array[i]), \"Student cannot be a faculty\");\r\n            grantRole(FACULTY_ROLE, _array[i]);\r\n        }\r\n        emit IndexedLog(msg.sender, \"multiAddFacultySucceed\");\r\n    }\r\n\r\n    // Remove admin privilege on an address.\r\n    function removeAdmin(address account) external virtual onlyAdmin {\r\n        revokeRole(DEFAULT_ADMIN_ROLE, account);\r\n    }\r\n\r\n    // Remove faculty privilege on an address.\r\n    function removeFaculty(address account) external virtual onlyAdmin {\r\n        revokeRole(FACULTY_ROLE, account);\r\n    }\r\n\r\n    // Get owner of contract\r\n    function getOwner() public view returns (address) {\r\n        return owner;\r\n    }\r\n\r\n    /**\r\n     * @dev Add student address to mapping.\r\n     *\r\n     * Requirements:\r\n     *\r\n     * - The caller must be an admin.\r\n     */\r\n    function addStudentAddress(string memory _id, address _address)\r\n        public\r\n        onlyAdmin\r\n    {\r\n        require(!isAdmin(_address), \"Admin cannot be a student.\");\r\n        require(!isFaculty(_address), \"Faculty cannot be a student.\");\r\n        bytes32 encryptedId = keccak256(abi.encodePacked(_id));\r\n        _studentAddress[encryptedId] = _address;\r\n        _getStudentFromAddress[_address] = encryptedId;\r\n        emit IndexedLog(msg.sender, \"addStudentSucceed\");\r\n    }\r\n\r\n    /**\r\n     * @dev Takes in an array of studentAddresses and calls addStudentAddress.\r\n     *\r\n     * Requirements:\r\n     *\r\n     * - The caller must be an admin.\r\n     */\r\n    function multiAddStudentAddress(IdAddress[] calldata _array)\r\n        external\r\n        onlyAdmin\r\n    {\r\n        for (uint256 i = 0; i < _array.length; i++) {\r\n            addStudentAddress(_array[i].id, _array[i].addr);\r\n        }\r\n        emit IndexedLog(msg.sender, \"multiAddStudentSucceed\");\r\n    }\r\n\r\n    /**\r\n     * @dev For contract to getStudentAddress\r\n     *\r\n     */\r\n    function _getStudentAddress(string memory _id)\r\n        internal\r\n        view\r\n        returns (address)\r\n    {\r\n        bytes32 encryptedId = keccak256(abi.encodePacked(_id));\r\n        require(\r\n            _studentAddress[encryptedId] != address(0),\r\n            \"Student does not exist.\"\r\n        );\r\n        return _studentAddress[encryptedId];\r\n    }\r\n\r\n    /**\r\n     * @dev Check if address is student\r\n     *\r\n     */\r\n    function isStudent(address account) public view returns (bool) {\r\n        return _getStudentFromAddress[account] != 0;\r\n    }\r\n}\r\n",
  "sourcePath": "C:\\Users\\jaspz\\Documents\\GitHub\\ITP\\Blockchain-Trusted-Model\\contracts\\RoleControl.sol",
  "compiler": {
    "name": "solc",
    "version": "0.8.14+commit.80d49f37.Emscripten.clang"
  },
  "schemaVersion": "3.4.7",
  "updatedAt": "2022-07-25T12:18:42.094Z",
  "devdoc": {
    "kind": "dev",
    "methods": {
      "addStudentAddress(string,address)": {
        "details": "Add student address to mapping. Requirements: - The caller must be an admin."
      },
      "getRoleAdmin(bytes32)": {
        "details": "Returns the admin role that controls `role`. See {grantRole} and {revokeRole}. To change a role's admin, use {_setRoleAdmin}."
      },
      "getRoleMember(bytes32,uint256)": {
        "details": "Returns one of the accounts that have `role`. `index` must be a value between 0 and {getRoleMemberCount}, non-inclusive. Role bearers are not sorted in any particular way, and their ordering may change at any point. WARNING: When using {getRoleMember} and {getRoleMemberCount}, make sure you perform all queries on the same block. See the following https://forum.openzeppelin.com/t/iterating-over-elements-on-enumerableset-in-openzeppelin-contracts/2296[forum post] for more information."
      },
      "getRoleMemberCount(bytes32)": {
        "details": "Returns the number of accounts that have `role`. Can be used together with {getRoleMember} to enumerate all bearers of a role."
      },
      "grantRole(bytes32,address)": {
        "details": "Grants `role` to `account`. If `account` had not been already granted `role`, emits a {RoleGranted} event. Requirements: - the caller must have ``role``'s admin role. May emit a {RoleGranted} event."
      },
      "hasRole(bytes32,address)": {
        "details": "Returns `true` if `account` has been granted `role`."
      },
      "isStudent(address)": {
        "details": "Check if address is student"
      },
      "multiAddStudentAddress((string,address)[])": {
        "details": "Takes in an array of studentAddresses and calls addStudentAddress. Requirements: - The caller must be an admin."
      },
      "renounceRole(bytes32,address)": {
        "details": "Revokes `role` from the calling account. Roles are often managed via {grantRole} and {revokeRole}: this function's purpose is to provide a mechanism for accounts to lose their privileges if they are compromised (such as when a trusted device is misplaced). If the calling account had been revoked `role`, emits a {RoleRevoked} event. Requirements: - the caller must be `account`. May emit a {RoleRevoked} event."
      },
      "revokeRole(bytes32,address)": {
        "details": "Revokes `role` from `account`. If `account` had been granted `role`, emits a {RoleRevoked} event. Requirements: - the caller must have ``role``'s admin role. May emit a {RoleRevoked} event."
      },
      "supportsInterface(bytes4)": {
        "details": "See {IERC165-supportsInterface}."
      }
    },
    "version": 1
  },
  "userdoc": {
    "kind": "user",
    "methods": {},
    "version": 1
  }
}