{
  "contractName": "RoleControl",
  "abi": [
    {
      "inputs": [
        {
          "internalType": "address",
          "name": "root",
          "type": "address"
        }
      ],
      "stateMutability": "nonpayable",
      "type": "constructor"
    },
    {
      "anonymous": false,
      "inputs": [
        {
          "indexed": true,
          "internalType": "bytes32",
          "name": "role",
          "type": "bytes32"
        },
        {
          "indexed": true,
          "internalType": "bytes32",
          "name": "previousAdminRole",
          "type": "bytes32"
        },
        {
          "indexed": true,
          "internalType": "bytes32",
          "name": "newAdminRole",
          "type": "bytes32"
        }
      ],
      "name": "RoleAdminChanged",
      "type": "event"
    },
    {
      "anonymous": false,
      "inputs": [
        {
          "indexed": true,
          "internalType": "bytes32",
          "name": "role",
          "type": "bytes32"
        },
        {
          "indexed": true,
          "internalType": "address",
          "name": "account",
          "type": "address"
        },
        {
          "indexed": true,
          "internalType": "address",
          "name": "sender",
          "type": "address"
        }
      ],
      "name": "RoleGranted",
      "type": "event"
    },
    {
      "anonymous": false,
      "inputs": [
        {
          "indexed": true,
          "internalType": "bytes32",
          "name": "role",
          "type": "bytes32"
        },
        {
          "indexed": true,
          "internalType": "address",
          "name": "account",
          "type": "address"
        },
        {
          "indexed": true,
          "internalType": "address",
          "name": "sender",
          "type": "address"
        }
      ],
      "name": "RoleRevoked",
      "type": "event"
    },
    {
      "inputs": [],
      "name": "DEFAULT_ADMIN_ROLE",
      "outputs": [
        {
          "internalType": "bytes32",
          "name": "",
          "type": "bytes32"
        }
      ],
      "stateMutability": "view",
      "type": "function"
    },
    {
      "inputs": [],
      "name": "FACULTY_ROLE",
      "outputs": [
        {
          "internalType": "bytes32",
          "name": "",
          "type": "bytes32"
        }
      ],
      "stateMutability": "view",
      "type": "function"
    },
    {
      "inputs": [
        {
          "internalType": "bytes32",
          "name": "role",
          "type": "bytes32"
        }
      ],
      "name": "getRoleAdmin",
      "outputs": [
        {
          "internalType": "bytes32",
          "name": "",
          "type": "bytes32"
        }
      ],
      "stateMutability": "view",
      "type": "function"
    },
    {
      "inputs": [
        {
          "internalType": "bytes32",
          "name": "role",
          "type": "bytes32"
        },
        {
          "internalType": "uint256",
          "name": "index",
          "type": "uint256"
        }
      ],
      "name": "getRoleMember",
      "outputs": [
        {
          "internalType": "address",
          "name": "",
          "type": "address"
        }
      ],
      "stateMutability": "view",
      "type": "function"
    },
    {
      "inputs": [
        {
          "internalType": "bytes32",
          "name": "role",
          "type": "bytes32"
        }
      ],
      "name": "getRoleMemberCount",
      "outputs": [
        {
          "internalType": "uint256",
          "name": "",
          "type": "uint256"
        }
      ],
      "stateMutability": "view",
      "type": "function"
    },
    {
      "inputs": [
        {
          "internalType": "bytes32",
          "name": "role",
          "type": "bytes32"
        },
        {
          "internalType": "address",
          "name": "account",
          "type": "address"
        }
      ],
      "name": "grantRole",
      "outputs": [],
      "stateMutability": "nonpayable",
      "type": "function"
    },
    {
      "inputs": [
        {
          "internalType": "bytes32",
          "name": "role",
          "type": "bytes32"
        },
        {
          "internalType": "address",
          "name": "account",
          "type": "address"
        }
      ],
      "name": "hasRole",
      "outputs": [
        {
          "internalType": "bool",
          "name": "",
          "type": "bool"
        }
      ],
      "stateMutability": "view",
      "type": "function"
    },
    {
      "inputs": [
        {
          "internalType": "bytes32",
          "name": "role",
          "type": "bytes32"
        },
        {
          "internalType": "address",
          "name": "account",
          "type": "address"
        }
      ],
      "name": "renounceRole",
      "outputs": [],
      "stateMutability": "nonpayable",
      "type": "function"
    },
    {
      "inputs": [
        {
          "internalType": "bytes32",
          "name": "role",
          "type": "bytes32"
        },
        {
          "internalType": "address",
          "name": "account",
          "type": "address"
        }
      ],
      "name": "revokeRole",
      "outputs": [],
      "stateMutability": "nonpayable",
      "type": "function"
    },
    {
      "inputs": [
        {
          "internalType": "bytes4",
          "name": "interfaceId",
          "type": "bytes4"
        }
      ],
      "name": "supportsInterface",
      "outputs": [
        {
          "internalType": "bool",
          "name": "",
          "type": "bool"
        }
      ],
      "stateMutability": "view",
      "type": "function"
    },
    {
      "inputs": [
        {
          "internalType": "address",
          "name": "account",
          "type": "address"
        }
      ],
      "name": "isAdmin",
      "outputs": [
        {
          "internalType": "bool",
          "name": "",
          "type": "bool"
        }
      ],
      "stateMutability": "view",
      "type": "function"
    },
    {
      "inputs": [
        {
          "internalType": "address",
          "name": "account",
          "type": "address"
        }
      ],
      "name": "isFaculty",
      "outputs": [
        {
          "internalType": "bool",
          "name": "",
          "type": "bool"
        }
      ],
      "stateMutability": "view",
      "type": "function"
    },
    {
      "inputs": [
        {
          "internalType": "address",
          "name": "account",
          "type": "address"
        }
      ],
      "name": "addAdmin",
      "outputs": [],
      "stateMutability": "nonpayable",
      "type": "function"
    },
    {
      "inputs": [
        {
          "internalType": "address",
          "name": "account",
          "type": "address"
        }
      ],
      "name": "addFaculty",
      "outputs": [],
      "stateMutability": "nonpayable",
      "type": "function"
    },
    {
      "inputs": [
        {
          "internalType": "address",
          "name": "account",
          "type": "address"
        }
      ],
      "name": "removeAdmin",
      "outputs": [],
      "stateMutability": "nonpayable",
      "type": "function"
    },
    {
      "inputs": [
        {
          "internalType": "address",
          "name": "account",
          "type": "address"
        }
      ],
      "name": "removeFaculty",
      "outputs": [],
      "stateMutability": "nonpayable",
      "type": "function"
    },
    {
      "inputs": [],
      "name": "getOwner",
      "outputs": [
        {
          "internalType": "address",
          "name": "",
          "type": "address"
        }
      ],
      "stateMutability": "view",
      "type": "function"
    }
  ],
  "bytecode": "0x60806040523480156200001157600080fd5b506040516200122c3803806200122c833981016040819052620000349162000254565b6001600160a01b0381166200004857600080fd5b600280546001600160a01b0319166001600160a01b03831617905562000070600082620000a4565b6200009d7f573a495ec6f39d095bd4855f18069a9236d77216cfb96e453909f2408c333cfa6000620000b4565b5062000286565b620000b08282620000ff565b5050565b600082815260208190526040808220600101805490849055905190918391839186917fbd79b86ffe0ab8e8776151514217cd7cacd52c909f66475c3af44e129f0b00ff9190a4505050565b6200011682826200014260201b6200068a1760201c565b60008281526001602090815260409091206200013d91839062000728620001e2821b17901c565b505050565b6000828152602081815260408083206001600160a01b038516845290915290205460ff16620000b0576000828152602081815260408083206001600160a01b03851684529091529020805460ff191660011790556200019e3390565b6001600160a01b0316816001600160a01b0316837f2f8788117e7eff1d82e926ec794901d17c78024a50270940304540a733656f0d60405160405180910390a45050565b6000620001f9836001600160a01b03841662000202565b90505b92915050565b60008181526001830160205260408120546200024b57508154600181810184556000848152602080822090930184905584548482528286019093526040902091909155620001fc565b506000620001fc565b6000602082840312156200026757600080fd5b81516001600160a01b03811681146200027f57600080fd5b9392505050565b610f9680620002966000396000f3fe608060405234801561001057600080fd5b506004361061011b5760003560e01c806370480275116100b257806393a8653211610081578063c2a7870211610066578063c2a787021461029e578063ca15c873146102b1578063d547741f146102c457600080fd5b806393a8653214610283578063a217fddf1461029657600080fd5b80637048027514610201578063893d20e8146102145780639010d07c1461023957806391d148541461024c57600080fd5b80632f2ff15d116100ee5780632f2ff15d146101a157806336568abe146101b4578063396ff3ed146101c75780636fe3ceb8146101da57600080fd5b806301ffc9a7146101205780631785f53c14610148578063248a9ca31461015d57806324d7806c1461018e575b600080fd5b61013361012e366004610cdf565b6102d7565b60405190151581526020015b60405180910390f35b61015b610156366004610d3d565b610333565b005b61018061016b366004610d58565b60009081526020819052604090206001015490565b60405190815260200161013f565b61013361019c366004610d3d565b61039b565b61015b6101af366004610d71565b6103db565b61015b6101c2366004610d71565b610405565b61015b6101d5366004610d3d565b610491565b6101807f573a495ec6f39d095bd4855f18069a9236d77216cfb96e453909f2408c333cfa81565b61015b61020f366004610d3d565b610510565b6002546001600160a01b03165b6040516001600160a01b03909116815260200161013f565b610221610247366004610d9d565b610570565b61013361025a366004610d71565b6000918252602082815260408084206001600160a01b0393909316845291905290205460ff1690565b61015b610291366004610d3d565b61058f565b610180600081565b6101336102ac366004610d3d565b61060e565b6101806102bf366004610d58565b61064e565b61015b6102d2366004610d71565b610665565b60007fffffffff0000000000000000000000000000000000000000000000000000000082167f5a05180f00000000000000000000000000000000000000000000000000000000148061032d575061032d8261073d565b92915050565b61033c3361039b565b61038d5760405162461bcd60e51b815260206004820152601560248201527f5265737472696374656420746f2061646d696e732e000000000000000000000060448201526064015b60405180910390fd5b610398600082610665565b50565b6001600160a01b03811660009081527fad3228b676f7d3cd4284a5443f17f1962b36e491b30a40b2405849e597ba5fb5602052604081205460ff1661032d565b6000828152602081905260409020600101546103f6816107d4565b61040083836107de565b505050565b6001600160a01b03811633146104835760405162461bcd60e51b815260206004820152602f60248201527f416363657373436f6e74726f6c3a2063616e206f6e6c792072656e6f756e636560448201527f20726f6c657320666f722073656c6600000000000000000000000000000000006064820152608401610384565b61048d8282610800565b5050565b61049a3361039b565b6104e65760405162461bcd60e51b815260206004820152601560248201527f5265737472696374656420746f2061646d696e732e00000000000000000000006044820152606401610384565b6103987f573a495ec6f39d095bd4855f18069a9236d77216cfb96e453909f2408c333cfa826103db565b6105193361039b565b6105655760405162461bcd60e51b815260206004820152601560248201527f5265737472696374656420746f2061646d696e732e00000000000000000000006044820152606401610384565b6103986000826103db565b60008281526001602052604081206105889083610822565b9392505050565b6105983361039b565b6105e45760405162461bcd60e51b815260206004820152601560248201527f5265737472696374656420746f2061646d696e732e00000000000000000000006044820152606401610384565b6103987f573a495ec6f39d095bd4855f18069a9236d77216cfb96e453909f2408c333cfa82610665565b6001600160a01b03811660009081527f2eebf4af96fc62a009d0e5de30d8a7b496a3072b6fe678a5d20e762eb812fd46602052604081205460ff1661032d565b600081815260016020526040812061032d9061082e565b600082815260208190526040902060010154610680816107d4565b6104008383610800565b6000828152602081815260408083206001600160a01b038516845290915290205460ff1661048d576000828152602081815260408083206001600160a01b03851684529091529020805460ff191660011790556106e43390565b6001600160a01b0316816001600160a01b0316837f2f8788117e7eff1d82e926ec794901d17c78024a50270940304540a733656f0d60405160405180910390a45050565b6000610588836001600160a01b038416610838565b60007fffffffff0000000000000000000000000000000000000000000000000000000082167f7965db0b00000000000000000000000000000000000000000000000000000000148061032d57507f01ffc9a7000000000000000000000000000000000000000000000000000000007fffffffff0000000000000000000000000000000000000000000000000000000083161461032d565b6103988133610887565b6107e8828261068a565b60008281526001602052604090206104009082610728565b61080a8282610905565b60008281526001602052604090206104009082610984565b60006105888383610999565b600061032d825490565b600081815260018301602052604081205461087f5750815460018181018455600084815260208082209093018490558454848252828601909352604090209190915561032d565b50600061032d565b6000828152602081815260408083206001600160a01b038516845290915290205460ff1661048d576108c3816001600160a01b031660146109c3565b6108ce8360206109c3565b6040516020016108df929190610def565b60408051601f198184030181529082905262461bcd60e51b825261038491600401610e70565b6000828152602081815260408083206001600160a01b038516845290915290205460ff161561048d576000828152602081815260408083206001600160a01b0385168085529252808320805460ff1916905551339285917ff6391f5c32d9c69d2a47ea670b442974b53935d1edc7fd64eb21e047a839171b9190a45050565b6000610588836001600160a01b038416610bec565b60008260000182815481106109b0576109b0610ea3565b9060005260206000200154905092915050565b606060006109d2836002610ecf565b6109dd906002610eee565b67ffffffffffffffff8111156109f5576109f5610f06565b6040519080825280601f01601f191660200182016040528015610a1f576020820181803683370190505b5090507f300000000000000000000000000000000000000000000000000000000000000081600081518110610a5657610a56610ea3565b60200101907effffffffffffffffffffffffffffffffffffffffffffffffffffffffffffff1916908160001a9053507f780000000000000000000000000000000000000000000000000000000000000081600181518110610ab957610ab9610ea3565b60200101907effffffffffffffffffffffffffffffffffffffffffffffffffffffffffffff1916908160001a9053506000610af5846002610ecf565b610b00906001610eee565b90505b6001811115610b9d577f303132333435363738396162636465660000000000000000000000000000000085600f1660108110610b4157610b41610ea3565b1a60f81b828281518110610b5757610b57610ea3565b60200101907effffffffffffffffffffffffffffffffffffffffffffffffffffffffffffff1916908160001a90535060049490941c93610b9681610f1c565b9050610b03565b5083156105885760405162461bcd60e51b815260206004820181905260248201527f537472696e67733a20686578206c656e67746820696e73756666696369656e746044820152606401610384565b60008181526001830160205260408120548015610cd5576000610c10600183610f33565b8554909150600090610c2490600190610f33565b9050818114610c89576000866000018281548110610c4457610c44610ea3565b9060005260206000200154905080876000018481548110610c6757610c67610ea3565b6000918252602080832090910192909255918252600188019052604090208390555b8554869080610c9a57610c9a610f4a565b60019003818190600052602060002001600090559055856001016000868152602001908152602001600020600090556001935050505061032d565b600091505061032d565b600060208284031215610cf157600080fd5b81357fffffffff000000000000000000000000000000000000000000000000000000008116811461058857600080fd5b80356001600160a01b0381168114610d3857600080fd5b919050565b600060208284031215610d4f57600080fd5b61058882610d21565b600060208284031215610d6a57600080fd5b5035919050565b60008060408385031215610d8457600080fd5b82359150610d9460208401610d21565b90509250929050565b60008060408385031215610db057600080fd5b50508035926020909101359150565b60005b83811015610dda578181015183820152602001610dc2565b83811115610de9576000848401525b50505050565b7f416363657373436f6e74726f6c3a206163636f756e7420000000000000000000815260008351610e27816017850160208801610dbf565b7f206973206d697373696e6720726f6c65200000000000000000000000000000006017918401918201528351610e64816028840160208801610dbf565b01602801949350505050565b6020815260008251806020840152610e8f816040850160208701610dbf565b601f01601f19169190910160400192915050565b634e487b7160e01b600052603260045260246000fd5b634e487b7160e01b600052601160045260246000fd5b6000816000190483118215151615610ee957610ee9610eb9565b500290565b60008219821115610f0157610f01610eb9565b500190565b634e487b7160e01b600052604160045260246000fd5b600081610f2b57610f2b610eb9565b506000190190565b600082821015610f4557610f45610eb9565b500390565b634e487b7160e01b600052603160045260246000fdfea2646970667358221220bb150b3aee7a30b78defcdd5ff077b132bae170a4a24b8ae6c59ab0d4e2c2a4864736f6c634300080e0033",
  "immutableReferences": {},
  "source": "// SPDX-License-Identifier: GPL3\r\n\r\npragma solidity ^0.8.0;\r\n\r\n// Import the OpenZeppelin AccessControl contract\r\nimport \"@openzeppelin/contracts/access/AccessControlEnumerable.sol\";\r\n\r\n// create control that extends OpenZeppelin Access Control\r\ncontract RoleControl is AccessControlEnumerable {\r\n    // keccak256 to create hash that identify constant in contract\r\n    bytes32 public constant FACULTY_ROLE = keccak256(\"FACULTY\"); // hash FACULTY as role constant\r\n    address private owner;\r\n\r\n    /*\r\n     * @dev Add 'root' to admin role.\r\n     */\r\n    constructor(address root) {\r\n        require(root != address(0));\r\n        owner = root;\r\n        // give msg.sender roles\r\n        _setupRole(DEFAULT_ADMIN_ROLE, root);\r\n        // Set role hierarchy\r\n        _setRoleAdmin(FACULTY_ROLE, DEFAULT_ADMIN_ROLE);\r\n    }\r\n\r\n    // Check to see if address has the ADMIN role\r\n    function isAdmin(address account) public view virtual returns (bool) {\r\n        return hasRole(DEFAULT_ADMIN_ROLE, account);\r\n    }\r\n\r\n    // Check to see if address has the FACULTY role\r\n\r\n    function isFaculty(address account) public view virtual returns (bool) {\r\n        return hasRole(FACULTY_ROLE, account);\r\n    }\r\n\r\n    // Modifier to check if msg.sender is admin.\r\n    modifier onlyAdmin() {\r\n        require(isAdmin(msg.sender), \"Restricted to admins.\");\r\n        _;\r\n    }\r\n\r\n    // Modifier to check if msg.sender is faculty.\r\n    modifier onlyFaculty() {\r\n        require(isFaculty(msg.sender), \"Restricted to faculty.\");\r\n        _;\r\n    }\r\n\r\n    // Grant admin privilege to an address.\r\n    function addAdmin(address account) external virtual onlyAdmin {\r\n        grantRole(DEFAULT_ADMIN_ROLE, account);\r\n    }\r\n\r\n    // Grant faculty privilege to an address. Restricted to Admins.\r\n    function addFaculty(address account) external virtual onlyAdmin {\r\n        grantRole(FACULTY_ROLE, account);\r\n    }\r\n\r\n    // Remove admin privilege on an address.\r\n    function removeAdmin(address account) external virtual onlyAdmin {\r\n        revokeRole(DEFAULT_ADMIN_ROLE, account);\r\n    }\r\n\r\n    // Remove faculty privilege on an address.\r\n    function removeFaculty(address account) external virtual onlyAdmin {\r\n        revokeRole(FACULTY_ROLE, account);\r\n    }\r\n\r\n    // Get owner of contract\r\n    function getOwner() public view returns (address) {\r\n        return owner;\r\n    }\r\n}\r\n",
  "sourcePath": "C:\\Users\\ngjun\\Downloads\\Blockchain-Trusted-Model\\contracts\\RoleControl.sol",
  "compiler": {
    "name": "solc",
    "version": "0.8.14+commit.80d49f37.Emscripten.clang"
  },
  "schemaVersion": "3.4.8",
  "updatedAt": "2022-07-17T09:29:52.612Z",
  "devdoc": {
    "kind": "dev",
    "methods": {
      "getRoleAdmin(bytes32)": {
        "details": "Returns the admin role that controls `role`. See {grantRole} and {revokeRole}. To change a role's admin, use {_setRoleAdmin}."
      },
      "getRoleMember(bytes32,uint256)": {
        "details": "Returns one of the accounts that have `role`. `index` must be a value between 0 and {getRoleMemberCount}, non-inclusive. Role bearers are not sorted in any particular way, and their ordering may change at any point. WARNING: When using {getRoleMember} and {getRoleMemberCount}, make sure you perform all queries on the same block. See the following https://forum.openzeppelin.com/t/iterating-over-elements-on-enumerableset-in-openzeppelin-contracts/2296[forum post] for more information."
      },
      "getRoleMemberCount(bytes32)": {
        "details": "Returns the number of accounts that have `role`. Can be used together with {getRoleMember} to enumerate all bearers of a role."
      },
      "grantRole(bytes32,address)": {
        "details": "Grants `role` to `account`. If `account` had not been already granted `role`, emits a {RoleGranted} event. Requirements: - the caller must have ``role``'s admin role. May emit a {RoleGranted} event."
      },
      "hasRole(bytes32,address)": {
        "details": "Returns `true` if `account` has been granted `role`."
      },
      "renounceRole(bytes32,address)": {
        "details": "Revokes `role` from the calling account. Roles are often managed via {grantRole} and {revokeRole}: this function's purpose is to provide a mechanism for accounts to lose their privileges if they are compromised (such as when a trusted device is misplaced). If the calling account had been revoked `role`, emits a {RoleRevoked} event. Requirements: - the caller must be `account`. May emit a {RoleRevoked} event."
      },
      "revokeRole(bytes32,address)": {
        "details": "Revokes `role` from `account`. If `account` had been granted `role`, emits a {RoleRevoked} event. Requirements: - the caller must have ``role``'s admin role. May emit a {RoleRevoked} event."
      },
      "supportsInterface(bytes4)": {
        "details": "See {IERC165-supportsInterface}."
      }
    },
    "version": 1
  },
  "userdoc": {
    "kind": "user",
    "methods": {},
    "version": 1
  }
}