{
  "contractName": "SITNFT",
  "abi": [
    {
      "inputs": [],
      "stateMutability": "nonpayable",
      "type": "constructor"
    },
    {
      "anonymous": false,
      "inputs": [
        {
          "indexed": true,
          "internalType": "address",
          "name": "owner",
          "type": "address"
        },
        {
          "indexed": true,
          "internalType": "address",
          "name": "approved",
          "type": "address"
        },
        {
          "indexed": true,
          "internalType": "uint256",
          "name": "tokenId",
          "type": "uint256"
        }
      ],
      "name": "Approval",
      "type": "event"
    },
    {
      "anonymous": false,
      "inputs": [
        {
          "indexed": true,
          "internalType": "address",
          "name": "owner",
          "type": "address"
        },
        {
          "indexed": true,
          "internalType": "address",
          "name": "operator",
          "type": "address"
        },
        {
          "indexed": false,
          "internalType": "bool",
          "name": "approved",
          "type": "bool"
        }
      ],
      "name": "ApprovalForAll",
      "type": "event"
    },
    {
      "anonymous": false,
      "inputs": [
        {
          "indexed": true,
          "internalType": "bytes32",
          "name": "role",
          "type": "bytes32"
        },
        {
          "indexed": true,
          "internalType": "bytes32",
          "name": "previousAdminRole",
          "type": "bytes32"
        },
        {
          "indexed": true,
          "internalType": "bytes32",
          "name": "newAdminRole",
          "type": "bytes32"
        }
      ],
      "name": "RoleAdminChanged",
      "type": "event"
    },
    {
      "anonymous": false,
      "inputs": [
        {
          "indexed": true,
          "internalType": "bytes32",
          "name": "role",
          "type": "bytes32"
        },
        {
          "indexed": true,
          "internalType": "address",
          "name": "account",
          "type": "address"
        },
        {
          "indexed": true,
          "internalType": "address",
          "name": "sender",
          "type": "address"
        }
      ],
      "name": "RoleGranted",
      "type": "event"
    },
    {
      "anonymous": false,
      "inputs": [
        {
          "indexed": true,
          "internalType": "bytes32",
          "name": "role",
          "type": "bytes32"
        },
        {
          "indexed": true,
          "internalType": "address",
          "name": "account",
          "type": "address"
        },
        {
          "indexed": true,
          "internalType": "address",
          "name": "sender",
          "type": "address"
        }
      ],
      "name": "RoleRevoked",
      "type": "event"
    },
    {
      "anonymous": false,
      "inputs": [
        {
          "indexed": false,
          "internalType": "address",
          "name": "from",
          "type": "address"
        },
        {
          "indexed": false,
          "internalType": "address",
          "name": "receiver",
          "type": "address"
        },
        {
          "indexed": false,
          "internalType": "uint256",
          "name": "amount",
          "type": "uint256"
        },
        {
          "indexed": false,
          "internalType": "string",
          "name": "message",
          "type": "string"
        },
        {
          "indexed": false,
          "internalType": "uint256",
          "name": "timestamp",
          "type": "uint256"
        },
        {
          "indexed": false,
          "internalType": "string",
          "name": "keyword",
          "type": "string"
        }
      ],
      "name": "Transfer",
      "type": "event"
    },
    {
      "anonymous": false,
      "inputs": [
        {
          "indexed": true,
          "internalType": "address",
          "name": "from",
          "type": "address"
        },
        {
          "indexed": true,
          "internalType": "address",
          "name": "to",
          "type": "address"
        },
        {
          "indexed": true,
          "internalType": "uint256",
          "name": "tokenId",
          "type": "uint256"
        }
      ],
      "name": "Transfer",
      "type": "event"
    },
    {
      "inputs": [],
      "name": "DEFAULT_ADMIN_ROLE",
      "outputs": [
        {
          "internalType": "bytes32",
          "name": "",
          "type": "bytes32"
        }
      ],
      "stateMutability": "view",
      "type": "function",
      "constant": true
    },
    {
      "inputs": [],
      "name": "FACULTY_ROLE",
      "outputs": [
        {
          "internalType": "bytes32",
          "name": "",
          "type": "bytes32"
        }
      ],
      "stateMutability": "view",
      "type": "function",
      "constant": true
    },
    {
      "inputs": [
        {
          "internalType": "address",
          "name": "account",
          "type": "address"
        }
      ],
      "name": "addAdmin",
      "outputs": [],
      "stateMutability": "nonpayable",
      "type": "function"
    },
    {
      "inputs": [
        {
          "internalType": "address",
          "name": "account",
          "type": "address"
        }
      ],
      "name": "addFaculty",
      "outputs": [],
      "stateMutability": "nonpayable",
      "type": "function"
    },
    {
      "inputs": [
        {
          "internalType": "address",
          "name": "to",
          "type": "address"
        },
        {
          "internalType": "uint256",
          "name": "tokenId",
          "type": "uint256"
        }
      ],
      "name": "approve",
      "outputs": [],
      "stateMutability": "nonpayable",
      "type": "function"
    },
    {
      "inputs": [
        {
          "internalType": "uint256",
          "name": "",
          "type": "uint256"
        }
      ],
      "name": "attributes",
      "outputs": [
        {
          "internalType": "string",
          "name": "moduleCode",
          "type": "string"
        },
        {
          "internalType": "string",
          "name": "testType",
          "type": "string"
        },
        {
          "internalType": "string",
          "name": "grade",
          "type": "string"
        },
        {
          "internalType": "string",
          "name": "trimester",
          "type": "string"
        },
        {
          "internalType": "address",
          "name": "recipient",
          "type": "address"
        },
        {
          "internalType": "address",
          "name": "base",
          "type": "address"
        }
      ],
      "stateMutability": "view",
      "type": "function",
      "constant": true
    },
    {
      "inputs": [
        {
          "internalType": "address",
          "name": "owner",
          "type": "address"
        }
      ],
      "name": "balanceOf",
      "outputs": [
        {
          "internalType": "uint256",
          "name": "",
          "type": "uint256"
        }
      ],
      "stateMutability": "view",
      "type": "function",
      "constant": true
    },
    {
      "inputs": [
        {
          "internalType": "uint256",
          "name": "tokenId",
          "type": "uint256"
        }
      ],
      "name": "getApproved",
      "outputs": [
        {
          "internalType": "address",
          "name": "",
          "type": "address"
        }
      ],
      "stateMutability": "view",
      "type": "function",
      "constant": true
    },
    {
      "inputs": [],
      "name": "getOwner",
      "outputs": [
        {
          "internalType": "address",
          "name": "",
          "type": "address"
        }
      ],
      "stateMutability": "view",
      "type": "function",
      "constant": true
    },
    {
      "inputs": [
        {
          "internalType": "bytes32",
          "name": "role",
          "type": "bytes32"
        }
      ],
      "name": "getRoleAdmin",
      "outputs": [
        {
          "internalType": "bytes32",
          "name": "",
          "type": "bytes32"
        }
      ],
      "stateMutability": "view",
      "type": "function",
      "constant": true
    },
    {
      "inputs": [
        {
          "internalType": "bytes32",
          "name": "role",
          "type": "bytes32"
        },
        {
          "internalType": "uint256",
          "name": "index",
          "type": "uint256"
        }
      ],
      "name": "getRoleMember",
      "outputs": [
        {
          "internalType": "address",
          "name": "",
          "type": "address"
        }
      ],
      "stateMutability": "view",
      "type": "function",
      "constant": true
    },
    {
      "inputs": [
        {
          "internalType": "bytes32",
          "name": "role",
          "type": "bytes32"
        }
      ],
      "name": "getRoleMemberCount",
      "outputs": [
        {
          "internalType": "uint256",
          "name": "",
          "type": "uint256"
        }
      ],
      "stateMutability": "view",
      "type": "function",
      "constant": true
    },
    {
      "inputs": [
        {
          "internalType": "bytes32",
          "name": "role",
          "type": "bytes32"
        },
        {
          "internalType": "address",
          "name": "account",
          "type": "address"
        }
      ],
      "name": "grantRole",
      "outputs": [],
      "stateMutability": "nonpayable",
      "type": "function"
    },
    {
      "inputs": [
        {
          "internalType": "bytes32",
          "name": "role",
          "type": "bytes32"
        },
        {
          "internalType": "address",
          "name": "account",
          "type": "address"
        }
      ],
      "name": "hasRole",
      "outputs": [
        {
          "internalType": "bool",
          "name": "",
          "type": "bool"
        }
      ],
      "stateMutability": "view",
      "type": "function",
      "constant": true
    },
    {
      "inputs": [
        {
          "internalType": "address",
          "name": "account",
          "type": "address"
        }
      ],
      "name": "isAdmin",
      "outputs": [
        {
          "internalType": "bool",
          "name": "",
          "type": "bool"
        }
      ],
      "stateMutability": "view",
      "type": "function",
      "constant": true
    },
    {
      "inputs": [
        {
          "internalType": "address",
          "name": "owner",
          "type": "address"
        },
        {
          "internalType": "address",
          "name": "operator",
          "type": "address"
        }
      ],
      "name": "isApprovedForAll",
      "outputs": [
        {
          "internalType": "bool",
          "name": "",
          "type": "bool"
        }
      ],
      "stateMutability": "view",
      "type": "function",
      "constant": true
    },
    {
      "inputs": [
        {
          "internalType": "address",
          "name": "account",
          "type": "address"
        }
      ],
      "name": "isFaculty",
      "outputs": [
        {
          "internalType": "bool",
          "name": "",
          "type": "bool"
        }
      ],
      "stateMutability": "view",
      "type": "function",
      "constant": true
    },
    {
      "inputs": [],
      "name": "name",
      "outputs": [
        {
          "internalType": "string",
          "name": "",
          "type": "string"
        }
      ],
      "stateMutability": "view",
      "type": "function",
      "constant": true
    },
    {
      "inputs": [
        {
          "internalType": "uint256",
          "name": "tokenId",
          "type": "uint256"
        }
      ],
      "name": "ownerOf",
      "outputs": [
        {
          "internalType": "address",
          "name": "",
          "type": "address"
        }
      ],
      "stateMutability": "view",
      "type": "function",
      "constant": true
    },
    {
      "inputs": [
        {
          "internalType": "address",
          "name": "account",
          "type": "address"
        }
      ],
      "name": "removeAdmin",
      "outputs": [],
      "stateMutability": "nonpayable",
      "type": "function"
    },
    {
      "inputs": [
        {
          "internalType": "address",
          "name": "account",
          "type": "address"
        }
      ],
      "name": "removeFaculty",
      "outputs": [],
      "stateMutability": "nonpayable",
      "type": "function"
    },
    {
      "inputs": [
        {
          "internalType": "bytes32",
          "name": "role",
          "type": "bytes32"
        },
        {
          "internalType": "address",
          "name": "account",
          "type": "address"
        }
      ],
      "name": "renounceRole",
      "outputs": [],
      "stateMutability": "nonpayable",
      "type": "function"
    },
    {
      "inputs": [
        {
          "internalType": "bytes32",
          "name": "role",
          "type": "bytes32"
        },
        {
          "internalType": "address",
          "name": "account",
          "type": "address"
        }
      ],
      "name": "revokeRole",
      "outputs": [],
      "stateMutability": "nonpayable",
      "type": "function"
    },
    {
      "inputs": [
        {
          "internalType": "address",
          "name": "from",
          "type": "address"
        },
        {
          "internalType": "address",
          "name": "to",
          "type": "address"
        },
        {
          "internalType": "uint256",
          "name": "tokenId",
          "type": "uint256"
        }
      ],
      "name": "safeTransferFrom",
      "outputs": [],
      "stateMutability": "nonpayable",
      "type": "function"
    },
    {
      "inputs": [
        {
          "internalType": "address",
          "name": "from",
          "type": "address"
        },
        {
          "internalType": "address",
          "name": "to",
          "type": "address"
        },
        {
          "internalType": "uint256",
          "name": "tokenId",
          "type": "uint256"
        },
        {
          "internalType": "bytes",
          "name": "data",
          "type": "bytes"
        }
      ],
      "name": "safeTransferFrom",
      "outputs": [],
      "stateMutability": "nonpayable",
      "type": "function"
    },
    {
      "inputs": [
        {
          "internalType": "address",
          "name": "operator",
          "type": "address"
        },
        {
          "internalType": "bool",
          "name": "approved",
          "type": "bool"
        }
      ],
      "name": "setApprovalForAll",
      "outputs": [],
      "stateMutability": "nonpayable",
      "type": "function"
    },
    {
      "inputs": [],
      "name": "symbol",
      "outputs": [
        {
          "internalType": "string",
          "name": "",
          "type": "string"
        }
      ],
      "stateMutability": "view",
      "type": "function",
      "constant": true
    },
    {
      "inputs": [
        {
          "internalType": "uint256",
          "name": "index",
          "type": "uint256"
        }
      ],
      "name": "tokenByIndex",
      "outputs": [
        {
          "internalType": "uint256",
          "name": "",
          "type": "uint256"
        }
      ],
      "stateMutability": "view",
      "type": "function",
      "constant": true
    },
    {
      "inputs": [
        {
          "internalType": "address",
          "name": "owner",
          "type": "address"
        },
        {
          "internalType": "uint256",
          "name": "index",
          "type": "uint256"
        }
      ],
      "name": "tokenOfOwnerByIndex",
      "outputs": [
        {
          "internalType": "uint256",
          "name": "",
          "type": "uint256"
        }
      ],
      "stateMutability": "view",
      "type": "function",
      "constant": true
    },
    {
      "inputs": [],
      "name": "totalSupply",
      "outputs": [
        {
          "internalType": "uint256",
          "name": "",
          "type": "uint256"
        }
      ],
      "stateMutability": "view",
      "type": "function",
      "constant": true
    },
    {
      "inputs": [
        {
          "internalType": "address",
          "name": "from",
          "type": "address"
        },
        {
          "internalType": "address",
          "name": "to",
          "type": "address"
        },
        {
          "internalType": "uint256",
          "name": "tokenId",
          "type": "uint256"
        }
      ],
      "name": "transferFrom",
      "outputs": [],
      "stateMutability": "nonpayable",
      "type": "function"
    },
    {
      "inputs": [
        {
          "internalType": "string",
          "name": "message",
          "type": "string"
        }
      ],
      "name": "addToBlockchain",
      "outputs": [],
      "stateMutability": "nonpayable",
      "type": "function"
    },
    {
      "inputs": [],
      "name": "getAllTransactions",
      "outputs": [
        {
          "components": [
            {
              "internalType": "address",
              "name": "sender",
              "type": "address"
            },
            {
              "internalType": "string",
              "name": "message",
              "type": "string"
            },
            {
              "internalType": "uint256",
              "name": "timestamp",
              "type": "uint256"
            }
          ],
          "internalType": "struct SITNFT.TransferStruct[]",
          "name": "",
          "type": "tuple[]"
        }
      ],
      "stateMutability": "view",
      "type": "function",
      "constant": true
    },
    {
      "inputs": [
        {
          "internalType": "string",
          "name": "_id",
          "type": "string"
        },
        {
          "internalType": "address",
          "name": "_address",
          "type": "address"
        }
      ],
      "name": "addStudentAddress",
      "outputs": [],
      "stateMutability": "nonpayable",
      "type": "function"
    },
    {
      "inputs": [
        {
          "components": [
            {
              "internalType": "string",
              "name": "id",
              "type": "string"
            },
            {
              "internalType": "address",
              "name": "addr",
              "type": "address"
            }
          ],
          "internalType": "struct SITNFT.IdAddress[]",
          "name": "_array",
          "type": "tuple[]"
        }
      ],
      "name": "multiAddStudentAddress",
      "outputs": [],
      "stateMutability": "nonpayable",
      "type": "function"
    },
    {
      "inputs": [
        {
          "internalType": "string",
          "name": "_id",
          "type": "string"
        }
      ],
      "name": "getStudentAddress",
      "outputs": [
        {
          "internalType": "address",
          "name": "",
          "type": "address"
        }
      ],
      "stateMutability": "view",
      "type": "function",
      "constant": true
    },
    {
      "inputs": [
        {
          "internalType": "string",
          "name": "moduleCode",
          "type": "string"
        },
        {
          "internalType": "string",
          "name": "testType",
          "type": "string"
        },
        {
          "internalType": "string",
          "name": "grade",
          "type": "string"
        },
        {
          "internalType": "string",
          "name": "trimester",
          "type": "string"
        },
        {
          "internalType": "string",
          "name": "recipient",
          "type": "string"
        }
      ],
      "name": "mint",
      "outputs": [],
      "stateMutability": "nonpayable",
      "type": "function"
    },
    {
      "inputs": [
        {
          "internalType": "uint256",
          "name": "_tokenId",
          "type": "uint256"
        }
      ],
      "name": "generateBase64Image",
      "outputs": [
        {
          "internalType": "string",
          "name": "",
          "type": "string"
        }
      ],
      "stateMutability": "view",
      "type": "function",
      "constant": true
    },
    {
      "inputs": [
        {
          "internalType": "uint256",
          "name": "_tokenId",
          "type": "uint256"
        },
        {
          "internalType": "string",
          "name": "grade",
          "type": "string"
        }
      ],
      "name": "setMetadata",
      "outputs": [
        {
          "internalType": "string",
          "name": "",
          "type": "string"
        }
      ],
      "stateMutability": "nonpayable",
      "type": "function"
    },
    {
      "inputs": [
        {
          "internalType": "uint256",
          "name": "_tokenId",
          "type": "uint256"
        }
      ],
      "name": "generateImage",
      "outputs": [
        {
          "internalType": "string",
          "name": "",
          "type": "string"
        }
      ],
      "stateMutability": "view",
      "type": "function",
      "constant": true
    },
    {
      "inputs": [
        {
          "internalType": "uint256",
          "name": "_tokenId",
          "type": "uint256"
        }
      ],
      "name": "buildImageSvg",
      "outputs": [
        {
          "internalType": "string",
          "name": "",
          "type": "string"
        }
      ],
      "stateMutability": "view",
      "type": "function",
      "constant": true
    },
    {
      "inputs": [
        {
          "internalType": "uint256",
          "name": "_tokenId",
          "type": "uint256"
        }
      ],
      "name": "buildMetadata",
      "outputs": [
        {
          "internalType": "string",
          "name": "",
          "type": "string"
        }
      ],
      "stateMutability": "view",
      "type": "function",
      "constant": true
    },
    {
      "inputs": [
        {
          "internalType": "uint256",
          "name": "_tokenId",
          "type": "uint256"
        }
      ],
      "name": "tokenURI",
      "outputs": [
        {
          "internalType": "string",
          "name": "",
          "type": "string"
        }
      ],
      "stateMutability": "view",
      "type": "function",
      "constant": true
    },
    {
      "inputs": [
        {
          "internalType": "bytes4",
          "name": "interfaceId",
          "type": "bytes4"
        }
      ],
      "name": "supportsInterface",
      "outputs": [
        {
          "internalType": "bool",
          "name": "",
          "type": "bool"
        }
      ],
      "stateMutability": "view",
      "type": "function",
      "constant": true
    }
  ],
  "bytecode": "0x6007610300818152662365636133663560c81b61032052610280908152610340828152662366646261663960c81b610360526102a0526103808281526611b11832b332b160c91b6103a0526102c0526103c0828152662365646666613960c81b6103e0526102e0526080908152610480828152660466e6ac6ccc4760cb1b6104a0526104009081526104c083815266046c4c4c8ccc6760cb1b6104e0526104205261050083815266046cc60ca6ac8760cb1b610520526104405261054083815266046ccccc6686e760cb1b610560526104605260a052610600828152662366666162373360c81b610620526105809081526106408381526608d999990cce0d60ca1b610660526105a052610680838152660236666663962360cc1b6106a0526105c0526106c0838152660236666616563360cc1b6106e0526105e05260c0526107808281526608ce4d188d184d60ca1b6107a0526107009081526107c0838152662364326635653360c81b6107e05261072052610800838152662365356335623560c81b61082052610740526108408381526611b31a321cb19b60c91b610860526107605260e052610900828152662366346639663960c81b6109208190526108809182526109408481526608d8d8d98c998d60ca1b610960526108a052610980848152662361346562663360c81b6109a0526108c0526109c0848152662361616161616160c81b6109e0526108e05261010091909152610a80838152662363616637653360c81b610aa052610a00908152610ac0848152662365646666656360c81b610ae052610a2052610b008481526611b31b323332b160c91b610b2052610a4052610b408481526608d94d1898590d60ca1b610b6052610a605261012052610c00838152610c2091909152610b80908152610c40838152660236631643164360cc1b610c6052610ba052610c80838152662366626163636360c81b610ca052610bc052610cc0838152662366383735616160c81b610ce052610be05261014052610d80828152662366646666626360c81b610da052610d00908152610dc08381526611b33332b2b13160c91b610de052610d2052610e0083815266046ccccc8c6c4760cb1b610e2052610d4052610e408381526611b3333198b11b60c91b610e6052610d605261016052610f00828152662366306534643760c81b610f2052610e80908152610f40838152660236635633063360cc1b610f6052610ea052610f80838152662366663731373160c81b610fa052610ec052610fc083815266119cb3321c323360c91b610fe052610ee052610180526110808281526611b29a3331333360c91b6110a0526110009081526110c08381526611b11c311ab33360c91b6110e0526110205261110083815266119b9c1b1c329b60c91b6111205261104052611140838152662365646565663760c81b61116052611060526101a052611200828152662366666362393160c81b61122052611180908152611240838152662366666566613160c81b611260526111a0526112808381526608ce4d195898d960ca1b6112a0526111c0526112c083815266119b323231b1b360c91b6112e0526111e0526101c052611380828152662362656463666160c81b6113a0526113009081526113c0838152660467270c2c6cc760cb1b6113e05261132052611400838152662362303838663960c81b6114205261134052611440838152662364613966663960c81b61146052611360526101e0526115008281526611b131b29b32b160c91b611520526114809081526115408381526611b33231b3323360c91b611560526114a0526115808381526611b3313132b23360c91b6115a0526114c0526115c0838152662366636133636360c81b6115e0526114e05261020052611680828152660236666373561360cc1b6116a0526116009081526116c0838152662366636533386160c81b6116e05261162052611700838152660236561666664360cc1b6117205261164052611740838152662339356531643360c81b6117605261166052610220526118008281526608d998994c18cd60ca1b6118205261178090815261184083815266119c30b11b321b60c91b611860526117a052611880838152662332393738623560c81b6118a0526117c0526118c08381526604660606c62c2760cb1b6118e0526117e052610240526119808281526608d9191919191960ca1b6119a0526119009081526119c0838152662366396633663360c81b6119e05261192052611a00838152662366376439643960c81b611a205261194052611a80604052611a40928352662366323532383760c81b611a60526119609290925261026091909152620006b890600e9060106200094f565b50348015620006c657600080fd5b50604080518082018252600781526614d2550813919560ca1b60208083019182528351808501909452600384526214d25560ea1b908401528151339391620007129160009190620009a1565b50805162000728906001906020840190620009a1565b5050506001600160a01b0381166200073f57600080fd5b600c80546001600160a01b0319166001600160a01b038316179055620007676000826200079b565b620007947f573a495ec6f39d095bd4855f18069a9236d77216cfb96e453909f2408c333cfa6000620007ab565b5062000b9c565b620007a78282620007f6565b5050565b6000828152600a6020526040808220600101805490849055905190918391839186917fbd79b86ffe0ab8e8776151514217cd7cacd52c909f66475c3af44e129f0b00ff9190a4505050565b6200080d82826200083960201b62001bbb1760201c565b6000828152600b602090815260409091206200083491839062001c5d620008dd821b17901c565b505050565b6000828152600a602090815260408083206001600160a01b038516845290915290205460ff16620007a7576000828152600a602090815260408083206001600160a01b03851684529091529020805460ff19166001179055620008993390565b6001600160a01b0316816001600160a01b0316837f2f8788117e7eff1d82e926ec794901d17c78024a50270940304540a733656f0d60405160405180910390a45050565b6000620008f4836001600160a01b038416620008fd565b90505b92915050565b60008181526001830160205260408120546200094657508154600181810184556000848152602080822090930184905584548482528286019093526040902091909155620008f7565b506000620008f7565b6040830191839082156200098f579160200282015b828111156200098f5782516200097e908390600462000a2c565b509160200191906004019062000964565b506200099d92915062000a7f565b5090565b828054620009af9062000b60565b90600052602060002090601f016020900481019282620009d3576000855562000a1e565b82601f10620009ee57805160ff191683800117855562000a1e565b8280016001018555821562000a1e579182015b8281111562000a1e57825182559160200191906001019062000a01565b506200099d92915062000aa0565b826004810192821562000a71579160200282015b8281111562000a71578251805162000a60918491602090910190620009a1565b509160200191906001019062000a40565b506200099d92915062000ab7565b808211156200099d57600062000a96828262000ad8565b5060040162000a7f565b5b808211156200099d576000815560010162000aa1565b808211156200099d57600062000ace828262000b1e565b5060010162000ab7565b50600062000ae7828262000b1e565b50600101600062000af9828262000b1e565b50600101600062000b0b828262000b1e565b5062000b1c90600101600062000b1e565b565b50805462000b2c9062000b60565b6000825580601f1062000b3d575050565b601f01602090049060005260206000209081019062000b5d919062000aa0565b50565b600181811c9082168062000b7557607f821691505b60208210810362000b9657634e487b7160e01b600052602260045260246000fd5b50919050565b6150118062000bac6000396000f3fe608060405234801561001057600080fd5b50600436106102f45760003560e01c80637048027511610191578063a82e3b00116100e3578063ca15c87311610097578063e985e9c511610071578063e985e9c51461067a578063edf87704146106b6578063f408977b146106c957600080fd5b8063ca15c8731461062f578063d05dcc6a14610642578063d547741f1461066757600080fd5b8063c2a78702116100c8578063c2a78702146105f6578063c8360ce814610609578063c87b56dd1461061c57600080fd5b8063a82e3b00146105d0578063b88d4fde146105e357600080fd5b806391d1485411610145578063a217fddf1161011f578063a217fddf146105a2578063a22cb465146105aa578063a48b3b8f146105bd57600080fd5b806391d148541461054e57806393a865321461058757806395d89b411461059a57600080fd5b806386833e911161017657806386833e9114610517578063893d20e81461052a5780639010d07c1461053b57600080fd5b806370480275146104f157806370a082311461050457600080fd5b80632f2ff15d1161024a5780634b44d812116101fe578063603a162a116101d8578063603a162a146104a45780636352211e146104b75780636fe3ceb8146104ca57600080fd5b80634b44d8121461046b5780634f6ccce71461047e578063593aa2831461049157600080fd5b806336568abe1161022f57806336568abe14610432578063396ff3ed1461044557806342842e0e1461045857600080fd5b80632f2ff15d1461040c5780632f745c591461041f57600080fd5b806318160ddd116102ac578063248a9ca311610286578063248a9ca3146103c157806324d7806c146103e457806327506f53146103f757600080fd5b806318160ddd1461038957806322fbd58e1461039b57806323b872dd146103ae57600080fd5b8063081812fc116102dd578063081812fc14610336578063095ea7b3146103615780631785f53c1461037657600080fd5b806301ffc9a7146102f957806306fdde0314610321575b600080fd5b61030c6103073660046135d9565b6106dc565b60405190151581526020015b60405180910390f35b6103296106ed565b604051610318919061364e565b610349610344366004613661565b61077f565b6040516001600160a01b039091168152602001610318565b61037461036f366004613691565b6107a6565b005b6103746103843660046136bb565b6108dc565b6008545b604051908152602001610318565b6103296103a9366004613661565b610937565b6103746103bc3660046136d6565b610995565b61038d6103cf366004613661565b6000908152600a602052604090206001015490565b61030c6103f23660046136bb565b610a1c565b6103ff610a5c565b6040516103189190613712565b61037461041a36600461379c565b610b6d565b61038d61042d366004613691565b610b92565b61037461044036600461379c565b610c3a565b6103746104533660046136bb565b610cc6565b6103746104663660046136d6565b610d3d565b610329610479366004613661565b610d58565b61038d61048c366004613661565b610e39565b61032961049f3660046138b0565b610edd565b6103746104b23660046138f7565b610f95565b6103496104c5366004613661565b611061565b61038d7f573a495ec6f39d095bd4855f18069a9236d77216cfb96e453909f2408c333cfa81565b6103746104ff3660046136bb565b6110c6565b61038d6105123660046136bb565b61111e565b61037461052536600461392c565b6111b8565b600c546001600160a01b0316610349565b6103496105493660046139fe565b61136a565b61030c61055c36600461379c565b6000918252600a602090815260408084206001600160a01b0393909316845291905290205460ff1690565b6103746105953660046136bb565b611389565b610329611400565b61038d600081565b6103746105b8366004613a20565b61140f565b6103296105cb366004613661565b61141a565b6103496105de3660046138f7565b61142d565b6103746105f1366004613a5c565b611534565b61030c6106043660046136bb565b6115c2565b610374610617366004613ad8565b611602565b61032961062a366004613661565b6116b1565b61038d61063d366004613661565b6117d1565b610655610650366004613661565b6117e8565b60405161031896959493929190613be0565b61037461067536600461379c565b611a49565b61030c610688366004613c54565b6001600160a01b03918216600090815260056020908152604080832093909416825291909152205460ff1690565b6103296106c4366004613661565b611a6e565b6103746106d7366004613c7e565b611b07565b60006106e782611c72565b92915050565b6060600080546106fc90613cc3565b80601f016020809104026020016040519081016040528092919081815260200182805461072890613cc3565b80156107755780601f1061074a57610100808354040283529160200191610775565b820191906000526020600020905b81548152906001019060200180831161075857829003601f168201915b5050505050905090565b600061078a82611cb0565b506000908152600460205260409020546001600160a01b031690565b60006107b182611061565b9050806001600160a01b0316836001600160a01b03160361083f5760405162461bcd60e51b815260206004820152602160248201527f4552433732313a20617070726f76616c20746f2063757272656e74206f776e6560448201527f720000000000000000000000000000000000000000000000000000000000000060648201526084015b60405180910390fd5b336001600160a01b038216148061085b575061085b8133610688565b6108cd5760405162461bcd60e51b815260206004820152603e60248201527f4552433732313a20617070726f76652063616c6c6572206973206e6f7420746f60448201527f6b656e206f776e6572206e6f7220617070726f76656420666f7220616c6c00006064820152608401610836565b6108d78383611d14565b505050565b6108e533610a1c565b6109295760405162461bcd60e51b81526020600482015260156024820152742932b9ba3934b1ba32b2103a379030b236b4b7399760591b6044820152606401610836565b610934600082611a49565b50565b6000818152604f602052604090206005810154606091906003820190600283019061096c906001600160a01b03166014611d8f565b60405160200161097f9493929190613db2565b6040516020818303038152906040529050919050565b61099f3382611f38565b610a115760405162461bcd60e51b815260206004820152602e60248201527f4552433732313a2063616c6c6572206973206e6f7420746f6b656e206f776e6560448201527f72206e6f7220617070726f7665640000000000000000000000000000000000006064820152608401610836565b6108d7838383611fb7565b6001600160a01b03811660009081527f13da86008ba1c6922daee3e07db95305ef49ebced9f5467a0b8613fcc6b343e3602052604081205460ff166106e7565b6060604e805480602002602001604051908101604052809291908181526020016000905b82821015610b6457600084815260209081902060408051606081019091526003850290910180546001600160a01b031682526001810180549293919291840191610ac990613cc3565b80601f0160208091040260200160405190810160405280929190818152602001828054610af590613cc3565b8015610b425780601f10610b1757610100808354040283529160200191610b42565b820191906000526020600020905b815481529060010190602001808311610b2557829003601f168201915b5050505050815260200160028201548152505081526020019060010190610a80565b50505050905090565b6000828152600a6020526040902060010154610b888161219c565b6108d783836121a6565b6000610b9d8361111e565b8210610c115760405162461bcd60e51b815260206004820152602b60248201527f455243373231456e756d657261626c653a206f776e657220696e646578206f7560448201527f74206f6620626f756e64730000000000000000000000000000000000000000006064820152608401610836565b506001600160a01b03919091166000908152600660209081526040808320938352929052205490565b6001600160a01b0381163314610cb85760405162461bcd60e51b815260206004820152602f60248201527f416363657373436f6e74726f6c3a2063616e206f6e6c792072656e6f756e636560448201527f20726f6c657320666f722073656c6600000000000000000000000000000000006064820152608401610836565b610cc282826121c8565b5050565b610ccf33610a1c565b610d135760405162461bcd60e51b81526020600482015260156024820152742932b9ba3934b1ba32b2103a379030b236b4b7399760591b6044820152606401610836565b6109347f573a495ec6f39d095bd4855f18069a9236d77216cfb96e453909f2408c333cfa82610b6d565b6108d783838360405180602001604052806000815250611534565b606060004233604051602001610d9d92919091825260601b7fffffffffffffffffffffffffffffffffffffffff00000000000000000000000016602082015260340190565b60408051808303601f190181528282528051602091820120908301819052925060009101604051602081830303815290604052905060006010610de18360006121ea565b610deb91906141a4565b60ff1690506000610dfc86836122aa565b90506000610e0987610937565b90508181604051602001610e1e9291906141c6565b60405160208183030381529060405295505050505050919050565b6000610e4460085490565b8210610eb85760405162461bcd60e51b815260206004820152602c60248201527f455243373231456e756d657261626c653a20676c6f62616c20696e646578206f60448201527f7574206f6620626f756e647300000000000000000000000000000000000000006064820152608401610836565b60088281548110610ecb57610ecb614293565b90600052602060002001549050919050565b6060610ee8336115c2565b610f345760405162461bcd60e51b815260206004820152601660248201527f5265737472696374656420746f20666163756c74792e000000000000000000006044820152606401610836565b6000838152604f602090815260409091208351610f599260029092019185019061352a565b505060408051808201909152600781527f7375636365737300000000000000000000000000000000000000000000000000602082015292915050565b6040805160608101825233815260208082018481524293830193909352604e805460018101825560009190915282517f9b65e484ce3d961a557081a44c6c68a0a27eca0b88fce820bdd99c3dc223dcc76003909202918201805473ffffffffffffffffffffffffffffffffffffffff19166001600160a01b0390921691909117815593518051939493611051937f9b65e484ce3d961a557081a44c6c68a0a27eca0b88fce820bdd99c3dc223dcc890930192919091019061352a565b5060408201518160020155505050565b6000818152600260205260408120546001600160a01b0316806106e75760405162461bcd60e51b815260206004820152601860248201527f4552433732313a20696e76616c696420746f6b656e20494400000000000000006044820152606401610836565b6110cf33610a1c565b6111135760405162461bcd60e51b81526020600482015260156024820152742932b9ba3934b1ba32b2103a379030b236b4b7399760591b6044820152606401610836565b610934600082610b6d565b60006001600160a01b03821661119c5760405162461bcd60e51b815260206004820152602960248201527f4552433732313a2061646472657373207a65726f206973206e6f74206120766160448201527f6c6964206f776e657200000000000000000000000000000000000000000000006064820152608401610836565b506001600160a01b031660009081526003602052604090205490565b6111c1336115c2565b61120d5760405162461bcd60e51b815260206004820152601660248201527f5265737472696374656420746f20666163756c74792e000000000000000000006044820152606401610836565b600061121860085490565b905060006040518060c001604052808881526020018781526020018681526020018581526020016112488561142d565b6001600160a01b03168152602001611268600c546001600160a01b031690565b6001600160a01b03169052905080604f60006112858560016142a9565b81526020808201929092526040016000208251805191926112ab9284929091019061352a565b5060208281015180516112c4926001850192019061352a565b50604082015180516112e091600284019160209091019061352a565b50606082015180516112fc91600384019160209091019061352a565b5060808281015160048301805473ffffffffffffffffffffffffffffffffffffffff199081166001600160a01b039384161790915560a090940151600590930180549094169216919091179091558101516113619061135c8460016142a9565b612337565b50505050505050565b6000828152600b602052604081206113829083612351565b9392505050565b61139233610a1c565b6113d65760405162461bcd60e51b81526020600482015260156024820152742932b9ba3934b1ba32b2103a379030b236b4b7399760591b6044820152606401610836565b6109347f573a495ec6f39d095bd4855f18069a9236d77216cfb96e453909f2408c333cfa82611a49565b6060600180546106fc90613cc3565b610cc233838361235d565b60606106e761142883610d58565b61242b565b6000611438336115c2565b6114845760405162461bcd60e51b815260206004820152601660248201527f5265737472696374656420746f20666163756c74792e000000000000000000006044820152606401610836565b60008260405160200161149791906142c1565b60408051601f198184030181529181528151602092830120600081815260509093529120549091506001600160a01b03166115145760405162461bcd60e51b815260206004820152601760248201527f53747564656e7420646f6573206e6f742065786973742e0000000000000000006044820152606401610836565b6000908152605060205260409020546001600160a01b031690505b919050565b61153e3383611f38565b6115b05760405162461bcd60e51b815260206004820152602e60248201527f4552433732313a2063616c6c6572206973206e6f7420746f6b656e206f776e6560448201527f72206e6f7220617070726f7665640000000000000000000000000000000000006064820152608401610836565b6115bc848484846125c9565b50505050565b6001600160a01b03811660009081527f9019cc2ada0da9adebe4b58b4b78fbab4edc82e8bb6da2a3f362a37225196cd3602052604081205460ff166106e7565b61160b33610a1c565b61164f5760405162461bcd60e51b81526020600482015260156024820152742932b9ba3934b1ba32b2103a379030b236b4b7399760591b6044820152606401610836565b60005b8151811015610cc25761169f82828151811061167057611670614293565b60200260200101516000015183838151811061168e5761168e614293565b602002602001015160200151611b07565b806116a9816142dd565b915050611652565b6000818152600260205260409020546060906001600160a01b031661173e5760405162461bcd60e51b815260206004820152602f60248201527f4552433732314d657461646174613a2055524920717565727920666f72206e6f60448201527f6e6578697374656e7420746f6b656e00000000000000000000000000000000006064820152608401610836565b6000828152600260205260409020546001600160a01b03166117c85760405162461bcd60e51b815260206004820152602f60248201527f4552433732314d657461646174613a2055524920717565727920666f72206e6f60448201527f6e6578697374656e7420746f6b656e00000000000000000000000000000000006064820152608401610836565b6106e782611a6e565b6000818152600b602052604081206106e790612652565b604f6020526000908152604090208054819061180390613cc3565b80601f016020809104026020016040519081016040528092919081815260200182805461182f90613cc3565b801561187c5780601f106118515761010080835404028352916020019161187c565b820191906000526020600020905b81548152906001019060200180831161185f57829003601f168201915b50505050509080600101805461189190613cc3565b80601f01602080910402602001604051908101604052809291908181526020018280546118bd90613cc3565b801561190a5780601f106118df5761010080835404028352916020019161190a565b820191906000526020600020905b8154815290600101906020018083116118ed57829003601f168201915b50505050509080600201805461191f90613cc3565b80601f016020809104026020016040519081016040528092919081815260200182805461194b90613cc3565b80156119985780601f1061196d57610100808354040283529160200191611998565b820191906000526020600020905b81548152906001019060200180831161197b57829003601f168201915b5050505050908060030180546119ad90613cc3565b80601f01602080910402602001604051908101604052809291908181526020018280546119d990613cc3565b8015611a265780601f106119fb57610100808354040283529160200191611a26565b820191906000526020600020905b815481529060010190602001808311611a0957829003601f168201915b50505050600483015460059093015491926001600160a01b039081169216905086565b6000828152600a6020526040902060010154611a648161219c565b6108d783836121c8565b60606000611a7b8361141a565b6000848152604f6020526040812091925090611adc90611a9a8661265c565b6000878152604f60209081526040918290209151611ac89493928892909160018301916003840191016142f6565b60405160208183030381529060405261242b565b905080604051602001611aef9190614586565b60405160208183030381529060405292505050919050565b611b1033610a1c565b611b545760405162461bcd60e51b81526020600482015260156024820152742932b9ba3934b1ba32b2103a379030b236b4b7399760591b6044820152606401610836565b600082604051602001611b6791906142c1565b60408051808303601f190181529181528151602092830120600090815260509092529020805473ffffffffffffffffffffffffffffffffffffffff19166001600160a01b0393909316929092179091555050565b6000828152600a602090815260408083206001600160a01b038516845290915290205460ff16610cc2576000828152600a602090815260408083206001600160a01b03851684529091529020805460ff19166001179055611c193390565b6001600160a01b0316816001600160a01b0316837f2f8788117e7eff1d82e926ec794901d17c78024a50270940304540a733656f0d60405160405180910390a45050565b6000611382836001600160a01b03841661275d565b60006001600160e01b031982167f5a05180f0000000000000000000000000000000000000000000000000000000014806106e757506106e7826127ac565b6000818152600260205260409020546001600160a01b03166109345760405162461bcd60e51b815260206004820152601860248201527f4552433732313a20696e76616c696420746f6b656e20494400000000000000006044820152606401610836565b6000818152600460205260409020805473ffffffffffffffffffffffffffffffffffffffff19166001600160a01b0384169081179091558190611d5682611061565b6001600160a01b03167f8c5be1e5ebec7d5bd14f71427d1e84f3dd0314c0f7b2291e5b200ac8c7c3b92560405160405180910390a45050565b60606000611d9e8360026145cb565b611da99060026142a9565b67ffffffffffffffff811115611dc157611dc16137c8565b6040519080825280601f01601f191660200182016040528015611deb576020820181803683370190505b509050600360fc1b81600081518110611e0657611e06614293565b60200101906001600160f81b031916908160001a905350600f60fb1b81600181518110611e3557611e35614293565b60200101906001600160f81b031916908160001a9053506000611e598460026145cb565b611e649060016142a9565b90505b6001811115611ee9577f303132333435363738396162636465660000000000000000000000000000000085600f1660108110611ea557611ea5614293565b1a60f81b828281518110611ebb57611ebb614293565b60200101906001600160f81b031916908160001a90535060049490941c93611ee2816145ea565b9050611e67565b5083156113825760405162461bcd60e51b815260206004820152600560248201527f4845585f4c0000000000000000000000000000000000000000000000000000006044820152606401610836565b600080611f4483611061565b9050806001600160a01b0316846001600160a01b03161480611f8b57506001600160a01b0380821660009081526005602090815260408083209388168352929052205460ff165b80611faf5750836001600160a01b0316611fa48461077f565b6001600160a01b0316145b949350505050565b826001600160a01b0316611fca82611061565b6001600160a01b0316146120465760405162461bcd60e51b815260206004820152602560248201527f4552433732313a207472616e736665722066726f6d20696e636f72726563742060448201527f6f776e65720000000000000000000000000000000000000000000000000000006064820152608401610836565b6001600160a01b0382166120c15760405162461bcd60e51b8152602060048201526024808201527f4552433732313a207472616e7366657220746f20746865207a65726f2061646460448201527f72657373000000000000000000000000000000000000000000000000000000006064820152608401610836565b6120cc8383836127ea565b6120d7600082611d14565b6001600160a01b0383166000908152600360205260408120805460019290612100908490614601565b90915550506001600160a01b038216600090815260036020526040812080546001929061212e9084906142a9565b9091555050600081815260026020526040808220805473ffffffffffffffffffffffffffffffffffffffff19166001600160a01b0386811691821790925591518493918716917fddf252ad1be2c89b69c2b068fc378daa952ba7f163c4a11628f55a4df523b3ef91a4505050565b6109348133612af0565b6121b08282611bbb565b6000828152600b602052604090206108d79082611c5d565b6121d28282612b70565b6000828152600b602052604090206108d79082612bf3565b6000816121f88160016142a9565b10156122465760405162461bcd60e51b815260206004820152601060248201527f746f55696e74385f6f766572666c6f77000000000000000000000000000000006044820152606401610836565b6122518260016142a9565b835110156122a15760405162461bcd60e51b815260206004820152601360248201527f746f55696e74385f6f75744f66426f756e6473000000000000000000000000006044820152606401610836565b50016001015190565b6060600e82601081106122bf576122bf614293565b60040201600e83601081106122d6576122d6614293565b60040201600101600e84601081106122f0576122f0614293565b60040201600201604f60008781526020019081526020016000206001016040516020016123209493929190614618565b604051602081830303815290604052905092915050565b610cc2828260405180602001604052806000815250612c08565b60006113828383612c91565b816001600160a01b0316836001600160a01b0316036123be5760405162461bcd60e51b815260206004820152601960248201527f4552433732313a20617070726f766520746f2063616c6c6572000000000000006044820152606401610836565b6001600160a01b03838116600081815260056020908152604080832094871680845294825291829020805460ff191686151590811790915591519182527f17307eab39ab6107e8899845ad3d59bd9653f200f220920489ca2b5937696c31910160405180910390a3505050565b6060815160000361244a57505060408051602081019091526000815290565b6000604051806060016040528060408152602001614f9c604091399050600060038451600261247991906142a9565b6124839190614e83565b61248e9060046145cb565b9050600061249d8260206142a9565b67ffffffffffffffff8111156124b5576124b56137c8565b6040519080825280601f01601f1916602001820160405280156124df576020820181803683370190505b509050818152600183018586518101602084015b8183101561254d5760039283018051603f601282901c811687015160f890811b8552600c83901c8216880151811b6001860152600683901c8216880151811b60028601529116860151901b938201939093526004016124f3565b6003895106600181146125675760028114612593576125bb565b7f3d3d0000000000000000000000000000000000000000000000000000000000006001198301526125bb565b7f3d000000000000000000000000000000000000000000000000000000000000006000198301525b509398975050505050505050565b6125d4848484611fb7565b6125e084848484612cbb565b6115bc5760405162461bcd60e51b815260206004820152603260248201527f4552433732313a207472616e7366657220746f206e6f6e20455243373231526560448201527f63656976657220696d706c656d656e74657200000000000000000000000000006064820152608401610836565b60006106e7825490565b6060816000036126835750506040805180820190915260018152600360fc1b602082015290565b8160005b81156126ad5780612697816142dd565b91506126a69050600a83614e83565b9150612687565b60008167ffffffffffffffff8111156126c8576126c86137c8565b6040519080825280601f01601f1916602001820160405280156126f2576020820181803683370190505b5090505b8415611faf57612707600183614601565b9150612714600a86614e97565b61271f9060306142a9565b60f81b81838151811061273457612734614293565b60200101906001600160f81b031916908160001a905350612756600a86614e83565b94506126f6565b60008181526001830160205260408120546127a4575081546001818101845560008481526020808220909301849055845484825282860190935260409020919091556106e7565b5060006106e7565b60006001600160e01b031982167f7965db0b0000000000000000000000000000000000000000000000000000000014806106e757506106e782612e12565b6127f5838383612e50565b6000818152604f6020526040808220815160c0810190925280548290829061281c90613cc3565b80601f016020809104026020016040519081016040528092919081815260200182805461284890613cc3565b80156128955780601f1061286a57610100808354040283529160200191612895565b820191906000526020600020905b81548152906001019060200180831161287857829003601f168201915b505050505081526020016001820180546128ae90613cc3565b80601f01602080910402602001604051908101604052809291908181526020018280546128da90613cc3565b80156129275780601f106128fc57610100808354040283529160200191612927565b820191906000526020600020905b81548152906001019060200180831161290a57829003601f168201915b5050505050815260200160028201805461294090613cc3565b80601f016020809104026020016040519081016040528092919081815260200182805461296c90613cc3565b80156129b95780601f1061298e576101008083540402835291602001916129b9565b820191906000526020600020905b81548152906001019060200180831161299c57829003601f168201915b505050505081526020016003820180546129d290613cc3565b80601f01602080910402602001604051908101604052809291908181526020018280546129fe90613cc3565b8015612a4b5780601f10612a2057610100808354040283529160200191612a4b565b820191906000526020600020905b815481529060010190602001808311612a2e57829003601f168201915b505050918352505060048201546001600160a01b0390811660208301526005909201548216604090910152608082015191925084811691161480612aa457508060a001516001600160a01b0316836001600160a01b0316145b6115bc5760405162461bcd60e51b815260206004820152601c60248201527f546172676574206973206e6f742074686520726563697069656e742e000000006044820152606401610836565b6000828152600a602090815260408083206001600160a01b038516845290915290205460ff16610cc257612b2e816001600160a01b03166014612f08565b612b39836020612f08565b604051602001612b4a929190614eab565b60408051601f198184030181529082905262461bcd60e51b82526108369160040161364e565b6000828152600a602090815260408083206001600160a01b038516845290915290205460ff1615610cc2576000828152600a602090815260408083206001600160a01b0385168085529252808320805460ff1916905551339285917ff6391f5c32d9c69d2a47ea670b442974b53935d1edc7fd64eb21e047a839171b9190a45050565b6000611382836001600160a01b0384166130b1565b612c1283836131a4565b612c1f6000848484612cbb565b6108d75760405162461bcd60e51b815260206004820152603260248201527f4552433732313a207472616e7366657220746f206e6f6e20455243373231526560448201527f63656976657220696d706c656d656e74657200000000000000000000000000006064820152608401610836565b6000826000018281548110612ca857612ca8614293565b9060005260206000200154905092915050565b60006001600160a01b0384163b15612e0757604051630a85bd0160e11b81526001600160a01b0385169063150b7a0290612cff903390899088908890600401614f2c565b6020604051808303816000875af1925050508015612d3a575060408051601f3d908101601f19168201909252612d3791810190614f68565b60015b612ded573d808015612d68576040519150601f19603f3d011682016040523d82523d6000602084013e612d6d565b606091505b508051600003612de55760405162461bcd60e51b815260206004820152603260248201527f4552433732313a207472616e7366657220746f206e6f6e20455243373231526560448201527f63656976657220696d706c656d656e74657200000000000000000000000000006064820152608401610836565b805181602001fd5b6001600160e01b031916630a85bd0160e11b149050611faf565b506001949350505050565b60006001600160e01b031982167f780e9d630000000000000000000000000000000000000000000000000000000014806106e757506106e7826132ff565b6001600160a01b038316612eab57612ea681600880546000838152600960205260408120829055600182018355919091527ff3f7a9fe364faab93b216da50a3214154f22a0a2b415b23a84c8169e8b636ee30155565b612ece565b816001600160a01b0316836001600160a01b031614612ece57612ece838261339a565b6001600160a01b038216612ee5576108d781613437565b826001600160a01b0316826001600160a01b0316146108d7576108d782826134e6565b60606000612f178360026145cb565b612f229060026142a9565b67ffffffffffffffff811115612f3a57612f3a6137c8565b6040519080825280601f01601f191660200182016040528015612f64576020820181803683370190505b509050600360fc1b81600081518110612f7f57612f7f614293565b60200101906001600160f81b031916908160001a905350600f60fb1b81600181518110612fae57612fae614293565b60200101906001600160f81b031916908160001a9053506000612fd28460026145cb565b612fdd9060016142a9565b90505b6001811115613062577f303132333435363738396162636465660000000000000000000000000000000085600f166010811061301e5761301e614293565b1a60f81b82828151811061303457613034614293565b60200101906001600160f81b031916908160001a90535060049490941c9361305b816145ea565b9050612fe0565b5083156113825760405162461bcd60e51b815260206004820181905260248201527f537472696e67733a20686578206c656e67746820696e73756666696369656e746044820152606401610836565b6000818152600183016020526040812054801561319a5760006130d5600183614601565b85549091506000906130e990600190614601565b905081811461314e57600086600001828154811061310957613109614293565b906000526020600020015490508087600001848154811061312c5761312c614293565b6000918252602080832090910192909255918252600188019052604090208390555b855486908061315f5761315f614f85565b6001900381819060005260206000200160009055905585600101600086815260200190815260200160002060009055600193505050506106e7565b60009150506106e7565b6001600160a01b0382166131fa5760405162461bcd60e51b815260206004820181905260248201527f4552433732313a206d696e7420746f20746865207a65726f20616464726573736044820152606401610836565b6000818152600260205260409020546001600160a01b03161561325f5760405162461bcd60e51b815260206004820152601c60248201527f4552433732313a20746f6b656e20616c7265616479206d696e746564000000006044820152606401610836565b61326b600083836127ea565b6001600160a01b03821660009081526003602052604081208054600192906132949084906142a9565b9091555050600081815260026020526040808220805473ffffffffffffffffffffffffffffffffffffffff19166001600160a01b03861690811790915590518392907fddf252ad1be2c89b69c2b068fc378daa952ba7f163c4a11628f55a4df523b3ef908290a45050565b60006001600160e01b031982167f80ac58cd00000000000000000000000000000000000000000000000000000000148061336257506001600160e01b031982167f5b5e139f00000000000000000000000000000000000000000000000000000000145b806106e757507f01ffc9a7000000000000000000000000000000000000000000000000000000006001600160e01b03198316146106e7565b600060016133a78461111e565b6133b19190614601565b600083815260076020526040902054909150808214613404576001600160a01b03841660009081526006602090815260408083208584528252808320548484528184208190558352600790915290208190555b5060009182526007602090815260408084208490556001600160a01b039094168352600681528383209183525290812055565b60085460009061344990600190614601565b6000838152600960205260408120546008805493945090928490811061347157613471614293565b90600052602060002001549050806008838154811061349257613492614293565b60009182526020808320909101929092558281526009909152604080822084905585825281205560088054806134ca576134ca614f85565b6001900381819060005260206000200160009055905550505050565b60006134f18361111e565b6001600160a01b039093166000908152600660209081526040808320868452825280832085905593825260079052919091209190915550565b82805461353690613cc3565b90600052602060002090601f016020900481019282613558576000855561359e565b82601f1061357157805160ff191683800117855561359e565b8280016001018555821561359e579182015b8281111561359e578251825591602001919060010190613583565b506135aa9291506135ae565b5090565b5b808211156135aa57600081556001016135af565b6001600160e01b03198116811461093457600080fd5b6000602082840312156135eb57600080fd5b8135611382816135c3565b60005b838110156136115781810151838201526020016135f9565b838111156115bc5750506000910152565b6000815180845261363a8160208601602086016135f6565b601f01601f19169290920160200192915050565b6020815260006113826020830184613622565b60006020828403121561367357600080fd5b5035919050565b80356001600160a01b038116811461152f57600080fd5b600080604083850312156136a457600080fd5b6136ad8361367a565b946020939093013593505050565b6000602082840312156136cd57600080fd5b6113828261367a565b6000806000606084860312156136eb57600080fd5b6136f48461367a565b92506137026020850161367a565b9150604084013590509250925092565b60006020808301818452808551808352604092508286019150828160051b87010184880160005b8381101561378e57603f19898403018552815160606001600160a01b03825116855288820151818a87015261377082870182613622565b92890151958901959095525094870194925090860190600101613739565b509098975050505050505050565b600080604083850312156137af57600080fd5b823591506137bf6020840161367a565b90509250929050565b634e487b7160e01b600052604160045260246000fd5b6040805190810167ffffffffffffffff81118282101715613801576138016137c8565b60405290565b604051601f8201601f1916810167ffffffffffffffff81118282101715613830576138306137c8565b604052919050565b600067ffffffffffffffff831115613852576138526137c8565b613865601f8401601f1916602001613807565b905082815283838301111561387957600080fd5b828260208301376000602084830101529392505050565b600082601f8301126138a157600080fd5b61138283833560208501613838565b600080604083850312156138c357600080fd5b82359150602083013567ffffffffffffffff8111156138e157600080fd5b6138ed85828601613890565b9150509250929050565b60006020828403121561390957600080fd5b813567ffffffffffffffff81111561392057600080fd5b611faf84828501613890565b600080600080600060a0868803121561394457600080fd5b853567ffffffffffffffff8082111561395c57600080fd5b61396889838a01613890565b9650602088013591508082111561397e57600080fd5b61398a89838a01613890565b955060408801359150808211156139a057600080fd5b6139ac89838a01613890565b945060608801359150808211156139c257600080fd5b6139ce89838a01613890565b935060808801359150808211156139e457600080fd5b506139f188828901613890565b9150509295509295909350565b60008060408385031215613a1157600080fd5b50508035926020909101359150565b60008060408385031215613a3357600080fd5b613a3c8361367a565b915060208301358015158114613a5157600080fd5b809150509250929050565b60008060008060808587031215613a7257600080fd5b613a7b8561367a565b9350613a896020860161367a565b925060408501359150606085013567ffffffffffffffff811115613aac57600080fd5b8501601f81018713613abd57600080fd5b613acc87823560208401613838565b91505092959194509250565b60006020808385031215613aeb57600080fd5b823567ffffffffffffffff80821115613b0357600080fd5b818501915085601f830112613b1757600080fd5b813581811115613b2957613b296137c8565b8060051b613b38858201613807565b9182528381018501918581019089841115613b5257600080fd5b86860192505b83831015613bd357823585811115613b705760008081fd5b86016040818c03601f1901811315613b885760008081fd5b613b906137de565b8983013588811115613ba25760008081fd5b613bb08e8c83870101613890565b825250613bbe82840161367a565b818b0152845250509186019190860190613b58565b9998505050505050505050565b60c081526000613bf360c0830189613622565b8281036020840152613c058189613622565b90508281036040840152613c198188613622565b90508281036060840152613c2d8187613622565b9150506001600160a01b03808516608084015280841660a084015250979650505050505050565b60008060408385031215613c6757600080fd5b613c708361367a565b91506137bf6020840161367a565b60008060408385031215613c9157600080fd5b823567ffffffffffffffff811115613ca857600080fd5b613cb485828601613890565b9250506137bf6020840161367a565b600181811c90821680613cd757607f821691505b602082108103613cf757634e487b7160e01b600052602260045260246000fd5b50919050565b8054600090600181811c9080831680613d1757607f831692505b60208084108203613d3857634e487b7160e01b600052602260045260246000fd5b818015613d4c5760018114613d5d57613d8a565b60ff19861689528489019650613d8a565b60008881526020902060005b86811015613d825781548b820152908501908301613d69565b505084890196505b50505050505092915050565b60008151613da88185602086016135f6565b9290920192915050565b7f3c7465787420783d2231352220793d2238302220636c6173733d226d6564697581527f6d223e4d6f64756c653e2000000000000000000000000000000000000000000060208201526000613e0a602b830187613cfd565b7f3c2f746578743e000000000000000000000000000000000000000000000000008082527f3c7465787420783d2231352220793d223130302220636c6173733d226d65646960078301527f756d223e5472696d65737465723e2000000000000000000000000000000000006027830152613e876036830188613cfd565b9081527f3c7465787420783d2231352220793d223132302220636c6173733d226d65646960078201527f756d223e47726164653a3c2f746578743e00000000000000000000000000000060278201527f3c7265637420783d2231352220793d22313235222077696474683d223230352260388201527f206865696768743d22343022207374796c653d2266696c6c3a77686974653b6f60588201527f7061636974793a302e35222f3e0000000000000000000000000000000000000060788201527f3c7465787420783d2231352220793d223134302220636c6173733d226d65646960858201527f756d223e0000000000000000000000000000000000000000000000000000000060a5820152905061416d614144614083613fb661407d61402e613fdf8360a989018d613cfd565b7f3c2f746578743e00000000000000000000000000000000000000000000000000815260070190565b7f3c7465787420783d2231352220793d223139302220636c6173733d22736d616c81527f6c223e526563697069656e743a3c2f746578743e000000000000000000000000602082015260340190565b7f3c7465787420783d2231352220793d2232303522207374796c653d22666f6e7481527f2d73697a653a387078223e0000000000000000000000000000000000000000006020820152602b0190565b88613d96565b7f3c7374796c653e2e737667426f6479207b666f6e742d66616d696c793a20224381527f6f7572696572204e657722207d202e74696e79207b666f6e742d73697a653a3660208201527f70783b207d202e736d616c6c207b666f6e742d73697a653a20313270783b7d2e60408201527f6d656469756d207b666f6e742d73697a653a20313870783b7d3c2f7374796c6560608201527f3e00000000000000000000000000000000000000000000000000000000000000608082015260810190565b7f3c2f7376673e0000000000000000000000000000000000000000000000000000815260060190565b979650505050505050565b634e487b7160e01b600052601260045260246000fd5b634e487b7160e01b600052601160045260246000fd5b600060ff8316806141b7576141b7614178565b8060ff84160491505092915050565b7f3c73766720636c6173733d22737667426f6479222077696474683d223330302281527f206865696768743d22333030222076696577426f783d2230203020333030203360208201527f30302220786d6c6e733d22687474703a2f2f7777772e77332e6f72672f32303060408201527f302f737667223e000000000000000000000000000000000000000000000000006060820152600083516142708160678501602088016135f6565b8351908301906142878160678401602088016135f6565b01606701949350505050565b634e487b7160e01b600052603260045260246000fd5b600082198211156142bc576142bc61418e565b500190565b600082516142d38184602087016135f6565b9190910192915050565b6000600182016142ef576142ef61418e565b5060010190565b7f7b226e616d65223a20220000000000000000000000000000000000000000000081526000614328600a830189613cfd565b7f20436572746966696361746520230000000000000000000000000000000000008152875161435e81600e840160208c016135f6565b8082019150507f222c00000000000000000000000000000000000000000000000000000000000080600e8301527f22696d616765223a20220000000000000000000000000000000000000000000060108301527f646174613a696d6167652f7376672b786d6c3b6261736536342c000000000000601a83015287516143ea816034850160208c016135f6565b60349201918201527f2261747472696275746573223a205b7b2274726169745f74797065223a20224d60368201527f6f64756c65436f6465222c202276616c7565223a2022000000000000000000006056820152613bd361455d61453461452e6144df6144616144d961448a82606c8a018f613cfd565b7f227d2c0000000000000000000000000000000000000000000000000000000000815260030190565b7f7b2274726169745f74797065223a202254797065222c202276616c7565223a2081527f2200000000000000000000000000000000000000000000000000000000000000602082015260210190565b8b613cfd565b7f7b2274726169745f74797065223a20225472696d6573746572222c202276616c81527f7565223a20220000000000000000000000000000000000000000000000000000602082015260260190565b87613cfd565b7f227d000000000000000000000000000000000000000000000000000000000000815260020190565b7f5d7d000000000000000000000000000000000000000000000000000000000000815260020190565b7f646174613a6170706c69636174696f6e2f6a736f6e3b6261736536342c0000008152600082516145be81601d8501602087016135f6565b91909101601d0192915050565b60008160001904831182151516156145e5576145e561418e565b500290565b6000816145f9576145f961418e565b506000190190565b6000828210156146135761461361418e565b500390565b7f3c726563742077696474683d2233303022206865696768743d2233303022207281527f783d22313022207374796c653d2266696c6c3a00000000000000000000000000602082015260006146706033830187613cfd565b7f22202f3e000000000000000000000000000000000000000000000000000000008082527f3c7265637420793d223630222077696474683d2233303022206865696768743d60048301527f2231313522207374796c653d2266696c6c3a000000000000000000000000000060248301526146ed6036830188613cfd565b91507f222f3e000000000000000000000000000000000000000000000000000000000082527f3c7265637420793d22313735222077696474683d22333030222068656967687460038301527f3d22343022207374796c653d2266696c6c3a0000000000000000000000000000602383015261476b6035830187613cfd565b9081527f3c7465787420783d2231352220793d2232352220636c6173733d226d6564697560048201527f6d223e00000000000000000000000000000000000000000000000000000000006024820152905061416d6148966147fb6147d26027850188613cfd565b7f2043657274696669636174653c2f746578743e00000000000000000000000000815260130190565b7f3c67207472616e73666f726d3d227472616e736c617465283236302e3030303081527f30302c34302e30303030303029207363616c6528302e3031303030302c2d302e60208201527f30313030303029222066696c6c3d222330303030303022207374726f6b653d2260408201527f6e6f6e65223e0000000000000000000000000000000000000000000000000000606082015260660190565b7f3c7061746820643d224d343436203330323120632d33202d39202d3132202d3581527f39202d3231202d313131202d3235202d313536202d3133202d313430202d313160208201527f30202d313430206c2d383520302030202d3438382030202d343838202d31313060408201527f202d36323920632d3630202d333437202d313132202d363430202d313135202d60608201527f363531202d34202d32302032202d3233203933202d3339203533202d3920313060808201527f35202d313920313134202d3231203136202d35203138202d3139203138202d3160a08201527f3230206c30202d31313420363634203020363633203020363333202d3131302060c08201527f63343632202d383120363335202d31303820363431202d39392034203620313060e08201527f2033352031342036332033203238203131203732203136203939206c313120346101008201527f37203739203020373920302030203435382030203435382031323020363930206101208201527f63363620333739203132322036393620313233203730342031203131202d32366101408201527f203139202d313138203335206c2d313230203231202d33203932202d332039326101608201527f202d3532332030202d3532322030202d3633352031313120632d3334392036306101808201527f202d36393420313230202d37363620313333202d313230203231202d313333206101a08201527f3232202d31333720377a206d393634202d373733206330202d37202d38202d366101c08201527f33202d3137202d313235206c2d3136202d313132202d333336202d3320632d336101e08201527f3136202d33202d333339202d34202d333831202d3234202d3836202d3339202d6102008201527f313233202d313133202d3938202d313930203131202d3334203232202d3433206102208201527f3738202d3731203430202d323020313435202d353320323730202d38342031326102408201527f34202d333120323334202d363520323830202d3837203838202d3431203137346102608201527f202d31323220323131202d313937203231202d3435203234202d3633203234206102808201527f2d3137302030202d313130202d32202d313235202d3238202d313739202d35376102a08201527f202d313232202d313434202d313936202d323937202d323530206c2d3835202d6102c08201527f3331202d333933202d33202d333933202d3320332031323320332031323320336102e08201527f36352035203336352035203532203237206336392033372039372037372039386103008201527f203134342030203931202d363220313435202d32323020313838202d343920316103208201527f34202d313438203431202d323230203631202d323330203633202d33343420316103408201527f3335202d34303220323534202d3235203531202d3238203636202d32382031366103608201527f36203020313030203320313135203238203136362036382031333920313934206103808201527f3232372033373720323634203931203138203736302032312037363020337a206103a08201527f6d31363230202d313333206c30202d313335202d3230352030202d32303520306103c08201527f2030202d3633302030202d363330202d3136352030202d3136352030203020366103e08201527f3330203020363330202d313635203020632d3133342030202d3136352033202d6104008201527f31363520313420302031322033312031373520343520323334206c35203232206104208201527f35313020302035313020302030202d3133357a206d2d31313937202d373832206104408201527f6c2d33202d353938202d313630202d33202d313630202d3220302035373420306104608201527f20353734203733203132206333392037203130312031382031333720323520336104808201527f362037203736203133203930203134206c32352031202d32202d3539377a222f6104a08201527f3e3c2f673e0000000000000000000000000000000000000000000000000000006104c08201526104c50190565b600082614e9257614e92614178565b500490565b600082614ea657614ea6614178565b500690565b7f416363657373436f6e74726f6c3a206163636f756e7420000000000000000000815260008351614ee38160178501602088016135f6565b7f206973206d697373696e6720726f6c65200000000000000000000000000000006017918401918201528351614f208160288401602088016135f6565b01602801949350505050565b60006001600160a01b03808716835280861660208401525083604083015260806060830152614f5e6080830184613622565b9695505050505050565b600060208284031215614f7a57600080fd5b8151611382816135c3565b634e487b7160e01b600052603160045260246000fdfe4142434445464748494a4b4c4d4e4f505152535455565758595a6162636465666768696a6b6c6d6e6f707172737475767778797a303132333435363738392b2fa2646970667358221220c832de32248d84fc0355058800f49213b37d12f969fff802290448e869e02db764736f6c634300080e0033",
  "immutableReferences": {},
  "source": "// SPDX-License-Identifier: MIT\r\n\r\npragma solidity ^0.8.0;\r\n\r\nimport \"@openzeppelin/contracts/token/ERC721/extensions/ERC721Enumerable.sol\";\r\nimport \"@openzeppelin/contracts/utils/Counters.sol\";\r\n\r\nimport \"./Base64.sol\";\r\nimport \"./RoleControl.sol\";\r\n\r\ncontract SITNFT is ERC721, ERC721Enumerable, RoleControl {\r\n\r\n\r\n  using Counters for Counters.Counter;\r\n  Counters.Counter private _tokenIdCounter;\r\n  using Strings for uint256;\r\n  event Transfer(address from, address receiver, uint amount, string message, uint256 timestamp, string keyword);\r\n  string[4][16] palette = [\r\n        [\"#eca3f5\", \"#fdbaf9\", \"#b0efeb\", \"#edffa9\"],\r\n        [\"#75cfb8\", \"#bbdfc8\", \"#f0e5d8\", \"#ffc478\"],\r\n        [\"#ffab73\", \"#ffd384\", \"#fff9b0\", \"#ffaec0\"],\r\n        [\"#94b4a4\", \"#d2f5e3\", \"#e5c5b5\", \"#f4d9c6\"],\r\n        [\"#f4f9f9\", \"#ccf2f4\", \"#a4ebf3\", \"#aaaaaa\"],\r\n        [\"#caf7e3\", \"#edffec\", \"#f6dfeb\", \"#e4bad4\"],\r\n        [\"#f4f9f9\", \"#f1d1d0\", \"#fbaccc\", \"#f875aa\"],\r\n        [\"#fdffbc\", \"#ffeebb\", \"#ffdcb8\", \"#ffc1b6\"],\r\n        [\"#f0e4d7\", \"#f5c0c0\", \"#ff7171\", \"#9fd8df\"],\r\n        [\"#e4fbff\", \"#b8b5ff\", \"#7868e6\", \"#edeef7\"],\r\n        [\"#ffcb91\", \"#ffefa1\", \"#94ebcd\", \"#6ddccf\"],\r\n        [\"#bedcfa\", \"#98acf8\", \"#b088f9\", \"#da9ff9\"],\r\n        [\"#bce6eb\", \"#fdcfdf\", \"#fbbedf\", \"#fca3cc\"],\r\n        [\"#ff75a0\", \"#fce38a\", \"#eaffd0\", \"#95e1d3\"],\r\n        [\"#fbe0c4\", \"#8ab6d6\", \"#2978b5\", \"#0061a8\"],\r\n        [\"#dddddd\", \"#f9f3f3\", \"#f7d9d9\", \"#f25287\"]\r\n  ];\r\n \r\n  struct IdAddress {\r\n      string id;\r\n      address addr;\r\n  }\r\n\r\n  struct Attribute {\r\n      string moduleCode;\r\n      string testType;\r\n      string grade;\r\n      string trimester;\r\n      address recipient;\r\n      address base;\r\n  }\r\n   struct TransferStruct {\r\n        address sender;\r\n        string message;\r\n        uint256 timestamp;\r\n    }\r\n    TransferStruct[] transactions;\r\n\r\n\r\n  mapping(uint256 => Attribute) public attributes;\r\n  mapping(bytes32 => address) private _studentAddress;\r\n\r\n  constructor() ERC721(\"SIT NFT\", \"SIT\") RoleControl(msg.sender) {\r\n  }\r\n  function addToBlockchain( string memory message) public {\r\n    transactions.push(TransferStruct(msg.sender, message, block.timestamp));\r\n    // emit Transfer(msg.sender, receiver, amount, message, block.timestamp, keyword);\r\n  }\r\n      function getAllTransactions() public view returns (TransferStruct[] memory) {\r\n        return transactions;\r\n    }\r\n\r\n  function addStudentAddress(string memory _id, address _address ) public onlyAdmin {\r\n    bytes32 encryptedId = keccak256(abi.encodePacked(_id));\r\n    _studentAddress[encryptedId] = _address;\r\n  }\r\n\r\n  function multiAddStudentAddress(IdAddress[] memory _array) public onlyAdmin {\r\n    for(uint i=0; i <_array.length; i++) {\r\n      addStudentAddress(_array[i].id, _array[i].addr);\r\n    }\r\n  }\r\n\r\n  function getStudentAddress(string memory _id) public view onlyFaculty returns (address){\r\n    bytes32 encryptedId = keccak256(abi.encodePacked(_id));\r\n    require(_studentAddress[encryptedId] != address(0) , \"Student does not exist.\");\r\n    return _studentAddress[encryptedId];\r\n  }\r\n\r\n  // public\r\n  function mint(string memory moduleCode, string memory testType, string memory grade, string memory trimester, string memory recipient) public onlyFaculty {\r\n    uint256 supply = totalSupply();\r\n    Attribute memory newAttribute = Attribute(\r\n      moduleCode,\r\n      testType,\r\n      grade,\r\n      trimester,\r\n      getStudentAddress(recipient),\r\n      getOwner()\r\n    );\r\n\r\n    attributes[supply + 1] = newAttribute;\r\n    _safeMint(newAttribute.recipient,supply + 1);\r\n  }\r\n    function generatePaletteSection(uint256 _tokenId, uint256 pIndex) internal view returns (string memory) {\r\n        return string(abi.encodePacked(\r\n                '<rect width=\"300\" height=\"300\" rx=\"10\" style=\"fill:',palette[pIndex][0],'\" />',\r\n                '<rect y=\"60\" width=\"300\" height=\"115\" style=\"fill:',palette[pIndex][1],'\"/>',\r\n                '<rect y=\"175\" width=\"300\" height=\"40\" style=\"fill:',palette[pIndex][2],'\" />', \r\n                '<text x=\"15\" y=\"25\" class=\"medium\">',attributes[_tokenId].testType,' Certificate</text>',\r\n                // '<text x=\"17\" y=\"50\" class=\"small\" opacity=\"0.5\">',substring(toString(_tokenId),0,24),'</text>',\r\n                '<g transform=\"translate(260.000000,40.000000) scale(0.010000,-0.010000)\" fill=\"#000000\" stroke=\"none\">',\r\n                '<path d=\"M446 3021 c-3 -9 -12 -59 -21 -111 -25 -156 -13 -140 -110 -140 l-85 0 0 -488 0 -488 -110 -629 c-60 -347 -112 -640 -115 -651 -4 -20 2 -23 93 -39 53 -9 105 -19 114 -21 16 -5 18 -19 18 -120 l0 -114 664 0 663 0 633 -110 c462 -81 635 -108 641 -99 4 6 10 35 14 63 3 28 11 72 16 99 l11 47 79 0 79 0 0 458 0 458 120 690 c66 379 122 696 123 704 1 11 -26 19 -118 35 l-120 21 -3 92 -3 92 -523 0 -522 0 -635 111 c-349 60 -694 120 -766 133 -120 21 -133 22 -137 7z m964 -773 c0 -7 -8 -63 -17 -125 l-16 -112 -336 -3 c-316 -3 -339 -4 -381 -24 -86 -39 -123 -113 -98 -190 11 -34 22 -43 78 -71 40 -20 145 -53 270 -84 124 -31 234 -65 280 -87 88 -41 174 -122 211 -197 21 -45 24 -63 24 -170 0 -110 -2 -125 -28 -179 -57 -122 -144 -196 -297 -250 l-85 -31 -393 -3 -393 -3 3 123 3 123 365 5 365 5 52 27 c69 37 97 77 98 144 0 91 -62 145 -220 188 -49 14 -148 41 -220 61 -230 63 -344 135 -402 254 -25 51 -28 66 -28 166 0 100 3 115 28 166 68 139 194 227 377 264 91 18 760 21 760 3z m1620 -133 l0 -135 -205 0 -205 0 0 -630 0 -630 -165 0 -165 0 0 630 0 630 -165 0 c-134 0 -165 3 -165 14 0 12 31 175 45 234 l5 22 510 0 510 0 0 -135z m-1197 -782 l-3 -598 -160 -3 -160 -2 0 574 0 574 73 12 c39 7 101 18 137 25 36 7 76 13 90 14 l25 1 -2 -597z\"/></g>'\r\n                \r\n            )\r\n        );\r\n    }  \r\n\r\n\r\n\r\n  function generateBase64Image(uint256 _tokenId) public view returns (string memory) {\r\n        return Base64.encode(bytes(generateImage(_tokenId)));\r\n  }\r\n  function setMetadata(uint256 _tokenId, string memory grade) public onlyFaculty returns (string memory) {\r\n        // attributes[_tokenId].testType = \"EditedTest\";\r\n        attributes[_tokenId].grade = grade;\r\n        return \"success\";\r\n  }\r\n  \r\n\r\n\r\n  function generateImage(uint256 _tokenId) public view returns (string memory) {\r\n        // bytes memory hash = abi.encodePacked(bytes32(_tokenId));\r\n        uint256 random = uint(keccak256(abi.encodePacked(block.timestamp, msg.sender)));\r\n        bytes memory hash = abi.encodePacked(bytes32(random));\r\n        uint256 pIndex = toUint8(hash,0)/16; // 16 palettes\r\n        \r\n        /* this is broken into functions to avoid stack too deep errors */\r\n        string memory paletteSection = generatePaletteSection(_tokenId, pIndex);\r\n        string memory svgSection = buildImageSvg(_tokenId);\r\n        return string(\r\n            abi.encodePacked(\r\n                '<svg class=\"svgBody\" width=\"300\" height=\"300\" viewBox=\"0 0 300 300\" xmlns=\"http://www.w3.org/2000/svg\">',\r\n                paletteSection,\r\n                svgSection\r\n            )\r\n        );\r\n    }\r\n    function buildImageSvg(uint256 _tokenId) public view returns(string memory) {\r\n        return string(\r\n            abi.encodePacked(\r\n                '<text x=\"15\" y=\"80\" class=\"medium\">Module> ',attributes[_tokenId].moduleCode,'</text>',\r\n                '<text x=\"15\" y=\"100\" class=\"medium\">Trimester> ',attributes[_tokenId].trimester,'</text>',\r\n                '<text x=\"15\" y=\"120\" class=\"medium\">Grade:</text>',\r\n                '<rect x=\"15\" y=\"125\" width=\"205\" height=\"40\" style=\"fill:white;opacity:0.5\"/>',\r\n                '<text x=\"15\" y=\"140\" class=\"medium\">',attributes[_tokenId].grade,'</text>',\r\n                '<text x=\"15\" y=\"190\" class=\"small\">Recipient:</text>',\r\n                '<text x=\"15\" y=\"205\" style=\"font-size:8px\">',toHexString(uint160(attributes[_tokenId].base), 20),'</text>',\r\n                '<style>.svgBody {font-family: \"Courier New\" } .tiny {font-size:6px; } .small {font-size: 12px;}.medium {font-size: 18px;}</style>',\r\n                '</svg>'\r\n            )\r\n        );\r\n    }\r\n\r\n    function buildMetadata(uint256 _tokenId) public view returns(string memory) {\r\n        // Attribute memory currentAttribute = attributes[_tokenId];\r\n        string memory image = generateBase64Image(_tokenId);\r\n        string memory json = Base64.encode(\r\n            bytes(string(\r\n                abi.encodePacked(\r\n                    '{\"name\": \"', attributes[_tokenId].moduleCode,' Certificate #',toString(_tokenId),'\",',\r\n                    '\"image\": \"', \r\n                    'data:image/svg+xml;base64,',\r\n                    image,'\",',\r\n                    '\"attributes\": [{\"trait_type\": \"ModuleCode\", \"value\": \"', attributes[_tokenId].moduleCode, '\"},',\r\n                    '{\"trait_type\": \"Type\", \"value\": \"', attributes[_tokenId].testType, '\"},',\r\n                    '{\"trait_type\": \"Trimester\", \"value\": \"', attributes[_tokenId].trimester, '\"}',\r\n                    ']}'\r\n                )\r\n            ))\r\n        );\r\n        return string(abi.encodePacked('data:application/json;base64,', json));\r\n    }\r\n    \r\n\r\n  \r\n\r\n    function tokenURI(uint256 _tokenId) public view virtual override returns (string memory) {\r\n        require(_exists(_tokenId), \"ERC721Metadata: URI query for nonexistent token\");\r\n        require(_exists(_tokenId),\"ERC721Metadata: URI query for nonexistent token\");\r\n        return buildMetadata(_tokenId);\r\n\r\n    }\r\n\r\n      function _beforeTokenTransfer(address from, address to, uint256 _tokenId)\r\n        internal\r\n        override(ERC721, ERC721Enumerable)\r\n    {\r\n        super._beforeTokenTransfer(from, to, _tokenId);\r\n\r\n        Attribute memory currentAttribute = attributes[_tokenId];\r\n        \r\n        require(to == currentAttribute.recipient || to == currentAttribute.base , \"Target is not the recipient.\");\r\n    }\r\n\r\n    function supportsInterface(bytes4 interfaceId)\r\n        public\r\n        view\r\n        override(ERC721,ERC721Enumerable, AccessControlEnumerable)\r\n        returns (bool)\r\n    {\r\n        return super.supportsInterface(interfaceId);\r\n    }\r\n\r\n\r\n\r\n    bytes16 private constant _ALPHABET = \"0123456789abcdef\";\r\n\r\n    /**\r\n     * @dev Converts a `uint256` to its ASCII `string` hexadecimal representation with fixed length.\r\n     */\r\n    function toHexString(uint256 value, uint256 length) internal pure returns (string memory) {\r\n        bytes memory buffer = new bytes(2 * length + 2);\r\n        buffer[0] = \"0\";\r\n        buffer[1] = \"x\";\r\n        for (uint256 i = 2 * length + 1; i > 1; --i) {\r\n            buffer[i] = _ALPHABET[value & 0xf];\r\n            value >>= 4;\r\n        }\r\n        require(value == 0, \"HEX_L\");\r\n        return string(buffer);\r\n    }\r\n\r\n    function toUint8(bytes memory _bytes, uint256 _start) internal pure returns (uint8) {\r\n        require(_start + 1 >= _start, \"toUint8_overflow\");\r\n        require(_bytes.length >= _start + 1 , \"toUint8_outOfBounds\");\r\n        uint8 tempUint;\r\n\r\n        assembly {\r\n            tempUint := mload(add(add(_bytes, 0x1), _start))\r\n        }\r\n        return tempUint;\r\n    }    \r\n    function toString(uint256 value) internal pure returns (string memory) {\r\n\r\n        if (value == 0) {\r\n            return \"0\";\r\n        }\r\n        uint256 temp = value;\r\n        uint256 digits;\r\n        while (temp != 0) {\r\n            digits++;\r\n            temp /= 10;\r\n        }\r\n        bytes memory buffer = new bytes(digits);\r\n        while (value != 0) {\r\n            digits -= 1;\r\n            buffer[digits] = bytes1(uint8(48 + uint256(value % 10)));\r\n            value /= 10;\r\n        }\r\n        return string(buffer);\r\n    }\r\n\r\n\r\n}",
  "sourcePath": "C:\\Users\\ngjun\\Downloads\\Blockchain-Trusted-Model\\contracts\\SITNFT.sol",
  "compiler": {
    "name": "solc",
    "version": "0.8.14+commit.80d49f37.Emscripten.clang"
  },
  "schemaVersion": "3.4.8",
  "updatedAt": "2022-07-17T09:31:32.355Z",
  "networkType": "ethereum",
  "devdoc": {
    "kind": "dev",
    "methods": {
      "approve(address,uint256)": {
        "details": "See {IERC721-approve}."
      },
      "balanceOf(address)": {
        "details": "See {IERC721-balanceOf}."
      },
      "getApproved(uint256)": {
        "details": "See {IERC721-getApproved}."
      },
      "getRoleAdmin(bytes32)": {
        "details": "Returns the admin role that controls `role`. See {grantRole} and {revokeRole}. To change a role's admin, use {_setRoleAdmin}."
      },
      "getRoleMember(bytes32,uint256)": {
        "details": "Returns one of the accounts that have `role`. `index` must be a value between 0 and {getRoleMemberCount}, non-inclusive. Role bearers are not sorted in any particular way, and their ordering may change at any point. WARNING: When using {getRoleMember} and {getRoleMemberCount}, make sure you perform all queries on the same block. See the following https://forum.openzeppelin.com/t/iterating-over-elements-on-enumerableset-in-openzeppelin-contracts/2296[forum post] for more information."
      },
      "getRoleMemberCount(bytes32)": {
        "details": "Returns the number of accounts that have `role`. Can be used together with {getRoleMember} to enumerate all bearers of a role."
      },
      "grantRole(bytes32,address)": {
        "details": "Grants `role` to `account`. If `account` had not been already granted `role`, emits a {RoleGranted} event. Requirements: - the caller must have ``role``'s admin role. May emit a {RoleGranted} event."
      },
      "hasRole(bytes32,address)": {
        "details": "Returns `true` if `account` has been granted `role`."
      },
      "isApprovedForAll(address,address)": {
        "details": "See {IERC721-isApprovedForAll}."
      },
      "name()": {
        "details": "See {IERC721Metadata-name}."
      },
      "ownerOf(uint256)": {
        "details": "See {IERC721-ownerOf}."
      },
      "renounceRole(bytes32,address)": {
        "details": "Revokes `role` from the calling account. Roles are often managed via {grantRole} and {revokeRole}: this function's purpose is to provide a mechanism for accounts to lose their privileges if they are compromised (such as when a trusted device is misplaced). If the calling account had been revoked `role`, emits a {RoleRevoked} event. Requirements: - the caller must be `account`. May emit a {RoleRevoked} event."
      },
      "revokeRole(bytes32,address)": {
        "details": "Revokes `role` from `account`. If `account` had been granted `role`, emits a {RoleRevoked} event. Requirements: - the caller must have ``role``'s admin role. May emit a {RoleRevoked} event."
      },
      "safeTransferFrom(address,address,uint256)": {
        "details": "See {IERC721-safeTransferFrom}."
      },
      "safeTransferFrom(address,address,uint256,bytes)": {
        "details": "See {IERC721-safeTransferFrom}."
      },
      "setApprovalForAll(address,bool)": {
        "details": "See {IERC721-setApprovalForAll}."
      },
      "symbol()": {
        "details": "See {IERC721Metadata-symbol}."
      },
      "tokenByIndex(uint256)": {
        "details": "See {IERC721Enumerable-tokenByIndex}."
      },
      "tokenOfOwnerByIndex(address,uint256)": {
        "details": "See {IERC721Enumerable-tokenOfOwnerByIndex}."
      },
      "totalSupply()": {
        "details": "See {IERC721Enumerable-totalSupply}."
      },
      "transferFrom(address,address,uint256)": {
        "details": "See {IERC721-transferFrom}."
      }
    },
    "version": 1
  },
  "userdoc": {
    "kind": "user",
    "methods": {},
    "version": 1
  }
}