{
  "contractName": "SITNFT",
  "abi": [
    {
      "inputs": [],
      "stateMutability": "nonpayable",
      "type": "constructor"
    },
    {
      "anonymous": false,
      "inputs": [
        {
          "indexed": true,
          "internalType": "address",
          "name": "owner",
          "type": "address"
        },
        {
          "indexed": true,
          "internalType": "address",
          "name": "approved",
          "type": "address"
        },
        {
          "indexed": true,
          "internalType": "uint256",
          "name": "tokenId",
          "type": "uint256"
        }
      ],
      "name": "Approval",
      "type": "event"
    },
    {
      "anonymous": false,
      "inputs": [
        {
          "indexed": true,
          "internalType": "address",
          "name": "owner",
          "type": "address"
        },
        {
          "indexed": true,
          "internalType": "address",
          "name": "operator",
          "type": "address"
        },
        {
          "indexed": false,
          "internalType": "bool",
          "name": "approved",
          "type": "bool"
        }
      ],
      "name": "ApprovalForAll",
      "type": "event"
    },
    {
      "anonymous": false,
      "inputs": [
        {
          "indexed": true,
          "internalType": "bytes32",
          "name": "role",
          "type": "bytes32"
        },
        {
          "indexed": true,
          "internalType": "bytes32",
          "name": "previousAdminRole",
          "type": "bytes32"
        },
        {
          "indexed": true,
          "internalType": "bytes32",
          "name": "newAdminRole",
          "type": "bytes32"
        }
      ],
      "name": "RoleAdminChanged",
      "type": "event"
    },
    {
      "anonymous": false,
      "inputs": [
        {
          "indexed": true,
          "internalType": "bytes32",
          "name": "role",
          "type": "bytes32"
        },
        {
          "indexed": true,
          "internalType": "address",
          "name": "account",
          "type": "address"
        },
        {
          "indexed": true,
          "internalType": "address",
          "name": "sender",
          "type": "address"
        }
      ],
      "name": "RoleGranted",
      "type": "event"
    },
    {
      "anonymous": false,
      "inputs": [
        {
          "indexed": true,
          "internalType": "bytes32",
          "name": "role",
          "type": "bytes32"
        },
        {
          "indexed": true,
          "internalType": "address",
          "name": "account",
          "type": "address"
        },
        {
          "indexed": true,
          "internalType": "address",
          "name": "sender",
          "type": "address"
        }
      ],
      "name": "RoleRevoked",
      "type": "event"
    },
    {
      "anonymous": false,
      "inputs": [
        {
          "indexed": true,
          "internalType": "address",
          "name": "from",
          "type": "address"
        },
        {
          "indexed": true,
          "internalType": "address",
          "name": "to",
          "type": "address"
        },
        {
          "indexed": true,
          "internalType": "uint256",
          "name": "tokenId",
          "type": "uint256"
        }
      ],
      "name": "Transfer",
      "type": "event"
    },
    {
      "inputs": [],
      "name": "DEFAULT_ADMIN_ROLE",
      "outputs": [
        {
          "internalType": "bytes32",
          "name": "",
          "type": "bytes32"
        }
      ],
      "stateMutability": "view",
      "type": "function",
      "constant": true
    },
    {
      "inputs": [],
      "name": "FACULTY_ROLE",
      "outputs": [
        {
          "internalType": "bytes32",
          "name": "",
          "type": "bytes32"
        }
      ],
      "stateMutability": "view",
      "type": "function",
      "constant": true
    },
    {
      "inputs": [
        {
          "internalType": "address",
          "name": "account",
          "type": "address"
        }
      ],
      "name": "addAdmin",
      "outputs": [],
      "stateMutability": "nonpayable",
      "type": "function"
    },
    {
      "inputs": [
        {
          "internalType": "address",
          "name": "account",
          "type": "address"
        }
      ],
      "name": "addFaculty",
      "outputs": [],
      "stateMutability": "nonpayable",
      "type": "function"
    },
    {
      "inputs": [
        {
          "internalType": "address",
          "name": "to",
          "type": "address"
        },
        {
          "internalType": "uint256",
          "name": "tokenId",
          "type": "uint256"
        }
      ],
      "name": "approve",
      "outputs": [],
      "stateMutability": "nonpayable",
      "type": "function"
    },
    {
      "inputs": [
        {
          "internalType": "uint256",
          "name": "",
          "type": "uint256"
        }
      ],
      "name": "attributes",
      "outputs": [
        {
          "internalType": "string",
          "name": "moduleCode",
          "type": "string"
        },
        {
          "internalType": "string",
          "name": "testType",
          "type": "string"
        },
        {
          "internalType": "string",
          "name": "grade",
          "type": "string"
        },
        {
          "internalType": "string",
          "name": "trimester",
          "type": "string"
        },
        {
          "internalType": "address",
          "name": "recipient",
          "type": "address"
        },
        {
          "internalType": "address",
          "name": "base",
          "type": "address"
        }
      ],
      "stateMutability": "view",
      "type": "function",
      "constant": true
    },
    {
      "inputs": [
        {
          "internalType": "address",
          "name": "owner",
          "type": "address"
        }
      ],
      "name": "balanceOf",
      "outputs": [
        {
          "internalType": "uint256",
          "name": "",
          "type": "uint256"
        }
      ],
      "stateMutability": "view",
      "type": "function",
      "constant": true
    },
    {
      "inputs": [
        {
          "internalType": "uint256",
          "name": "tokenId",
          "type": "uint256"
        }
      ],
      "name": "getApproved",
      "outputs": [
        {
          "internalType": "address",
          "name": "",
          "type": "address"
        }
      ],
      "stateMutability": "view",
      "type": "function",
      "constant": true
    },
    {
      "inputs": [],
      "name": "getOwner",
      "outputs": [
        {
          "internalType": "address",
          "name": "",
          "type": "address"
        }
      ],
      "stateMutability": "view",
      "type": "function",
      "constant": true
    },
    {
      "inputs": [
        {
          "internalType": "bytes32",
          "name": "role",
          "type": "bytes32"
        }
      ],
      "name": "getRoleAdmin",
      "outputs": [
        {
          "internalType": "bytes32",
          "name": "",
          "type": "bytes32"
        }
      ],
      "stateMutability": "view",
      "type": "function",
      "constant": true
    },
    {
      "inputs": [
        {
          "internalType": "bytes32",
          "name": "role",
          "type": "bytes32"
        },
        {
          "internalType": "uint256",
          "name": "index",
          "type": "uint256"
        }
      ],
      "name": "getRoleMember",
      "outputs": [
        {
          "internalType": "address",
          "name": "",
          "type": "address"
        }
      ],
      "stateMutability": "view",
      "type": "function",
      "constant": true
    },
    {
      "inputs": [
        {
          "internalType": "bytes32",
          "name": "role",
          "type": "bytes32"
        }
      ],
      "name": "getRoleMemberCount",
      "outputs": [
        {
          "internalType": "uint256",
          "name": "",
          "type": "uint256"
        }
      ],
      "stateMutability": "view",
      "type": "function",
      "constant": true
    },
    {
      "inputs": [
        {
          "internalType": "bytes32",
          "name": "role",
          "type": "bytes32"
        },
        {
          "internalType": "address",
          "name": "account",
          "type": "address"
        }
      ],
      "name": "grantRole",
      "outputs": [],
      "stateMutability": "nonpayable",
      "type": "function"
    },
    {
      "inputs": [
        {
          "internalType": "bytes32",
          "name": "role",
          "type": "bytes32"
        },
        {
          "internalType": "address",
          "name": "account",
          "type": "address"
        }
      ],
      "name": "hasRole",
      "outputs": [
        {
          "internalType": "bool",
          "name": "",
          "type": "bool"
        }
      ],
      "stateMutability": "view",
      "type": "function",
      "constant": true
    },
    {
      "inputs": [
        {
          "internalType": "address",
          "name": "account",
          "type": "address"
        }
      ],
      "name": "isAdmin",
      "outputs": [
        {
          "internalType": "bool",
          "name": "",
          "type": "bool"
        }
      ],
      "stateMutability": "view",
      "type": "function",
      "constant": true
    },
    {
      "inputs": [
        {
          "internalType": "address",
          "name": "owner",
          "type": "address"
        },
        {
          "internalType": "address",
          "name": "operator",
          "type": "address"
        }
      ],
      "name": "isApprovedForAll",
      "outputs": [
        {
          "internalType": "bool",
          "name": "",
          "type": "bool"
        }
      ],
      "stateMutability": "view",
      "type": "function",
      "constant": true
    },
    {
      "inputs": [
        {
          "internalType": "address",
          "name": "account",
          "type": "address"
        }
      ],
      "name": "isFaculty",
      "outputs": [
        {
          "internalType": "bool",
          "name": "",
          "type": "bool"
        }
      ],
      "stateMutability": "view",
      "type": "function",
      "constant": true
    },
    {
      "inputs": [],
      "name": "name",
      "outputs": [
        {
          "internalType": "string",
          "name": "",
          "type": "string"
        }
      ],
      "stateMutability": "view",
      "type": "function",
      "constant": true
    },
    {
      "inputs": [
        {
          "internalType": "uint256",
          "name": "tokenId",
          "type": "uint256"
        }
      ],
      "name": "ownerOf",
      "outputs": [
        {
          "internalType": "address",
          "name": "",
          "type": "address"
        }
      ],
      "stateMutability": "view",
      "type": "function",
      "constant": true
    },
    {
      "inputs": [
        {
          "internalType": "address",
          "name": "account",
          "type": "address"
        }
      ],
      "name": "removeAdmin",
      "outputs": [],
      "stateMutability": "nonpayable",
      "type": "function"
    },
    {
      "inputs": [
        {
          "internalType": "address",
          "name": "account",
          "type": "address"
        }
      ],
      "name": "removeFaculty",
      "outputs": [],
      "stateMutability": "nonpayable",
      "type": "function"
    },
    {
      "inputs": [
        {
          "internalType": "bytes32",
          "name": "role",
          "type": "bytes32"
        },
        {
          "internalType": "address",
          "name": "account",
          "type": "address"
        }
      ],
      "name": "renounceRole",
      "outputs": [],
      "stateMutability": "nonpayable",
      "type": "function"
    },
    {
      "inputs": [
        {
          "internalType": "bytes32",
          "name": "role",
          "type": "bytes32"
        },
        {
          "internalType": "address",
          "name": "account",
          "type": "address"
        }
      ],
      "name": "revokeRole",
      "outputs": [],
      "stateMutability": "nonpayable",
      "type": "function"
    },
    {
      "inputs": [
        {
          "internalType": "address",
          "name": "from",
          "type": "address"
        },
        {
          "internalType": "address",
          "name": "to",
          "type": "address"
        },
        {
          "internalType": "uint256",
          "name": "tokenId",
          "type": "uint256"
        }
      ],
      "name": "safeTransferFrom",
      "outputs": [],
      "stateMutability": "nonpayable",
      "type": "function"
    },
    {
      "inputs": [
        {
          "internalType": "address",
          "name": "from",
          "type": "address"
        },
        {
          "internalType": "address",
          "name": "to",
          "type": "address"
        },
        {
          "internalType": "uint256",
          "name": "tokenId",
          "type": "uint256"
        },
        {
          "internalType": "bytes",
          "name": "_data",
          "type": "bytes"
        }
      ],
      "name": "safeTransferFrom",
      "outputs": [],
      "stateMutability": "nonpayable",
      "type": "function"
    },
    {
      "inputs": [
        {
          "internalType": "address",
          "name": "operator",
          "type": "address"
        },
        {
          "internalType": "bool",
          "name": "approved",
          "type": "bool"
        }
      ],
      "name": "setApprovalForAll",
      "outputs": [],
      "stateMutability": "nonpayable",
      "type": "function"
    },
    {
      "inputs": [],
      "name": "symbol",
      "outputs": [
        {
          "internalType": "string",
          "name": "",
          "type": "string"
        }
      ],
      "stateMutability": "view",
      "type": "function",
      "constant": true
    },
    {
      "inputs": [
        {
          "internalType": "uint256",
          "name": "index",
          "type": "uint256"
        }
      ],
      "name": "tokenByIndex",
      "outputs": [
        {
          "internalType": "uint256",
          "name": "",
          "type": "uint256"
        }
      ],
      "stateMutability": "view",
      "type": "function",
      "constant": true
    },
    {
      "inputs": [
        {
          "internalType": "address",
          "name": "owner",
          "type": "address"
        },
        {
          "internalType": "uint256",
          "name": "index",
          "type": "uint256"
        }
      ],
      "name": "tokenOfOwnerByIndex",
      "outputs": [
        {
          "internalType": "uint256",
          "name": "",
          "type": "uint256"
        }
      ],
      "stateMutability": "view",
      "type": "function",
      "constant": true
    },
    {
      "inputs": [],
      "name": "totalSupply",
      "outputs": [
        {
          "internalType": "uint256",
          "name": "",
          "type": "uint256"
        }
      ],
      "stateMutability": "view",
      "type": "function",
      "constant": true
    },
    {
      "inputs": [
        {
          "internalType": "address",
          "name": "from",
          "type": "address"
        },
        {
          "internalType": "address",
          "name": "to",
          "type": "address"
        },
        {
          "internalType": "uint256",
          "name": "tokenId",
          "type": "uint256"
        }
      ],
      "name": "transferFrom",
      "outputs": [],
      "stateMutability": "nonpayable",
      "type": "function"
    },
    {
      "inputs": [
        {
          "internalType": "string",
          "name": "moduleCode",
          "type": "string"
        },
        {
          "internalType": "string",
          "name": "testType",
          "type": "string"
        },
        {
          "internalType": "string",
          "name": "grade",
          "type": "string"
        },
        {
          "internalType": "string",
          "name": "trimester",
          "type": "string"
        },
        {
          "internalType": "string",
          "name": "recipient",
          "type": "string"
        }
      ],
      "name": "mint",
      "outputs": [],
      "stateMutability": "nonpayable",
      "type": "function"
    },
    {
      "inputs": [
        {
          "internalType": "uint256",
          "name": "_tokenId",
          "type": "uint256"
        }
      ],
      "name": "generateBase64Image",
      "outputs": [
        {
          "internalType": "string",
          "name": "",
          "type": "string"
        }
      ],
      "stateMutability": "view",
      "type": "function",
      "constant": true
    },
    {
      "inputs": [
        {
          "internalType": "uint256",
          "name": "_tokenId",
          "type": "uint256"
        }
      ],
      "name": "generateImage",
      "outputs": [
        {
          "internalType": "string",
          "name": "",
          "type": "string"
        }
      ],
      "stateMutability": "view",
      "type": "function",
      "constant": true
    },
    {
      "inputs": [
        {
          "internalType": "uint256",
          "name": "_tokenId",
          "type": "uint256"
        }
      ],
      "name": "tokenURI",
      "outputs": [
        {
          "internalType": "string",
          "name": "",
          "type": "string"
        }
      ],
      "stateMutability": "view",
      "type": "function",
      "constant": true
    },
    {
      "inputs": [
        {
          "internalType": "bytes4",
          "name": "interfaceId",
          "type": "bytes4"
        }
      ],
      "name": "supportsInterface",
      "outputs": [
        {
          "internalType": "bool",
          "name": "",
          "type": "bool"
        }
      ],
      "stateMutability": "view",
      "type": "function",
      "constant": true
    }
  ],
  "bytecode": "0x60806040523480156200001157600080fd5b50604080518082018252600781526614d2550813919560ca1b60208083019182528351808501909452600384526214d25560ea1b9084015281513393916200005d916000919062000286565b5080516200007390600190602084019062000286565b5050600c80546001600160a01b0319166001600160a01b038416179055506200009e600082620000d2565b620000cb7f573a495ec6f39d095bd4855f18069a9236d77216cfb96e453909f2408c333cfa6000620000e2565b5062000368565b620000de82826200012d565b5050565b6000828152600a6020526040808220600101805490849055905190918391839186917fbd79b86ffe0ab8e8776151514217cd7cacd52c909f66475c3af44e129f0b00ff9190a4505050565b6200014482826200017060201b620019c21760201c565b6000828152600b602090815260409091206200016b91839062001a6462000214821b17901c565b505050565b6000828152600a602090815260408083206001600160a01b038516845290915290205460ff16620000de576000828152600a602090815260408083206001600160a01b03851684529091529020805460ff19166001179055620001d03390565b6001600160a01b0316816001600160a01b0316837f2f8788117e7eff1d82e926ec794901d17c78024a50270940304540a733656f0d60405160405180910390a45050565b60006200022b836001600160a01b03841662000234565b90505b92915050565b60008181526001830160205260408120546200027d575081546001818101845560008481526020808220909301849055845484825282860190935260409020919091556200022e565b5060006200022e565b82805462000294906200032c565b90600052602060002090601f016020900481019282620002b8576000855562000303565b82601f10620002d357805160ff191683800117855562000303565b8280016001018555821562000303579182015b8281111562000303578251825591602001919060010190620002e6565b506200031192915062000315565b5090565b5b8082111562000311576000815560010162000316565b600181811c908216806200034157607f821691505b6020821081036200036257634e487b7160e01b600052602260045260246000fd5b50919050565b6145e180620003786000396000f3fe608060405234801561001057600080fd5b506004361061025c5760003560e01c80637048027511610145578063a22cb465116100bd578063c87b56dd1161008c578063d05dcc6a11610071578063d05dcc6a14610536578063d547741f1461055b578063e985e9c51461056e57600080fd5b8063c87b56dd14610510578063ca15c8731461052357600080fd5b8063a22cb465146104c4578063a48b3b8f146104d7578063b88d4fde146104ea578063c2a78702146104fd57600080fd5b80639010d07c1161011457806393a86532116100f957806393a86532146104a157806395d89b41146104b4578063a217fddf146104bc57600080fd5b80639010d07c1461045557806391d148541461046857600080fd5b8063704802751461040b57806370a082311461041e57806386833e9114610431578063893d20e81461044457600080fd5b80632f2ff15d116101d857806342842e0e116101a75780634f6ccce71161018c5780634f6ccce7146103be5780636352211e146103d15780636fe3ceb8146103e457600080fd5b806342842e0e146103985780634b44d812146103ab57600080fd5b80632f2ff15d1461034c5780632f745c591461035f57806336568abe14610372578063396ff3ed1461038557600080fd5b80631785f53c1161022f57806323b872dd1161021457806323b872dd14610303578063248a9ca31461031657806324d7806c1461033957600080fd5b80631785f53c146102de57806318160ddd146102f157600080fd5b806301ffc9a71461026157806306fdde0314610289578063081812fc1461029e578063095ea7b3146102c9575b600080fd5b61027461026f36600461352b565b6105aa565b60405190151581526020015b60405180910390f35b6102916105bb565b60405161028091906135a0565b6102b16102ac3660046135b3565b61064d565b6040516001600160a01b039091168152602001610280565b6102dc6102d73660046135e8565b6106f8565b005b6102dc6102ec366004613612565b610829565b6008545b604051908152602001610280565b6102dc61031136600461362d565b61088c565b6102f56103243660046135b3565b6000908152600a602052604090206001015490565b610274610347366004613612565b610913565b6102dc61035a366004613669565b610953565b6102f561036d3660046135e8565b610978565b6102dc610380366004613669565b610a20565b6102dc610393366004613612565b610aac565b6102dc6103a636600461362d565b610b2b565b6102916103b93660046135b3565b610b46565b6102f56103cc3660046135b3565b610e2a565b6102b16103df3660046135b3565b610ece565b6102f57f573a495ec6f39d095bd4855f18069a9236d77216cfb96e453909f2408c333cfa81565b6102dc610419366004613612565b610f59565b6102f561042c366004613612565b610fb9565b6102dc61043f366004613741565b611053565b600c546001600160a01b03166102b1565b6102b1610463366004613813565b611205565b610274610476366004613669565b6000918252600a602090815260408084206001600160a01b0393909316845291905290205460ff1690565b6102dc6104af366004613612565b611224565b6102916112a3565b6102f5600081565b6102dc6104d2366004613835565b6112b2565b6102916104e53660046135b3565b6112bd565b6102dc6104f8366004613871565b6112d0565b61027461050b366004613612565b61135e565b61029161051e3660046135b3565b61139e565b6102f56105313660046135b3565b611725565b6105496105443660046135b3565b61173c565b604051610280969594939291906138ed565b6102dc610569366004613669565b61199d565b61027461057c366004613961565b6001600160a01b03918216600090815260056020908152604080832093909416825291909152205460ff1690565b60006105b582611a79565b92915050565b6060600080546105ca9061398b565b80601f01602080910402602001604051908101604052809291908181526020018280546105f69061398b565b80156106435780601f1061061857610100808354040283529160200191610643565b820191906000526020600020905b81548152906001019060200180831161062657829003601f168201915b5050505050905090565b6000818152600260205260408120546001600160a01b03166106dc5760405162461bcd60e51b815260206004820152602c60248201527f4552433732313a20617070726f76656420717565727920666f72206e6f6e657860448201527f697374656e7420746f6b656e000000000000000000000000000000000000000060648201526084015b60405180910390fd5b506000908152600460205260409020546001600160a01b031690565b600061070382610ece565b9050806001600160a01b0316836001600160a01b03160361078c5760405162461bcd60e51b815260206004820152602160248201527f4552433732313a20617070726f76616c20746f2063757272656e74206f776e6560448201527f720000000000000000000000000000000000000000000000000000000000000060648201526084016106d3565b336001600160a01b03821614806107a857506107a8813361057c565b61081a5760405162461bcd60e51b815260206004820152603860248201527f4552433732313a20617070726f76652063616c6c6572206973206e6f74206f7760448201527f6e6572206e6f7220617070726f76656420666f7220616c6c000000000000000060648201526084016106d3565b6108248383611ab7565b505050565b61083233610913565b61087e5760405162461bcd60e51b815260206004820152601560248201527f5265737472696374656420746f2061646d696e732e000000000000000000000060448201526064016106d3565b61088960008261199d565b50565b6108963382611b32565b6109085760405162461bcd60e51b815260206004820152603160248201527f4552433732313a207472616e736665722063616c6c6572206973206e6f74206f60448201527f776e6572206e6f7220617070726f76656400000000000000000000000000000060648201526084016106d3565b610824838383611c3a565b6001600160a01b03811660009081527f13da86008ba1c6922daee3e07db95305ef49ebced9f5467a0b8613fcc6b343e3602052604081205460ff166105b5565b6000828152600a602052604090206001015461096e81611e1f565b6108248383611e29565b600061098383610fb9565b82106109f75760405162461bcd60e51b815260206004820152602b60248201527f455243373231456e756d657261626c653a206f776e657220696e646578206f7560448201527f74206f6620626f756e647300000000000000000000000000000000000000000060648201526084016106d3565b506001600160a01b03919091166000908152600660209081526040808320938352929052205490565b6001600160a01b0381163314610a9e5760405162461bcd60e51b815260206004820152602f60248201527f416363657373436f6e74726f6c3a2063616e206f6e6c792072656e6f756e636560448201527f20726f6c657320666f722073656c66000000000000000000000000000000000060648201526084016106d3565b610aa88282611e4b565b5050565b610ab533610913565b610b015760405162461bcd60e51b815260206004820152601560248201527f5265737472696374656420746f2061646d696e732e000000000000000000000060448201526064016106d3565b6108897f573a495ec6f39d095bd4855f18069a9236d77216cfb96e453909f2408c333cfa82610953565b610824838383604051806020016040528060008152506112d0565b60606000600e60008481526020019081526020016000206040518060c0016040529081600082018054610b789061398b565b80601f0160208091040260200160405190810160405280929190818152602001828054610ba49061398b565b8015610bf15780601f10610bc657610100808354040283529160200191610bf1565b820191906000526020600020905b815481529060010190602001808311610bd457829003601f168201915b50505050508152602001600182018054610c0a9061398b565b80601f0160208091040260200160405190810160405280929190818152602001828054610c369061398b565b8015610c835780601f10610c5857610100808354040283529160200191610c83565b820191906000526020600020905b815481529060010190602001808311610c6657829003601f168201915b50505050508152602001600282018054610c9c9061398b565b80601f0160208091040260200160405190810160405280929190818152602001828054610cc89061398b565b8015610d155780601f10610cea57610100808354040283529160200191610d15565b820191906000526020600020905b815481529060010190602001808311610cf857829003601f168201915b50505050508152602001600382018054610d2e9061398b565b80601f0160208091040260200160405190810160405280929190818152602001828054610d5a9061398b565b8015610da75780601f10610d7c57610100808354040283529160200191610da7565b820191906000526020600020905b815481529060010190602001808311610d8a57829003601f168201915b505050918352505060048201546001600160a01b03908116602083015260059092015490911660409091015290506000610de084611e6d565b9050808260400151610e0084608001516001600160a01b03166014612132565b604051602001610e12939291906139e1565b60405160208183030381529060405292505050919050565b6000610e3560085490565b8210610ea95760405162461bcd60e51b815260206004820152602c60248201527f455243373231456e756d657261626c653a20676c6f62616c20696e646578206f60448201527f7574206f6620626f756e6473000000000000000000000000000000000000000060648201526084016106d3565b60088281548110610ebc57610ebc613d4f565b90600052602060002001549050919050565b6000818152600260205260408120546001600160a01b0316806105b55760405162461bcd60e51b815260206004820152602960248201527f4552433732313a206f776e657220717565727920666f72206e6f6e657869737460448201527f656e7420746f6b656e000000000000000000000000000000000000000000000060648201526084016106d3565b610f6233610913565b610fae5760405162461bcd60e51b815260206004820152601560248201527f5265737472696374656420746f2061646d696e732e000000000000000000000060448201526064016106d3565b610889600082610953565b60006001600160a01b0382166110375760405162461bcd60e51b815260206004820152602a60248201527f4552433732313a2062616c616e636520717565727920666f7220746865207a6560448201527f726f20616464726573730000000000000000000000000000000000000000000060648201526084016106d3565b506001600160a01b031660009081526003602052604090205490565b61105c3361135e565b6110a85760405162461bcd60e51b815260206004820152601660248201527f5265737472696374656420746f20666163756c74792e0000000000000000000060448201526064016106d3565b60006110b360085490565b905060006040518060c001604052808881526020018781526020018681526020018581526020016110e3856122db565b6001600160a01b03168152602001611103600c546001600160a01b031690565b6001600160a01b03169052905080600e6000611120856001613d7b565b81526020808201929092526040016000208251805191926111469284929091019061347c565b50602082810151805161115f926001850192019061347c565b506040820151805161117b91600284019160209091019061347c565b506060820151805161119791600384019160209091019061347c565b5060808281015160048301805473ffffffffffffffffffffffffffffffffffffffff199081166001600160a01b039384161790915560a090940151600590930180549094169216919091179091558101516111fc906111f7846001613d7b565b61238a565b50505050505050565b6000828152600b6020526040812061121d90836123a4565b9392505050565b61122d33610913565b6112795760405162461bcd60e51b815260206004820152601560248201527f5265737472696374656420746f2061646d696e732e000000000000000000000060448201526064016106d3565b6108897f573a495ec6f39d095bd4855f18069a9236d77216cfb96e453909f2408c333cfa8261199d565b6060600180546105ca9061398b565b610aa83383836123b0565b60606105b56112cb83610b46565b61247e565b6112da3383611b32565b61134c5760405162461bcd60e51b815260206004820152603160248201527f4552433732313a207472616e736665722063616c6c6572206973206e6f74206f60448201527f776e6572206e6f7220617070726f76656400000000000000000000000000000060648201526084016106d3565b6113588484848461261c565b50505050565b6001600160a01b03811660009081527f9019cc2ada0da9adebe4b58b4b78fbab4edc82e8bb6da2a3f362a37225196cd3602052604081205460ff166105b5565b6000818152600260205260409020546060906001600160a01b031661142b5760405162461bcd60e51b815260206004820152602f60248201527f4552433732314d657461646174613a2055524920717565727920666f72206e6f60448201527f6e6578697374656e7420746f6b656e000000000000000000000000000000000060648201526084016106d3565b6000828152600e6020526040808220815160c081019092528054829082906114529061398b565b80601f016020809104026020016040519081016040528092919081815260200182805461147e9061398b565b80156114cb5780601f106114a0576101008083540402835291602001916114cb565b820191906000526020600020905b8154815290600101906020018083116114ae57829003601f168201915b505050505081526020016001820180546114e49061398b565b80601f01602080910402602001604051908101604052809291908181526020018280546115109061398b565b801561155d5780601f106115325761010080835404028352916020019161155d565b820191906000526020600020905b81548152906001019060200180831161154057829003601f168201915b505050505081526020016002820180546115769061398b565b80601f01602080910402602001604051908101604052809291908181526020018280546115a29061398b565b80156115ef5780601f106115c4576101008083540402835291602001916115ef565b820191906000526020600020905b8154815290600101906020018083116115d257829003601f168201915b505050505081526020016003820180546116089061398b565b80601f01602080910402602001604051908101604052809291908181526020018280546116349061398b565b80156116815780601f1061165657610100808354040283529160200191611681565b820191906000526020600020905b81548152906001019060200180831161166457829003601f168201915b505050918352505060048201546001600160a01b039081166020830152600590920154909116604090910152905060006116ba846112bd565b905061171582600001518360200151846040015185606001516116eb87608001516001600160a01b03166014612132565b8660405160200161170196959493929190613d93565b60405160208183030381529060405261247e565b604051602001610e129190613f56565b6000818152600b602052604081206105b5906126a5565b600e602052600090815260409020805481906117579061398b565b80601f01602080910402602001604051908101604052809291908181526020018280546117839061398b565b80156117d05780601f106117a5576101008083540402835291602001916117d0565b820191906000526020600020905b8154815290600101906020018083116117b357829003601f168201915b5050505050908060010180546117e59061398b565b80601f01602080910402602001604051908101604052809291908181526020018280546118119061398b565b801561185e5780601f106118335761010080835404028352916020019161185e565b820191906000526020600020905b81548152906001019060200180831161184157829003601f168201915b5050505050908060020180546118739061398b565b80601f016020809104026020016040519081016040528092919081815260200182805461189f9061398b565b80156118ec5780601f106118c1576101008083540402835291602001916118ec565b820191906000526020600020905b8154815290600101906020018083116118cf57829003601f168201915b5050505050908060030180546119019061398b565b80601f016020809104026020016040519081016040528092919081815260200182805461192d9061398b565b801561197a5780601f1061194f5761010080835404028352916020019161197a565b820191906000526020600020905b81548152906001019060200180831161195d57829003601f168201915b50505050600483015460059093015491926001600160a01b039081169216905086565b6000828152600a60205260409020600101546119b881611e1f565b6108248383611e4b565b6000828152600a602090815260408083206001600160a01b038516845290915290205460ff16610aa8576000828152600a602090815260408083206001600160a01b03851684529091529020805460ff19166001179055611a203390565b6001600160a01b0316816001600160a01b0316837f2f8788117e7eff1d82e926ec794901d17c78024a50270940304540a733656f0d60405160405180910390a45050565b600061121d836001600160a01b0384166126af565b60006001600160e01b031982167f5a05180f0000000000000000000000000000000000000000000000000000000014806105b557506105b5826126fe565b6000818152600460205260409020805473ffffffffffffffffffffffffffffffffffffffff19166001600160a01b0384169081179091558190611af982610ece565b6001600160a01b03167f8c5be1e5ebec7d5bd14f71427d1e84f3dd0314c0f7b2291e5b200ac8c7c3b92560405160405180910390a45050565b6000818152600260205260408120546001600160a01b0316611bbc5760405162461bcd60e51b815260206004820152602c60248201527f4552433732313a206f70657261746f7220717565727920666f72206e6f6e657860448201527f697374656e7420746f6b656e000000000000000000000000000000000000000060648201526084016106d3565b6000611bc783610ece565b9050806001600160a01b0316846001600160a01b03161480611c0e57506001600160a01b0380821660009081526005602090815260408083209388168352929052205460ff165b80611c325750836001600160a01b0316611c278461064d565b6001600160a01b0316145b949350505050565b826001600160a01b0316611c4d82610ece565b6001600160a01b031614611cc95760405162461bcd60e51b815260206004820152602560248201527f4552433732313a207472616e736665722066726f6d20696e636f72726563742060448201527f6f776e657200000000000000000000000000000000000000000000000000000060648201526084016106d3565b6001600160a01b038216611d445760405162461bcd60e51b8152602060048201526024808201527f4552433732313a207472616e7366657220746f20746865207a65726f2061646460448201527f726573730000000000000000000000000000000000000000000000000000000060648201526084016106d3565b611d4f83838361273c565b611d5a600082611ab7565b6001600160a01b0383166000908152600360205260408120805460019290611d83908490613f9b565b90915550506001600160a01b0382166000908152600360205260408120805460019290611db1908490613d7b565b9091555050600081815260026020526040808220805473ffffffffffffffffffffffffffffffffffffffff19166001600160a01b0386811691821790925591518493918716917fddf252ad1be2c89b69c2b068fc378daa952ba7f163c4a11628f55a4df523b3ef91a4505050565b6108898133612a42565b611e3382826119c2565b6000828152600b602052604090206108249082611a64565b611e558282612ac2565b6000828152600b602052604090206108249082612b45565b60606000600e60008481526020019081526020016000206040518060c0016040529081600082018054611e9f9061398b565b80601f0160208091040260200160405190810160405280929190818152602001828054611ecb9061398b565b8015611f185780601f10611eed57610100808354040283529160200191611f18565b820191906000526020600020905b815481529060010190602001808311611efb57829003601f168201915b50505050508152602001600182018054611f319061398b565b80601f0160208091040260200160405190810160405280929190818152602001828054611f5d9061398b565b8015611faa5780601f10611f7f57610100808354040283529160200191611faa565b820191906000526020600020905b815481529060010190602001808311611f8d57829003601f168201915b50505050508152602001600282018054611fc39061398b565b80601f0160208091040260200160405190810160405280929190818152602001828054611fef9061398b565b801561203c5780601f106120115761010080835404028352916020019161203c565b820191906000526020600020905b81548152906001019060200180831161201f57829003601f168201915b505050505081526020016003820180546120559061398b565b80601f01602080910402602001604051908101604052809291908181526020018280546120819061398b565b80156120ce5780601f106120a3576101008083540402835291602001916120ce565b820191906000526020600020905b8154815290600101906020018083116120b157829003601f168201915b505050918352505060048201546001600160a01b03908116602080840191909152600590930154166040918201528251838301516060850151925194955061211b94919390929101613fb2565b604051602081830303815290604052915050919050565b60606000612141836002614411565b61214c906002613d7b565b67ffffffffffffffff81111561216457612164613695565b6040519080825280601f01601f19166020018201604052801561218e576020820181803683370190505b509050600360fc1b816000815181106121a9576121a9613d4f565b60200101906001600160f81b031916908160001a905350600f60fb1b816001815181106121d8576121d8613d4f565b60200101906001600160f81b031916908160001a90535060006121fc846002614411565b612207906001613d7b565b90505b600181111561228c577f303132333435363738396162636465660000000000000000000000000000000085600f166010811061224857612248613d4f565b1a60f81b82828151811061225e5761225e613d4f565b60200101906001600160f81b031916908160001a90535060049490941c9361228581614430565b905061220a565b50831561121d5760405162461bcd60e51b815260206004820152600560248201527f4845585f4c00000000000000000000000000000000000000000000000000000060448201526064016106d3565b600080826040516020016122ef9190614447565b60408051601f1981840301815291815281516020928301206000818152600f9093529120549091506001600160a01b031661236c5760405162461bcd60e51b815260206004820152601760248201527f53747564656e7420646f6573206e6f742065786973742e00000000000000000060448201526064016106d3565b6000908152600f60205260409020546001600160a01b031692915050565b610aa8828260405180602001604052806000815250612b5a565b600061121d8383612be3565b816001600160a01b0316836001600160a01b0316036124115760405162461bcd60e51b815260206004820152601960248201527f4552433732313a20617070726f766520746f2063616c6c65720000000000000060448201526064016106d3565b6001600160a01b03838116600081815260056020908152604080832094871680845294825291829020805460ff191686151590811790915591519182527f17307eab39ab6107e8899845ad3d59bd9653f200f220920489ca2b5937696c31910160405180910390a3505050565b6060815160000361249d57505060408051602081019091526000815290565b600060405180606001604052806040815260200161456c60409139905060006003845160026124cc9190613d7b565b6124d69190614463565b6124e1906004614411565b905060006124f0826020613d7b565b67ffffffffffffffff81111561250857612508613695565b6040519080825280601f01601f191660200182016040528015612532576020820181803683370190505b509050818152600183018586518101602084015b818310156125a05760039283018051603f601282901c811687015160f890811b8552600c83901c8216880151811b6001860152600683901c8216880151811b60028601529116860151901b93820193909352600401612546565b6003895106600181146125ba57600281146125e65761260e565b7f3d3d00000000000000000000000000000000000000000000000000000000000060011983015261260e565b7f3d000000000000000000000000000000000000000000000000000000000000006000198301525b509398975050505050505050565b612627848484611c3a565b61263384848484612c0d565b6113585760405162461bcd60e51b815260206004820152603260248201527f4552433732313a207472616e7366657220746f206e6f6e20455243373231526560448201527f63656976657220696d706c656d656e746572000000000000000000000000000060648201526084016106d3565b60006105b5825490565b60008181526001830160205260408120546126f6575081546001818101845560008481526020808220909301849055845484825282860190935260409020919091556105b5565b5060006105b5565b60006001600160e01b031982167f7965db0b0000000000000000000000000000000000000000000000000000000014806105b557506105b582612d64565b612747838383612da2565b6000818152600e6020526040808220815160c0810190925280548290829061276e9061398b565b80601f016020809104026020016040519081016040528092919081815260200182805461279a9061398b565b80156127e75780601f106127bc576101008083540402835291602001916127e7565b820191906000526020600020905b8154815290600101906020018083116127ca57829003601f168201915b505050505081526020016001820180546128009061398b565b80601f016020809104026020016040519081016040528092919081815260200182805461282c9061398b565b80156128795780601f1061284e57610100808354040283529160200191612879565b820191906000526020600020905b81548152906001019060200180831161285c57829003601f168201915b505050505081526020016002820180546128929061398b565b80601f01602080910402602001604051908101604052809291908181526020018280546128be9061398b565b801561290b5780601f106128e05761010080835404028352916020019161290b565b820191906000526020600020905b8154815290600101906020018083116128ee57829003601f168201915b505050505081526020016003820180546129249061398b565b80601f01602080910402602001604051908101604052809291908181526020018280546129509061398b565b801561299d5780601f106129725761010080835404028352916020019161299d565b820191906000526020600020905b81548152906001019060200180831161298057829003601f168201915b505050918352505060048201546001600160a01b03908116602083015260059092015482166040909101526080820151919250848116911614806129f657508060a001516001600160a01b0316836001600160a01b0316145b6113585760405162461bcd60e51b815260206004820152601c60248201527f546172676574206973206e6f742074686520726563697069656e742e0000000060448201526064016106d3565b6000828152600a602090815260408083206001600160a01b038516845290915290205460ff16610aa857612a80816001600160a01b03166014612e5a565b612a8b836020612e5a565b604051602001612a9c929190614485565b60408051601f198184030181529082905262461bcd60e51b82526106d3916004016135a0565b6000828152600a602090815260408083206001600160a01b038516845290915290205460ff1615610aa8576000828152600a602090815260408083206001600160a01b0385168085529252808320805460ff1916905551339285917ff6391f5c32d9c69d2a47ea670b442974b53935d1edc7fd64eb21e047a839171b9190a45050565b600061121d836001600160a01b038416613003565b612b6483836130f6565b612b716000848484612c0d565b6108245760405162461bcd60e51b815260206004820152603260248201527f4552433732313a207472616e7366657220746f206e6f6e20455243373231526560448201527f63656976657220696d706c656d656e746572000000000000000000000000000060648201526084016106d3565b6000826000018281548110612bfa57612bfa613d4f565b9060005260206000200154905092915050565b60006001600160a01b0384163b15612d5957604051630a85bd0160e11b81526001600160a01b0385169063150b7a0290612c51903390899088908890600401614506565b6020604051808303816000875af1925050508015612c8c575060408051601f3d908101601f19168201909252612c8991810190614538565b60015b612d3f573d808015612cba576040519150601f19603f3d011682016040523d82523d6000602084013e612cbf565b606091505b508051600003612d375760405162461bcd60e51b815260206004820152603260248201527f4552433732313a207472616e7366657220746f206e6f6e20455243373231526560448201527f63656976657220696d706c656d656e746572000000000000000000000000000060648201526084016106d3565b805181602001fd5b6001600160e01b031916630a85bd0160e11b149050611c32565b506001949350505050565b60006001600160e01b031982167f780e9d630000000000000000000000000000000000000000000000000000000014806105b557506105b582613251565b6001600160a01b038316612dfd57612df881600880546000838152600960205260408120829055600182018355919091527ff3f7a9fe364faab93b216da50a3214154f22a0a2b415b23a84c8169e8b636ee30155565b612e20565b816001600160a01b0316836001600160a01b031614612e2057612e2083826132ec565b6001600160a01b038216612e375761082481613389565b826001600160a01b0316826001600160a01b031614610824576108248282613438565b60606000612e69836002614411565b612e74906002613d7b565b67ffffffffffffffff811115612e8c57612e8c613695565b6040519080825280601f01601f191660200182016040528015612eb6576020820181803683370190505b509050600360fc1b81600081518110612ed157612ed1613d4f565b60200101906001600160f81b031916908160001a905350600f60fb1b81600181518110612f0057612f00613d4f565b60200101906001600160f81b031916908160001a9053506000612f24846002614411565b612f2f906001613d7b565b90505b6001811115612fb4577f303132333435363738396162636465660000000000000000000000000000000085600f1660108110612f7057612f70613d4f565b1a60f81b828281518110612f8657612f86613d4f565b60200101906001600160f81b031916908160001a90535060049490941c93612fad81614430565b9050612f32565b50831561121d5760405162461bcd60e51b815260206004820181905260248201527f537472696e67733a20686578206c656e67746820696e73756666696369656e7460448201526064016106d3565b600081815260018301602052604081205480156130ec576000613027600183613f9b565b855490915060009061303b90600190613f9b565b90508181146130a057600086600001828154811061305b5761305b613d4f565b906000526020600020015490508087600001848154811061307e5761307e613d4f565b6000918252602080832090910192909255918252600188019052604090208390555b85548690806130b1576130b1614555565b6001900381819060005260206000200160009055905585600101600086815260200190815260200160002060009055600193505050506105b5565b60009150506105b5565b6001600160a01b03821661314c5760405162461bcd60e51b815260206004820181905260248201527f4552433732313a206d696e7420746f20746865207a65726f206164647265737360448201526064016106d3565b6000818152600260205260409020546001600160a01b0316156131b15760405162461bcd60e51b815260206004820152601c60248201527f4552433732313a20746f6b656e20616c7265616479206d696e7465640000000060448201526064016106d3565b6131bd6000838361273c565b6001600160a01b03821660009081526003602052604081208054600192906131e6908490613d7b565b9091555050600081815260026020526040808220805473ffffffffffffffffffffffffffffffffffffffff19166001600160a01b03861690811790915590518392907fddf252ad1be2c89b69c2b068fc378daa952ba7f163c4a11628f55a4df523b3ef908290a45050565b60006001600160e01b031982167f80ac58cd0000000000000000000000000000000000000000000000000000000014806132b457506001600160e01b031982167f5b5e139f00000000000000000000000000000000000000000000000000000000145b806105b557507f01ffc9a7000000000000000000000000000000000000000000000000000000006001600160e01b03198316146105b5565b600060016132f984610fb9565b6133039190613f9b565b600083815260076020526040902054909150808214613356576001600160a01b03841660009081526006602090815260408083208584528252808320548484528184208190558352600790915290208190555b5060009182526007602090815260408084208490556001600160a01b039094168352600681528383209183525290812055565b60085460009061339b90600190613f9b565b600083815260096020526040812054600880549394509092849081106133c3576133c3613d4f565b9060005260206000200154905080600883815481106133e4576133e4613d4f565b600091825260208083209091019290925582815260099091526040808220849055858252812055600880548061341c5761341c614555565b6001900381819060005260206000200160009055905550505050565b600061344383610fb9565b6001600160a01b039093166000908152600660209081526040808320868452825280832085905593825260079052919091209190915550565b8280546134889061398b565b90600052602060002090601f0160209004810192826134aa57600085556134f0565b82601f106134c357805160ff19168380011785556134f0565b828001600101855582156134f0579182015b828111156134f05782518255916020019190600101906134d5565b506134fc929150613500565b5090565b5b808211156134fc5760008155600101613501565b6001600160e01b03198116811461088957600080fd5b60006020828403121561353d57600080fd5b813561121d81613515565b60005b8381101561356357818101518382015260200161354b565b838111156113585750506000910152565b6000815180845261358c816020860160208601613548565b601f01601f19169290920160200192915050565b60208152600061121d6020830184613574565b6000602082840312156135c557600080fd5b5035919050565b80356001600160a01b03811681146135e357600080fd5b919050565b600080604083850312156135fb57600080fd5b613604836135cc565b946020939093013593505050565b60006020828403121561362457600080fd5b61121d826135cc565b60008060006060848603121561364257600080fd5b61364b846135cc565b9250613659602085016135cc565b9150604084013590509250925092565b6000806040838503121561367c57600080fd5b8235915061368c602084016135cc565b90509250929050565b634e487b7160e01b600052604160045260246000fd5b600067ffffffffffffffff808411156136c6576136c6613695565b604051601f8501601f19908116603f011681019082821181831017156136ee576136ee613695565b8160405280935085815286868601111561370757600080fd5b858560208301376000602087830101525050509392505050565b600082601f83011261373257600080fd5b61121d838335602085016136ab565b600080600080600060a0868803121561375957600080fd5b853567ffffffffffffffff8082111561377157600080fd5b61377d89838a01613721565b9650602088013591508082111561379357600080fd5b61379f89838a01613721565b955060408801359150808211156137b557600080fd5b6137c189838a01613721565b945060608801359150808211156137d757600080fd5b6137e389838a01613721565b935060808801359150808211156137f957600080fd5b5061380688828901613721565b9150509295509295909350565b6000806040838503121561382657600080fd5b50508035926020909101359150565b6000806040838503121561384857600080fd5b613851836135cc565b91506020830135801515811461386657600080fd5b809150509250929050565b6000806000806080858703121561388757600080fd5b613890856135cc565b935061389e602086016135cc565b925060408501359150606085013567ffffffffffffffff8111156138c157600080fd5b8501601f810187136138d257600080fd5b6138e1878235602084016136ab565b91505092959194509250565b60c08152600061390060c0830189613574565b82810360208401526139128189613574565b905082810360408401526139268188613574565b9050828103606084015261393a8187613574565b9150506001600160a01b03808516608084015280841660a084015250979650505050505050565b6000806040838503121561397457600080fd5b61397d836135cc565b915061368c602084016135cc565b600181811c9082168061399f57607f821691505b6020821081036139bf57634e487b7160e01b600052602260045260246000fd5b50919050565b600081516139d7818560208601613548565b9290920192915050565b7f3c7376672077696474683d2233353022206865696768743d223335302220766981527f6577426f783d2230203020333530203335302220786d6c6e733d22687474703a60208201527f2f2f7777772e77332e6f72672f323030302f737667223e000000000000000000604082015260008451613a65816057850160208901613548565b7f3c74657874207374796c653d2277686974652d73706163653a207072653b206660579184019182018190527f696c6c3a207267622835312c2035312c203531293b20666f6e742d66616d696c607783018190527f793a20417269616c2c2073616e732d73657269663b20666f6e742d73697a653a609784018190527f2031362e3470783b2220783d2231332220793d223133302e383737223e47726160b78501527f64653a3c2f746578743e0000000000000000000000000000000000000000000060d785015260e18401929092526101018301526101218201527f2031362e3470783b2220783d2237372e3238332220793d223133302e38373722610141820152601f60f91b610161820152613d45613d1c613b91613d16613c7b613bba8361016288018c6139c5565b7f3c2f746578743e00000000000000000000000000000000000000000000000000815260070190565b7f3c74657874207374796c653d2277686974652d73706163653a207072653b206681527f696c6c3a207267622835312c2035312c203531293b20666f6e742d66616d696c60208201527f793a20417269616c2c2073616e732d73657269663b20666f6e742d73697a653a60408201527f2031362e3470783b2220783d2231332220793d223136322e383737223e52656360608201527f697069656e743a3c2f746578743e0000000000000000000000000000000000006080820152608e0190565b7f3c74657874207374796c653d2277686974652d73706163653a207072653b206681527f696c6c3a207267622835312c2035312c203531293b20666f6e742d66616d696c60208201527f793a20417269616c2c2073616e732d73657269663b20666f6e742d73697a653a60408201527f20313270783b2220783d2231332220793d223138312e313538223e00000000006060820152607b0190565b876139c5565b7f3c2f7376673e0000000000000000000000000000000000000000000000000000815260060190565b9695505050505050565b634e487b7160e01b600052603260045260246000fd5b634e487b7160e01b600052601160045260246000fd5b60008219821115613d8e57613d8e613d65565b500190565b7f7b226d6f64756c65436f6465223a202200000000000000000000000000000000815260008751613dcb816010850160208c01613548565b7f222c20227465737454797065223a2200000000000000000000000000000000006010918401918201528751613e0881601f840160208c01613548565b7f222c224772616465223a22000000000000000000000000000000000000000000601f92909101918201528651613e4681602a840160208b01613548565b7f222c225472696d6573746572223a220000000000000000000000000000000000602a92909101918201528551613e84816039840160208a01613548565b7f222c22526563697069656e74223a22000000000000000000000000000000000060399290910191820152613f49613f20613f1a613ef1613ec8604886018a6139c5565b7f222c2022696d616765223a2022000000000000000000000000000000000000008152600d0190565b7f646174613a696d6167652f7376672b786d6c3b6261736536342c0000000000008152601a0190565b866139c5565b7f227d000000000000000000000000000000000000000000000000000000000000815260020190565b9998505050505050505050565b7f646174613a6170706c69636174696f6e2f6a736f6e3b6261736536342c000000815260008251613f8e81601d850160208701613548565b91909101601d0192915050565b600082821015613fad57613fad613d65565b500390565b60007f3c74657874207374796c653d2277686974652d73706163653a207072653b20668083527f696c6c3a207267622835312c2035312c203531293b20666f6e742d66616d696c8060208501527f793a20417269616c2c2073616e732d73657269663b20666f6e742d73697a653a8060408601527f2031362e3470783b2220783d2231332220793d2239382e383737223e4d6f647560608601527f6c653a203c2f746578743e000000000000000000000000000000000000000000608086015282608b8601528160ab8601528060cb8601525050507f2031362e3470783b2220783d2237372220793d2239382e383737223e0000000060eb83015261010785516140c28183860160208a01613548565b6144066143dd613d16614338614277613b916142716141cc61410b8a8a8e01017f3c2f746578743e00000000000000000000000000000000000000000000000000815260070190565b7f3c74657874207374796c653d2277686974652d73706163653a207072653b206681527f696c6c3a207267622835312c2035312c203531293b20666f6e742d66616d696c60208201527f793a20417269616c2c2073616e732d73657269663b20666f6e742d73697a653a60408201527f2031362e3470783b2220783d2231332220793d223131342e383737223e54797060608201527f653a3c2f746578743e0000000000000000000000000000000000000000000000608082015260890190565b7f3c74657874207374796c653d2277686974652d73706163653a207072653b206681527f696c6c3a207267622835312c2035312c203531293b20666f6e742d66616d696c60208201527f793a20417269616c2c2073616e732d73657269663b20666f6e742d73697a653a60408201527f2031362e3470783b2220783d2237362e3639372220793d223131342e383737226060820152601f60f91b608082015260810190565b8c6139c5565b7f3c74657874207374796c653d2277686974652d73706163653a207072653b206681527f696c6c3a207267622835312c2035312c203531293b20666f6e742d66616d696c60208201527f793a20417269616c2c2073616e732d73657269663b20666f6e742d73697a653a60408201527f2031362e3470783b2220783d2231332220793d223134362e383737223e54726960608201527f6d65737465723a3c2f746578743e0000000000000000000000000000000000006080820152608e0190565b7f3c74657874207374796c653d2277686974652d73706163653a207072653b206681527f696c6c3a207267622835312c2035312c203531293b20666f6e742d66616d696c60208201527f793a20417269616c2c2073616e732d73657269663b20666f6e742d73697a653a60408201527f2031362e3470783b2220783d2239352e3433342220793d223134362e383737226060820152601f60f91b608082015260810190565b7f2c3c2f746578743e000000000000000000000000000000000000000000000000815260080190565b979650505050505050565b600081600019048311821515161561442b5761442b613d65565b500290565b60008161443f5761443f613d65565b506000190190565b60008251614459818460208701613548565b9190910192915050565b60008261448057634e487b7160e01b600052601260045260246000fd5b500490565b7f416363657373436f6e74726f6c3a206163636f756e74200000000000000000008152600083516144bd816017850160208801613548565b7f206973206d697373696e6720726f6c652000000000000000000000000000000060179184019182015283516144fa816028840160208801613548565b01602801949350505050565b60006001600160a01b03808716835280861660208401525083604083015260806060830152613d456080830184613574565b60006020828403121561454a57600080fd5b815161121d81613515565b634e487b7160e01b600052603160045260246000fdfe4142434445464748494a4b4c4d4e4f505152535455565758595a6162636465666768696a6b6c6d6e6f707172737475767778797a303132333435363738392b2fa2646970667358221220e6914225752a6e82a514d52d8551d9cb58f35b08428925b9cfc01341de63641d64736f6c634300080e0033",
  "immutableReferences": {},
  "source": "// SPDX-License-Identifier: MIT\r\n\r\npragma solidity ^0.8.0;\r\n\r\nimport \"@openzeppelin/contracts/token/ERC721/extensions/ERC721Enumerable.sol\";\r\nimport \"@openzeppelin/contracts/utils/Counters.sol\";\r\n\r\nimport \"./Base64.sol\";\r\nimport \"./RoleControl.sol\";\r\n\r\ncontract SITNFT is ERC721, ERC721Enumerable, RoleControl {\r\n    using Counters for Counters.Counter;\r\n    Counters.Counter private _tokenIdCounter;\r\n    using Strings for uint256;\r\n\r\n    struct Attribute {\r\n        string moduleCode;\r\n        string testType;\r\n        string grade;\r\n        string trimester;\r\n        address recipient;\r\n        address base;\r\n    }\r\n\r\n    mapping(uint256 => Attribute) public attributes;\r\n    mapping(bytes32 => address) private _studentAddress;\r\n\r\n    constructor() ERC721(\"SIT NFT\", \"SIT\") RoleControl(msg.sender) {}\r\n\r\n    function addStudentAddress(string memory _id, address _address) private {\r\n        bytes32 encryptedId = keccak256(abi.encodePacked(_id));\r\n        _studentAddress[encryptedId] = _address;\r\n    }\r\n\r\n    function getStudentAddress(string memory _id)\r\n        private\r\n        view\r\n        returns (address)\r\n    {\r\n        bytes32 encryptedId = keccak256(abi.encodePacked(_id));\r\n        require(\r\n            _studentAddress[encryptedId] != address(0),\r\n            \"Student does not exist.\"\r\n        );\r\n        return _studentAddress[encryptedId];\r\n    }\r\n\r\n    // public\r\n    function mint(\r\n        string memory moduleCode,\r\n        string memory testType,\r\n        string memory grade,\r\n        string memory trimester,\r\n        string memory recipient\r\n    ) public onlyFaculty {\r\n        uint256 supply = totalSupply();\r\n        Attribute memory newAttribute = Attribute(\r\n            moduleCode,\r\n            testType,\r\n            grade,\r\n            trimester,\r\n            getStudentAddress(recipient),\r\n            getOwner()\r\n        );\r\n\r\n        attributes[supply + 1] = newAttribute;\r\n        _safeMint(newAttribute.recipient, supply + 1);\r\n    }\r\n\r\n    function generateModuleSection(uint256 _tokenId)\r\n        internal\r\n        view\r\n        returns (string memory)\r\n    {\r\n        Attribute memory currentAttribute = attributes[_tokenId];\r\n        return\r\n            string(\r\n                abi.encodePacked(\r\n                    '<text style=\"white-space: pre; fill: rgb(51, 51, 51); font-family: Arial, sans-serif; font-size: 16.4px;\" x=\"13\" y=\"98.877\">Module: </text>',\r\n                    '<text style=\"white-space: pre; fill: rgb(51, 51, 51); font-family: Arial, sans-serif; font-size: 16.4px;\" x=\"77\" y=\"98.877\">',\r\n                    currentAttribute.moduleCode,\r\n                    \"</text>\",\r\n                    '<text style=\"white-space: pre; fill: rgb(51, 51, 51); font-family: Arial, sans-serif; font-size: 16.4px;\" x=\"13\" y=\"114.877\">Type:</text>',\r\n                    '<text style=\"white-space: pre; fill: rgb(51, 51, 51); font-family: Arial, sans-serif; font-size: 16.4px;\" x=\"76.697\" y=\"114.877\">',\r\n                    currentAttribute.testType,\r\n                    \"</text>\",\r\n                    '<text style=\"white-space: pre; fill: rgb(51, 51, 51); font-family: Arial, sans-serif; font-size: 16.4px;\" x=\"13\" y=\"146.877\">Trimester:</text>',\r\n                    '<text style=\"white-space: pre; fill: rgb(51, 51, 51); font-family: Arial, sans-serif; font-size: 16.4px;\" x=\"95.434\" y=\"146.877\">',\r\n                    currentAttribute.trimester,\r\n                    \",</text>\"\r\n                )\r\n            );\r\n    }\r\n\r\n    function generateBase64Image(uint256 _tokenId)\r\n        public\r\n        view\r\n        returns (string memory)\r\n    {\r\n        return Base64.encode(bytes(generateImage(_tokenId)));\r\n    }\r\n\r\n    function generateImage(uint256 _tokenId)\r\n        public\r\n        view\r\n        returns (string memory)\r\n    {\r\n        Attribute memory currentAttribute = attributes[_tokenId];\r\n        string memory moduleSection = generateModuleSection(_tokenId);\r\n        return\r\n            string(\r\n                abi.encodePacked(\r\n                    '<svg width=\"350\" height=\"350\" viewBox=\"0 0 350 350\" xmlns=\"http://www.w3.org/2000/svg\">',\r\n                    moduleSection,\r\n                    '<text style=\"white-space: pre; fill: rgb(51, 51, 51); font-family: Arial, sans-serif; font-size: 16.4px;\" x=\"13\" y=\"130.877\">Grade:</text>',\r\n                    '<text style=\"white-space: pre; fill: rgb(51, 51, 51); font-family: Arial, sans-serif; font-size: 16.4px;\" x=\"77.283\" y=\"130.877\">',\r\n                    currentAttribute.grade,\r\n                    \"</text>\",\r\n                    '<text style=\"white-space: pre; fill: rgb(51, 51, 51); font-family: Arial, sans-serif; font-size: 16.4px;\" x=\"13\" y=\"162.877\">Recipient:</text>',\r\n                    '<text style=\"white-space: pre; fill: rgb(51, 51, 51); font-family: Arial, sans-serif; font-size: 12px;\" x=\"13\" y=\"181.158\">',\r\n                    toHexString(uint160(currentAttribute.recipient), 20),\r\n                    \"</text>\",\r\n                    \"</svg>\"\r\n                )\r\n            );\r\n    }\r\n\r\n    function tokenURI(uint256 _tokenId)\r\n        public\r\n        view\r\n        virtual\r\n        override\r\n        returns (string memory)\r\n    {\r\n        require(\r\n            _exists(_tokenId),\r\n            \"ERC721Metadata: URI query for nonexistent token\"\r\n        );\r\n        Attribute memory currentAttribute = attributes[_tokenId];\r\n\r\n        string memory image = generateBase64Image(_tokenId);\r\n\r\n        return\r\n            string(\r\n                abi.encodePacked(\r\n                    \"data:application/json;base64,\",\r\n                    Base64.encode(\r\n                        bytes(\r\n                            abi.encodePacked(\r\n                                '{\"moduleCode\": \"',\r\n                                currentAttribute.moduleCode,\r\n                                '\", \"testType\":\"',\r\n                                currentAttribute.testType,\r\n                                '\",\"Grade\":\"',\r\n                                currentAttribute.grade,\r\n                                '\",\"Trimester\":\"',\r\n                                currentAttribute.trimester,\r\n                                '\",\"Recipient\":\"',\r\n                                toHexString(\r\n                                    uint160(currentAttribute.recipient),\r\n                                    20\r\n                                ),\r\n                                '\", \"image\": \"',\r\n                                \"data:image/svg+xml;base64,\",\r\n                                image,\r\n                                '\"}'\r\n                            )\r\n                        )\r\n                    )\r\n                )\r\n            );\r\n    }\r\n\r\n    function _beforeTokenTransfer(\r\n        address from,\r\n        address to,\r\n        uint256 _tokenId\r\n    ) internal override(ERC721, ERC721Enumerable) {\r\n        super._beforeTokenTransfer(from, to, _tokenId);\r\n\r\n        Attribute memory currentAttribute = attributes[_tokenId];\r\n\r\n        require(\r\n            to == currentAttribute.recipient || to == currentAttribute.base,\r\n            \"Target is not the recipient.\"\r\n        );\r\n    }\r\n\r\n    function supportsInterface(bytes4 interfaceId)\r\n        public\r\n        view\r\n        override(ERC721, ERC721Enumerable, AccessControlEnumerable)\r\n        returns (bool)\r\n    {\r\n        return super.supportsInterface(interfaceId);\r\n    }\r\n\r\n    bytes16 private constant _ALPHABET = \"0123456789abcdef\";\r\n\r\n    /**\r\n     * @dev Converts a `uint256` to its ASCII `string` hexadecimal representation with fixed length.\r\n     */\r\n    function toHexString(uint256 value, uint256 length)\r\n        internal\r\n        pure\r\n        returns (string memory)\r\n    {\r\n        bytes memory buffer = new bytes(2 * length + 2);\r\n        buffer[0] = \"0\";\r\n        buffer[1] = \"x\";\r\n        for (uint256 i = 2 * length + 1; i > 1; --i) {\r\n            buffer[i] = _ALPHABET[value & 0xf];\r\n            value >>= 4;\r\n        }\r\n        require(value == 0, \"HEX_L\");\r\n        return string(buffer);\r\n    }\r\n}\r\n",
  "sourcePath": "C:\\Users\\jaspz\\Documents\\GitHub\\ITP\\Blockchain-Trusted-Model\\contracts\\SITNFT.sol",
  "compiler": {
    "name": "solc",
    "version": "0.8.14+commit.80d49f37.Emscripten.clang"
  },
  "schemaVersion": "3.4.7",
  "updatedAt": "2022-06-26T14:20:57.472Z",
  "networkType": "ethereum",
  "devdoc": {
    "kind": "dev",
    "methods": {
      "approve(address,uint256)": {
        "details": "See {IERC721-approve}."
      },
      "balanceOf(address)": {
        "details": "See {IERC721-balanceOf}."
      },
      "getApproved(uint256)": {
        "details": "See {IERC721-getApproved}."
      },
      "getRoleAdmin(bytes32)": {
        "details": "Returns the admin role that controls `role`. See {grantRole} and {revokeRole}. To change a role's admin, use {_setRoleAdmin}."
      },
      "getRoleMember(bytes32,uint256)": {
        "details": "Returns one of the accounts that have `role`. `index` must be a value between 0 and {getRoleMemberCount}, non-inclusive. Role bearers are not sorted in any particular way, and their ordering may change at any point. WARNING: When using {getRoleMember} and {getRoleMemberCount}, make sure you perform all queries on the same block. See the following https://forum.openzeppelin.com/t/iterating-over-elements-on-enumerableset-in-openzeppelin-contracts/2296[forum post] for more information."
      },
      "getRoleMemberCount(bytes32)": {
        "details": "Returns the number of accounts that have `role`. Can be used together with {getRoleMember} to enumerate all bearers of a role."
      },
      "grantRole(bytes32,address)": {
        "details": "Grants `role` to `account`. If `account` had not been already granted `role`, emits a {RoleGranted} event. Requirements: - the caller must have ``role``'s admin role."
      },
      "hasRole(bytes32,address)": {
        "details": "Returns `true` if `account` has been granted `role`."
      },
      "isApprovedForAll(address,address)": {
        "details": "See {IERC721-isApprovedForAll}."
      },
      "name()": {
        "details": "See {IERC721Metadata-name}."
      },
      "ownerOf(uint256)": {
        "details": "See {IERC721-ownerOf}."
      },
      "renounceRole(bytes32,address)": {
        "details": "Revokes `role` from the calling account. Roles are often managed via {grantRole} and {revokeRole}: this function's purpose is to provide a mechanism for accounts to lose their privileges if they are compromised (such as when a trusted device is misplaced). If the calling account had been revoked `role`, emits a {RoleRevoked} event. Requirements: - the caller must be `account`."
      },
      "revokeRole(bytes32,address)": {
        "details": "Revokes `role` from `account`. If `account` had been granted `role`, emits a {RoleRevoked} event. Requirements: - the caller must have ``role``'s admin role."
      },
      "safeTransferFrom(address,address,uint256)": {
        "details": "See {IERC721-safeTransferFrom}."
      },
      "safeTransferFrom(address,address,uint256,bytes)": {
        "details": "See {IERC721-safeTransferFrom}."
      },
      "setApprovalForAll(address,bool)": {
        "details": "See {IERC721-setApprovalForAll}."
      },
      "symbol()": {
        "details": "See {IERC721Metadata-symbol}."
      },
      "tokenByIndex(uint256)": {
        "details": "See {IERC721Enumerable-tokenByIndex}."
      },
      "tokenOfOwnerByIndex(address,uint256)": {
        "details": "See {IERC721Enumerable-tokenOfOwnerByIndex}."
      },
      "totalSupply()": {
        "details": "See {IERC721Enumerable-totalSupply}."
      },
      "transferFrom(address,address,uint256)": {
        "details": "See {IERC721-transferFrom}."
      }
    },
    "version": 1
  },
  "userdoc": {
    "kind": "user",
    "methods": {},
    "version": 1
  }
}