{
  "contractName": "SITNFT",
  "abi": [
    {
      "inputs": [],
      "stateMutability": "nonpayable",
      "type": "constructor"
    },
    {
      "anonymous": false,
      "inputs": [
        {
          "indexed": true,
          "internalType": "address",
          "name": "owner",
          "type": "address"
        },
        {
          "indexed": true,
          "internalType": "address",
          "name": "approved",
          "type": "address"
        },
        {
          "indexed": true,
          "internalType": "uint256",
          "name": "tokenId",
          "type": "uint256"
        }
      ],
      "name": "Approval",
      "type": "event"
    },
    {
      "anonymous": false,
      "inputs": [
        {
          "indexed": true,
          "internalType": "address",
          "name": "owner",
          "type": "address"
        },
        {
          "indexed": true,
          "internalType": "address",
          "name": "operator",
          "type": "address"
        },
        {
          "indexed": false,
          "internalType": "bool",
          "name": "approved",
          "type": "bool"
        }
      ],
      "name": "ApprovalForAll",
      "type": "event"
    },
    {
      "anonymous": false,
      "inputs": [
        {
          "indexed": true,
          "internalType": "bytes32",
          "name": "role",
          "type": "bytes32"
        },
        {
          "indexed": true,
          "internalType": "bytes32",
          "name": "previousAdminRole",
          "type": "bytes32"
        },
        {
          "indexed": true,
          "internalType": "bytes32",
          "name": "newAdminRole",
          "type": "bytes32"
        }
      ],
      "name": "RoleAdminChanged",
      "type": "event"
    },
    {
      "anonymous": false,
      "inputs": [
        {
          "indexed": true,
          "internalType": "bytes32",
          "name": "role",
          "type": "bytes32"
        },
        {
          "indexed": true,
          "internalType": "address",
          "name": "account",
          "type": "address"
        },
        {
          "indexed": true,
          "internalType": "address",
          "name": "sender",
          "type": "address"
        }
      ],
      "name": "RoleGranted",
      "type": "event"
    },
    {
      "anonymous": false,
      "inputs": [
        {
          "indexed": true,
          "internalType": "bytes32",
          "name": "role",
          "type": "bytes32"
        },
        {
          "indexed": true,
          "internalType": "address",
          "name": "account",
          "type": "address"
        },
        {
          "indexed": true,
          "internalType": "address",
          "name": "sender",
          "type": "address"
        }
      ],
      "name": "RoleRevoked",
      "type": "event"
    },
    {
      "anonymous": false,
      "inputs": [
        {
          "indexed": true,
          "internalType": "address",
          "name": "from",
          "type": "address"
        },
        {
          "indexed": true,
          "internalType": "address",
          "name": "to",
          "type": "address"
        },
        {
          "indexed": true,
          "internalType": "uint256",
          "name": "tokenId",
          "type": "uint256"
        }
      ],
      "name": "Transfer",
      "type": "event"
    },
    {
      "inputs": [],
      "name": "DEFAULT_ADMIN_ROLE",
      "outputs": [
        {
          "internalType": "bytes32",
          "name": "",
          "type": "bytes32"
        }
      ],
      "stateMutability": "view",
      "type": "function",
      "constant": true
    },
    {
      "inputs": [],
      "name": "FACULTY_ROLE",
      "outputs": [
        {
          "internalType": "bytes32",
          "name": "",
          "type": "bytes32"
        }
      ],
      "stateMutability": "view",
      "type": "function",
      "constant": true
    },
    {
      "inputs": [
        {
          "internalType": "address",
          "name": "account",
          "type": "address"
        }
      ],
      "name": "addAdmin",
      "outputs": [],
      "stateMutability": "nonpayable",
      "type": "function"
    },
    {
      "inputs": [
        {
          "internalType": "address",
          "name": "account",
          "type": "address"
        }
      ],
      "name": "addFaculty",
      "outputs": [],
      "stateMutability": "nonpayable",
      "type": "function"
    },
    {
      "inputs": [
        {
          "internalType": "address",
          "name": "to",
          "type": "address"
        },
        {
          "internalType": "uint256",
          "name": "tokenId",
          "type": "uint256"
        }
      ],
      "name": "approve",
      "outputs": [],
      "stateMutability": "nonpayable",
      "type": "function"
    },
    {
      "inputs": [
        {
          "internalType": "uint256",
          "name": "",
          "type": "uint256"
        }
      ],
      "name": "attributes",
      "outputs": [
        {
          "internalType": "string",
          "name": "moduleCode",
          "type": "string"
        },
        {
          "internalType": "string",
          "name": "testType",
          "type": "string"
        },
        {
          "internalType": "string",
          "name": "grade",
          "type": "string"
        },
        {
          "internalType": "string",
          "name": "trimester",
          "type": "string"
        },
        {
          "internalType": "address",
          "name": "recipient",
          "type": "address"
        },
        {
          "internalType": "address",
          "name": "base",
          "type": "address"
        }
      ],
      "stateMutability": "view",
      "type": "function",
      "constant": true
    },
    {
      "inputs": [
        {
          "internalType": "address",
          "name": "owner",
          "type": "address"
        }
      ],
      "name": "balanceOf",
      "outputs": [
        {
          "internalType": "uint256",
          "name": "",
          "type": "uint256"
        }
      ],
      "stateMutability": "view",
      "type": "function",
      "constant": true
    },
    {
      "inputs": [
        {
          "internalType": "uint256",
          "name": "tokenId",
          "type": "uint256"
        }
      ],
      "name": "getApproved",
      "outputs": [
        {
          "internalType": "address",
          "name": "",
          "type": "address"
        }
      ],
      "stateMutability": "view",
      "type": "function",
      "constant": true
    },
    {
      "inputs": [],
      "name": "getOwner",
      "outputs": [
        {
          "internalType": "address",
          "name": "",
          "type": "address"
        }
      ],
      "stateMutability": "view",
      "type": "function",
      "constant": true
    },
    {
      "inputs": [
        {
          "internalType": "bytes32",
          "name": "role",
          "type": "bytes32"
        }
      ],
      "name": "getRoleAdmin",
      "outputs": [
        {
          "internalType": "bytes32",
          "name": "",
          "type": "bytes32"
        }
      ],
      "stateMutability": "view",
      "type": "function",
      "constant": true
    },
    {
      "inputs": [
        {
          "internalType": "bytes32",
          "name": "role",
          "type": "bytes32"
        },
        {
          "internalType": "uint256",
          "name": "index",
          "type": "uint256"
        }
      ],
      "name": "getRoleMember",
      "outputs": [
        {
          "internalType": "address",
          "name": "",
          "type": "address"
        }
      ],
      "stateMutability": "view",
      "type": "function",
      "constant": true
    },
    {
      "inputs": [
        {
          "internalType": "bytes32",
          "name": "role",
          "type": "bytes32"
        }
      ],
      "name": "getRoleMemberCount",
      "outputs": [
        {
          "internalType": "uint256",
          "name": "",
          "type": "uint256"
        }
      ],
      "stateMutability": "view",
      "type": "function",
      "constant": true
    },
    {
      "inputs": [
        {
          "internalType": "bytes32",
          "name": "role",
          "type": "bytes32"
        },
        {
          "internalType": "address",
          "name": "account",
          "type": "address"
        }
      ],
      "name": "grantRole",
      "outputs": [],
      "stateMutability": "nonpayable",
      "type": "function"
    },
    {
      "inputs": [
        {
          "internalType": "bytes32",
          "name": "role",
          "type": "bytes32"
        },
        {
          "internalType": "address",
          "name": "account",
          "type": "address"
        }
      ],
      "name": "hasRole",
      "outputs": [
        {
          "internalType": "bool",
          "name": "",
          "type": "bool"
        }
      ],
      "stateMutability": "view",
      "type": "function",
      "constant": true
    },
    {
      "inputs": [
        {
          "internalType": "address",
          "name": "account",
          "type": "address"
        }
      ],
      "name": "isAdmin",
      "outputs": [
        {
          "internalType": "bool",
          "name": "",
          "type": "bool"
        }
      ],
      "stateMutability": "view",
      "type": "function",
      "constant": true
    },
    {
      "inputs": [
        {
          "internalType": "address",
          "name": "owner",
          "type": "address"
        },
        {
          "internalType": "address",
          "name": "operator",
          "type": "address"
        }
      ],
      "name": "isApprovedForAll",
      "outputs": [
        {
          "internalType": "bool",
          "name": "",
          "type": "bool"
        }
      ],
      "stateMutability": "view",
      "type": "function",
      "constant": true
    },
    {
      "inputs": [
        {
          "internalType": "address",
          "name": "account",
          "type": "address"
        }
      ],
      "name": "isFaculty",
      "outputs": [
        {
          "internalType": "bool",
          "name": "",
          "type": "bool"
        }
      ],
      "stateMutability": "view",
      "type": "function",
      "constant": true
    },
    {
      "inputs": [],
      "name": "name",
      "outputs": [
        {
          "internalType": "string",
          "name": "",
          "type": "string"
        }
      ],
      "stateMutability": "view",
      "type": "function",
      "constant": true
    },
    {
      "inputs": [
        {
          "internalType": "uint256",
          "name": "tokenId",
          "type": "uint256"
        }
      ],
      "name": "ownerOf",
      "outputs": [
        {
          "internalType": "address",
          "name": "",
          "type": "address"
        }
      ],
      "stateMutability": "view",
      "type": "function",
      "constant": true
    },
    {
      "inputs": [
        {
          "internalType": "address",
          "name": "account",
          "type": "address"
        }
      ],
      "name": "removeAdmin",
      "outputs": [],
      "stateMutability": "nonpayable",
      "type": "function"
    },
    {
      "inputs": [
        {
          "internalType": "address",
          "name": "account",
          "type": "address"
        }
      ],
      "name": "removeFaculty",
      "outputs": [],
      "stateMutability": "nonpayable",
      "type": "function"
    },
    {
      "inputs": [
        {
          "internalType": "bytes32",
          "name": "role",
          "type": "bytes32"
        },
        {
          "internalType": "address",
          "name": "account",
          "type": "address"
        }
      ],
      "name": "renounceRole",
      "outputs": [],
      "stateMutability": "nonpayable",
      "type": "function"
    },
    {
      "inputs": [
        {
          "internalType": "bytes32",
          "name": "role",
          "type": "bytes32"
        },
        {
          "internalType": "address",
          "name": "account",
          "type": "address"
        }
      ],
      "name": "revokeRole",
      "outputs": [],
      "stateMutability": "nonpayable",
      "type": "function"
    },
    {
      "inputs": [
        {
          "internalType": "address",
          "name": "from",
          "type": "address"
        },
        {
          "internalType": "address",
          "name": "to",
          "type": "address"
        },
        {
          "internalType": "uint256",
          "name": "tokenId",
          "type": "uint256"
        }
      ],
      "name": "safeTransferFrom",
      "outputs": [],
      "stateMutability": "nonpayable",
      "type": "function"
    },
    {
      "inputs": [
        {
          "internalType": "address",
          "name": "from",
          "type": "address"
        },
        {
          "internalType": "address",
          "name": "to",
          "type": "address"
        },
        {
          "internalType": "uint256",
          "name": "tokenId",
          "type": "uint256"
        },
        {
          "internalType": "bytes",
          "name": "_data",
          "type": "bytes"
        }
      ],
      "name": "safeTransferFrom",
      "outputs": [],
      "stateMutability": "nonpayable",
      "type": "function"
    },
    {
      "inputs": [
        {
          "internalType": "address",
          "name": "operator",
          "type": "address"
        },
        {
          "internalType": "bool",
          "name": "approved",
          "type": "bool"
        }
      ],
      "name": "setApprovalForAll",
      "outputs": [],
      "stateMutability": "nonpayable",
      "type": "function"
    },
    {
      "inputs": [],
      "name": "symbol",
      "outputs": [
        {
          "internalType": "string",
          "name": "",
          "type": "string"
        }
      ],
      "stateMutability": "view",
      "type": "function",
      "constant": true
    },
    {
      "inputs": [
        {
          "internalType": "uint256",
          "name": "index",
          "type": "uint256"
        }
      ],
      "name": "tokenByIndex",
      "outputs": [
        {
          "internalType": "uint256",
          "name": "",
          "type": "uint256"
        }
      ],
      "stateMutability": "view",
      "type": "function",
      "constant": true
    },
    {
      "inputs": [
        {
          "internalType": "address",
          "name": "owner",
          "type": "address"
        },
        {
          "internalType": "uint256",
          "name": "index",
          "type": "uint256"
        }
      ],
      "name": "tokenOfOwnerByIndex",
      "outputs": [
        {
          "internalType": "uint256",
          "name": "",
          "type": "uint256"
        }
      ],
      "stateMutability": "view",
      "type": "function",
      "constant": true
    },
    {
      "inputs": [],
      "name": "totalSupply",
      "outputs": [
        {
          "internalType": "uint256",
          "name": "",
          "type": "uint256"
        }
      ],
      "stateMutability": "view",
      "type": "function",
      "constant": true
    },
    {
      "inputs": [
        {
          "internalType": "address",
          "name": "from",
          "type": "address"
        },
        {
          "internalType": "address",
          "name": "to",
          "type": "address"
        },
        {
          "internalType": "uint256",
          "name": "tokenId",
          "type": "uint256"
        }
      ],
      "name": "transferFrom",
      "outputs": [],
      "stateMutability": "nonpayable",
      "type": "function"
    },
    {
      "inputs": [
        {
          "internalType": "string",
          "name": "_id",
          "type": "string"
        },
        {
          "internalType": "address",
          "name": "_address",
          "type": "address"
        }
      ],
      "name": "addStudentAddress",
      "outputs": [],
      "stateMutability": "nonpayable",
      "type": "function"
    },
    {
      "inputs": [
        {
          "components": [
            {
              "internalType": "string",
              "name": "id",
              "type": "string"
            },
            {
              "internalType": "address",
              "name": "addr",
              "type": "address"
            }
          ],
          "internalType": "struct SITNFT.IdAddress[]",
          "name": "_array",
          "type": "tuple[]"
        }
      ],
      "name": "multiAddStudentAddress",
      "outputs": [],
      "stateMutability": "nonpayable",
      "type": "function"
    },
    {
      "inputs": [
        {
          "internalType": "string",
          "name": "_id",
          "type": "string"
        }
      ],
      "name": "getStudentAddress",
      "outputs": [
        {
          "internalType": "address",
          "name": "",
          "type": "address"
        }
      ],
      "stateMutability": "view",
      "type": "function",
      "constant": true
    },
    {
      "inputs": [
        {
          "internalType": "string",
          "name": "moduleCode",
          "type": "string"
        },
        {
          "internalType": "string",
          "name": "testType",
          "type": "string"
        },
        {
          "internalType": "string",
          "name": "grade",
          "type": "string"
        },
        {
          "internalType": "string",
          "name": "trimester",
          "type": "string"
        },
        {
          "internalType": "string",
          "name": "recipient",
          "type": "string"
        }
      ],
      "name": "mint",
      "outputs": [],
      "stateMutability": "nonpayable",
      "type": "function"
    },
    {
      "inputs": [
        {
          "internalType": "uint256",
          "name": "_tokenId",
          "type": "uint256"
        }
      ],
      "name": "generateBase64Image",
      "outputs": [
        {
          "internalType": "string",
          "name": "",
          "type": "string"
        }
      ],
      "stateMutability": "view",
      "type": "function",
      "constant": true
    },
    {
      "inputs": [
        {
          "internalType": "uint256",
          "name": "_tokenId",
          "type": "uint256"
        }
      ],
      "name": "generateImage",
      "outputs": [
        {
          "internalType": "string",
          "name": "",
          "type": "string"
        }
      ],
      "stateMutability": "view",
      "type": "function",
      "constant": true
    },
    {
      "inputs": [
        {
          "internalType": "uint256",
          "name": "_tokenId",
          "type": "uint256"
        }
      ],
      "name": "buildImageSvg",
      "outputs": [
        {
          "internalType": "string",
          "name": "",
          "type": "string"
        }
      ],
      "stateMutability": "view",
      "type": "function",
      "constant": true
    },
    {
      "inputs": [
        {
          "internalType": "uint256",
          "name": "_tokenId",
          "type": "uint256"
        }
      ],
      "name": "buildMetadata",
      "outputs": [
        {
          "internalType": "string",
          "name": "",
          "type": "string"
        }
      ],
      "stateMutability": "view",
      "type": "function",
      "constant": true
    },
    {
      "inputs": [
        {
          "internalType": "uint256",
          "name": "_tokenId",
          "type": "uint256"
        }
      ],
      "name": "tokenURI",
      "outputs": [
        {
          "internalType": "string",
          "name": "",
          "type": "string"
        }
      ],
      "stateMutability": "view",
      "type": "function",
      "constant": true
    },
    {
      "inputs": [
        {
          "internalType": "bytes4",
          "name": "interfaceId",
          "type": "bytes4"
        }
      ],
      "name": "supportsInterface",
      "outputs": [
        {
          "internalType": "bool",
          "name": "",
          "type": "bool"
        }
      ],
      "stateMutability": "view",
      "type": "function",
      "constant": true
    }
  ],
  "bytecode": "0x6007610300818152662365636133663560c81b61032052610280908152610340828152662366646261663960c81b610360526102a0526103808281526611b11832b332b160c91b6103a0526102c0526103c0828152662365646666613960c81b6103e0526102e0526080908152610480828152660466e6ac6ccc4760cb1b6104a0526104009081526104c083815266046c4c4c8ccc6760cb1b6104e0526104205261050083815266046cc60ca6ac8760cb1b610520526104405261054083815266046ccccc6686e760cb1b610560526104605260a052610600828152662366666162373360c81b610620526105809081526106408381526608d999990cce0d60ca1b610660526105a052610680838152660236666663962360cc1b6106a0526105c0526106c0838152660236666616563360cc1b6106e0526105e05260c0526107808281526608ce4d188d184d60ca1b6107a0526107009081526107c0838152662364326635653360c81b6107e05261072052610800838152662365356335623560c81b61082052610740526108408381526611b31a321cb19b60c91b610860526107605260e052610900828152662366346639663960c81b6109208190526108809182526109408481526608d8d8d98c998d60ca1b610960526108a052610980848152662361346562663360c81b6109a0526108c0526109c0848152662361616161616160c81b6109e0526108e05261010091909152610a80838152662363616637653360c81b610aa052610a00908152610ac0848152662365646666656360c81b610ae052610a2052610b008481526611b31b323332b160c91b610b2052610a4052610b408481526608d94d1898590d60ca1b610b6052610a605261012052610c00838152610c2091909152610b80908152610c40838152660236631643164360cc1b610c6052610ba052610c80838152662366626163636360c81b610ca052610bc052610cc0838152662366383735616160c81b610ce052610be05261014052610d80828152662366646666626360c81b610da052610d00908152610dc08381526611b33332b2b13160c91b610de052610d2052610e0083815266046ccccc8c6c4760cb1b610e2052610d4052610e408381526611b3333198b11b60c91b610e6052610d605261016052610f00828152662366306534643760c81b610f2052610e80908152610f40838152660236635633063360cc1b610f6052610ea052610f80838152662366663731373160c81b610fa052610ec052610fc083815266119cb3321c323360c91b610fe052610ee052610180526110808281526611b29a3331333360c91b6110a0526110009081526110c08381526611b11c311ab33360c91b6110e0526110205261110083815266119b9c1b1c329b60c91b6111205261104052611140838152662365646565663760c81b61116052611060526101a052611200828152662366666362393160c81b61122052611180908152611240838152662366666566613160c81b611260526111a0526112808381526608ce4d195898d960ca1b6112a0526111c0526112c083815266119b323231b1b360c91b6112e0526111e0526101c052611380828152662362656463666160c81b6113a0526113009081526113c0838152660467270c2c6cc760cb1b6113e05261132052611400838152662362303838663960c81b6114205261134052611440838152662364613966663960c81b61146052611360526101e0526115008281526611b131b29b32b160c91b611520526114809081526115408381526611b33231b3323360c91b611560526114a0526115808381526611b3313132b23360c91b6115a0526114c0526115c0838152662366636133636360c81b6115e0526114e05261020052611680828152660236666373561360cc1b6116a0526116009081526116c0838152662366636533386160c81b6116e05261162052611700838152660236561666664360cc1b6117205261164052611740838152662339356531643360c81b6117605261166052610220526118008281526608d998994c18cd60ca1b6118205261178090815261184083815266119c30b11b321b60c91b611860526117a052611880838152662332393738623560c81b6118a0526117c0526118c08381526604660606c62c2760cb1b6118e0526117e052610240526119808281526608d9191919191960ca1b6119a0526119009081526119c0838152662366396633663360c81b6119e05261192052611a00838152662366376439643960c81b611a205261194052611a80604052611a40928352662366323532383760c81b611a60526119609290925261026091909152620006b890600e9060106200093b565b50348015620006c657600080fd5b50604080518082018252600781526614d2550813919560ca1b60208083019182528351808501909452600384526214d25560ea1b9084015281513393916200071291600091906200098d565b508051620007289060019060208401906200098d565b5050600c80546001600160a01b0319166001600160a01b038416179055506200075360008262000787565b620007807f573a495ec6f39d095bd4855f18069a9236d77216cfb96e453909f2408c333cfa600062000797565b5062000b88565b620007938282620007e2565b5050565b6000828152600a6020526040808220600101805490849055905190918391839186917fbd79b86ffe0ab8e8776151514217cd7cacd52c909f66475c3af44e129f0b00ff9190a4505050565b620007f982826200082560201b6200196f1760201c565b6000828152600b602090815260409091206200082091839062001a11620008c9821b17901c565b505050565b6000828152600a602090815260408083206001600160a01b038516845290915290205460ff1662000793576000828152600a602090815260408083206001600160a01b03851684529091529020805460ff19166001179055620008853390565b6001600160a01b0316816001600160a01b0316837f2f8788117e7eff1d82e926ec794901d17c78024a50270940304540a733656f0d60405160405180910390a45050565b6000620008e0836001600160a01b038416620008e9565b90505b92915050565b60008181526001830160205260408120546200093257508154600181810184556000848152602080822090930184905584548482528286019093526040902091909155620008e3565b506000620008e3565b6040830191839082156200097b579160200282015b828111156200097b5782516200096a908390600462000a18565b509160200191906004019062000950565b506200098992915062000a6b565b5090565b8280546200099b9062000b4c565b90600052602060002090601f016020900481019282620009bf576000855562000a0a565b82601f10620009da57805160ff191683800117855562000a0a565b8280016001018555821562000a0a579182015b8281111562000a0a578251825591602001919060010190620009ed565b506200098992915062000a8c565b826004810192821562000a5d579160200282015b8281111562000a5d578251805162000a4c9184916020909101906200098d565b509160200191906001019062000a2c565b506200098992915062000aa3565b808211156200098957600062000a82828262000ac4565b5060040162000a6b565b5b8082111562000989576000815560010162000a8d565b808211156200098957600062000aba828262000b0a565b5060010162000aa3565b50600062000ad3828262000b0a565b50600101600062000ae5828262000b0a565b50600101600062000af7828262000b0a565b5062000b0890600101600062000b0a565b565b50805462000b189062000b4c565b6000825580601f1062000b29575050565b601f01602090049060005260206000209081019062000b49919062000a8c565b50565b600181811c9082168062000b6157607f821691505b60208210810362000b8257634e487b7160e01b600052602260045260246000fd5b50919050565b614d198062000b986000396000f3fe608060405234801561001057600080fd5b50600436106102d35760003560e01c806370a0823111610186578063a82e3b00116100e3578063ca15c87311610097578063e985e9c511610071578063e985e9c51461061e578063edf877041461065a578063f408977b1461066d57600080fd5b8063ca15c873146105d3578063d05dcc6a146105e6578063d547741f1461060b57600080fd5b8063c2a78702116100c8578063c2a787021461059a578063c8360ce8146105ad578063c87b56dd146105c057600080fd5b8063a82e3b0014610574578063b88d4fde1461058757600080fd5b806393a865321161013a578063a217fddf1161011f578063a217fddf14610546578063a22cb4651461054e578063a48b3b8f1461056157600080fd5b806393a865321461052b57806395d89b411461053e57600080fd5b8063893d20e81161016b578063893d20e8146104ce5780639010d07c146104df57806391d14854146104f257600080fd5b806370a08231146104a857806386833e91146104bb57600080fd5b80632f2ff15d116102345780634b44d812116101e85780636352211e116101cd5780636352211e1461045b5780636fe3ceb81461046e578063704802751461049557600080fd5b80634b44d812146104355780634f6ccce71461044857600080fd5b806336568abe1161021957806336568abe146103fc578063396ff3ed1461040f57806342842e0e1461042257600080fd5b80632f2ff15d146103d65780632f745c59146103e957600080fd5b806318160ddd1161028b57806323b872dd1161027057806323b872dd1461038d578063248a9ca3146103a057806324d7806c146103c357600080fd5b806318160ddd1461036857806322fbd58e1461037a57600080fd5b8063081812fc116102bc578063081812fc14610315578063095ea7b3146103405780631785f53c1461035557600080fd5b806301ffc9a7146102d857806306fdde0314610300575b600080fd5b6102eb6102e63660046133b2565b610680565b60405190151581526020015b60405180910390f35b610308610691565b6040516102f79190613427565b61032861032336600461343a565b610723565b6040516001600160a01b0390911681526020016102f7565b61035361034e36600461346a565b6107ce565b005b610353610363366004613494565b6108ff565b6008545b6040519081526020016102f7565b61030861038836600461343a565b61095a565b61035361039b3660046134af565b6109b8565b61036c6103ae36600461343a565b6000908152600a602052604090206001015490565b6102eb6103d1366004613494565b610a3f565b6103536103e43660046134eb565b610a7f565b61036c6103f736600461346a565b610aa4565b61035361040a3660046134eb565b610b4c565b61035361041d366004613494565b610bd8565b6103536104303660046134af565b610c4f565b61030861044336600461343a565b610c6a565b61036c61045636600461343a565b610d4b565b61032861046936600461343a565b610def565b61036c7f573a495ec6f39d095bd4855f18069a9236d77216cfb96e453909f2408c333cfa81565b6103536104a3366004613494565b610e7a565b61036c6104b6366004613494565b610ed2565b6103536104c93660046135ff565b610f6c565b600c546001600160a01b0316610328565b6103286104ed3660046136d1565b61111e565b6102eb6105003660046134eb565b6000918252600a602090815260408084206001600160a01b0393909316845291905290205460ff1690565b610353610539366004613494565b61113d565b6103086111b4565b61036c600081565b61035361055c3660046136f3565b6111c3565b61030861056f36600461343a565b6111ce565b61032861058236600461372f565b6111e1565b610353610595366004613764565b6112e8565b6102eb6105a8366004613494565b611376565b6103536105bb3660046137e0565b6113b6565b6103086105ce36600461343a565b611465565b61036c6105e136600461343a565b611585565b6105f96105f436600461343a565b61159c565b6040516102f7969594939291906138e8565b6103536106193660046134eb565b6117fd565b6102eb61062c36600461395c565b6001600160a01b03918216600090815260056020908152604080832093909416825291909152205460ff1690565b61030861066836600461343a565b611822565b61035361067b366004613986565b6118bb565b600061068b82611a26565b92915050565b6060600080546106a0906139cb565b80601f01602080910402602001604051908101604052809291908181526020018280546106cc906139cb565b80156107195780601f106106ee57610100808354040283529160200191610719565b820191906000526020600020905b8154815290600101906020018083116106fc57829003601f168201915b5050505050905090565b6000818152600260205260408120546001600160a01b03166107b25760405162461bcd60e51b815260206004820152602c60248201527f4552433732313a20617070726f76656420717565727920666f72206e6f6e657860448201527f697374656e7420746f6b656e000000000000000000000000000000000000000060648201526084015b60405180910390fd5b506000908152600460205260409020546001600160a01b031690565b60006107d982610def565b9050806001600160a01b0316836001600160a01b0316036108625760405162461bcd60e51b815260206004820152602160248201527f4552433732313a20617070726f76616c20746f2063757272656e74206f776e6560448201527f720000000000000000000000000000000000000000000000000000000000000060648201526084016107a9565b336001600160a01b038216148061087e575061087e813361062c565b6108f05760405162461bcd60e51b815260206004820152603860248201527f4552433732313a20617070726f76652063616c6c6572206973206e6f74206f7760448201527f6e6572206e6f7220617070726f76656420666f7220616c6c000000000000000060648201526084016107a9565b6108fa8383611a64565b505050565b61090833610a3f565b61094c5760405162461bcd60e51b81526020600482015260156024820152742932b9ba3934b1ba32b2103a379030b236b4b7399760591b60448201526064016107a9565b6109576000826117fd565b50565b6000818152604e602052604090206005810154606091906003820190600283019061098f906001600160a01b03166014611adf565b6040516020016109a29493929190613aba565b6040516020818303038152906040529050919050565b6109c23382611c88565b610a345760405162461bcd60e51b815260206004820152603160248201527f4552433732313a207472616e736665722063616c6c6572206973206e6f74206f60448201527f776e6572206e6f7220617070726f76656400000000000000000000000000000060648201526084016107a9565b6108fa838383611d90565b6001600160a01b03811660009081527f13da86008ba1c6922daee3e07db95305ef49ebced9f5467a0b8613fcc6b343e3602052604081205460ff1661068b565b6000828152600a6020526040902060010154610a9a81611f75565b6108fa8383611f7f565b6000610aaf83610ed2565b8210610b235760405162461bcd60e51b815260206004820152602b60248201527f455243373231456e756d657261626c653a206f776e657220696e646578206f7560448201527f74206f6620626f756e647300000000000000000000000000000000000000000060648201526084016107a9565b506001600160a01b03919091166000908152600660209081526040808320938352929052205490565b6001600160a01b0381163314610bca5760405162461bcd60e51b815260206004820152602f60248201527f416363657373436f6e74726f6c3a2063616e206f6e6c792072656e6f756e636560448201527f20726f6c657320666f722073656c66000000000000000000000000000000000060648201526084016107a9565b610bd48282611fa1565b5050565b610be133610a3f565b610c255760405162461bcd60e51b81526020600482015260156024820152742932b9ba3934b1ba32b2103a379030b236b4b7399760591b60448201526064016107a9565b6109577f573a495ec6f39d095bd4855f18069a9236d77216cfb96e453909f2408c333cfa82610a7f565b6108fa838383604051806020016040528060008152506112e8565b606060004233604051602001610caf92919091825260601b7fffffffffffffffffffffffffffffffffffffffff00000000000000000000000016602082015260340190565b60408051808303601f190181528282528051602091820120908301819052925060009101604051602081830303815290604052905060006010610cf3836000611fc3565b610cfd9190613eac565b60ff1690506000610d0e8683612083565b90506000610d1b8761095a565b90508181604051602001610d30929190613ece565b60405160208183030381529060405295505050505050919050565b6000610d5660085490565b8210610dca5760405162461bcd60e51b815260206004820152602c60248201527f455243373231456e756d657261626c653a20676c6f62616c20696e646578206f60448201527f7574206f6620626f756e6473000000000000000000000000000000000000000060648201526084016107a9565b60088281548110610ddd57610ddd613f9b565b90600052602060002001549050919050565b6000818152600260205260408120546001600160a01b03168061068b5760405162461bcd60e51b815260206004820152602960248201527f4552433732313a206f776e657220717565727920666f72206e6f6e657869737460448201527f656e7420746f6b656e000000000000000000000000000000000000000000000060648201526084016107a9565b610e8333610a3f565b610ec75760405162461bcd60e51b81526020600482015260156024820152742932b9ba3934b1ba32b2103a379030b236b4b7399760591b60448201526064016107a9565b610957600082610a7f565b60006001600160a01b038216610f505760405162461bcd60e51b815260206004820152602a60248201527f4552433732313a2062616c616e636520717565727920666f7220746865207a6560448201527f726f20616464726573730000000000000000000000000000000000000000000060648201526084016107a9565b506001600160a01b031660009081526003602052604090205490565b610f7533611376565b610fc15760405162461bcd60e51b815260206004820152601660248201527f5265737472696374656420746f20666163756c74792e0000000000000000000060448201526064016107a9565b6000610fcc60085490565b905060006040518060c00160405280888152602001878152602001868152602001858152602001610ffc856111e1565b6001600160a01b0316815260200161101c600c546001600160a01b031690565b6001600160a01b03169052905080604e6000611039856001613fb1565b815260208082019290925260400160002082518051919261105f92849290910190613303565b5060208281015180516110789260018501920190613303565b5060408201518051611094916002840191602090910190613303565b50606082015180516110b0916003840191602090910190613303565b5060808281015160048301805473ffffffffffffffffffffffffffffffffffffffff199081166001600160a01b039384161790915560a0909401516005909301805490941692169190911790915581015161111590611110846001613fb1565b612110565b50505050505050565b6000828152600b60205260408120611136908361212a565b9392505050565b61114633610a3f565b61118a5760405162461bcd60e51b81526020600482015260156024820152742932b9ba3934b1ba32b2103a379030b236b4b7399760591b60448201526064016107a9565b6109577f573a495ec6f39d095bd4855f18069a9236d77216cfb96e453909f2408c333cfa826117fd565b6060600180546106a0906139cb565b610bd4338383612136565b606061068b6111dc83610c6a565b612204565b60006111ec33611376565b6112385760405162461bcd60e51b815260206004820152601660248201527f5265737472696374656420746f20666163756c74792e0000000000000000000060448201526064016107a9565b60008260405160200161124b9190613fc9565b60408051601f1981840301815291815281516020928301206000818152604f9093529120549091506001600160a01b03166112c85760405162461bcd60e51b815260206004820152601760248201527f53747564656e7420646f6573206e6f742065786973742e00000000000000000060448201526064016107a9565b6000908152604f60205260409020546001600160a01b031690505b919050565b6112f23383611c88565b6113645760405162461bcd60e51b815260206004820152603160248201527f4552433732313a207472616e736665722063616c6c6572206973206e6f74206f60448201527f776e6572206e6f7220617070726f76656400000000000000000000000000000060648201526084016107a9565b611370848484846123a2565b50505050565b6001600160a01b03811660009081527f9019cc2ada0da9adebe4b58b4b78fbab4edc82e8bb6da2a3f362a37225196cd3602052604081205460ff1661068b565b6113bf33610a3f565b6114035760405162461bcd60e51b81526020600482015260156024820152742932b9ba3934b1ba32b2103a379030b236b4b7399760591b60448201526064016107a9565b60005b8151811015610bd45761145382828151811061142457611424613f9b565b60200260200101516000015183838151811061144257611442613f9b565b6020026020010151602001516118bb565b8061145d81613fe5565b915050611406565b6000818152600260205260409020546060906001600160a01b03166114f25760405162461bcd60e51b815260206004820152602f60248201527f4552433732314d657461646174613a2055524920717565727920666f72206e6f60448201527f6e6578697374656e7420746f6b656e000000000000000000000000000000000060648201526084016107a9565b6000828152600260205260409020546001600160a01b031661157c5760405162461bcd60e51b815260206004820152602f60248201527f4552433732314d657461646174613a2055524920717565727920666f72206e6f60448201527f6e6578697374656e7420746f6b656e000000000000000000000000000000000060648201526084016107a9565b61068b82611822565b6000818152600b6020526040812061068b9061242b565b604e602052600090815260409020805481906115b7906139cb565b80601f01602080910402602001604051908101604052809291908181526020018280546115e3906139cb565b80156116305780601f1061160557610100808354040283529160200191611630565b820191906000526020600020905b81548152906001019060200180831161161357829003601f168201915b505050505090806001018054611645906139cb565b80601f0160208091040260200160405190810160405280929190818152602001828054611671906139cb565b80156116be5780601f10611693576101008083540402835291602001916116be565b820191906000526020600020905b8154815290600101906020018083116116a157829003601f168201915b5050505050908060020180546116d3906139cb565b80601f01602080910402602001604051908101604052809291908181526020018280546116ff906139cb565b801561174c5780601f106117215761010080835404028352916020019161174c565b820191906000526020600020905b81548152906001019060200180831161172f57829003601f168201915b505050505090806003018054611761906139cb565b80601f016020809104026020016040519081016040528092919081815260200182805461178d906139cb565b80156117da5780601f106117af576101008083540402835291602001916117da565b820191906000526020600020905b8154815290600101906020018083116117bd57829003601f168201915b50505050600483015460059093015491926001600160a01b039081169216905086565b6000828152600a602052604090206001015461181881611f75565b6108fa8383611fa1565b6060600061182f836111ce565b6000848152604e60205260408120919250906118909061184e86612435565b6000878152604e6020908152604091829020915161187c949392889290916001830191600384019101613ffe565b604051602081830303815290604052612204565b9050806040516020016118a3919061428e565b60405160208183030381529060405292505050919050565b6118c433610a3f565b6119085760405162461bcd60e51b81526020600482015260156024820152742932b9ba3934b1ba32b2103a379030b236b4b7399760591b60448201526064016107a9565b60008260405160200161191b9190613fc9565b60408051808303601f1901815291815281516020928301206000908152604f9092529020805473ffffffffffffffffffffffffffffffffffffffff19166001600160a01b0393909316929092179091555050565b6000828152600a602090815260408083206001600160a01b038516845290915290205460ff16610bd4576000828152600a602090815260408083206001600160a01b03851684529091529020805460ff191660011790556119cd3390565b6001600160a01b0316816001600160a01b0316837f2f8788117e7eff1d82e926ec794901d17c78024a50270940304540a733656f0d60405160405180910390a45050565b6000611136836001600160a01b038416612536565b60006001600160e01b031982167f5a05180f00000000000000000000000000000000000000000000000000000000148061068b575061068b82612585565b6000818152600460205260409020805473ffffffffffffffffffffffffffffffffffffffff19166001600160a01b0384169081179091558190611aa682610def565b6001600160a01b03167f8c5be1e5ebec7d5bd14f71427d1e84f3dd0314c0f7b2291e5b200ac8c7c3b92560405160405180910390a45050565b60606000611aee8360026142d3565b611af9906002613fb1565b67ffffffffffffffff811115611b1157611b11613517565b6040519080825280601f01601f191660200182016040528015611b3b576020820181803683370190505b509050600360fc1b81600081518110611b5657611b56613f9b565b60200101906001600160f81b031916908160001a905350600f60fb1b81600181518110611b8557611b85613f9b565b60200101906001600160f81b031916908160001a9053506000611ba98460026142d3565b611bb4906001613fb1565b90505b6001811115611c39577f303132333435363738396162636465660000000000000000000000000000000085600f1660108110611bf557611bf5613f9b565b1a60f81b828281518110611c0b57611c0b613f9b565b60200101906001600160f81b031916908160001a90535060049490941c93611c32816142f2565b9050611bb7565b5083156111365760405162461bcd60e51b815260206004820152600560248201527f4845585f4c00000000000000000000000000000000000000000000000000000060448201526064016107a9565b6000818152600260205260408120546001600160a01b0316611d125760405162461bcd60e51b815260206004820152602c60248201527f4552433732313a206f70657261746f7220717565727920666f72206e6f6e657860448201527f697374656e7420746f6b656e000000000000000000000000000000000000000060648201526084016107a9565b6000611d1d83610def565b9050806001600160a01b0316846001600160a01b03161480611d6457506001600160a01b0380821660009081526005602090815260408083209388168352929052205460ff165b80611d885750836001600160a01b0316611d7d84610723565b6001600160a01b0316145b949350505050565b826001600160a01b0316611da382610def565b6001600160a01b031614611e1f5760405162461bcd60e51b815260206004820152602560248201527f4552433732313a207472616e736665722066726f6d20696e636f72726563742060448201527f6f776e657200000000000000000000000000000000000000000000000000000060648201526084016107a9565b6001600160a01b038216611e9a5760405162461bcd60e51b8152602060048201526024808201527f4552433732313a207472616e7366657220746f20746865207a65726f2061646460448201527f726573730000000000000000000000000000000000000000000000000000000060648201526084016107a9565b611ea58383836125c3565b611eb0600082611a64565b6001600160a01b0383166000908152600360205260408120805460019290611ed9908490614309565b90915550506001600160a01b0382166000908152600360205260408120805460019290611f07908490613fb1565b9091555050600081815260026020526040808220805473ffffffffffffffffffffffffffffffffffffffff19166001600160a01b0386811691821790925591518493918716917fddf252ad1be2c89b69c2b068fc378daa952ba7f163c4a11628f55a4df523b3ef91a4505050565b61095781336128c9565b611f89828261196f565b6000828152600b602052604090206108fa9082611a11565b611fab8282612949565b6000828152600b602052604090206108fa90826129cc565b600081611fd1816001613fb1565b101561201f5760405162461bcd60e51b815260206004820152601060248201527f746f55696e74385f6f766572666c6f770000000000000000000000000000000060448201526064016107a9565b61202a826001613fb1565b8351101561207a5760405162461bcd60e51b815260206004820152601360248201527f746f55696e74385f6f75744f66426f756e64730000000000000000000000000060448201526064016107a9565b50016001015190565b6060600e826010811061209857612098613f9b565b60040201600e83601081106120af576120af613f9b565b60040201600101600e84601081106120c9576120c9613f9b565b60040201600201604e60008781526020019081526020016000206001016040516020016120f99493929190614320565b604051602081830303815290604052905092915050565b610bd48282604051806020016040528060008152506129e1565b60006111368383612a6a565b816001600160a01b0316836001600160a01b0316036121975760405162461bcd60e51b815260206004820152601960248201527f4552433732313a20617070726f766520746f2063616c6c65720000000000000060448201526064016107a9565b6001600160a01b03838116600081815260056020908152604080832094871680845294825291829020805460ff191686151590811790915591519182527f17307eab39ab6107e8899845ad3d59bd9653f200f220920489ca2b5937696c31910160405180910390a3505050565b6060815160000361222357505060408051602081019091526000815290565b6000604051806060016040528060408152602001614ca460409139905060006003845160026122529190613fb1565b61225c9190614b8b565b6122679060046142d3565b90506000612276826020613fb1565b67ffffffffffffffff81111561228e5761228e613517565b6040519080825280601f01601f1916602001820160405280156122b8576020820181803683370190505b509050818152600183018586518101602084015b818310156123265760039283018051603f601282901c811687015160f890811b8552600c83901c8216880151811b6001860152600683901c8216880151811b60028601529116860151901b938201939093526004016122cc565b600389510660018114612340576002811461236c57612394565b7f3d3d000000000000000000000000000000000000000000000000000000000000600119830152612394565b7f3d000000000000000000000000000000000000000000000000000000000000006000198301525b509398975050505050505050565b6123ad848484611d90565b6123b984848484612a94565b6113705760405162461bcd60e51b815260206004820152603260248201527f4552433732313a207472616e7366657220746f206e6f6e20455243373231526560448201527f63656976657220696d706c656d656e746572000000000000000000000000000060648201526084016107a9565b600061068b825490565b60608160000361245c5750506040805180820190915260018152600360fc1b602082015290565b8160005b8115612486578061247081613fe5565b915061247f9050600a83614b8b565b9150612460565b60008167ffffffffffffffff8111156124a1576124a1613517565b6040519080825280601f01601f1916602001820160405280156124cb576020820181803683370190505b5090505b8415611d88576124e0600183614309565b91506124ed600a86614b9f565b6124f8906030613fb1565b60f81b81838151811061250d5761250d613f9b565b60200101906001600160f81b031916908160001a90535061252f600a86614b8b565b94506124cf565b600081815260018301602052604081205461257d5750815460018181018455600084815260208082209093018490558454848252828601909352604090209190915561068b565b50600061068b565b60006001600160e01b031982167f7965db0b00000000000000000000000000000000000000000000000000000000148061068b575061068b82612beb565b6125ce838383612c29565b6000818152604e6020526040808220815160c081019092528054829082906125f5906139cb565b80601f0160208091040260200160405190810160405280929190818152602001828054612621906139cb565b801561266e5780601f106126435761010080835404028352916020019161266e565b820191906000526020600020905b81548152906001019060200180831161265157829003601f168201915b50505050508152602001600182018054612687906139cb565b80601f01602080910402602001604051908101604052809291908181526020018280546126b3906139cb565b80156127005780601f106126d557610100808354040283529160200191612700565b820191906000526020600020905b8154815290600101906020018083116126e357829003601f168201915b50505050508152602001600282018054612719906139cb565b80601f0160208091040260200160405190810160405280929190818152602001828054612745906139cb565b80156127925780601f1061276757610100808354040283529160200191612792565b820191906000526020600020905b81548152906001019060200180831161277557829003601f168201915b505050505081526020016003820180546127ab906139cb565b80601f01602080910402602001604051908101604052809291908181526020018280546127d7906139cb565b80156128245780601f106127f957610100808354040283529160200191612824565b820191906000526020600020905b81548152906001019060200180831161280757829003601f168201915b505050918352505060048201546001600160a01b039081166020830152600590920154821660409091015260808201519192508481169116148061287d57508060a001516001600160a01b0316836001600160a01b0316145b6113705760405162461bcd60e51b815260206004820152601c60248201527f546172676574206973206e6f742074686520726563697069656e742e0000000060448201526064016107a9565b6000828152600a602090815260408083206001600160a01b038516845290915290205460ff16610bd457612907816001600160a01b03166014612ce1565b612912836020612ce1565b604051602001612923929190614bb3565b60408051601f198184030181529082905262461bcd60e51b82526107a991600401613427565b6000828152600a602090815260408083206001600160a01b038516845290915290205460ff1615610bd4576000828152600a602090815260408083206001600160a01b0385168085529252808320805460ff1916905551339285917ff6391f5c32d9c69d2a47ea670b442974b53935d1edc7fd64eb21e047a839171b9190a45050565b6000611136836001600160a01b038416612e8a565b6129eb8383612f7d565b6129f86000848484612a94565b6108fa5760405162461bcd60e51b815260206004820152603260248201527f4552433732313a207472616e7366657220746f206e6f6e20455243373231526560448201527f63656976657220696d706c656d656e746572000000000000000000000000000060648201526084016107a9565b6000826000018281548110612a8157612a81613f9b565b9060005260206000200154905092915050565b60006001600160a01b0384163b15612be057604051630a85bd0160e11b81526001600160a01b0385169063150b7a0290612ad8903390899088908890600401614c34565b6020604051808303816000875af1925050508015612b13575060408051601f3d908101601f19168201909252612b1091810190614c70565b60015b612bc6573d808015612b41576040519150601f19603f3d011682016040523d82523d6000602084013e612b46565b606091505b508051600003612bbe5760405162461bcd60e51b815260206004820152603260248201527f4552433732313a207472616e7366657220746f206e6f6e20455243373231526560448201527f63656976657220696d706c656d656e746572000000000000000000000000000060648201526084016107a9565b805181602001fd5b6001600160e01b031916630a85bd0160e11b149050611d88565b506001949350505050565b60006001600160e01b031982167f780e9d6300000000000000000000000000000000000000000000000000000000148061068b575061068b826130d8565b6001600160a01b038316612c8457612c7f81600880546000838152600960205260408120829055600182018355919091527ff3f7a9fe364faab93b216da50a3214154f22a0a2b415b23a84c8169e8b636ee30155565b612ca7565b816001600160a01b0316836001600160a01b031614612ca757612ca78382613173565b6001600160a01b038216612cbe576108fa81613210565b826001600160a01b0316826001600160a01b0316146108fa576108fa82826132bf565b60606000612cf08360026142d3565b612cfb906002613fb1565b67ffffffffffffffff811115612d1357612d13613517565b6040519080825280601f01601f191660200182016040528015612d3d576020820181803683370190505b509050600360fc1b81600081518110612d5857612d58613f9b565b60200101906001600160f81b031916908160001a905350600f60fb1b81600181518110612d8757612d87613f9b565b60200101906001600160f81b031916908160001a9053506000612dab8460026142d3565b612db6906001613fb1565b90505b6001811115612e3b577f303132333435363738396162636465660000000000000000000000000000000085600f1660108110612df757612df7613f9b565b1a60f81b828281518110612e0d57612e0d613f9b565b60200101906001600160f81b031916908160001a90535060049490941c93612e34816142f2565b9050612db9565b5083156111365760405162461bcd60e51b815260206004820181905260248201527f537472696e67733a20686578206c656e67746820696e73756666696369656e7460448201526064016107a9565b60008181526001830160205260408120548015612f73576000612eae600183614309565b8554909150600090612ec290600190614309565b9050818114612f27576000866000018281548110612ee257612ee2613f9b565b9060005260206000200154905080876000018481548110612f0557612f05613f9b565b6000918252602080832090910192909255918252600188019052604090208390555b8554869080612f3857612f38614c8d565b60019003818190600052602060002001600090559055856001016000868152602001908152602001600020600090556001935050505061068b565b600091505061068b565b6001600160a01b038216612fd35760405162461bcd60e51b815260206004820181905260248201527f4552433732313a206d696e7420746f20746865207a65726f206164647265737360448201526064016107a9565b6000818152600260205260409020546001600160a01b0316156130385760405162461bcd60e51b815260206004820152601c60248201527f4552433732313a20746f6b656e20616c7265616479206d696e7465640000000060448201526064016107a9565b613044600083836125c3565b6001600160a01b038216600090815260036020526040812080546001929061306d908490613fb1565b9091555050600081815260026020526040808220805473ffffffffffffffffffffffffffffffffffffffff19166001600160a01b03861690811790915590518392907fddf252ad1be2c89b69c2b068fc378daa952ba7f163c4a11628f55a4df523b3ef908290a45050565b60006001600160e01b031982167f80ac58cd00000000000000000000000000000000000000000000000000000000148061313b57506001600160e01b031982167f5b5e139f00000000000000000000000000000000000000000000000000000000145b8061068b57507f01ffc9a7000000000000000000000000000000000000000000000000000000006001600160e01b031983161461068b565b6000600161318084610ed2565b61318a9190614309565b6000838152600760205260409020549091508082146131dd576001600160a01b03841660009081526006602090815260408083208584528252808320548484528184208190558352600790915290208190555b5060009182526007602090815260408084208490556001600160a01b039094168352600681528383209183525290812055565b60085460009061322290600190614309565b6000838152600960205260408120546008805493945090928490811061324a5761324a613f9b565b90600052602060002001549050806008838154811061326b5761326b613f9b565b60009182526020808320909101929092558281526009909152604080822084905585825281205560088054806132a3576132a3614c8d565b6001900381819060005260206000200160009055905550505050565b60006132ca83610ed2565b6001600160a01b039093166000908152600660209081526040808320868452825280832085905593825260079052919091209190915550565b82805461330f906139cb565b90600052602060002090601f0160209004810192826133315760008555613377565b82601f1061334a57805160ff1916838001178555613377565b82800160010185558215613377579182015b8281111561337757825182559160200191906001019061335c565b50613383929150613387565b5090565b5b808211156133835760008155600101613388565b6001600160e01b03198116811461095757600080fd5b6000602082840312156133c457600080fd5b81356111368161339c565b60005b838110156133ea5781810151838201526020016133d2565b838111156113705750506000910152565b600081518084526134138160208601602086016133cf565b601f01601f19169290920160200192915050565b60208152600061113660208301846133fb565b60006020828403121561344c57600080fd5b5035919050565b80356001600160a01b03811681146112e357600080fd5b6000806040838503121561347d57600080fd5b61348683613453565b946020939093013593505050565b6000602082840312156134a657600080fd5b61113682613453565b6000806000606084860312156134c457600080fd5b6134cd84613453565b92506134db60208501613453565b9150604084013590509250925092565b600080604083850312156134fe57600080fd5b8235915061350e60208401613453565b90509250929050565b634e487b7160e01b600052604160045260246000fd5b6040805190810167ffffffffffffffff8111828210171561355057613550613517565b60405290565b604051601f8201601f1916810167ffffffffffffffff8111828210171561357f5761357f613517565b604052919050565b600067ffffffffffffffff8311156135a1576135a1613517565b6135b4601f8401601f1916602001613556565b90508281528383830111156135c857600080fd5b828260208301376000602084830101529392505050565b600082601f8301126135f057600080fd5b61113683833560208501613587565b600080600080600060a0868803121561361757600080fd5b853567ffffffffffffffff8082111561362f57600080fd5b61363b89838a016135df565b9650602088013591508082111561365157600080fd5b61365d89838a016135df565b9550604088013591508082111561367357600080fd5b61367f89838a016135df565b9450606088013591508082111561369557600080fd5b6136a189838a016135df565b935060808801359150808211156136b757600080fd5b506136c4888289016135df565b9150509295509295909350565b600080604083850312156136e457600080fd5b50508035926020909101359150565b6000806040838503121561370657600080fd5b61370f83613453565b91506020830135801515811461372457600080fd5b809150509250929050565b60006020828403121561374157600080fd5b813567ffffffffffffffff81111561375857600080fd5b611d88848285016135df565b6000806000806080858703121561377a57600080fd5b61378385613453565b935061379160208601613453565b925060408501359150606085013567ffffffffffffffff8111156137b457600080fd5b8501601f810187136137c557600080fd5b6137d487823560208401613587565b91505092959194509250565b600060208083850312156137f357600080fd5b823567ffffffffffffffff8082111561380b57600080fd5b818501915085601f83011261381f57600080fd5b81358181111561383157613831613517565b8060051b613840858201613556565b918252838101850191858101908984111561385a57600080fd5b86860192505b838310156138db578235858111156138785760008081fd5b86016040818c03601f19018113156138905760008081fd5b61389861352d565b89830135888111156138aa5760008081fd5b6138b88e8c838701016135df565b8252506138c6828401613453565b818b0152845250509186019190860190613860565b9998505050505050505050565b60c0815260006138fb60c08301896133fb565b828103602084015261390d81896133fb565b9050828103604084015261392181886133fb565b9050828103606084015261393581876133fb565b9150506001600160a01b03808516608084015280841660a084015250979650505050505050565b6000806040838503121561396f57600080fd5b61397883613453565b915061350e60208401613453565b6000806040838503121561399957600080fd5b823567ffffffffffffffff8111156139b057600080fd5b6139bc858286016135df565b92505061350e60208401613453565b600181811c908216806139df57607f821691505b6020821081036139ff57634e487b7160e01b600052602260045260246000fd5b50919050565b8054600090600181811c9080831680613a1f57607f831692505b60208084108203613a4057634e487b7160e01b600052602260045260246000fd5b818015613a545760018114613a6557613a92565b60ff19861689528489019650613a92565b60008881526020902060005b86811015613a8a5781548b820152908501908301613a71565b505084890196505b50505050505092915050565b60008151613ab08185602086016133cf565b9290920192915050565b7f3c7465787420783d2231352220793d2238302220636c6173733d226d6564697581527f6d223e4d6f64756c653e2000000000000000000000000000000000000000000060208201526000613b12602b830187613a05565b7f3c2f746578743e000000000000000000000000000000000000000000000000008082527f3c7465787420783d2231352220793d223130302220636c6173733d226d65646960078301527f756d223e5472696d65737465723e2000000000000000000000000000000000006027830152613b8f6036830188613a05565b9081527f3c7465787420783d2231352220793d223132302220636c6173733d226d65646960078201527f756d223e47726164653a3c2f746578743e00000000000000000000000000000060278201527f3c7265637420783d2231352220793d22313235222077696474683d223230352260388201527f206865696768743d22343022207374796c653d2266696c6c3a77686974653b6f60588201527f7061636974793a302e35222f3e0000000000000000000000000000000000000060788201527f3c7465787420783d2231352220793d223134302220636c6173733d226d65646960858201527f756d223e0000000000000000000000000000000000000000000000000000000060a58201529050613e75613e4c613d8b613cbe613d85613d36613ce78360a989018d613a05565b7f3c2f746578743e00000000000000000000000000000000000000000000000000815260070190565b7f3c7465787420783d2231352220793d223139302220636c6173733d22736d616c81527f6c223e526563697069656e743a3c2f746578743e000000000000000000000000602082015260340190565b7f3c7465787420783d2231352220793d2232303522207374796c653d22666f6e7481527f2d73697a653a387078223e0000000000000000000000000000000000000000006020820152602b0190565b88613a9e565b7f3c7374796c653e2e737667426f6479207b666f6e742d66616d696c793a20224381527f6f7572696572204e657722207d202e74696e79207b666f6e742d73697a653a3660208201527f70783b207d202e736d616c6c207b666f6e742d73697a653a20313270783b7d2e60408201527f6d656469756d207b666f6e742d73697a653a20313870783b7d3c2f7374796c6560608201527f3e00000000000000000000000000000000000000000000000000000000000000608082015260810190565b7f3c2f7376673e0000000000000000000000000000000000000000000000000000815260060190565b979650505050505050565b634e487b7160e01b600052601260045260246000fd5b634e487b7160e01b600052601160045260246000fd5b600060ff831680613ebf57613ebf613e80565b8060ff84160491505092915050565b7f3c73766720636c6173733d22737667426f6479222077696474683d223330302281527f206865696768743d22333030222076696577426f783d2230203020333030203360208201527f30302220786d6c6e733d22687474703a2f2f7777772e77332e6f72672f32303060408201527f302f737667223e00000000000000000000000000000000000000000000000000606082015260008351613f788160678501602088016133cf565b835190830190613f8f8160678401602088016133cf565b01606701949350505050565b634e487b7160e01b600052603260045260246000fd5b60008219821115613fc457613fc4613e96565b500190565b60008251613fdb8184602087016133cf565b9190910192915050565b600060018201613ff757613ff7613e96565b5060010190565b7f7b226e616d65223a20220000000000000000000000000000000000000000000081526000614030600a830189613a05565b7f20436572746966696361746520000000000000000000000000000000000000008152875161406681600d840160208c016133cf565b8082019150507f222c00000000000000000000000000000000000000000000000000000000000080600d8301527f22696d616765223a202200000000000000000000000000000000000000000000600f8301527f646174613a696d6167652f7376672b786d6c3b6261736536342c000000000000601983015287516140f2816033850160208c016133cf565b60339201918201527f2261747472696275746573223a205b7b2274726169745f74797065223a20224d60358201527f6f64756c65436f6465222c202276616c7565223a20220000000000000000000060558201526138db61426561423c6142366141e76141696141e161419282606b8a018f613a05565b7f227d2c0000000000000000000000000000000000000000000000000000000000815260030190565b7f7b2274726169745f74797065223a202254797065222c202276616c7565223a2081527f2200000000000000000000000000000000000000000000000000000000000000602082015260210190565b8b613a05565b7f7b2274726169745f74797065223a20225472696d6573746572222c202276616c81527f7565223a20220000000000000000000000000000000000000000000000000000602082015260260190565b87613a05565b7f227d000000000000000000000000000000000000000000000000000000000000815260020190565b7f5d7d000000000000000000000000000000000000000000000000000000000000815260020190565b7f646174613a6170706c69636174696f6e2f6a736f6e3b6261736536342c0000008152600082516142c681601d8501602087016133cf565b91909101601d0192915050565b60008160001904831182151516156142ed576142ed613e96565b500290565b60008161430157614301613e96565b506000190190565b60008282101561431b5761431b613e96565b500390565b7f3c726563742077696474683d2233303022206865696768743d2233303022207281527f783d22313022207374796c653d2266696c6c3a00000000000000000000000000602082015260006143786033830187613a05565b7f22202f3e000000000000000000000000000000000000000000000000000000008082527f3c7265637420793d223630222077696474683d2233303022206865696768743d60048301527f2231313522207374796c653d2266696c6c3a000000000000000000000000000060248301526143f56036830188613a05565b91507f222f3e000000000000000000000000000000000000000000000000000000000082527f3c7265637420793d22313735222077696474683d22333030222068656967687460038301527f3d22343022207374796c653d2266696c6c3a000000000000000000000000000060238301526144736035830187613a05565b9081527f3c7465787420783d2231352220793d2232352220636c6173733d226d6564697560048201527f6d223e000000000000000000000000000000000000000000000000000000000060248201529050613e7561459e6145036144da6027850188613a05565b7f2043657274696669636174653c2f746578743e00000000000000000000000000815260130190565b7f3c67207472616e73666f726d3d227472616e736c617465283236302e3030303081527f30302c34302e30303030303029207363616c6528302e3031303030302c2d302e60208201527f30313030303029222066696c6c3d222330303030303022207374726f6b653d2260408201527f6e6f6e65223e0000000000000000000000000000000000000000000000000000606082015260660190565b7f3c7061746820643d224d343436203330323120632d33202d39202d3132202d3581527f39202d3231202d313131202d3235202d313536202d3133202d313430202d313160208201527f30202d313430206c2d383520302030202d3438382030202d343838202d31313060408201527f202d36323920632d3630202d333437202d313132202d363430202d313135202d60608201527f363531202d34202d32302032202d3233203933202d3339203533202d3920313060808201527f35202d313920313134202d3231203136202d35203138202d3139203138202d3160a08201527f3230206c30202d31313420363634203020363633203020363333202d3131302060c08201527f63343632202d383120363335202d31303820363431202d39392034203620313060e08201527f2033352031342036332033203238203131203732203136203939206c313120346101008201527f37203739203020373920302030203435382030203435382031323020363930206101208201527f63363620333739203132322036393620313233203730342031203131202d32366101408201527f203139202d313138203335206c2d313230203231202d33203932202d332039326101608201527f202d3532332030202d3532322030202d3633352031313120632d3334392036306101808201527f202d36393420313230202d37363620313333202d313230203231202d313333206101a08201527f3232202d31333720377a206d393634202d373733206330202d37202d38202d366101c08201527f33202d3137202d313235206c2d3136202d313132202d333336202d3320632d336101e08201527f3136202d33202d333339202d34202d333831202d3234202d3836202d3339202d6102008201527f313233202d313133202d3938202d313930203131202d3334203232202d3433206102208201527f3738202d3731203430202d323020313435202d353320323730202d38342031326102408201527f34202d333120323334202d363520323830202d3837203838202d3431203137346102608201527f202d31323220323131202d313937203231202d3435203234202d3633203234206102808201527f2d3137302030202d313130202d32202d313235202d3238202d313739202d35376102a08201527f202d313232202d313434202d313936202d323937202d323530206c2d3835202d6102c08201527f3331202d333933202d33202d333933202d3320332031323320332031323320336102e08201527f36352035203336352035203532203237206336392033372039372037372039386103008201527f203134342030203931202d363220313435202d32323020313838202d343920316103208201527f34202d313438203431202d323230203631202d323330203633202d33343420316103408201527f3335202d34303220323534202d3235203531202d3238203636202d32382031366103608201527f36203020313030203320313135203238203136362036382031333920313934206103808201527f3232372033373720323634203931203138203736302032312037363020337a206103a08201527f6d31363230202d313333206c30202d313335202d3230352030202d32303520306103c08201527f2030202d3633302030202d363330202d3136352030202d3136352030203020366103e08201527f3330203020363330202d313635203020632d3133342030202d3136352033202d6104008201527f31363520313420302031322033312031373520343520323334206c35203232206104208201527f35313020302035313020302030202d3133357a206d2d31313937202d373832206104408201527f6c2d33202d353938202d313630202d33202d313630202d3220302035373420306104608201527f20353734203733203132206333392037203130312031382031333720323520336104808201527f362037203736203133203930203134206c32352031202d32202d3539377a222f6104a08201527f3e3c2f673e0000000000000000000000000000000000000000000000000000006104c08201526104c50190565b600082614b9a57614b9a613e80565b500490565b600082614bae57614bae613e80565b500690565b7f416363657373436f6e74726f6c3a206163636f756e7420000000000000000000815260008351614beb8160178501602088016133cf565b7f206973206d697373696e6720726f6c65200000000000000000000000000000006017918401918201528351614c288160288401602088016133cf565b01602801949350505050565b60006001600160a01b03808716835280861660208401525083604083015260806060830152614c6660808301846133fb565b9695505050505050565b600060208284031215614c8257600080fd5b81516111368161339c565b634e487b7160e01b600052603160045260246000fdfe4142434445464748494a4b4c4d4e4f505152535455565758595a6162636465666768696a6b6c6d6e6f707172737475767778797a303132333435363738392b2fa26469706673582212204800a39041f6a9d15d92ed3c844bfccabc88a9941f31c3d909e22d8c082c85d664736f6c634300080e0033",
  "immutableReferences": {},
  "source": "// SPDX-License-Identifier: MIT\r\n\r\npragma solidity ^0.8.0;\r\n\r\nimport \"@openzeppelin/contracts/token/ERC721/extensions/ERC721Enumerable.sol\";\r\nimport \"@openzeppelin/contracts/utils/Counters.sol\";\r\n\r\nimport \"./Base64.sol\";\r\nimport \"./RoleControl.sol\";\r\n\r\ncontract SITNFT is ERC721, ERC721Enumerable, RoleControl {\r\n    using Counters for Counters.Counter;\r\n    Counters.Counter private _tokenIdCounter;\r\n    using Strings for uint256;\r\n    // Design Codes\r\n    // 16 palettes\r\n    string[4][16] palette = [\r\n        [\"#eca3f5\", \"#fdbaf9\", \"#b0efeb\", \"#edffa9\"],\r\n        [\"#75cfb8\", \"#bbdfc8\", \"#f0e5d8\", \"#ffc478\"],\r\n        [\"#ffab73\", \"#ffd384\", \"#fff9b0\", \"#ffaec0\"],\r\n        [\"#94b4a4\", \"#d2f5e3\", \"#e5c5b5\", \"#f4d9c6\"],\r\n        [\"#f4f9f9\", \"#ccf2f4\", \"#a4ebf3\", \"#aaaaaa\"],\r\n        [\"#caf7e3\", \"#edffec\", \"#f6dfeb\", \"#e4bad4\"],\r\n        [\"#f4f9f9\", \"#f1d1d0\", \"#fbaccc\", \"#f875aa\"],\r\n        [\"#fdffbc\", \"#ffeebb\", \"#ffdcb8\", \"#ffc1b6\"],\r\n        [\"#f0e4d7\", \"#f5c0c0\", \"#ff7171\", \"#9fd8df\"],\r\n        [\"#e4fbff\", \"#b8b5ff\", \"#7868e6\", \"#edeef7\"],\r\n        [\"#ffcb91\", \"#ffefa1\", \"#94ebcd\", \"#6ddccf\"],\r\n        [\"#bedcfa\", \"#98acf8\", \"#b088f9\", \"#da9ff9\"],\r\n        [\"#bce6eb\", \"#fdcfdf\", \"#fbbedf\", \"#fca3cc\"],\r\n        [\"#ff75a0\", \"#fce38a\", \"#eaffd0\", \"#95e1d3\"],\r\n        [\"#fbe0c4\", \"#8ab6d6\", \"#2978b5\", \"#0061a8\"],\r\n        [\"#dddddd\", \"#f9f3f3\", \"#f7d9d9\", \"#f25287\"]\r\n    ];\r\n\r\n    struct IdAddress {\r\n        string id;\r\n        address addr;\r\n    }\r\n\r\n    struct Attribute {\r\n        string moduleCode;\r\n        string testType;\r\n        string grade;\r\n        string trimester;\r\n        address recipient;\r\n        address base;\r\n    }\r\n\r\n    mapping(uint256 => Attribute) public attributes;\r\n    mapping(bytes32 => address) private _studentAddress;\r\n\r\n    constructor() ERC721(\"SIT NFT\", \"SIT\") RoleControl(msg.sender) {}\r\n\r\n    function addStudentAddress(string memory _id, address _address)\r\n        public\r\n        onlyAdmin\r\n    {\r\n        bytes32 encryptedId = keccak256(abi.encodePacked(_id));\r\n        _studentAddress[encryptedId] = _address;\r\n    }\r\n\r\n    function multiAddStudentAddress(IdAddress[] memory _array)\r\n        public\r\n        onlyAdmin\r\n    {\r\n        for (uint256 i = 0; i < _array.length; i++) {\r\n            addStudentAddress(_array[i].id, _array[i].addr);\r\n        }\r\n    }\r\n\r\n    function getStudentAddress(string memory _id)\r\n        public\r\n        view\r\n        onlyFaculty\r\n        returns (address)\r\n    {\r\n        bytes32 encryptedId = keccak256(abi.encodePacked(_id));\r\n        require(\r\n            _studentAddress[encryptedId] != address(0),\r\n            \"Student does not exist.\"\r\n        );\r\n        return _studentAddress[encryptedId];\r\n    }\r\n\r\n    // public\r\n    function mint(\r\n        string memory moduleCode,\r\n        string memory testType,\r\n        string memory grade,\r\n        string memory trimester,\r\n        string memory recipient\r\n    ) public onlyFaculty {\r\n        uint256 supply = totalSupply();\r\n        Attribute memory newAttribute = Attribute(\r\n            moduleCode,\r\n            testType,\r\n            grade,\r\n            trimester,\r\n            getStudentAddress(recipient),\r\n            getOwner()\r\n        );\r\n\r\n        attributes[supply + 1] = newAttribute;\r\n        _safeMint(newAttribute.recipient, supply + 1);\r\n    }\r\n\r\n    function generatePaletteSection(uint256 _tokenId, uint256 pIndex)\r\n        internal\r\n        view\r\n        returns (string memory)\r\n    {\r\n        return\r\n            string(\r\n                abi.encodePacked(\r\n                    '<rect width=\"300\" height=\"300\" rx=\"10\" style=\"fill:',\r\n                    palette[pIndex][0],\r\n                    '\" />',\r\n                    '<rect y=\"60\" width=\"300\" height=\"115\" style=\"fill:',\r\n                    palette[pIndex][1],\r\n                    '\"/>',\r\n                    '<rect y=\"175\" width=\"300\" height=\"40\" style=\"fill:',\r\n                    palette[pIndex][2],\r\n                    '\" />',\r\n                    '<text x=\"15\" y=\"25\" class=\"medium\">',\r\n                    attributes[_tokenId].testType,\r\n                    \" Certificate</text>\",\r\n                    // '<text x=\"17\" y=\"50\" class=\"small\" opacity=\"0.5\">',substring(toString(_tokenId),0,24),'</text>',\r\n                    '<g transform=\"translate(260.000000,40.000000) scale(0.010000,-0.010000)\" fill=\"#000000\" stroke=\"none\">',\r\n                    '<path d=\"M446 3021 c-3 -9 -12 -59 -21 -111 -25 -156 -13 -140 -110 -140 l-85 0 0 -488 0 -488 -110 -629 c-60 -347 -112 -640 -115 -651 -4 -20 2 -23 93 -39 53 -9 105 -19 114 -21 16 -5 18 -19 18 -120 l0 -114 664 0 663 0 633 -110 c462 -81 635 -108 641 -99 4 6 10 35 14 63 3 28 11 72 16 99 l11 47 79 0 79 0 0 458 0 458 120 690 c66 379 122 696 123 704 1 11 -26 19 -118 35 l-120 21 -3 92 -3 92 -523 0 -522 0 -635 111 c-349 60 -694 120 -766 133 -120 21 -133 22 -137 7z m964 -773 c0 -7 -8 -63 -17 -125 l-16 -112 -336 -3 c-316 -3 -339 -4 -381 -24 -86 -39 -123 -113 -98 -190 11 -34 22 -43 78 -71 40 -20 145 -53 270 -84 124 -31 234 -65 280 -87 88 -41 174 -122 211 -197 21 -45 24 -63 24 -170 0 -110 -2 -125 -28 -179 -57 -122 -144 -196 -297 -250 l-85 -31 -393 -3 -393 -3 3 123 3 123 365 5 365 5 52 27 c69 37 97 77 98 144 0 91 -62 145 -220 188 -49 14 -148 41 -220 61 -230 63 -344 135 -402 254 -25 51 -28 66 -28 166 0 100 3 115 28 166 68 139 194 227 377 264 91 18 760 21 760 3z m1620 -133 l0 -135 -205 0 -205 0 0 -630 0 -630 -165 0 -165 0 0 630 0 630 -165 0 c-134 0 -165 3 -165 14 0 12 31 175 45 234 l5 22 510 0 510 0 0 -135z m-1197 -782 l-3 -598 -160 -3 -160 -2 0 574 0 574 73 12 c39 7 101 18 137 25 36 7 76 13 90 14 l25 1 -2 -597z\"/></g>'\r\n                )\r\n            );\r\n    }\r\n\r\n    function generateBase64Image(uint256 _tokenId)\r\n        public\r\n        view\r\n        returns (string memory)\r\n    {\r\n        return Base64.encode(bytes(generateImage(_tokenId)));\r\n    }\r\n\r\n    function generateImage(uint256 _tokenId)\r\n        public\r\n        view\r\n        returns (string memory)\r\n    {\r\n        // bytes memory hash = abi.encodePacked(bytes32(_tokenId));\r\n        uint256 random = uint256(\r\n            keccak256(abi.encodePacked(block.timestamp, msg.sender))\r\n        );\r\n        bytes memory hash = abi.encodePacked(bytes32(random));\r\n        uint256 pIndex = toUint8(hash, 0) / 16; // 16 palettes\r\n\r\n        /* this is broken into functions to avoid stack too deep errors */\r\n        string memory paletteSection = generatePaletteSection(_tokenId, pIndex);\r\n        string memory svgSection = buildImageSvg(_tokenId);\r\n        return\r\n            string(\r\n                abi.encodePacked(\r\n                    '<svg class=\"svgBody\" width=\"300\" height=\"300\" viewBox=\"0 0 300 300\" xmlns=\"http://www.w3.org/2000/svg\">',\r\n                    paletteSection,\r\n                    svgSection\r\n                )\r\n            );\r\n    }\r\n\r\n    function buildImageSvg(uint256 _tokenId)\r\n        public\r\n        view\r\n        returns (string memory)\r\n    {\r\n        return\r\n            string(\r\n                abi.encodePacked(\r\n                    '<text x=\"15\" y=\"80\" class=\"medium\">Module> ',\r\n                    attributes[_tokenId].moduleCode,\r\n                    \"</text>\",\r\n                    '<text x=\"15\" y=\"100\" class=\"medium\">Trimester> ',\r\n                    attributes[_tokenId].trimester,\r\n                    \"</text>\",\r\n                    '<text x=\"15\" y=\"120\" class=\"medium\">Grade:</text>',\r\n                    '<rect x=\"15\" y=\"125\" width=\"205\" height=\"40\" style=\"fill:white;opacity:0.5\"/>',\r\n                    '<text x=\"15\" y=\"140\" class=\"medium\">',\r\n                    attributes[_tokenId].grade,\r\n                    \"</text>\",\r\n                    '<text x=\"15\" y=\"190\" class=\"small\">Recipient:</text>',\r\n                    '<text x=\"15\" y=\"205\" style=\"font-size:8px\">',\r\n                    toHexString(uint160(attributes[_tokenId].base), 20),\r\n                    \"</text>\",\r\n                    '<style>.svgBody {font-family: \"Courier New\" } .tiny {font-size:6px; } .small {font-size: 12px;}.medium {font-size: 18px;}</style>',\r\n                    \"</svg>\"\r\n                )\r\n            );\r\n    }\r\n\r\n    function buildMetadata(uint256 _tokenId)\r\n        public\r\n        view\r\n        returns (string memory)\r\n    {\r\n        // Attribute memory currentAttribute = attributes[_tokenId];\r\n        string memory image = generateBase64Image(_tokenId);\r\n        string memory json = Base64.encode(\r\n            bytes(\r\n                string(\r\n                    abi.encodePacked(\r\n                        '{\"name\": \"',\r\n                        attributes[_tokenId].moduleCode,\r\n                        \" Certificate \",\r\n                        toString(_tokenId),\r\n                        '\",',\r\n                        '\"image\": \"',\r\n                        \"data:image/svg+xml;base64,\",\r\n                        image,\r\n                        '\",',\r\n                        '\"attributes\": [{\"trait_type\": \"ModuleCode\", \"value\": \"',\r\n                        attributes[_tokenId].moduleCode,\r\n                        '\"},',\r\n                        '{\"trait_type\": \"Type\", \"value\": \"',\r\n                        attributes[_tokenId].testType,\r\n                        '\"},',\r\n                        '{\"trait_type\": \"Trimester\", \"value\": \"',\r\n                        attributes[_tokenId].trimester,\r\n                        '\"}',\r\n                        \"]}\"\r\n                    )\r\n                )\r\n            )\r\n        );\r\n        return string(abi.encodePacked(\"data:application/json;base64,\", json));\r\n    }\r\n\r\n    function tokenURI(uint256 _tokenId)\r\n        public\r\n        view\r\n        virtual\r\n        override\r\n        returns (string memory)\r\n    {\r\n        require(\r\n            _exists(_tokenId),\r\n            \"ERC721Metadata: URI query for nonexistent token\"\r\n        );\r\n        require(\r\n            _exists(_tokenId),\r\n            \"ERC721Metadata: URI query for nonexistent token\"\r\n        );\r\n        return buildMetadata(_tokenId);\r\n    }\r\n\r\n    function _beforeTokenTransfer(\r\n        address from,\r\n        address to,\r\n        uint256 _tokenId\r\n    ) internal override(ERC721, ERC721Enumerable) {\r\n        super._beforeTokenTransfer(from, to, _tokenId);\r\n\r\n        Attribute memory currentAttribute = attributes[_tokenId];\r\n\r\n        require(\r\n            to == currentAttribute.recipient || to == currentAttribute.base,\r\n            \"Target is not the recipient.\"\r\n        );\r\n    }\r\n\r\n    function supportsInterface(bytes4 interfaceId)\r\n        public\r\n        view\r\n        override(ERC721, ERC721Enumerable, AccessControlEnumerable)\r\n        returns (bool)\r\n    {\r\n        return super.supportsInterface(interfaceId);\r\n    }\r\n\r\n    bytes16 private constant _ALPHABET = \"0123456789abcdef\";\r\n\r\n    /**\r\n     * @dev Converts a `uint256` to its ASCII `string` hexadecimal representation with fixed length.\r\n     */\r\n    function toHexString(uint256 value, uint256 length)\r\n        internal\r\n        pure\r\n        returns (string memory)\r\n    {\r\n        bytes memory buffer = new bytes(2 * length + 2);\r\n        buffer[0] = \"0\";\r\n        buffer[1] = \"x\";\r\n        for (uint256 i = 2 * length + 1; i > 1; --i) {\r\n            buffer[i] = _ALPHABET[value & 0xf];\r\n            value >>= 4;\r\n        }\r\n        require(value == 0, \"HEX_L\");\r\n        return string(buffer);\r\n    }\r\n\r\n    function toUint8(bytes memory _bytes, uint256 _start)\r\n        internal\r\n        pure\r\n        returns (uint8)\r\n    {\r\n        require(_start + 1 >= _start, \"toUint8_overflow\");\r\n        require(_bytes.length >= _start + 1, \"toUint8_outOfBounds\");\r\n        uint8 tempUint;\r\n\r\n        assembly {\r\n            tempUint := mload(add(add(_bytes, 0x1), _start))\r\n        }\r\n        return tempUint;\r\n    }\r\n\r\n    function toString(uint256 value) internal pure returns (string memory) {\r\n        if (value == 0) {\r\n            return \"0\";\r\n        }\r\n        uint256 temp = value;\r\n        uint256 digits;\r\n        while (temp != 0) {\r\n            digits++;\r\n            temp /= 10;\r\n        }\r\n        bytes memory buffer = new bytes(digits);\r\n        while (value != 0) {\r\n            digits -= 1;\r\n            buffer[digits] = bytes1(uint8(48 + uint256(value % 10)));\r\n            value /= 10;\r\n        }\r\n        return string(buffer);\r\n    }\r\n}\r\n",
  "sourcePath": "C:\\Users\\jaspz\\Documents\\GitHub\\ITP\\Blockchain-Trusted-Model\\contracts\\SITNFT.sol",
  "compiler": {
    "name": "solc",
    "version": "0.8.14+commit.80d49f37.Emscripten.clang"
  },
  "schemaVersion": "3.4.7",
  "updatedAt": "2022-07-05T09:03:41.516Z",
  "networkType": "ethereum",
  "devdoc": {
    "kind": "dev",
    "methods": {
      "approve(address,uint256)": {
        "details": "See {IERC721-approve}."
      },
      "balanceOf(address)": {
        "details": "See {IERC721-balanceOf}."
      },
      "getApproved(uint256)": {
        "details": "See {IERC721-getApproved}."
      },
      "getRoleAdmin(bytes32)": {
        "details": "Returns the admin role that controls `role`. See {grantRole} and {revokeRole}. To change a role's admin, use {_setRoleAdmin}."
      },
      "getRoleMember(bytes32,uint256)": {
        "details": "Returns one of the accounts that have `role`. `index` must be a value between 0 and {getRoleMemberCount}, non-inclusive. Role bearers are not sorted in any particular way, and their ordering may change at any point. WARNING: When using {getRoleMember} and {getRoleMemberCount}, make sure you perform all queries on the same block. See the following https://forum.openzeppelin.com/t/iterating-over-elements-on-enumerableset-in-openzeppelin-contracts/2296[forum post] for more information."
      },
      "getRoleMemberCount(bytes32)": {
        "details": "Returns the number of accounts that have `role`. Can be used together with {getRoleMember} to enumerate all bearers of a role."
      },
      "grantRole(bytes32,address)": {
        "details": "Grants `role` to `account`. If `account` had not been already granted `role`, emits a {RoleGranted} event. Requirements: - the caller must have ``role``'s admin role."
      },
      "hasRole(bytes32,address)": {
        "details": "Returns `true` if `account` has been granted `role`."
      },
      "isApprovedForAll(address,address)": {
        "details": "See {IERC721-isApprovedForAll}."
      },
      "name()": {
        "details": "See {IERC721Metadata-name}."
      },
      "ownerOf(uint256)": {
        "details": "See {IERC721-ownerOf}."
      },
      "renounceRole(bytes32,address)": {
        "details": "Revokes `role` from the calling account. Roles are often managed via {grantRole} and {revokeRole}: this function's purpose is to provide a mechanism for accounts to lose their privileges if they are compromised (such as when a trusted device is misplaced). If the calling account had been revoked `role`, emits a {RoleRevoked} event. Requirements: - the caller must be `account`."
      },
      "revokeRole(bytes32,address)": {
        "details": "Revokes `role` from `account`. If `account` had been granted `role`, emits a {RoleRevoked} event. Requirements: - the caller must have ``role``'s admin role."
      },
      "safeTransferFrom(address,address,uint256)": {
        "details": "See {IERC721-safeTransferFrom}."
      },
      "safeTransferFrom(address,address,uint256,bytes)": {
        "details": "See {IERC721-safeTransferFrom}."
      },
      "setApprovalForAll(address,bool)": {
        "details": "See {IERC721-setApprovalForAll}."
      },
      "symbol()": {
        "details": "See {IERC721Metadata-symbol}."
      },
      "tokenByIndex(uint256)": {
        "details": "See {IERC721Enumerable-tokenByIndex}."
      },
      "tokenOfOwnerByIndex(address,uint256)": {
        "details": "See {IERC721Enumerable-tokenOfOwnerByIndex}."
      },
      "totalSupply()": {
        "details": "See {IERC721Enumerable-totalSupply}."
      },
      "transferFrom(address,address,uint256)": {
        "details": "See {IERC721-transferFrom}."
      }
    },
    "version": 1
  },
  "userdoc": {
    "kind": "user",
    "methods": {},
    "version": 1
  }
}