{
  "contractName": "SITNFT",
  "abi": [
    {
      "inputs": [],
      "stateMutability": "nonpayable",
      "type": "constructor"
    },
    {
      "anonymous": false,
      "inputs": [
        {
          "indexed": true,
          "internalType": "address",
          "name": "owner",
          "type": "address"
        },
        {
          "indexed": true,
          "internalType": "address",
          "name": "approved",
          "type": "address"
        },
        {
          "indexed": true,
          "internalType": "uint256",
          "name": "tokenId",
          "type": "uint256"
        }
      ],
      "name": "Approval",
      "type": "event"
    },
    {
      "anonymous": false,
      "inputs": [
        {
          "indexed": true,
          "internalType": "address",
          "name": "owner",
          "type": "address"
        },
        {
          "indexed": true,
          "internalType": "address",
          "name": "operator",
          "type": "address"
        },
        {
          "indexed": false,
          "internalType": "bool",
          "name": "approved",
          "type": "bool"
        }
      ],
      "name": "ApprovalForAll",
      "type": "event"
    },
    {
      "anonymous": false,
      "inputs": [
        {
          "indexed": true,
          "internalType": "bytes32",
          "name": "role",
          "type": "bytes32"
        },
        {
          "indexed": true,
          "internalType": "bytes32",
          "name": "previousAdminRole",
          "type": "bytes32"
        },
        {
          "indexed": true,
          "internalType": "bytes32",
          "name": "newAdminRole",
          "type": "bytes32"
        }
      ],
      "name": "RoleAdminChanged",
      "type": "event"
    },
    {
      "anonymous": false,
      "inputs": [
        {
          "indexed": true,
          "internalType": "bytes32",
          "name": "role",
          "type": "bytes32"
        },
        {
          "indexed": true,
          "internalType": "address",
          "name": "account",
          "type": "address"
        },
        {
          "indexed": true,
          "internalType": "address",
          "name": "sender",
          "type": "address"
        }
      ],
      "name": "RoleGranted",
      "type": "event"
    },
    {
      "anonymous": false,
      "inputs": [
        {
          "indexed": true,
          "internalType": "bytes32",
          "name": "role",
          "type": "bytes32"
        },
        {
          "indexed": true,
          "internalType": "address",
          "name": "account",
          "type": "address"
        },
        {
          "indexed": true,
          "internalType": "address",
          "name": "sender",
          "type": "address"
        }
      ],
      "name": "RoleRevoked",
      "type": "event"
    },
    {
      "anonymous": false,
      "inputs": [
        {
          "indexed": true,
          "internalType": "address",
          "name": "from",
          "type": "address"
        },
        {
          "indexed": true,
          "internalType": "address",
          "name": "to",
          "type": "address"
        },
        {
          "indexed": true,
          "internalType": "uint256",
          "name": "tokenId",
          "type": "uint256"
        }
      ],
      "name": "Transfer",
      "type": "event"
    },
    {
      "inputs": [],
      "name": "DEFAULT_ADMIN_ROLE",
      "outputs": [
        {
          "internalType": "bytes32",
          "name": "",
          "type": "bytes32"
        }
      ],
      "stateMutability": "view",
      "type": "function",
      "constant": true
    },
    {
      "inputs": [],
      "name": "FACULTY_ROLE",
      "outputs": [
        {
          "internalType": "bytes32",
          "name": "",
          "type": "bytes32"
        }
      ],
      "stateMutability": "view",
      "type": "function",
      "constant": true
    },
    {
      "inputs": [
        {
          "internalType": "address",
          "name": "account",
          "type": "address"
        }
      ],
      "name": "addAdmin",
      "outputs": [],
      "stateMutability": "nonpayable",
      "type": "function"
    },
    {
      "inputs": [
        {
          "internalType": "address",
          "name": "account",
          "type": "address"
        }
      ],
      "name": "addFaculty",
      "outputs": [],
      "stateMutability": "nonpayable",
      "type": "function"
    },
    {
      "inputs": [
        {
          "internalType": "address",
          "name": "to",
          "type": "address"
        },
        {
          "internalType": "uint256",
          "name": "tokenId",
          "type": "uint256"
        }
      ],
      "name": "approve",
      "outputs": [],
      "stateMutability": "nonpayable",
      "type": "function"
    },
    {
      "inputs": [
        {
          "internalType": "uint256",
          "name": "",
          "type": "uint256"
        }
      ],
      "name": "attributes",
      "outputs": [
        {
          "internalType": "string",
          "name": "moduleCode",
          "type": "string"
        },
        {
          "internalType": "string",
          "name": "testType",
          "type": "string"
        },
        {
          "internalType": "string",
          "name": "grade",
          "type": "string"
        },
        {
          "internalType": "string",
          "name": "trimester",
          "type": "string"
        },
        {
          "internalType": "address",
          "name": "recipient",
          "type": "address"
        },
        {
          "internalType": "address",
          "name": "base",
          "type": "address"
        }
      ],
      "stateMutability": "view",
      "type": "function",
      "constant": true
    },
    {
      "inputs": [
        {
          "internalType": "address",
          "name": "owner",
          "type": "address"
        }
      ],
      "name": "balanceOf",
      "outputs": [
        {
          "internalType": "uint256",
          "name": "",
          "type": "uint256"
        }
      ],
      "stateMutability": "view",
      "type": "function",
      "constant": true
    },
    {
      "inputs": [
        {
          "internalType": "uint256",
          "name": "tokenId",
          "type": "uint256"
        }
      ],
      "name": "getApproved",
      "outputs": [
        {
          "internalType": "address",
          "name": "",
          "type": "address"
        }
      ],
      "stateMutability": "view",
      "type": "function",
      "constant": true
    },
    {
      "inputs": [],
      "name": "getOwner",
      "outputs": [
        {
          "internalType": "address",
          "name": "",
          "type": "address"
        }
      ],
      "stateMutability": "view",
      "type": "function",
      "constant": true
    },
    {
      "inputs": [
        {
          "internalType": "bytes32",
          "name": "role",
          "type": "bytes32"
        }
      ],
      "name": "getRoleAdmin",
      "outputs": [
        {
          "internalType": "bytes32",
          "name": "",
          "type": "bytes32"
        }
      ],
      "stateMutability": "view",
      "type": "function",
      "constant": true
    },
    {
      "inputs": [
        {
          "internalType": "bytes32",
          "name": "role",
          "type": "bytes32"
        },
        {
          "internalType": "uint256",
          "name": "index",
          "type": "uint256"
        }
      ],
      "name": "getRoleMember",
      "outputs": [
        {
          "internalType": "address",
          "name": "",
          "type": "address"
        }
      ],
      "stateMutability": "view",
      "type": "function",
      "constant": true
    },
    {
      "inputs": [
        {
          "internalType": "bytes32",
          "name": "role",
          "type": "bytes32"
        }
      ],
      "name": "getRoleMemberCount",
      "outputs": [
        {
          "internalType": "uint256",
          "name": "",
          "type": "uint256"
        }
      ],
      "stateMutability": "view",
      "type": "function",
      "constant": true
    },
    {
      "inputs": [
        {
          "internalType": "bytes32",
          "name": "role",
          "type": "bytes32"
        },
        {
          "internalType": "address",
          "name": "account",
          "type": "address"
        }
      ],
      "name": "grantRole",
      "outputs": [],
      "stateMutability": "nonpayable",
      "type": "function"
    },
    {
      "inputs": [
        {
          "internalType": "bytes32",
          "name": "role",
          "type": "bytes32"
        },
        {
          "internalType": "address",
          "name": "account",
          "type": "address"
        }
      ],
      "name": "hasRole",
      "outputs": [
        {
          "internalType": "bool",
          "name": "",
          "type": "bool"
        }
      ],
      "stateMutability": "view",
      "type": "function",
      "constant": true
    },
    {
      "inputs": [
        {
          "internalType": "address",
          "name": "account",
          "type": "address"
        }
      ],
      "name": "isAdmin",
      "outputs": [
        {
          "internalType": "bool",
          "name": "",
          "type": "bool"
        }
      ],
      "stateMutability": "view",
      "type": "function",
      "constant": true
    },
    {
      "inputs": [
        {
          "internalType": "address",
          "name": "owner",
          "type": "address"
        },
        {
          "internalType": "address",
          "name": "operator",
          "type": "address"
        }
      ],
      "name": "isApprovedForAll",
      "outputs": [
        {
          "internalType": "bool",
          "name": "",
          "type": "bool"
        }
      ],
      "stateMutability": "view",
      "type": "function",
      "constant": true
    },
    {
      "inputs": [
        {
          "internalType": "address",
          "name": "account",
          "type": "address"
        }
      ],
      "name": "isFaculty",
      "outputs": [
        {
          "internalType": "bool",
          "name": "",
          "type": "bool"
        }
      ],
      "stateMutability": "view",
      "type": "function",
      "constant": true
    },
    {
      "inputs": [],
      "name": "name",
      "outputs": [
        {
          "internalType": "string",
          "name": "",
          "type": "string"
        }
      ],
      "stateMutability": "view",
      "type": "function",
      "constant": true
    },
    {
      "inputs": [
        {
          "internalType": "uint256",
          "name": "tokenId",
          "type": "uint256"
        }
      ],
      "name": "ownerOf",
      "outputs": [
        {
          "internalType": "address",
          "name": "",
          "type": "address"
        }
      ],
      "stateMutability": "view",
      "type": "function",
      "constant": true
    },
    {
      "inputs": [
        {
          "internalType": "address",
          "name": "account",
          "type": "address"
        }
      ],
      "name": "removeAdmin",
      "outputs": [],
      "stateMutability": "nonpayable",
      "type": "function"
    },
    {
      "inputs": [
        {
          "internalType": "address",
          "name": "account",
          "type": "address"
        }
      ],
      "name": "removeFaculty",
      "outputs": [],
      "stateMutability": "nonpayable",
      "type": "function"
    },
    {
      "inputs": [
        {
          "internalType": "bytes32",
          "name": "role",
          "type": "bytes32"
        },
        {
          "internalType": "address",
          "name": "account",
          "type": "address"
        }
      ],
      "name": "renounceRole",
      "outputs": [],
      "stateMutability": "nonpayable",
      "type": "function"
    },
    {
      "inputs": [
        {
          "internalType": "bytes32",
          "name": "role",
          "type": "bytes32"
        },
        {
          "internalType": "address",
          "name": "account",
          "type": "address"
        }
      ],
      "name": "revokeRole",
      "outputs": [],
      "stateMutability": "nonpayable",
      "type": "function"
    },
    {
      "inputs": [
        {
          "internalType": "address",
          "name": "from",
          "type": "address"
        },
        {
          "internalType": "address",
          "name": "to",
          "type": "address"
        },
        {
          "internalType": "uint256",
          "name": "tokenId",
          "type": "uint256"
        }
      ],
      "name": "safeTransferFrom",
      "outputs": [],
      "stateMutability": "nonpayable",
      "type": "function"
    },
    {
      "inputs": [
        {
          "internalType": "address",
          "name": "from",
          "type": "address"
        },
        {
          "internalType": "address",
          "name": "to",
          "type": "address"
        },
        {
          "internalType": "uint256",
          "name": "tokenId",
          "type": "uint256"
        },
        {
          "internalType": "bytes",
          "name": "_data",
          "type": "bytes"
        }
      ],
      "name": "safeTransferFrom",
      "outputs": [],
      "stateMutability": "nonpayable",
      "type": "function"
    },
    {
      "inputs": [
        {
          "internalType": "address",
          "name": "operator",
          "type": "address"
        },
        {
          "internalType": "bool",
          "name": "approved",
          "type": "bool"
        }
      ],
      "name": "setApprovalForAll",
      "outputs": [],
      "stateMutability": "nonpayable",
      "type": "function"
    },
    {
      "inputs": [],
      "name": "symbol",
      "outputs": [
        {
          "internalType": "string",
          "name": "",
          "type": "string"
        }
      ],
      "stateMutability": "view",
      "type": "function",
      "constant": true
    },
    {
      "inputs": [
        {
          "internalType": "uint256",
          "name": "index",
          "type": "uint256"
        }
      ],
      "name": "tokenByIndex",
      "outputs": [
        {
          "internalType": "uint256",
          "name": "",
          "type": "uint256"
        }
      ],
      "stateMutability": "view",
      "type": "function",
      "constant": true
    },
    {
      "inputs": [
        {
          "internalType": "address",
          "name": "owner",
          "type": "address"
        },
        {
          "internalType": "uint256",
          "name": "index",
          "type": "uint256"
        }
      ],
      "name": "tokenOfOwnerByIndex",
      "outputs": [
        {
          "internalType": "uint256",
          "name": "",
          "type": "uint256"
        }
      ],
      "stateMutability": "view",
      "type": "function",
      "constant": true
    },
    {
      "inputs": [],
      "name": "totalSupply",
      "outputs": [
        {
          "internalType": "uint256",
          "name": "",
          "type": "uint256"
        }
      ],
      "stateMutability": "view",
      "type": "function",
      "constant": true
    },
    {
      "inputs": [
        {
          "internalType": "address",
          "name": "from",
          "type": "address"
        },
        {
          "internalType": "address",
          "name": "to",
          "type": "address"
        },
        {
          "internalType": "uint256",
          "name": "tokenId",
          "type": "uint256"
        }
      ],
      "name": "transferFrom",
      "outputs": [],
      "stateMutability": "nonpayable",
      "type": "function"
    },
    {
      "inputs": [
        {
          "internalType": "string",
          "name": "_id",
          "type": "string"
        },
        {
          "internalType": "address",
          "name": "_address",
          "type": "address"
        }
      ],
      "name": "addStudentAddress",
      "outputs": [],
      "stateMutability": "nonpayable",
      "type": "function"
    },
    {
      "inputs": [
        {
          "components": [
            {
              "internalType": "string",
              "name": "id",
              "type": "string"
            },
            {
              "internalType": "address",
              "name": "addr",
              "type": "address"
            }
          ],
          "internalType": "struct SITNFT.IdAddress[]",
          "name": "_array",
          "type": "tuple[]"
        }
      ],
      "name": "multiAddStudentAddress",
      "outputs": [],
      "stateMutability": "nonpayable",
      "type": "function"
    },
    {
      "inputs": [
        {
          "internalType": "string",
          "name": "_id",
          "type": "string"
        }
      ],
      "name": "getStudentAddress",
      "outputs": [
        {
          "internalType": "address",
          "name": "",
          "type": "address"
        }
      ],
      "stateMutability": "view",
      "type": "function",
      "constant": true
    },
    {
      "inputs": [
        {
          "internalType": "string",
          "name": "moduleCode",
          "type": "string"
        },
        {
          "internalType": "string",
          "name": "testType",
          "type": "string"
        },
        {
          "internalType": "string",
          "name": "grade",
          "type": "string"
        },
        {
          "internalType": "string",
          "name": "trimester",
          "type": "string"
        },
        {
          "internalType": "string",
          "name": "recipient",
          "type": "string"
        }
      ],
      "name": "mint",
      "outputs": [],
      "stateMutability": "nonpayable",
      "type": "function"
    },
    {
      "inputs": [
        {
          "internalType": "uint256",
          "name": "_tokenId",
          "type": "uint256"
        }
      ],
      "name": "generateBase64Image",
      "outputs": [
        {
          "internalType": "string",
          "name": "",
          "type": "string"
        }
      ],
      "stateMutability": "view",
      "type": "function",
      "constant": true
    },
    {
      "inputs": [
        {
          "internalType": "uint256",
          "name": "_tokenId",
          "type": "uint256"
        }
      ],
      "name": "generateImage",
      "outputs": [
        {
          "internalType": "string",
          "name": "",
          "type": "string"
        }
      ],
      "stateMutability": "view",
      "type": "function",
      "constant": true
    },
    {
      "inputs": [
        {
          "internalType": "uint256",
          "name": "_tokenId",
          "type": "uint256"
        }
      ],
      "name": "tokenURI",
      "outputs": [
        {
          "internalType": "string",
          "name": "",
          "type": "string"
        }
      ],
      "stateMutability": "view",
      "type": "function",
      "constant": true
    },
    {
      "inputs": [
        {
          "internalType": "bytes4",
          "name": "interfaceId",
          "type": "bytes4"
        }
      ],
      "name": "supportsInterface",
      "outputs": [
        {
          "internalType": "bool",
          "name": "",
          "type": "bool"
        }
      ],
      "stateMutability": "view",
      "type": "function",
      "constant": true
    }
  ],
  "bytecode": "0x60806040523480156200001157600080fd5b50604080518082018252600781526614d2550813919560ca1b60208083019182528351808501909452600384526214d25560ea1b9084015281513393916200005d916000919062000286565b5080516200007390600190602084019062000286565b5050600c80546001600160a01b0319166001600160a01b038416179055506200009e600082620000d2565b620000cb7f573a495ec6f39d095bd4855f18069a9236d77216cfb96e453909f2408c333cfa6000620000e2565b5062000368565b620000de82826200012d565b5050565b6000828152600a6020526040808220600101805490849055905190918391839186917fbd79b86ffe0ab8e8776151514217cd7cacd52c909f66475c3af44e129f0b00ff9190a4505050565b6200014482826200017060201b62001c961760201c565b6000828152600b602090815260409091206200016b91839062001d3862000214821b17901c565b505050565b6000828152600a602090815260408083206001600160a01b038516845290915290205460ff16620000de576000828152600a602090815260408083206001600160a01b03851684529091529020805460ff19166001179055620001d03390565b6001600160a01b0316816001600160a01b0316837f2f8788117e7eff1d82e926ec794901d17c78024a50270940304540a733656f0d60405160405180910390a45050565b60006200022b836001600160a01b03841662000234565b90505b92915050565b60008181526001830160205260408120546200027d575081546001818101845560008481526020808220909301849055845484825282860190935260409020919091556200022e565b5060006200022e565b82805462000294906200032c565b90600052602060002090601f016020900481019282620002b8576000855562000303565b82601f10620002d357805160ff191683800117855562000303565b8280016001018555821562000303579182015b8281111562000303578251825591602001919060010190620002e6565b506200031192915062000315565b5090565b5b8082111562000311576000815560010162000316565b600181811c908216806200034157607f821691505b6020821081036200036257634e487b7160e01b600052602260045260246000fd5b50919050565b6149cb80620003786000396000f3fe608060405234801561001057600080fd5b50600436106102ad5760003560e01c806370a082311161017b578063a82e3b00116100d8578063ca15c8731161008c578063d547741f11610071578063d547741f146105d2578063e985e9c5146105e5578063f408977b1461062157600080fd5b8063ca15c8731461059a578063d05dcc6a146105ad57600080fd5b8063c2a78702116100bd578063c2a7870214610561578063c8360ce814610574578063c87b56dd1461058757600080fd5b8063a82e3b001461053b578063b88d4fde1461054e57600080fd5b806393a865321161012f578063a217fddf11610114578063a217fddf1461050d578063a22cb46514610515578063a48b3b8f1461052857600080fd5b806393a86532146104f257806395d89b411461050557600080fd5b8063893d20e811610160578063893d20e8146104955780639010d07c146104a657806391d14854146104b957600080fd5b806370a082311461046f57806386833e911461048257600080fd5b80632f2ff15d116102295780634b44d812116101dd5780636352211e116101c25780636352211e146104225780636fe3ceb814610435578063704802751461045c57600080fd5b80634b44d812146103fc5780634f6ccce71461040f57600080fd5b806336568abe1161020e57806336568abe146103c3578063396ff3ed146103d657806342842e0e146103e957600080fd5b80632f2ff15d1461039d5780632f745c59146103b057600080fd5b80631785f53c1161028057806323b872dd1161026557806323b872dd14610354578063248a9ca31461036757806324d7806c1461038a57600080fd5b80631785f53c1461032f57806318160ddd1461034257600080fd5b806301ffc9a7146102b257806306fdde03146102da578063081812fc146102ef578063095ea7b31461031a575b600080fd5b6102c56102c0366004613750565b610634565b60405190151581526020015b60405180910390f35b6102e2610645565b6040516102d191906137c5565b6103026102fd3660046137d8565b6106d7565b6040516001600160a01b0390911681526020016102d1565b61032d610328366004613808565b610782565b005b61032d61033d366004613832565b6108b3565b6008545b6040519081526020016102d1565b61032d61036236600461384d565b61090e565b6103466103753660046137d8565b6000908152600a602052604090206001015490565b6102c5610398366004613832565b610995565b61032d6103ab366004613889565b6109d5565b6103466103be366004613808565b6109fa565b61032d6103d1366004613889565b610aa2565b61032d6103e4366004613832565b610b2e565b61032d6103f736600461384d565b610ba5565b6102e261040a3660046137d8565b610bc0565b61034661041d3660046137d8565b610ea4565b6103026104303660046137d8565b610f48565b6103467f573a495ec6f39d095bd4855f18069a9236d77216cfb96e453909f2408c333cfa81565b61032d61046a366004613832565b610fd3565b61034661047d366004613832565b61102b565b61032d61049036600461399d565b6110c5565b600c546001600160a01b0316610302565b6103026104b4366004613a6f565b611277565b6102c56104c7366004613889565b6000918252600a602090815260408084206001600160a01b0393909316845291905290205460ff1690565b61032d610500366004613832565b611296565b6102e261130d565b610346600081565b61032d610523366004613a91565b61131c565b6102e26105363660046137d8565b611327565b610302610549366004613acd565b61133a565b61032d61055c366004613b02565b611441565b6102c561056f366004613832565b6114cf565b61032d610582366004613b7e565b61150f565b6102e26105953660046137d8565b6115be565b6103466105a83660046137d8565b611945565b6105c06105bb3660046137d8565b61195c565b6040516102d196959493929190613c86565b61032d6105e0366004613889565b611bbd565b6102c56105f3366004613cfa565b6001600160a01b03918216600090815260056020908152604080832093909416825291909152205460ff1690565b61032d61062f366004613d24565b611be2565b600061063f82611d4d565b92915050565b60606000805461065490613d69565b80601f016020809104026020016040519081016040528092919081815260200182805461068090613d69565b80156106cd5780601f106106a2576101008083540402835291602001916106cd565b820191906000526020600020905b8154815290600101906020018083116106b057829003601f168201915b5050505050905090565b6000818152600260205260408120546001600160a01b03166107665760405162461bcd60e51b815260206004820152602c60248201527f4552433732313a20617070726f76656420717565727920666f72206e6f6e657860448201527f697374656e7420746f6b656e000000000000000000000000000000000000000060648201526084015b60405180910390fd5b506000908152600460205260409020546001600160a01b031690565b600061078d82610f48565b9050806001600160a01b0316836001600160a01b0316036108165760405162461bcd60e51b815260206004820152602160248201527f4552433732313a20617070726f76616c20746f2063757272656e74206f776e6560448201527f7200000000000000000000000000000000000000000000000000000000000000606482015260840161075d565b336001600160a01b0382161480610832575061083281336105f3565b6108a45760405162461bcd60e51b815260206004820152603860248201527f4552433732313a20617070726f76652063616c6c6572206973206e6f74206f7760448201527f6e6572206e6f7220617070726f76656420666f7220616c6c0000000000000000606482015260840161075d565b6108ae8383611d8b565b505050565b6108bc33610995565b6109005760405162461bcd60e51b81526020600482015260156024820152742932b9ba3934b1ba32b2103a379030b236b4b7399760591b604482015260640161075d565b61090b600082611bbd565b50565b6109183382611e06565b61098a5760405162461bcd60e51b815260206004820152603160248201527f4552433732313a207472616e736665722063616c6c6572206973206e6f74206f60448201527f776e6572206e6f7220617070726f766564000000000000000000000000000000606482015260840161075d565b6108ae838383611f0e565b6001600160a01b03811660009081527f13da86008ba1c6922daee3e07db95305ef49ebced9f5467a0b8613fcc6b343e3602052604081205460ff1661063f565b6000828152600a60205260409020600101546109f0816120f3565b6108ae83836120fd565b6000610a058361102b565b8210610a795760405162461bcd60e51b815260206004820152602b60248201527f455243373231456e756d657261626c653a206f776e657220696e646578206f7560448201527f74206f6620626f756e6473000000000000000000000000000000000000000000606482015260840161075d565b506001600160a01b03919091166000908152600660209081526040808320938352929052205490565b6001600160a01b0381163314610b205760405162461bcd60e51b815260206004820152602f60248201527f416363657373436f6e74726f6c3a2063616e206f6e6c792072656e6f756e636560448201527f20726f6c657320666f722073656c660000000000000000000000000000000000606482015260840161075d565b610b2a828261211f565b5050565b610b3733610995565b610b7b5760405162461bcd60e51b81526020600482015260156024820152742932b9ba3934b1ba32b2103a379030b236b4b7399760591b604482015260640161075d565b61090b7f573a495ec6f39d095bd4855f18069a9236d77216cfb96e453909f2408c333cfa826109d5565b6108ae83838360405180602001604052806000815250611441565b60606000600e60008481526020019081526020016000206040518060c0016040529081600082018054610bf290613d69565b80601f0160208091040260200160405190810160405280929190818152602001828054610c1e90613d69565b8015610c6b5780601f10610c4057610100808354040283529160200191610c6b565b820191906000526020600020905b815481529060010190602001808311610c4e57829003601f168201915b50505050508152602001600182018054610c8490613d69565b80601f0160208091040260200160405190810160405280929190818152602001828054610cb090613d69565b8015610cfd5780601f10610cd257610100808354040283529160200191610cfd565b820191906000526020600020905b815481529060010190602001808311610ce057829003601f168201915b50505050508152602001600282018054610d1690613d69565b80601f0160208091040260200160405190810160405280929190818152602001828054610d4290613d69565b8015610d8f5780601f10610d6457610100808354040283529160200191610d8f565b820191906000526020600020905b815481529060010190602001808311610d7257829003601f168201915b50505050508152602001600382018054610da890613d69565b80601f0160208091040260200160405190810160405280929190818152602001828054610dd490613d69565b8015610e215780601f10610df657610100808354040283529160200191610e21565b820191906000526020600020905b815481529060010190602001808311610e0457829003601f168201915b505050918352505060048201546001600160a01b03908116602083015260059092015490911660409091015290506000610e5a84612141565b9050808260400151610e7a84608001516001600160a01b03166014612406565b604051602001610e8c93929190613dbf565b60405160208183030381529060405292505050919050565b6000610eaf60085490565b8210610f235760405162461bcd60e51b815260206004820152602c60248201527f455243373231456e756d657261626c653a20676c6f62616c20696e646578206f60448201527f7574206f6620626f756e64730000000000000000000000000000000000000000606482015260840161075d565b60088281548110610f3657610f3661412d565b90600052602060002001549050919050565b6000818152600260205260408120546001600160a01b03168061063f5760405162461bcd60e51b815260206004820152602960248201527f4552433732313a206f776e657220717565727920666f72206e6f6e657869737460448201527f656e7420746f6b656e0000000000000000000000000000000000000000000000606482015260840161075d565b610fdc33610995565b6110205760405162461bcd60e51b81526020600482015260156024820152742932b9ba3934b1ba32b2103a379030b236b4b7399760591b604482015260640161075d565b61090b6000826109d5565b60006001600160a01b0382166110a95760405162461bcd60e51b815260206004820152602a60248201527f4552433732313a2062616c616e636520717565727920666f7220746865207a6560448201527f726f206164647265737300000000000000000000000000000000000000000000606482015260840161075d565b506001600160a01b031660009081526003602052604090205490565b6110ce336114cf565b61111a5760405162461bcd60e51b815260206004820152601660248201527f5265737472696374656420746f20666163756c74792e00000000000000000000604482015260640161075d565b600061112560085490565b905060006040518060c001604052808881526020018781526020018681526020018581526020016111558561133a565b6001600160a01b03168152602001611175600c546001600160a01b031690565b6001600160a01b03169052905080600e6000611192856001614159565b81526020808201929092526040016000208251805191926111b8928492909101906136a1565b5060208281015180516111d192600185019201906136a1565b50604082015180516111ed9160028401916020909101906136a1565b50606082015180516112099160038401916020909101906136a1565b5060808281015160048301805473ffffffffffffffffffffffffffffffffffffffff199081166001600160a01b039384161790915560a0909401516005909301805490941692169190911790915581015161126e90611269846001614159565b6125af565b50505050505050565b6000828152600b6020526040812061128f90836125c9565b9392505050565b61129f33610995565b6112e35760405162461bcd60e51b81526020600482015260156024820152742932b9ba3934b1ba32b2103a379030b236b4b7399760591b604482015260640161075d565b61090b7f573a495ec6f39d095bd4855f18069a9236d77216cfb96e453909f2408c333cfa82611bbd565b60606001805461065490613d69565b610b2a3383836125d5565b606061063f61133583610bc0565b6126a3565b6000611345336114cf565b6113915760405162461bcd60e51b815260206004820152601660248201527f5265737472696374656420746f20666163756c74792e00000000000000000000604482015260640161075d565b6000826040516020016113a49190614171565b60408051601f1981840301815291815281516020928301206000818152600f9093529120549091506001600160a01b03166114215760405162461bcd60e51b815260206004820152601760248201527f53747564656e7420646f6573206e6f742065786973742e000000000000000000604482015260640161075d565b6000908152600f60205260409020546001600160a01b031690505b919050565b61144b3383611e06565b6114bd5760405162461bcd60e51b815260206004820152603160248201527f4552433732313a207472616e736665722063616c6c6572206973206e6f74206f60448201527f776e6572206e6f7220617070726f766564000000000000000000000000000000606482015260840161075d565b6114c984848484612841565b50505050565b6001600160a01b03811660009081527f9019cc2ada0da9adebe4b58b4b78fbab4edc82e8bb6da2a3f362a37225196cd3602052604081205460ff1661063f565b61151833610995565b61155c5760405162461bcd60e51b81526020600482015260156024820152742932b9ba3934b1ba32b2103a379030b236b4b7399760591b604482015260640161075d565b60005b8151811015610b2a576115ac82828151811061157d5761157d61412d565b60200260200101516000015183838151811061159b5761159b61412d565b602002602001015160200151611be2565b806115b68161418d565b91505061155f565b6000818152600260205260409020546060906001600160a01b031661164b5760405162461bcd60e51b815260206004820152602f60248201527f4552433732314d657461646174613a2055524920717565727920666f72206e6f60448201527f6e6578697374656e7420746f6b656e0000000000000000000000000000000000606482015260840161075d565b6000828152600e6020526040808220815160c0810190925280548290829061167290613d69565b80601f016020809104026020016040519081016040528092919081815260200182805461169e90613d69565b80156116eb5780601f106116c0576101008083540402835291602001916116eb565b820191906000526020600020905b8154815290600101906020018083116116ce57829003601f168201915b5050505050815260200160018201805461170490613d69565b80601f016020809104026020016040519081016040528092919081815260200182805461173090613d69565b801561177d5780601f106117525761010080835404028352916020019161177d565b820191906000526020600020905b81548152906001019060200180831161176057829003601f168201915b5050505050815260200160028201805461179690613d69565b80601f01602080910402602001604051908101604052809291908181526020018280546117c290613d69565b801561180f5780601f106117e45761010080835404028352916020019161180f565b820191906000526020600020905b8154815290600101906020018083116117f257829003601f168201915b5050505050815260200160038201805461182890613d69565b80601f016020809104026020016040519081016040528092919081815260200182805461185490613d69565b80156118a15780601f10611876576101008083540402835291602001916118a1565b820191906000526020600020905b81548152906001019060200180831161188457829003601f168201915b505050918352505060048201546001600160a01b039081166020830152600590920154909116604090910152905060006118da84611327565b9050611935826000015183602001518460400151856060015161190b87608001516001600160a01b03166014612406565b86604051602001611921969594939291906141a6565b6040516020818303038152906040526126a3565b604051602001610e8c919061435c565b6000818152600b6020526040812061063f906128ca565b600e6020526000908152604090208054819061197790613d69565b80601f01602080910402602001604051908101604052809291908181526020018280546119a390613d69565b80156119f05780601f106119c5576101008083540402835291602001916119f0565b820191906000526020600020905b8154815290600101906020018083116119d357829003601f168201915b505050505090806001018054611a0590613d69565b80601f0160208091040260200160405190810160405280929190818152602001828054611a3190613d69565b8015611a7e5780601f10611a5357610100808354040283529160200191611a7e565b820191906000526020600020905b815481529060010190602001808311611a6157829003601f168201915b505050505090806002018054611a9390613d69565b80601f0160208091040260200160405190810160405280929190818152602001828054611abf90613d69565b8015611b0c5780601f10611ae157610100808354040283529160200191611b0c565b820191906000526020600020905b815481529060010190602001808311611aef57829003601f168201915b505050505090806003018054611b2190613d69565b80601f0160208091040260200160405190810160405280929190818152602001828054611b4d90613d69565b8015611b9a5780601f10611b6f57610100808354040283529160200191611b9a565b820191906000526020600020905b815481529060010190602001808311611b7d57829003601f168201915b50505050600483015460059093015491926001600160a01b039081169216905086565b6000828152600a6020526040902060010154611bd8816120f3565b6108ae838361211f565b611beb33610995565b611c2f5760405162461bcd60e51b81526020600482015260156024820152742932b9ba3934b1ba32b2103a379030b236b4b7399760591b604482015260640161075d565b600082604051602001611c429190614171565b60408051808303601f1901815291815281516020928301206000908152600f9092529020805473ffffffffffffffffffffffffffffffffffffffff19166001600160a01b0393909316929092179091555050565b6000828152600a602090815260408083206001600160a01b038516845290915290205460ff16610b2a576000828152600a602090815260408083206001600160a01b03851684529091529020805460ff19166001179055611cf43390565b6001600160a01b0316816001600160a01b0316837f2f8788117e7eff1d82e926ec794901d17c78024a50270940304540a733656f0d60405160405180910390a45050565b600061128f836001600160a01b0384166128d4565b60006001600160e01b031982167f5a05180f00000000000000000000000000000000000000000000000000000000148061063f575061063f82612923565b6000818152600460205260409020805473ffffffffffffffffffffffffffffffffffffffff19166001600160a01b0384169081179091558190611dcd82610f48565b6001600160a01b03167f8c5be1e5ebec7d5bd14f71427d1e84f3dd0314c0f7b2291e5b200ac8c7c3b92560405160405180910390a45050565b6000818152600260205260408120546001600160a01b0316611e905760405162461bcd60e51b815260206004820152602c60248201527f4552433732313a206f70657261746f7220717565727920666f72206e6f6e657860448201527f697374656e7420746f6b656e0000000000000000000000000000000000000000606482015260840161075d565b6000611e9b83610f48565b9050806001600160a01b0316846001600160a01b03161480611ee257506001600160a01b0380821660009081526005602090815260408083209388168352929052205460ff165b80611f065750836001600160a01b0316611efb846106d7565b6001600160a01b0316145b949350505050565b826001600160a01b0316611f2182610f48565b6001600160a01b031614611f9d5760405162461bcd60e51b815260206004820152602560248201527f4552433732313a207472616e736665722066726f6d20696e636f72726563742060448201527f6f776e6572000000000000000000000000000000000000000000000000000000606482015260840161075d565b6001600160a01b0382166120185760405162461bcd60e51b8152602060048201526024808201527f4552433732313a207472616e7366657220746f20746865207a65726f2061646460448201527f7265737300000000000000000000000000000000000000000000000000000000606482015260840161075d565b612023838383612961565b61202e600082611d8b565b6001600160a01b03831660009081526003602052604081208054600192906120579084906143a1565b90915550506001600160a01b0382166000908152600360205260408120805460019290612085908490614159565b9091555050600081815260026020526040808220805473ffffffffffffffffffffffffffffffffffffffff19166001600160a01b0386811691821790925591518493918716917fddf252ad1be2c89b69c2b068fc378daa952ba7f163c4a11628f55a4df523b3ef91a4505050565b61090b8133612c67565b6121078282611c96565b6000828152600b602052604090206108ae9082611d38565b6121298282612ce7565b6000828152600b602052604090206108ae9082612d6a565b60606000600e60008481526020019081526020016000206040518060c001604052908160008201805461217390613d69565b80601f016020809104026020016040519081016040528092919081815260200182805461219f90613d69565b80156121ec5780601f106121c1576101008083540402835291602001916121ec565b820191906000526020600020905b8154815290600101906020018083116121cf57829003601f168201915b5050505050815260200160018201805461220590613d69565b80601f016020809104026020016040519081016040528092919081815260200182805461223190613d69565b801561227e5780601f106122535761010080835404028352916020019161227e565b820191906000526020600020905b81548152906001019060200180831161226157829003601f168201915b5050505050815260200160028201805461229790613d69565b80601f01602080910402602001604051908101604052809291908181526020018280546122c390613d69565b80156123105780601f106122e557610100808354040283529160200191612310565b820191906000526020600020905b8154815290600101906020018083116122f357829003601f168201915b5050505050815260200160038201805461232990613d69565b80601f016020809104026020016040519081016040528092919081815260200182805461235590613d69565b80156123a25780601f10612377576101008083540402835291602001916123a2565b820191906000526020600020905b81548152906001019060200180831161238557829003601f168201915b505050918352505060048201546001600160a01b0390811660208084019190915260059093015416604091820152825183830151606085015192519495506123ef949193909291016143b8565b604051602081830303815290604052915050919050565b60606000612415836002614817565b612420906002614159565b67ffffffffffffffff811115612438576124386138b5565b6040519080825280601f01601f191660200182016040528015612462576020820181803683370190505b509050600360fc1b8160008151811061247d5761247d61412d565b60200101906001600160f81b031916908160001a905350600f60fb1b816001815181106124ac576124ac61412d565b60200101906001600160f81b031916908160001a90535060006124d0846002614817565b6124db906001614159565b90505b6001811115612560577f303132333435363738396162636465660000000000000000000000000000000085600f166010811061251c5761251c61412d565b1a60f81b8282815181106125325761253261412d565b60200101906001600160f81b031916908160001a90535060049490941c9361255981614836565b90506124de565b50831561128f5760405162461bcd60e51b815260206004820152600560248201527f4845585f4c000000000000000000000000000000000000000000000000000000604482015260640161075d565b610b2a828260405180602001604052806000815250612d7f565b600061128f8383612e08565b816001600160a01b0316836001600160a01b0316036126365760405162461bcd60e51b815260206004820152601960248201527f4552433732313a20617070726f766520746f2063616c6c657200000000000000604482015260640161075d565b6001600160a01b03838116600081815260056020908152604080832094871680845294825291829020805460ff191686151590811790915591519182527f17307eab39ab6107e8899845ad3d59bd9653f200f220920489ca2b5937696c31910160405180910390a3505050565b606081516000036126c257505060408051602081019091526000815290565b600060405180606001604052806040815260200161495660409139905060006003845160026126f19190614159565b6126fb919061484d565b612706906004614817565b90506000612715826020614159565b67ffffffffffffffff81111561272d5761272d6138b5565b6040519080825280601f01601f191660200182016040528015612757576020820181803683370190505b509050818152600183018586518101602084015b818310156127c55760039283018051603f601282901c811687015160f890811b8552600c83901c8216880151811b6001860152600683901c8216880151811b60028601529116860151901b9382019390935260040161276b565b6003895106600181146127df576002811461280b57612833565b7f3d3d000000000000000000000000000000000000000000000000000000000000600119830152612833565b7f3d000000000000000000000000000000000000000000000000000000000000006000198301525b509398975050505050505050565b61284c848484611f0e565b61285884848484612e32565b6114c95760405162461bcd60e51b815260206004820152603260248201527f4552433732313a207472616e7366657220746f206e6f6e20455243373231526560448201527f63656976657220696d706c656d656e7465720000000000000000000000000000606482015260840161075d565b600061063f825490565b600081815260018301602052604081205461291b5750815460018181018455600084815260208082209093018490558454848252828601909352604090209190915561063f565b50600061063f565b60006001600160e01b031982167f7965db0b00000000000000000000000000000000000000000000000000000000148061063f575061063f82612f89565b61296c838383612fc7565b6000818152600e6020526040808220815160c0810190925280548290829061299390613d69565b80601f01602080910402602001604051908101604052809291908181526020018280546129bf90613d69565b8015612a0c5780601f106129e157610100808354040283529160200191612a0c565b820191906000526020600020905b8154815290600101906020018083116129ef57829003601f168201915b50505050508152602001600182018054612a2590613d69565b80601f0160208091040260200160405190810160405280929190818152602001828054612a5190613d69565b8015612a9e5780601f10612a7357610100808354040283529160200191612a9e565b820191906000526020600020905b815481529060010190602001808311612a8157829003601f168201915b50505050508152602001600282018054612ab790613d69565b80601f0160208091040260200160405190810160405280929190818152602001828054612ae390613d69565b8015612b305780601f10612b0557610100808354040283529160200191612b30565b820191906000526020600020905b815481529060010190602001808311612b1357829003601f168201915b50505050508152602001600382018054612b4990613d69565b80601f0160208091040260200160405190810160405280929190818152602001828054612b7590613d69565b8015612bc25780601f10612b9757610100808354040283529160200191612bc2565b820191906000526020600020905b815481529060010190602001808311612ba557829003601f168201915b505050918352505060048201546001600160a01b0390811660208301526005909201548216604090910152608082015191925084811691161480612c1b57508060a001516001600160a01b0316836001600160a01b0316145b6114c95760405162461bcd60e51b815260206004820152601c60248201527f546172676574206973206e6f742074686520726563697069656e742e00000000604482015260640161075d565b6000828152600a602090815260408083206001600160a01b038516845290915290205460ff16610b2a57612ca5816001600160a01b0316601461307f565b612cb083602061307f565b604051602001612cc192919061486f565b60408051601f198184030181529082905262461bcd60e51b825261075d916004016137c5565b6000828152600a602090815260408083206001600160a01b038516845290915290205460ff1615610b2a576000828152600a602090815260408083206001600160a01b0385168085529252808320805460ff1916905551339285917ff6391f5c32d9c69d2a47ea670b442974b53935d1edc7fd64eb21e047a839171b9190a45050565b600061128f836001600160a01b038416613228565b612d89838361331b565b612d966000848484612e32565b6108ae5760405162461bcd60e51b815260206004820152603260248201527f4552433732313a207472616e7366657220746f206e6f6e20455243373231526560448201527f63656976657220696d706c656d656e7465720000000000000000000000000000606482015260840161075d565b6000826000018281548110612e1f57612e1f61412d565b9060005260206000200154905092915050565b60006001600160a01b0384163b15612f7e57604051630a85bd0160e11b81526001600160a01b0385169063150b7a0290612e769033908990889088906004016148f0565b6020604051808303816000875af1925050508015612eb1575060408051601f3d908101601f19168201909252612eae91810190614922565b60015b612f64573d808015612edf576040519150601f19603f3d011682016040523d82523d6000602084013e612ee4565b606091505b508051600003612f5c5760405162461bcd60e51b815260206004820152603260248201527f4552433732313a207472616e7366657220746f206e6f6e20455243373231526560448201527f63656976657220696d706c656d656e7465720000000000000000000000000000606482015260840161075d565b805181602001fd5b6001600160e01b031916630a85bd0160e11b149050611f06565b506001949350505050565b60006001600160e01b031982167f780e9d6300000000000000000000000000000000000000000000000000000000148061063f575061063f82613476565b6001600160a01b0383166130225761301d81600880546000838152600960205260408120829055600182018355919091527ff3f7a9fe364faab93b216da50a3214154f22a0a2b415b23a84c8169e8b636ee30155565b613045565b816001600160a01b0316836001600160a01b031614613045576130458382613511565b6001600160a01b03821661305c576108ae816135ae565b826001600160a01b0316826001600160a01b0316146108ae576108ae828261365d565b6060600061308e836002614817565b613099906002614159565b67ffffffffffffffff8111156130b1576130b16138b5565b6040519080825280601f01601f1916602001820160405280156130db576020820181803683370190505b509050600360fc1b816000815181106130f6576130f661412d565b60200101906001600160f81b031916908160001a905350600f60fb1b816001815181106131255761312561412d565b60200101906001600160f81b031916908160001a9053506000613149846002614817565b613154906001614159565b90505b60018111156131d9577f303132333435363738396162636465660000000000000000000000000000000085600f16601081106131955761319561412d565b1a60f81b8282815181106131ab576131ab61412d565b60200101906001600160f81b031916908160001a90535060049490941c936131d281614836565b9050613157565b50831561128f5760405162461bcd60e51b815260206004820181905260248201527f537472696e67733a20686578206c656e67746820696e73756666696369656e74604482015260640161075d565b6000818152600183016020526040812054801561331157600061324c6001836143a1565b8554909150600090613260906001906143a1565b90508181146132c55760008660000182815481106132805761328061412d565b90600052602060002001549050808760000184815481106132a3576132a361412d565b6000918252602080832090910192909255918252600188019052604090208390555b85548690806132d6576132d661493f565b60019003818190600052602060002001600090559055856001016000868152602001908152602001600020600090556001935050505061063f565b600091505061063f565b6001600160a01b0382166133715760405162461bcd60e51b815260206004820181905260248201527f4552433732313a206d696e7420746f20746865207a65726f2061646472657373604482015260640161075d565b6000818152600260205260409020546001600160a01b0316156133d65760405162461bcd60e51b815260206004820152601c60248201527f4552433732313a20746f6b656e20616c7265616479206d696e74656400000000604482015260640161075d565b6133e260008383612961565b6001600160a01b038216600090815260036020526040812080546001929061340b908490614159565b9091555050600081815260026020526040808220805473ffffffffffffffffffffffffffffffffffffffff19166001600160a01b03861690811790915590518392907fddf252ad1be2c89b69c2b068fc378daa952ba7f163c4a11628f55a4df523b3ef908290a45050565b60006001600160e01b031982167f80ac58cd0000000000000000000000000000000000000000000000000000000014806134d957506001600160e01b031982167f5b5e139f00000000000000000000000000000000000000000000000000000000145b8061063f57507f01ffc9a7000000000000000000000000000000000000000000000000000000006001600160e01b031983161461063f565b6000600161351e8461102b565b61352891906143a1565b60008381526007602052604090205490915080821461357b576001600160a01b03841660009081526006602090815260408083208584528252808320548484528184208190558352600790915290208190555b5060009182526007602090815260408084208490556001600160a01b039094168352600681528383209183525290812055565b6008546000906135c0906001906143a1565b600083815260096020526040812054600880549394509092849081106135e8576135e861412d565b9060005260206000200154905080600883815481106136095761360961412d565b60009182526020808320909101929092558281526009909152604080822084905585825281205560088054806136415761364161493f565b6001900381819060005260206000200160009055905550505050565b60006136688361102b565b6001600160a01b039093166000908152600660209081526040808320868452825280832085905593825260079052919091209190915550565b8280546136ad90613d69565b90600052602060002090601f0160209004810192826136cf5760008555613715565b82601f106136e857805160ff1916838001178555613715565b82800160010185558215613715579182015b828111156137155782518255916020019190600101906136fa565b50613721929150613725565b5090565b5b808211156137215760008155600101613726565b6001600160e01b03198116811461090b57600080fd5b60006020828403121561376257600080fd5b813561128f8161373a565b60005b83811015613788578181015183820152602001613770565b838111156114c95750506000910152565b600081518084526137b181602086016020860161376d565b601f01601f19169290920160200192915050565b60208152600061128f6020830184613799565b6000602082840312156137ea57600080fd5b5035919050565b80356001600160a01b038116811461143c57600080fd5b6000806040838503121561381b57600080fd5b613824836137f1565b946020939093013593505050565b60006020828403121561384457600080fd5b61128f826137f1565b60008060006060848603121561386257600080fd5b61386b846137f1565b9250613879602085016137f1565b9150604084013590509250925092565b6000806040838503121561389c57600080fd5b823591506138ac602084016137f1565b90509250929050565b634e487b7160e01b600052604160045260246000fd5b6040805190810167ffffffffffffffff811182821017156138ee576138ee6138b5565b60405290565b604051601f8201601f1916810167ffffffffffffffff8111828210171561391d5761391d6138b5565b604052919050565b600067ffffffffffffffff83111561393f5761393f6138b5565b613952601f8401601f19166020016138f4565b905082815283838301111561396657600080fd5b828260208301376000602084830101529392505050565b600082601f83011261398e57600080fd5b61128f83833560208501613925565b600080600080600060a086880312156139b557600080fd5b853567ffffffffffffffff808211156139cd57600080fd5b6139d989838a0161397d565b965060208801359150808211156139ef57600080fd5b6139fb89838a0161397d565b95506040880135915080821115613a1157600080fd5b613a1d89838a0161397d565b94506060880135915080821115613a3357600080fd5b613a3f89838a0161397d565b93506080880135915080821115613a5557600080fd5b50613a628882890161397d565b9150509295509295909350565b60008060408385031215613a8257600080fd5b50508035926020909101359150565b60008060408385031215613aa457600080fd5b613aad836137f1565b915060208301358015158114613ac257600080fd5b809150509250929050565b600060208284031215613adf57600080fd5b813567ffffffffffffffff811115613af657600080fd5b611f068482850161397d565b60008060008060808587031215613b1857600080fd5b613b21856137f1565b9350613b2f602086016137f1565b925060408501359150606085013567ffffffffffffffff811115613b5257600080fd5b8501601f81018713613b6357600080fd5b613b7287823560208401613925565b91505092959194509250565b60006020808385031215613b9157600080fd5b823567ffffffffffffffff80821115613ba957600080fd5b818501915085601f830112613bbd57600080fd5b813581811115613bcf57613bcf6138b5565b8060051b613bde8582016138f4565b9182528381018501918581019089841115613bf857600080fd5b86860192505b83831015613c7957823585811115613c165760008081fd5b86016040818c03601f1901811315613c2e5760008081fd5b613c366138cb565b8983013588811115613c485760008081fd5b613c568e8c8387010161397d565b825250613c648284016137f1565b818b0152845250509186019190860190613bfe565b9998505050505050505050565b60c081526000613c9960c0830189613799565b8281036020840152613cab8189613799565b90508281036040840152613cbf8188613799565b90508281036060840152613cd38187613799565b9150506001600160a01b03808516608084015280841660a084015250979650505050505050565b60008060408385031215613d0d57600080fd5b613d16836137f1565b91506138ac602084016137f1565b60008060408385031215613d3757600080fd5b823567ffffffffffffffff811115613d4e57600080fd5b613d5a8582860161397d565b9250506138ac602084016137f1565b600181811c90821680613d7d57607f821691505b602082108103613d9d57634e487b7160e01b600052602260045260246000fd5b50919050565b60008151613db581856020860161376d565b9290920192915050565b7f3c7376672077696474683d2233353022206865696768743d223335302220766981527f6577426f783d2230203020333530203335302220786d6c6e733d22687474703a60208201527f2f2f7777772e77332e6f72672f323030302f737667223e000000000000000000604082015260008451613e4381605785016020890161376d565b7f3c74657874207374796c653d2277686974652d73706163653a207072653b206660579184019182018190527f696c6c3a207267622835312c2035312c203531293b20666f6e742d66616d696c607783018190527f793a20417269616c2c2073616e732d73657269663b20666f6e742d73697a653a609784018190527f2031362e3470783b2220783d2231332220793d223133302e383737223e47726160b78501527f64653a3c2f746578743e0000000000000000000000000000000000000000000060d785015260e18401929092526101018301526101218201527f2031362e3470783b2220783d2237372e3238332220793d223133302e38373722610141820152601f60f91b6101618201526141236140fa613f6f6140f4614059613f988361016288018c613da3565b7f3c2f746578743e00000000000000000000000000000000000000000000000000815260070190565b7f3c74657874207374796c653d2277686974652d73706163653a207072653b206681527f696c6c3a207267622835312c2035312c203531293b20666f6e742d66616d696c60208201527f793a20417269616c2c2073616e732d73657269663b20666f6e742d73697a653a60408201527f2031362e3470783b2220783d2231332220793d223136322e383737223e52656360608201527f697069656e743a3c2f746578743e0000000000000000000000000000000000006080820152608e0190565b7f3c74657874207374796c653d2277686974652d73706163653a207072653b206681527f696c6c3a207267622835312c2035312c203531293b20666f6e742d66616d696c60208201527f793a20417269616c2c2073616e732d73657269663b20666f6e742d73697a653a60408201527f20313270783b2220783d2231332220793d223138312e313538223e00000000006060820152607b0190565b87613da3565b7f3c2f7376673e0000000000000000000000000000000000000000000000000000815260060190565b9695505050505050565b634e487b7160e01b600052603260045260246000fd5b634e487b7160e01b600052601160045260246000fd5b6000821982111561416c5761416c614143565b500190565b6000825161418381846020870161376d565b9190910192915050565b60006001820161419f5761419f614143565b5060010190565b7f7b226d6f64756c65436f6465223a2022000000000000000000000000000000008152600087516141de816010850160208c0161376d565b7f222c20227465737454797065223a220000000000000000000000000000000000601091840191820152875161421b81601f840160208c0161376d565b7f222c224772616465223a22000000000000000000000000000000000000000000601f9290910191820152865161425981602a840160208b0161376d565b7f222c225472696d6573746572223a220000000000000000000000000000000000602a92909101918201528551614297816039840160208a0161376d565b7f222c22526563697069656e74223a22000000000000000000000000000000000060399290910191820152613c7961433361432d6143046142db604886018a613da3565b7f222c2022696d616765223a2022000000000000000000000000000000000000008152600d0190565b7f646174613a696d6167652f7376672b786d6c3b6261736536342c0000000000008152601a0190565b86613da3565b7f227d000000000000000000000000000000000000000000000000000000000000815260020190565b7f646174613a6170706c69636174696f6e2f6a736f6e3b6261736536342c00000081526000825161439481601d85016020870161376d565b91909101601d0192915050565b6000828210156143b3576143b3614143565b500390565b60007f3c74657874207374796c653d2277686974652d73706163653a207072653b20668083527f696c6c3a207267622835312c2035312c203531293b20666f6e742d66616d696c8060208501527f793a20417269616c2c2073616e732d73657269663b20666f6e742d73697a653a8060408601527f2031362e3470783b2220783d2231332220793d2239382e383737223e4d6f647560608601527f6c653a203c2f746578743e000000000000000000000000000000000000000000608086015282608b8601528160ab8601528060cb8601525050507f2031362e3470783b2220783d2237372220793d2239382e383737223e0000000060eb83015261010785516144c88183860160208a0161376d565b61480c6147e36140f461473e61467d613f6f6146776145d26145118a8a8e01017f3c2f746578743e00000000000000000000000000000000000000000000000000815260070190565b7f3c74657874207374796c653d2277686974652d73706163653a207072653b206681527f696c6c3a207267622835312c2035312c203531293b20666f6e742d66616d696c60208201527f793a20417269616c2c2073616e732d73657269663b20666f6e742d73697a653a60408201527f2031362e3470783b2220783d2231332220793d223131342e383737223e54797060608201527f653a3c2f746578743e0000000000000000000000000000000000000000000000608082015260890190565b7f3c74657874207374796c653d2277686974652d73706163653a207072653b206681527f696c6c3a207267622835312c2035312c203531293b20666f6e742d66616d696c60208201527f793a20417269616c2c2073616e732d73657269663b20666f6e742d73697a653a60408201527f2031362e3470783b2220783d2237362e3639372220793d223131342e383737226060820152601f60f91b608082015260810190565b8c613da3565b7f3c74657874207374796c653d2277686974652d73706163653a207072653b206681527f696c6c3a207267622835312c2035312c203531293b20666f6e742d66616d696c60208201527f793a20417269616c2c2073616e732d73657269663b20666f6e742d73697a653a60408201527f2031362e3470783b2220783d2231332220793d223134362e383737223e54726960608201527f6d65737465723a3c2f746578743e0000000000000000000000000000000000006080820152608e0190565b7f3c74657874207374796c653d2277686974652d73706163653a207072653b206681527f696c6c3a207267622835312c2035312c203531293b20666f6e742d66616d696c60208201527f793a20417269616c2c2073616e732d73657269663b20666f6e742d73697a653a60408201527f2031362e3470783b2220783d2239352e3433342220793d223134362e383737226060820152601f60f91b608082015260810190565b7f2c3c2f746578743e000000000000000000000000000000000000000000000000815260080190565b979650505050505050565b600081600019048311821515161561483157614831614143565b500290565b60008161484557614845614143565b506000190190565b60008261486a57634e487b7160e01b600052601260045260246000fd5b500490565b7f416363657373436f6e74726f6c3a206163636f756e74200000000000000000008152600083516148a781601785016020880161376d565b7f206973206d697373696e6720726f6c652000000000000000000000000000000060179184019182015283516148e481602884016020880161376d565b01602801949350505050565b60006001600160a01b038087168352808616602084015250836040830152608060608301526141236080830184613799565b60006020828403121561493457600080fd5b815161128f8161373a565b634e487b7160e01b600052603160045260246000fdfe4142434445464748494a4b4c4d4e4f505152535455565758595a6162636465666768696a6b6c6d6e6f707172737475767778797a303132333435363738392b2fa264697066735822122038e854da938b76a8c1512468b5b26ac2ae7c408cf0f7628a6a1aec7a734b9db764736f6c634300080e0033",
  "immutableReferences": {},
  "source": "// SPDX-License-Identifier: MIT\r\n\r\npragma solidity ^0.8.0;\r\n\r\nimport \"@openzeppelin/contracts/token/ERC721/extensions/ERC721Enumerable.sol\";\r\nimport \"@openzeppelin/contracts/utils/Counters.sol\";\r\n\r\nimport \"./Base64.sol\";\r\nimport \"./RoleControl.sol\";\r\n\r\ncontract SITNFT is ERC721, ERC721Enumerable, RoleControl {\r\n    using Counters for Counters.Counter;\r\n    Counters.Counter private _tokenIdCounter;\r\n    using Strings for uint256;\r\n\r\n    struct IdAddress {\r\n        string id;\r\n        address addr;\r\n    }\r\n\r\n    struct Attribute {\r\n        string moduleCode;\r\n        string testType;\r\n        string grade;\r\n        string trimester;\r\n        address recipient;\r\n        address base;\r\n    }\r\n\r\n    mapping(uint256 => Attribute) public attributes;\r\n    mapping(bytes32 => address) private _studentAddress;\r\n\r\n    constructor() ERC721(\"SIT NFT\", \"SIT\") RoleControl(msg.sender) {}\r\n\r\n    function addStudentAddress(string memory _id, address _address)\r\n        public\r\n        onlyAdmin\r\n    {\r\n        bytes32 encryptedId = keccak256(abi.encodePacked(_id));\r\n        _studentAddress[encryptedId] = _address;\r\n    }\r\n\r\n    function multiAddStudentAddress(IdAddress[] memory _array)\r\n        public\r\n        onlyAdmin\r\n    {\r\n        for (uint256 i = 0; i < _array.length; i++) {\r\n            addStudentAddress(_array[i].id, _array[i].addr);\r\n        }\r\n    }\r\n\r\n    function getStudentAddress(string memory _id)\r\n        public\r\n        view\r\n        onlyFaculty\r\n        returns (address)\r\n    {\r\n        bytes32 encryptedId = keccak256(abi.encodePacked(_id));\r\n        require(\r\n            _studentAddress[encryptedId] != address(0),\r\n            \"Student does not exist.\"\r\n        );\r\n        return _studentAddress[encryptedId];\r\n    }\r\n\r\n    // public\r\n    function mint(\r\n        string memory moduleCode,\r\n        string memory testType,\r\n        string memory grade,\r\n        string memory trimester,\r\n        string memory recipient\r\n    ) public onlyFaculty {\r\n        uint256 supply = totalSupply();\r\n        Attribute memory newAttribute = Attribute(\r\n            moduleCode,\r\n            testType,\r\n            grade,\r\n            trimester,\r\n            getStudentAddress(recipient),\r\n            getOwner()\r\n        );\r\n\r\n        attributes[supply + 1] = newAttribute;\r\n        _safeMint(newAttribute.recipient, supply + 1);\r\n    }\r\n\r\n    function generateModuleSection(uint256 _tokenId)\r\n        internal\r\n        view\r\n        returns (string memory)\r\n    {\r\n        Attribute memory currentAttribute = attributes[_tokenId];\r\n        return\r\n            string(\r\n                abi.encodePacked(\r\n                    '<text style=\"white-space: pre; fill: rgb(51, 51, 51); font-family: Arial, sans-serif; font-size: 16.4px;\" x=\"13\" y=\"98.877\">Module: </text>',\r\n                    '<text style=\"white-space: pre; fill: rgb(51, 51, 51); font-family: Arial, sans-serif; font-size: 16.4px;\" x=\"77\" y=\"98.877\">',\r\n                    currentAttribute.moduleCode,\r\n                    \"</text>\",\r\n                    '<text style=\"white-space: pre; fill: rgb(51, 51, 51); font-family: Arial, sans-serif; font-size: 16.4px;\" x=\"13\" y=\"114.877\">Type:</text>',\r\n                    '<text style=\"white-space: pre; fill: rgb(51, 51, 51); font-family: Arial, sans-serif; font-size: 16.4px;\" x=\"76.697\" y=\"114.877\">',\r\n                    currentAttribute.testType,\r\n                    \"</text>\",\r\n                    '<text style=\"white-space: pre; fill: rgb(51, 51, 51); font-family: Arial, sans-serif; font-size: 16.4px;\" x=\"13\" y=\"146.877\">Trimester:</text>',\r\n                    '<text style=\"white-space: pre; fill: rgb(51, 51, 51); font-family: Arial, sans-serif; font-size: 16.4px;\" x=\"95.434\" y=\"146.877\">',\r\n                    currentAttribute.trimester,\r\n                    \",</text>\"\r\n                )\r\n            );\r\n    }\r\n\r\n    function generateBase64Image(uint256 _tokenId)\r\n        public\r\n        view\r\n        returns (string memory)\r\n    {\r\n        return Base64.encode(bytes(generateImage(_tokenId)));\r\n    }\r\n\r\n    function generateImage(uint256 _tokenId)\r\n        public\r\n        view\r\n        returns (string memory)\r\n    {\r\n        Attribute memory currentAttribute = attributes[_tokenId];\r\n        string memory moduleSection = generateModuleSection(_tokenId);\r\n        return\r\n            string(\r\n                abi.encodePacked(\r\n                    '<svg width=\"350\" height=\"350\" viewBox=\"0 0 350 350\" xmlns=\"http://www.w3.org/2000/svg\">',\r\n                    moduleSection,\r\n                    '<text style=\"white-space: pre; fill: rgb(51, 51, 51); font-family: Arial, sans-serif; font-size: 16.4px;\" x=\"13\" y=\"130.877\">Grade:</text>',\r\n                    '<text style=\"white-space: pre; fill: rgb(51, 51, 51); font-family: Arial, sans-serif; font-size: 16.4px;\" x=\"77.283\" y=\"130.877\">',\r\n                    currentAttribute.grade,\r\n                    \"</text>\",\r\n                    '<text style=\"white-space: pre; fill: rgb(51, 51, 51); font-family: Arial, sans-serif; font-size: 16.4px;\" x=\"13\" y=\"162.877\">Recipient:</text>',\r\n                    '<text style=\"white-space: pre; fill: rgb(51, 51, 51); font-family: Arial, sans-serif; font-size: 12px;\" x=\"13\" y=\"181.158\">',\r\n                    toHexString(uint160(currentAttribute.recipient), 20),\r\n                    \"</text>\",\r\n                    \"</svg>\"\r\n                )\r\n            );\r\n    }\r\n\r\n    function tokenURI(uint256 _tokenId)\r\n        public\r\n        view\r\n        virtual\r\n        override\r\n        returns (string memory)\r\n    {\r\n        require(\r\n            _exists(_tokenId),\r\n            \"ERC721Metadata: URI query for nonexistent token\"\r\n        );\r\n        Attribute memory currentAttribute = attributes[_tokenId];\r\n\r\n        string memory image = generateBase64Image(_tokenId);\r\n\r\n        return\r\n            string(\r\n                abi.encodePacked(\r\n                    \"data:application/json;base64,\",\r\n                    Base64.encode(\r\n                        bytes(\r\n                            abi.encodePacked(\r\n                                '{\"moduleCode\": \"',\r\n                                currentAttribute.moduleCode,\r\n                                '\", \"testType\":\"',\r\n                                currentAttribute.testType,\r\n                                '\",\"Grade\":\"',\r\n                                currentAttribute.grade,\r\n                                '\",\"Trimester\":\"',\r\n                                currentAttribute.trimester,\r\n                                '\",\"Recipient\":\"',\r\n                                toHexString(\r\n                                    uint160(currentAttribute.recipient),\r\n                                    20\r\n                                ),\r\n                                '\", \"image\": \"',\r\n                                \"data:image/svg+xml;base64,\",\r\n                                image,\r\n                                '\"}'\r\n                            )\r\n                        )\r\n                    )\r\n                )\r\n            );\r\n    }\r\n\r\n    function _beforeTokenTransfer(\r\n        address from,\r\n        address to,\r\n        uint256 _tokenId\r\n    ) internal override(ERC721, ERC721Enumerable) {\r\n        super._beforeTokenTransfer(from, to, _tokenId);\r\n\r\n        Attribute memory currentAttribute = attributes[_tokenId];\r\n\r\n        require(\r\n            to == currentAttribute.recipient || to == currentAttribute.base,\r\n            \"Target is not the recipient.\"\r\n        );\r\n    }\r\n\r\n    function supportsInterface(bytes4 interfaceId)\r\n        public\r\n        view\r\n        override(ERC721, ERC721Enumerable, AccessControlEnumerable)\r\n        returns (bool)\r\n    {\r\n        return super.supportsInterface(interfaceId);\r\n    }\r\n\r\n    bytes16 private constant _ALPHABET = \"0123456789abcdef\";\r\n\r\n    /**\r\n     * @dev Converts a `uint256` to its ASCII `string` hexadecimal representation with fixed length.\r\n     */\r\n    function toHexString(uint256 value, uint256 length)\r\n        internal\r\n        pure\r\n        returns (string memory)\r\n    {\r\n        bytes memory buffer = new bytes(2 * length + 2);\r\n        buffer[0] = \"0\";\r\n        buffer[1] = \"x\";\r\n        for (uint256 i = 2 * length + 1; i > 1; --i) {\r\n            buffer[i] = _ALPHABET[value & 0xf];\r\n            value >>= 4;\r\n        }\r\n        require(value == 0, \"HEX_L\");\r\n        return string(buffer);\r\n    }\r\n}\r\n",
  "sourcePath": "C:\\Users\\jaspz\\Documents\\GitHub\\ITP\\Blockchain-Trusted-Model\\contracts\\SITNFT.sol",
  "compiler": {
    "name": "solc",
    "version": "0.8.14+commit.80d49f37.Emscripten.clang"
  },
  "schemaVersion": "3.4.7",
  "updatedAt": "2022-06-29T08:16:33.939Z",
  "networkType": "ethereum",
  "devdoc": {
    "kind": "dev",
    "methods": {
      "approve(address,uint256)": {
        "details": "See {IERC721-approve}."
      },
      "balanceOf(address)": {
        "details": "See {IERC721-balanceOf}."
      },
      "getApproved(uint256)": {
        "details": "See {IERC721-getApproved}."
      },
      "getRoleAdmin(bytes32)": {
        "details": "Returns the admin role that controls `role`. See {grantRole} and {revokeRole}. To change a role's admin, use {_setRoleAdmin}."
      },
      "getRoleMember(bytes32,uint256)": {
        "details": "Returns one of the accounts that have `role`. `index` must be a value between 0 and {getRoleMemberCount}, non-inclusive. Role bearers are not sorted in any particular way, and their ordering may change at any point. WARNING: When using {getRoleMember} and {getRoleMemberCount}, make sure you perform all queries on the same block. See the following https://forum.openzeppelin.com/t/iterating-over-elements-on-enumerableset-in-openzeppelin-contracts/2296[forum post] for more information."
      },
      "getRoleMemberCount(bytes32)": {
        "details": "Returns the number of accounts that have `role`. Can be used together with {getRoleMember} to enumerate all bearers of a role."
      },
      "grantRole(bytes32,address)": {
        "details": "Grants `role` to `account`. If `account` had not been already granted `role`, emits a {RoleGranted} event. Requirements: - the caller must have ``role``'s admin role."
      },
      "hasRole(bytes32,address)": {
        "details": "Returns `true` if `account` has been granted `role`."
      },
      "isApprovedForAll(address,address)": {
        "details": "See {IERC721-isApprovedForAll}."
      },
      "name()": {
        "details": "See {IERC721Metadata-name}."
      },
      "ownerOf(uint256)": {
        "details": "See {IERC721-ownerOf}."
      },
      "renounceRole(bytes32,address)": {
        "details": "Revokes `role` from the calling account. Roles are often managed via {grantRole} and {revokeRole}: this function's purpose is to provide a mechanism for accounts to lose their privileges if they are compromised (such as when a trusted device is misplaced). If the calling account had been revoked `role`, emits a {RoleRevoked} event. Requirements: - the caller must be `account`."
      },
      "revokeRole(bytes32,address)": {
        "details": "Revokes `role` from `account`. If `account` had been granted `role`, emits a {RoleRevoked} event. Requirements: - the caller must have ``role``'s admin role."
      },
      "safeTransferFrom(address,address,uint256)": {
        "details": "See {IERC721-safeTransferFrom}."
      },
      "safeTransferFrom(address,address,uint256,bytes)": {
        "details": "See {IERC721-safeTransferFrom}."
      },
      "setApprovalForAll(address,bool)": {
        "details": "See {IERC721-setApprovalForAll}."
      },
      "symbol()": {
        "details": "See {IERC721Metadata-symbol}."
      },
      "tokenByIndex(uint256)": {
        "details": "See {IERC721Enumerable-tokenByIndex}."
      },
      "tokenOfOwnerByIndex(address,uint256)": {
        "details": "See {IERC721Enumerable-tokenOfOwnerByIndex}."
      },
      "totalSupply()": {
        "details": "See {IERC721Enumerable-totalSupply}."
      },
      "transferFrom(address,address,uint256)": {
        "details": "See {IERC721-transferFrom}."
      }
    },
    "version": 1
  },
  "userdoc": {
    "kind": "user",
    "methods": {},
    "version": 1
  }
}