{
  "contractName": "SITNFT",
  "abi": [
    {
      "inputs": [],
      "stateMutability": "nonpayable",
      "type": "constructor"
    },
    {
      "anonymous": false,
      "inputs": [
        {
          "indexed": true,
          "internalType": "address",
          "name": "owner",
          "type": "address"
        },
        {
          "indexed": true,
          "internalType": "address",
          "name": "approved",
          "type": "address"
        },
        {
          "indexed": true,
          "internalType": "uint256",
          "name": "tokenId",
          "type": "uint256"
        }
      ],
      "name": "Approval",
      "type": "event"
    },
    {
      "anonymous": false,
      "inputs": [
        {
          "indexed": true,
          "internalType": "address",
          "name": "owner",
          "type": "address"
        },
        {
          "indexed": true,
          "internalType": "address",
          "name": "operator",
          "type": "address"
        },
        {
          "indexed": false,
          "internalType": "bool",
          "name": "approved",
          "type": "bool"
        }
      ],
      "name": "ApprovalForAll",
      "type": "event"
    },
    {
      "anonymous": false,
      "inputs": [
        {
          "indexed": true,
          "internalType": "address",
          "name": "sender",
          "type": "address"
        },
        {
          "indexed": false,
          "internalType": "string",
          "name": "message",
          "type": "string"
        }
      ],
      "name": "IndexedLog",
      "type": "event"
    },
    {
      "anonymous": false,
      "inputs": [
        {
          "indexed": false,
          "internalType": "string",
          "name": "message",
          "type": "string"
        }
      ],
      "name": "Log",
      "type": "event"
    },
    {
      "anonymous": false,
      "inputs": [
        {
          "indexed": true,
          "internalType": "address",
          "name": "sender",
          "type": "address"
        },
        {
          "indexed": false,
          "internalType": "uint256",
          "name": "tokenId",
          "type": "uint256"
        },
        {
          "indexed": false,
          "internalType": "string",
          "name": "moduleCode",
          "type": "string"
        }
      ],
      "name": "Mint",
      "type": "event"
    },
    {
      "anonymous": false,
      "inputs": [
        {
          "indexed": true,
          "internalType": "bytes32",
          "name": "role",
          "type": "bytes32"
        },
        {
          "indexed": true,
          "internalType": "bytes32",
          "name": "previousAdminRole",
          "type": "bytes32"
        },
        {
          "indexed": true,
          "internalType": "bytes32",
          "name": "newAdminRole",
          "type": "bytes32"
        }
      ],
      "name": "RoleAdminChanged",
      "type": "event"
    },
    {
      "anonymous": false,
      "inputs": [
        {
          "indexed": true,
          "internalType": "bytes32",
          "name": "role",
          "type": "bytes32"
        },
        {
          "indexed": true,
          "internalType": "address",
          "name": "account",
          "type": "address"
        },
        {
          "indexed": true,
          "internalType": "address",
          "name": "sender",
          "type": "address"
        }
      ],
      "name": "RoleGranted",
      "type": "event"
    },
    {
      "anonymous": false,
      "inputs": [
        {
          "indexed": true,
          "internalType": "bytes32",
          "name": "role",
          "type": "bytes32"
        },
        {
          "indexed": true,
          "internalType": "address",
          "name": "account",
          "type": "address"
        },
        {
          "indexed": true,
          "internalType": "address",
          "name": "sender",
          "type": "address"
        }
      ],
      "name": "RoleRevoked",
      "type": "event"
    },
    {
      "anonymous": false,
      "inputs": [
        {
          "indexed": true,
          "internalType": "address",
          "name": "from",
          "type": "address"
        },
        {
          "indexed": true,
          "internalType": "address",
          "name": "to",
          "type": "address"
        },
        {
          "indexed": true,
          "internalType": "uint256",
          "name": "tokenId",
          "type": "uint256"
        }
      ],
      "name": "Transfer",
      "type": "event"
    },
    {
      "inputs": [],
      "name": "DEFAULT_ADMIN_ROLE",
      "outputs": [
        {
          "internalType": "bytes32",
          "name": "",
          "type": "bytes32"
        }
      ],
      "stateMutability": "view",
      "type": "function",
      "constant": true
    },
    {
      "inputs": [],
      "name": "FACULTY_ROLE",
      "outputs": [
        {
          "internalType": "bytes32",
          "name": "",
          "type": "bytes32"
        }
      ],
      "stateMutability": "view",
      "type": "function",
      "constant": true
    },
    {
      "inputs": [
        {
          "internalType": "address",
          "name": "account",
          "type": "address"
        }
      ],
      "name": "addAdmin",
      "outputs": [],
      "stateMutability": "nonpayable",
      "type": "function"
    },
    {
      "inputs": [
        {
          "internalType": "address",
          "name": "account",
          "type": "address"
        }
      ],
      "name": "addFaculty",
      "outputs": [],
      "stateMutability": "nonpayable",
      "type": "function"
    },
    {
      "inputs": [
        {
          "internalType": "address",
          "name": "owner",
          "type": "address"
        }
      ],
      "name": "balanceOf",
      "outputs": [
        {
          "internalType": "uint256",
          "name": "",
          "type": "uint256"
        }
      ],
      "stateMutability": "view",
      "type": "function",
      "constant": true
    },
    {
      "inputs": [
        {
          "internalType": "uint256",
          "name": "tokenId",
          "type": "uint256"
        }
      ],
      "name": "getApproved",
      "outputs": [
        {
          "internalType": "address",
          "name": "",
          "type": "address"
        }
      ],
      "stateMutability": "view",
      "type": "function",
      "constant": true
    },
    {
      "inputs": [],
      "name": "getOwner",
      "outputs": [
        {
          "internalType": "address",
          "name": "",
          "type": "address"
        }
      ],
      "stateMutability": "view",
      "type": "function",
      "constant": true
    },
    {
      "inputs": [
        {
          "internalType": "bytes32",
          "name": "role",
          "type": "bytes32"
        }
      ],
      "name": "getRoleAdmin",
      "outputs": [
        {
          "internalType": "bytes32",
          "name": "",
          "type": "bytes32"
        }
      ],
      "stateMutability": "view",
      "type": "function",
      "constant": true
    },
    {
      "inputs": [
        {
          "internalType": "bytes32",
          "name": "role",
          "type": "bytes32"
        },
        {
          "internalType": "uint256",
          "name": "index",
          "type": "uint256"
        }
      ],
      "name": "getRoleMember",
      "outputs": [
        {
          "internalType": "address",
          "name": "",
          "type": "address"
        }
      ],
      "stateMutability": "view",
      "type": "function",
      "constant": true
    },
    {
      "inputs": [
        {
          "internalType": "bytes32",
          "name": "role",
          "type": "bytes32"
        }
      ],
      "name": "getRoleMemberCount",
      "outputs": [
        {
          "internalType": "uint256",
          "name": "",
          "type": "uint256"
        }
      ],
      "stateMutability": "view",
      "type": "function",
      "constant": true
    },
    {
      "inputs": [
        {
          "internalType": "bytes32",
          "name": "role",
          "type": "bytes32"
        },
        {
          "internalType": "address",
          "name": "account",
          "type": "address"
        }
      ],
      "name": "grantRole",
      "outputs": [],
      "stateMutability": "nonpayable",
      "type": "function"
    },
    {
      "inputs": [
        {
          "internalType": "bytes32",
          "name": "role",
          "type": "bytes32"
        },
        {
          "internalType": "address",
          "name": "account",
          "type": "address"
        }
      ],
      "name": "hasRole",
      "outputs": [
        {
          "internalType": "bool",
          "name": "",
          "type": "bool"
        }
      ],
      "stateMutability": "view",
      "type": "function",
      "constant": true
    },
    {
      "inputs": [
        {
          "internalType": "address",
          "name": "account",
          "type": "address"
        }
      ],
      "name": "isAdmin",
      "outputs": [
        {
          "internalType": "bool",
          "name": "",
          "type": "bool"
        }
      ],
      "stateMutability": "view",
      "type": "function",
      "constant": true
    },
    {
      "inputs": [
        {
          "internalType": "address",
          "name": "owner",
          "type": "address"
        },
        {
          "internalType": "address",
          "name": "operator",
          "type": "address"
        }
      ],
      "name": "isApprovedForAll",
      "outputs": [
        {
          "internalType": "bool",
          "name": "",
          "type": "bool"
        }
      ],
      "stateMutability": "view",
      "type": "function",
      "constant": true
    },
    {
      "inputs": [
        {
          "internalType": "address",
          "name": "account",
          "type": "address"
        }
      ],
      "name": "isFaculty",
      "outputs": [
        {
          "internalType": "bool",
          "name": "",
          "type": "bool"
        }
      ],
      "stateMutability": "view",
      "type": "function",
      "constant": true
    },
    {
      "inputs": [
        {
          "internalType": "address[]",
          "name": "_array",
          "type": "address[]"
        }
      ],
      "name": "multiAddFaculty",
      "outputs": [],
      "stateMutability": "nonpayable",
      "type": "function"
    },
    {
      "inputs": [],
      "name": "name",
      "outputs": [
        {
          "internalType": "string",
          "name": "",
          "type": "string"
        }
      ],
      "stateMutability": "view",
      "type": "function",
      "constant": true
    },
    {
      "inputs": [
        {
          "internalType": "uint256",
          "name": "tokenId",
          "type": "uint256"
        }
      ],
      "name": "ownerOf",
      "outputs": [
        {
          "internalType": "address",
          "name": "",
          "type": "address"
        }
      ],
      "stateMutability": "view",
      "type": "function",
      "constant": true
    },
    {
      "inputs": [
        {
          "internalType": "address",
          "name": "account",
          "type": "address"
        }
      ],
      "name": "removeAdmin",
      "outputs": [],
      "stateMutability": "nonpayable",
      "type": "function"
    },
    {
      "inputs": [
        {
          "internalType": "address",
          "name": "account",
          "type": "address"
        }
      ],
      "name": "removeFaculty",
      "outputs": [],
      "stateMutability": "nonpayable",
      "type": "function"
    },
    {
      "inputs": [
        {
          "internalType": "bytes32",
          "name": "role",
          "type": "bytes32"
        },
        {
          "internalType": "address",
          "name": "account",
          "type": "address"
        }
      ],
      "name": "renounceRole",
      "outputs": [],
      "stateMutability": "nonpayable",
      "type": "function"
    },
    {
      "inputs": [
        {
          "internalType": "bytes32",
          "name": "role",
          "type": "bytes32"
        },
        {
          "internalType": "address",
          "name": "account",
          "type": "address"
        }
      ],
      "name": "revokeRole",
      "outputs": [],
      "stateMutability": "nonpayable",
      "type": "function"
    },
    {
      "inputs": [
        {
          "internalType": "address",
          "name": "from",
          "type": "address"
        },
        {
          "internalType": "address",
          "name": "to",
          "type": "address"
        },
        {
          "internalType": "uint256",
          "name": "tokenId",
          "type": "uint256"
        }
      ],
      "name": "safeTransferFrom",
      "outputs": [],
      "stateMutability": "nonpayable",
      "type": "function"
    },
    {
      "inputs": [
        {
          "internalType": "address",
          "name": "from",
          "type": "address"
        },
        {
          "internalType": "address",
          "name": "to",
          "type": "address"
        },
        {
          "internalType": "uint256",
          "name": "tokenId",
          "type": "uint256"
        },
        {
          "internalType": "bytes",
          "name": "data",
          "type": "bytes"
        }
      ],
      "name": "safeTransferFrom",
      "outputs": [],
      "stateMutability": "nonpayable",
      "type": "function"
    },
    {
      "inputs": [
        {
          "internalType": "address",
          "name": "operator",
          "type": "address"
        },
        {
          "internalType": "bool",
          "name": "approved",
          "type": "bool"
        }
      ],
      "name": "setApprovalForAll",
      "outputs": [],
      "stateMutability": "nonpayable",
      "type": "function"
    },
    {
      "inputs": [],
      "name": "symbol",
      "outputs": [
        {
          "internalType": "string",
          "name": "",
          "type": "string"
        }
      ],
      "stateMutability": "view",
      "type": "function",
      "constant": true
    },
    {
      "inputs": [
        {
          "internalType": "uint256",
          "name": "index",
          "type": "uint256"
        }
      ],
      "name": "tokenByIndex",
      "outputs": [
        {
          "internalType": "uint256",
          "name": "",
          "type": "uint256"
        }
      ],
      "stateMutability": "view",
      "type": "function",
      "constant": true
    },
    {
      "inputs": [
        {
          "internalType": "address",
          "name": "owner",
          "type": "address"
        },
        {
          "internalType": "uint256",
          "name": "index",
          "type": "uint256"
        }
      ],
      "name": "tokenOfOwnerByIndex",
      "outputs": [
        {
          "internalType": "uint256",
          "name": "",
          "type": "uint256"
        }
      ],
      "stateMutability": "view",
      "type": "function",
      "constant": true
    },
    {
      "inputs": [],
      "name": "totalSupply",
      "outputs": [
        {
          "internalType": "uint256",
          "name": "",
          "type": "uint256"
        }
      ],
      "stateMutability": "view",
      "type": "function",
      "constant": true
    },
    {
      "inputs": [
        {
          "internalType": "address",
          "name": "from",
          "type": "address"
        },
        {
          "internalType": "address",
          "name": "to",
          "type": "address"
        },
        {
          "internalType": "uint256",
          "name": "tokenId",
          "type": "uint256"
        }
      ],
      "name": "transferFrom",
      "outputs": [],
      "stateMutability": "nonpayable",
      "type": "function"
    },
    {
      "inputs": [
        {
          "internalType": "string",
          "name": "_id",
          "type": "string"
        },
        {
          "internalType": "address",
          "name": "_address",
          "type": "address"
        }
      ],
      "name": "addStudentAddress",
      "outputs": [],
      "stateMutability": "nonpayable",
      "type": "function"
    },
    {
      "inputs": [
        {
          "components": [
            {
              "internalType": "string",
              "name": "id",
              "type": "string"
            },
            {
              "internalType": "address",
              "name": "addr",
              "type": "address"
            }
          ],
          "internalType": "struct SITNFT.IdAddress[]",
          "name": "_array",
          "type": "tuple[]"
        }
      ],
      "name": "multiAddStudentAddress",
      "outputs": [],
      "stateMutability": "nonpayable",
      "type": "function"
    },
    {
      "inputs": [
        {
          "internalType": "address",
          "name": "account",
          "type": "address"
        }
      ],
      "name": "isStudent",
      "outputs": [
        {
          "internalType": "bool",
          "name": "",
          "type": "bool"
        }
      ],
      "stateMutability": "view",
      "type": "function",
      "constant": true
    },
    {
      "inputs": [
        {
          "internalType": "string",
          "name": "moduleCode",
          "type": "string"
        },
        {
          "internalType": "string",
          "name": "testType",
          "type": "string"
        },
        {
          "internalType": "string",
          "name": "grade",
          "type": "string"
        },
        {
          "internalType": "string",
          "name": "trimester",
          "type": "string"
        },
        {
          "internalType": "string",
          "name": "recipient",
          "type": "string"
        }
      ],
      "name": "mint",
      "outputs": [],
      "stateMutability": "nonpayable",
      "type": "function"
    },
    {
      "inputs": [
        {
          "components": [
            {
              "internalType": "string",
              "name": "moduleCode",
              "type": "string"
            },
            {
              "internalType": "string",
              "name": "testType",
              "type": "string"
            },
            {
              "internalType": "string",
              "name": "grade",
              "type": "string"
            },
            {
              "internalType": "string",
              "name": "trimester",
              "type": "string"
            },
            {
              "internalType": "string",
              "name": "recipient",
              "type": "string"
            }
          ],
          "internalType": "struct SITNFT.ParamAttribute[]",
          "name": "_array",
          "type": "tuple[]"
        }
      ],
      "name": "batchMint",
      "outputs": [],
      "stateMutability": "nonpayable",
      "type": "function"
    },
    {
      "inputs": [
        {
          "internalType": "string",
          "name": "message",
          "type": "string"
        }
      ],
      "name": "addToBlockchain",
      "outputs": [],
      "stateMutability": "nonpayable",
      "type": "function"
    },
    {
      "inputs": [],
      "name": "getAllTransactions",
      "outputs": [
        {
          "components": [
            {
              "internalType": "address",
              "name": "sender",
              "type": "address"
            },
            {
              "internalType": "string",
              "name": "message",
              "type": "string"
            },
            {
              "internalType": "uint256",
              "name": "timestamp",
              "type": "uint256"
            }
          ],
          "internalType": "struct SITNFT.TransferStruct[]",
          "name": "",
          "type": "tuple[]"
        }
      ],
      "stateMutability": "view",
      "type": "function",
      "constant": true
    },
    {
      "inputs": [
        {
          "internalType": "uint256",
          "name": "_tokenId",
          "type": "uint256"
        },
        {
          "internalType": "string",
          "name": "grade",
          "type": "string"
        }
      ],
      "name": "setMetadata",
      "outputs": [
        {
          "internalType": "string",
          "name": "",
          "type": "string"
        }
      ],
      "stateMutability": "nonpayable",
      "type": "function"
    },
    {
      "inputs": [
        {
          "internalType": "uint256",
          "name": "_tokenId",
          "type": "uint256"
        }
      ],
      "name": "tokenURI",
      "outputs": [
        {
          "internalType": "string",
          "name": "",
          "type": "string"
        }
      ],
      "stateMutability": "view",
      "type": "function",
      "constant": true
    },
    {
      "inputs": [
        {
          "internalType": "uint256",
          "name": "_tokenId",
          "type": "uint256"
        }
      ],
      "name": "attributes",
      "outputs": [
        {
          "internalType": "string",
          "name": "",
          "type": "string"
        },
        {
          "internalType": "string",
          "name": "",
          "type": "string"
        },
        {
          "internalType": "string",
          "name": "",
          "type": "string"
        },
        {
          "internalType": "string",
          "name": "",
          "type": "string"
        },
        {
          "internalType": "address",
          "name": "",
          "type": "address"
        },
        {
          "internalType": "address",
          "name": "",
          "type": "address"
        }
      ],
      "stateMutability": "view",
      "type": "function",
      "constant": true
    },
    {
      "inputs": [
        {
          "internalType": "bytes4",
          "name": "interfaceId",
          "type": "bytes4"
        }
      ],
      "name": "supportsInterface",
      "outputs": [
        {
          "internalType": "bool",
          "name": "",
          "type": "bool"
        }
      ],
      "stateMutability": "view",
      "type": "function",
      "constant": true
    },
    {
      "inputs": [
        {
          "internalType": "uint256",
          "name": "tokenId",
          "type": "uint256"
        }
      ],
      "name": "burn",
      "outputs": [],
      "stateMutability": "nonpayable",
      "type": "function"
    },
    {
      "inputs": [
        {
          "internalType": "address",
          "name": "to",
          "type": "address"
        },
        {
          "internalType": "uint256",
          "name": "tokenId",
          "type": "uint256"
        }
      ],
      "name": "approve",
      "outputs": [],
      "stateMutability": "nonpayable",
      "type": "function"
    }
  ],
  "bytecode": "0x6007610300818152662365636133663560c81b61032052610280908152610340828152662366646261663960c81b610360526102a0526103808281526611b11832b332b160c91b6103a0526102c0526103c0828152662365646666613960c81b6103e0526102e0526080908152610480828152660466e6ac6ccc4760cb1b6104a0526104009081526104c083815266046c4c4c8ccc6760cb1b6104e0526104205261050083815266046cc60ca6ac8760cb1b610520526104405261054083815266046ccccc6686e760cb1b610560526104605260a052610600828152662366666162373360c81b610620526105809081526106408381526608d999990cce0d60ca1b610660526105a052610680838152660236666663962360cc1b6106a0526105c0526106c0838152660236666616563360cc1b6106e0526105e05260c0526107808281526608ce4d188d184d60ca1b6107a0526107009081526107c0838152662364326635653360c81b6107e05261072052610800838152662365356335623560c81b61082052610740526108408381526611b31a321cb19b60c91b610860526107605260e052610900828152662366346639663960c81b6109208190526108809182526109408481526608d8d8d98c998d60ca1b610960526108a052610980848152662361346562663360c81b6109a0526108c0526109c0848152662361616161616160c81b6109e0526108e05261010091909152610a80838152662363616637653360c81b610aa052610a00908152610ac0848152662365646666656360c81b610ae052610a2052610b008481526611b31b323332b160c91b610b2052610a4052610b408481526608d94d1898590d60ca1b610b6052610a605261012052610c00838152610c2091909152610b80908152610c40838152660236631643164360cc1b610c6052610ba052610c80838152662366626163636360c81b610ca052610bc052610cc0838152662366383735616160c81b610ce052610be05261014052610d80828152662366646666626360c81b610da052610d00908152610dc08381526611b33332b2b13160c91b610de052610d2052610e0083815266046ccccc8c6c4760cb1b610e2052610d4052610e408381526611b3333198b11b60c91b610e6052610d605261016052610f00828152662366306534643760c81b610f2052610e80908152610f40838152660236635633063360cc1b610f6052610ea052610f80838152662366663731373160c81b610fa052610ec052610fc083815266119cb3321c323360c91b610fe052610ee052610180526110808281526611b29a3331333360c91b6110a0526110009081526110c08381526611b11c311ab33360c91b6110e0526110205261110083815266119b9c1b1c329b60c91b6111205261104052611140838152662365646565663760c81b61116052611060526101a052611200828152662366666362393160c81b61122052611180908152611240838152662366666566613160c81b611260526111a0526112808381526608ce4d195898d960ca1b6112a0526111c0526112c083815266119b323231b1b360c91b6112e0526111e0526101c052611380828152662362656463666160c81b6113a0526113009081526113c0838152660467270c2c6cc760cb1b6113e05261132052611400838152662362303838663960c81b6114205261134052611440838152662364613966663960c81b61146052611360526101e0526115008281526611b131b29b32b160c91b611520526114809081526115408381526611b33231b3323360c91b611560526114a0526115808381526611b3313132b23360c91b6115a0526114c0526115c0838152662366636133636360c81b6115e0526114e05261020052611680828152660236666373561360cc1b6116a0526116009081526116c0838152662366636533386160c81b6116e05261162052611700838152660236561666664360cc1b6117205261164052611740838152662339356531643360c81b6117605261166052610220526118008281526608d998994c18cd60ca1b6118205261178090815261184083815266119c30b11b321b60c91b611860526117a052611880838152662332393738623560c81b6118a0526117c0526118c08381526604660606c62c2760cb1b6118e0526117e052610240526119808281526608d9191919191960ca1b6119a0526119009081526119c0838152662366396633663360c81b6119e05261192052611a00838152662366376439643960c81b611a205261194052611a80604052611a40928352662366323532383760c81b611a60526119609290925261026091909152620006b890600e9060106200094f565b50348015620006c657600080fd5b50604080518082018252600781526614d2550813919560ca1b60208083019182528351808501909452600384526214d25560ea1b908401528151339391620007129160009190620009a1565b50805162000728906001906020840190620009a1565b5050506001600160a01b0381166200073f57600080fd5b600c80546001600160a01b0319166001600160a01b038316179055620007676000826200079b565b620007947f573a495ec6f39d095bd4855f18069a9236d77216cfb96e453909f2408c333cfa6000620007ab565b5062000b9c565b620007a78282620007f6565b5050565b6000828152600a6020526040808220600101805490849055905190918391839186917fbd79b86ffe0ab8e8776151514217cd7cacd52c909f66475c3af44e129f0b00ff9190a4505050565b6200080d82826200083960201b620024631760201c565b6000828152600b602090815260409091206200083491839062002505620008dd821b17901c565b505050565b6000828152600a602090815260408083206001600160a01b038516845290915290205460ff16620007a7576000828152600a602090815260408083206001600160a01b03851684529091529020805460ff19166001179055620008993390565b6001600160a01b0316816001600160a01b0316837f2f8788117e7eff1d82e926ec794901d17c78024a50270940304540a733656f0d60405160405180910390a45050565b6000620008f4836001600160a01b038416620008fd565b90505b92915050565b60008181526001830160205260408120546200094657508154600181810184556000848152602080822090930184905584548482528286019093526040902091909155620008f7565b506000620008f7565b6040830191839082156200098f579160200282015b828111156200098f5782516200097e908390600462000a2c565b509160200191906004019062000964565b506200099d92915062000a7f565b5090565b828054620009af9062000b60565b90600052602060002090601f016020900481019282620009d3576000855562000a1e565b82601f10620009ee57805160ff191683800117855562000a1e565b8280016001018555821562000a1e579182015b8281111562000a1e57825182559160200191906001019062000a01565b506200099d92915062000aa0565b826004810192821562000a71579160200282015b8281111562000a71578251805162000a60918491602090910190620009a1565b509160200191906001019062000a40565b506200099d92915062000ab7565b808211156200099d57600062000a96828262000ad8565b5060040162000a7f565b5b808211156200099d576000815560010162000aa1565b808211156200099d57600062000ace828262000b1e565b5060010162000ab7565b50600062000ae7828262000b1e565b50600101600062000af9828262000b1e565b50600101600062000b0b828262000b1e565b5062000b1c90600101600062000b1e565b565b50805462000b2c9062000b60565b6000825580601f1062000b3d575050565b601f01602090049060005260206000209081019062000b5d919062000aa0565b50565b600181811c9082168062000b7557607f821691505b60208210810362000b9657634e487b7160e01b600052602260045260246000fd5b50919050565b615c5c8062000bac6000396000f3fe608060405234801561001057600080fd5b50600436106102e95760003560e01c80636352211e11610191578063a217fddf116100e3578063c87b56dd11610097578063d547741f11610071578063d547741f14610674578063e985e9c514610687578063f408977b146106c357600080fd5b8063c87b56dd14610629578063ca15c8731461063c578063d05dcc6a1461064f57600080fd5b8063b88d4fde116100c8578063b88d4fde146105f0578063c2a7870214610603578063c8360ce81461061657600080fd5b8063a217fddf146105d5578063a22cb465146105dd57600080fd5b806386833e911161014557806391d148541161011f57806391d148541461058157806393a86532146105ba57806395d89b41146105cd57600080fd5b806386833e911461054a578063893d20e81461055d5780639010d07c1461056e57600080fd5b8063704802751161017657806370480275146104f957806370a082311461050c57806382f7d3921461051f57600080fd5b80636352211e146104bf5780636fe3ceb8146104d257600080fd5b80632f2ff15d1161024a57806342966c68116101fe578063593aa283116101d8578063593aa28314610486578063603a162a1461049957806362f746d2146104ac57600080fd5b806342966c681461044d578063456f46c4146104605780634f6ccce71461047357600080fd5b806336568abe1161022f57806336568abe14610414578063396ff3ed1461042757806342842e0e1461043a57600080fd5b80632f2ff15d146103ee5780632f745c591461040157600080fd5b806318160ddd116102a1578063248a9ca311610286578063248a9ca3146103a357806324d7806c146103c657806327506f53146103d957600080fd5b806318160ddd1461037e57806323b872dd1461039057600080fd5b8063081812fc116102d2578063081812fc1461032b578063095ea7b3146103565780631785f53c1461036b57600080fd5b806301ffc9a7146102ee57806306fdde0314610316575b600080fd5b6103016102fc3660046141a5565b6106d6565b60405190151581526020015b60405180910390f35b61031e6106e7565b60405161030d919061421a565b61033e61033936600461422d565b610779565b6040516001600160a01b03909116815260200161030d565b610369610364366004614262565b6107a0565b005b61036961037936600461428c565b6109e3565b6008545b60405190815260200161030d565b61036961039e3660046142a7565b610a3e565b6103826103b136600461422d565b6000908152600a602052604090206001015490565b6103016103d436600461428c565b610ac6565b6103e1610b06565b60405161030d91906142e3565b6103696103fc36600461436d565b610c17565b61038261040f366004614262565b610c3c565b61036961042236600461436d565b610ce4565b61036961043536600461428c565b610d70565b6103696104483660046142a7565b610e3d565b61036961045b36600461422d565b610e58565b61036961046e3660046143e5565b6110bf565b61038261048136600461422d565b61150b565b61031e6104943660046144d3565b6115af565b6103696104a736600461451a565b611667565b6103696104ba3660046143e5565b611726565b61033e6104cd36600461422d565b6118c8565b6103827f573a495ec6f39d095bd4855f18069a9236d77216cfb96e453909f2408c333cfa81565b61036961050736600461428c565b61192d565b61038261051a36600461428c565b6119db565b61030161052d36600461428c565b6001600160a01b0316600090815260516020526040902054151590565b610369610558366004614591565b611a75565b600c546001600160a01b031661033e565b61033e61057c366004614682565b611d45565b61030161058f36600461436d565b6000918252600a602090815260408084206001600160a01b0393909316845291905290205460ff1690565b6103696105c836600461428c565b611d64565b61031e611ddb565b610382600081565b6103696105eb3660046146a4565b611dea565b6103696105fe3660046146e0565b611df5565b61030161061136600461428c565b611e7d565b6103696106243660046143e5565b611ebd565b61031e61063736600461422d565b611fc4565b61038261064a36600461422d565b61205a565b61066261065d36600461422d565b612071565b60405161030d9695949392919061475c565b61036961068236600461436d565b61238a565b6103016106953660046147d0565b6001600160a01b03918216600090815260056020908152604080832093909416825291909152205460ff1690565b6103696106d13660046147fa565b6123af565b60006106e18261251a565b92915050565b6060600080546106f69061483f565b80601f01602080910402602001604051908101604052809291908181526020018280546107229061483f565b801561076f5780601f106107445761010080835404028352916020019161076f565b820191906000526020600020905b81548152906001019060200180831161075257829003601f168201915b5050505050905090565b600061078482612558565b506000908152600460205260409020546001600160a01b031690565b6107a982611e7d565b6108205760405162461bcd60e51b815260206004820152602c60248201527f4f6e6c7920666163756c74792063616e20626520617070726f76656420746f2060448201527f6275726e20746f6b656e732e000000000000000000000000000000000000000060648201526084015b60405180910390fd5b6000818152604f60205260409020600401546001600160a01b038381169116146108b25760405162461bcd60e51b815260206004820152603360248201527f4f6e6c7920666163756c74792077686f206d696e746564207468697320746f6b60448201527f656e2063616e20626520617070726f7665642e000000000000000000000000006064820152608401610817565b60006108bd826118c8565b9050806001600160a01b0316836001600160a01b0316036109465760405162461bcd60e51b815260206004820152602160248201527f4552433732313a20617070726f76616c20746f2063757272656e74206f776e6560448201527f72000000000000000000000000000000000000000000000000000000000000006064820152608401610817565b336001600160a01b038216148061096257506109628133610695565b6109d45760405162461bcd60e51b815260206004820152603860248201527f4552433732313a20617070726f76652063616c6c6572206973206e6f74206f7760448201527f6e6572206e6f7220617070726f76656420666f7220616c6c00000000000000006064820152608401610817565b6109de83836125bc565b505050565b6109ec33610ac6565b610a305760405162461bcd60e51b81526020600482015260156024820152742932b9ba3934b1ba32b2103a379030b236b4b7399760591b6044820152606401610817565b610a3b60008261238a565b50565b610a49335b8261262a565b610abb5760405162461bcd60e51b815260206004820152602e60248201527f4552433732313a2063616c6c6572206973206e6f7420746f6b656e206f776e6560448201527f72206e6f7220617070726f7665640000000000000000000000000000000000006064820152608401610817565b6109de8383836126a9565b6001600160a01b03811660009081527f13da86008ba1c6922daee3e07db95305ef49ebced9f5467a0b8613fcc6b343e3602052604081205460ff166106e1565b6060604e805480602002602001604051908101604052809291908181526020016000905b82821015610c0e57600084815260209081902060408051606081019091526003850290910180546001600160a01b031682526001810180549293919291840191610b739061483f565b80601f0160208091040260200160405190810160405280929190818152602001828054610b9f9061483f565b8015610bec5780601f10610bc157610100808354040283529160200191610bec565b820191906000526020600020905b815481529060010190602001808311610bcf57829003601f168201915b5050505050815260200160028201548152505081526020019060010190610b2a565b50505050905090565b6000828152600a6020526040902060010154610c3281612881565b6109de838361288b565b6000610c47836119db565b8210610cbb5760405162461bcd60e51b815260206004820152602b60248201527f455243373231456e756d657261626c653a206f776e657220696e646578206f7560448201527f74206f6620626f756e64730000000000000000000000000000000000000000006064820152608401610817565b506001600160a01b03919091166000908152600660209081526040808320938352929052205490565b6001600160a01b0381163314610d625760405162461bcd60e51b815260206004820152602f60248201527f416363657373436f6e74726f6c3a2063616e206f6e6c792072656e6f756e636560448201527f20726f6c657320666f722073656c6600000000000000000000000000000000006064820152608401610817565b610d6c82826128ad565b5050565b610d7933610ac6565b610dbd5760405162461bcd60e51b81526020600482015260156024820152742932b9ba3934b1ba32b2103a379030b236b4b7399760591b6044820152606401610817565b610dc681610ac6565b15610e135760405162461bcd60e51b815260206004820152601a60248201527f41646d696e2063616e6e6f74206265206120666163756c74792e0000000000006044820152606401610817565b610a3b7f573a495ec6f39d095bd4855f18069a9236d77216cfb96e453909f2408c333cfa82610c17565b6109de83838360405180602001604052806000815250611df5565b610e6133611e7d565b610ead5760405162461bcd60e51b815260206004820152601660248201527f5265737472696374656420746f20666163756c74792e000000000000000000006044820152606401610817565b610eb633610a43565b610f285760405162461bcd60e51b815260206004820152603060248201527f4552433732314275726e61626c653a2063616c6c6572206973206e6f74206f7760448201527f6e6572206e6f7220617070726f766564000000000000000000000000000000006064820152608401610817565b6000818152604f60205260409020600401546001600160a01b03163314610fb75760405162461bcd60e51b815260206004820152602f60248201527f4f6e6c7920666163756c74792077686f206d696e746564207468697320746f6b60448201527f656e2063616e206275726e2069742e00000000000000000000000000000000006064820152608401610817565b6040805160e081018252600060c0820181815282528251602081810185528282528084019190915283518082018552828152838501528351808201855282815260608401526080830182905260a08301829052848252604f8152929020815180519293849361102992849201906140f6565b50602082810151805161104292600185019201906140f6565b506040820151805161105e9160028401916020909101906140f6565b506060820151805161107a9160038401916020909101906140f6565b5060808201516004820180546001600160a01b03199081166001600160a01b039384161790915560a090930151600590920180549093169116179055610d6c826128cf565b6110c833611e7d565b6111145760405162461bcd60e51b815260206004820152601660248201527f5265737472696374656420746f20666163756c74792e000000000000000000006044820152606401610817565b80600a81111561118c5760405162461bcd60e51b815260206004820152602160248201527f43616e206f6e6c79206d696e7420313020746f6b656e7320617420612074696d60448201527f65000000000000000000000000000000000000000000000000000000000000006064820152608401610817565b60005b818110156115055760006040518060c001604052808686858181106111b6576111b6614879565b90506020028101906111c8919061488f565b6111d290806148af565b8080601f01602080910402602001604051908101604052809392919081815260200183838082843760009201919091525050509082525060200186868581811061121e5761121e614879565b9050602002810190611230919061488f565b61123e9060208101906148af565b8080601f01602080910402602001604051908101604052809392919081815260200183838082843760009201919091525050509082525060200186868581811061128a5761128a614879565b905060200281019061129c919061488f565b6112aa9060408101906148af565b8080601f0160208091040260200160405190810160405280939291908181526020018383808284376000920191909152505050908252506020018686858181106112f6576112f6614879565b9050602002810190611308919061488f565b6113169060608101906148af565b8080601f0160208091040260200160405190810160405280939291908181526020018383808284376000920191909152505050908252503360208201526040016113c587878681811061136b5761136b614879565b905060200281019061137d919061488f565b61138b9060808101906148af565b8080601f01602080910402602001604051908101604052809392919081815260200183838082843760009201919091525061297692505050565b6001600160a01b0316905290506113e0600d80546001019055565b60006113eb600d5490565b6000818152604f602090815260409091208451805193945085939192611416928492909101906140f6565b50602082810151805161142f92600185019201906140f6565b506040820151805161144b9160028401916020909101906140f6565b50606082015180516114679160038401916020909101906140f6565b5060808201516004820180546001600160a01b039283166001600160a01b03199182161790915560a093840151600590930180549390921692169190911790558201516114b49082612a25565b815160405133917f85a66b9141978db9980f7e0ce3b468cebf4f7999f32b23091c5c03e798b1ba7a916114e89185916148f6565b60405180910390a2505080806114fd90614925565b91505061118f565b50505050565b600061151660085490565b821061158a5760405162461bcd60e51b815260206004820152602c60248201527f455243373231456e756d657261626c653a20676c6f62616c20696e646578206f60448201527f7574206f6620626f756e647300000000000000000000000000000000000000006064820152608401610817565b6008828154811061159d5761159d614879565b90600052602060002001549050919050565b60606115ba33611e7d565b6116065760405162461bcd60e51b815260206004820152601660248201527f5265737472696374656420746f20666163756c74792e000000000000000000006044820152606401610817565b6000838152604f60209081526040909120835161162b926002909201918501906140f6565b505060408051808201909152600781527f7375636365737300000000000000000000000000000000000000000000000000602082015292915050565b6040805160608101825233815260208082018481524293830193909352604e805460018101825560009190915282517f9b65e484ce3d961a557081a44c6c68a0a27eca0b88fce820bdd99c3dc223dcc7600390920291820180546001600160a01b0319166001600160a01b0390921691909117815593518051939493611716937f9b65e484ce3d961a557081a44c6c68a0a27eca0b88fce820bdd99c3dc223dcc89093019291909101906140f6565b5060408201518160020155505050565b61172f33610ac6565b6117735760405162461bcd60e51b81526020600482015260156024820152742932b9ba3934b1ba32b2103a379030b236b4b7399760591b6044820152606401610817565b60005b81811015611852576117a883838381811061179357611793614879565b90506020020160208101906103d4919061428c565b156117f55760405162461bcd60e51b815260206004820152601a60248201527f41646d696e2063616e6e6f74206265206120666163756c74792e0000000000006044820152606401610817565b6118407f573a495ec6f39d095bd4855f18069a9236d77216cfb96e453909f2408c333cfa84848481811061182b5761182b614879565b90506020020160208101906103fc919061428c565b8061184a81614925565b915050611776565b50336001600160a01b03167fa66ae13e5605ba8fbc32dd24e75cd0f527810c48b5d0cbd0290be290217b2da06040516118bc9060208082526016908201527f6d756c7469416464466163756c74795375636365656400000000000000000000604082015260600190565b60405180910390a25050565b6000818152600260205260408120546001600160a01b0316806106e15760405162461bcd60e51b815260206004820152601860248201527f4552433732313a20696e76616c696420746f6b656e20494400000000000000006044820152606401610817565b61193633610ac6565b61197a5760405162461bcd60e51b81526020600482015260156024820152742932b9ba3934b1ba32b2103a379030b236b4b7399760591b6044820152606401610817565b61198381611e7d565b156119d05760405162461bcd60e51b815260206004820152601b60248201527f466163756c74792063616e6e6f7420626520616e2061646d696e2e00000000006044820152606401610817565b610a3b600082610c17565b60006001600160a01b038216611a595760405162461bcd60e51b815260206004820152602960248201527f4552433732313a2061646472657373207a65726f206973206e6f74206120766160448201527f6c6964206f776e657200000000000000000000000000000000000000000000006064820152608401610817565b506001600160a01b031660009081526003602052604090205490565b611a7e33611e7d565b611aca5760405162461bcd60e51b815260206004820152601660248201527f5265737472696374656420746f20666163756c74792e000000000000000000006044820152606401610817565b6040805160e06020601f8d01819004028201810190925260c081018b81526000928291908e908e9081908501838280828437600092019190915250505090825250604080516020601f8d018190048102820181019092528b815291810191908c908c9081908401838280828437600092019190915250505090825250604080516020601f8b0181900481028201810190925289815291810191908a908a9081908401838280828437600092019190915250505090825250604080516020601f8901819004810282018101909252878152918101919088908890819084018382808284376000920191909152505050908252503360208083019190915260408051601f87018390048302810183018252868152920191611c0391879087908190840183828082843760009201919091525061297692505050565b6001600160a01b031690529050611c1e600d80546001019055565b6000611c29600d5490565b6000818152604f602090815260409091208451805193945085939192611c54928492909101906140f6565b506020828101518051611c6d92600185019201906140f6565b5060408201518051611c899160028401916020909101906140f6565b5060608201518051611ca59160038401916020909101906140f6565b5060808201516004820180546001600160a01b039283166001600160a01b03199182161790915560a09384015160059093018054939092169216919091179055820151611cf29082612a25565b336001600160a01b03167f85a66b9141978db9980f7e0ce3b468cebf4f7999f32b23091c5c03e798b1ba7a828e8e604051611d2f9392919061493e565b60405180910390a2505050505050505050505050565b6000828152600b60205260408120611d5d9083612a3f565b9392505050565b611d6d33610ac6565b611db15760405162461bcd60e51b81526020600482015260156024820152742932b9ba3934b1ba32b2103a379030b236b4b7399760591b6044820152606401610817565b610a3b7f573a495ec6f39d095bd4855f18069a9236d77216cfb96e453909f2408c333cfa8261238a565b6060600180546106f69061483f565b610d6c338383612a4b565b611dff338361262a565b611e715760405162461bcd60e51b815260206004820152602e60248201527f4552433732313a2063616c6c6572206973206e6f7420746f6b656e206f776e6560448201527f72206e6f7220617070726f7665640000000000000000000000000000000000006064820152608401610817565b61150584848484612b19565b6001600160a01b03811660009081527f9019cc2ada0da9adebe4b58b4b78fbab4edc82e8bb6da2a3f362a37225196cd3602052604081205460ff166106e1565b611ec633610ac6565b611f0a5760405162461bcd60e51b81526020600482015260156024820152742932b9ba3934b1ba32b2103a379030b236b4b7399760591b6044820152606401610817565b60005b818110156109de57611fb2838383818110611f2a57611f2a614879565b9050602002810190611f3c9190614974565b611f4690806148af565b8080601f016020809104026020016040519081016040528093929190818152602001838380828437600092019190915250879250869150859050818110611f8f57611f8f614879565b9050602002810190611fa19190614974565b6106d190604081019060200161428c565b80611fbc81614925565b915050611f0d565b6000818152600260205260409020546060906001600160a01b03166120515760405162461bcd60e51b815260206004820152602f60248201527f4552433732314d657461646174613a2055524920717565727920666f72206e6f60448201527f6e6578697374656e7420746f6b656e00000000000000000000000000000000006064820152608401610817565b6106e182612ba2565b6000818152600b602052604081206106e190612c3b565b60608060608060008061209b876000908152600260205260409020546001600160a01b0316151590565b61210d5760405162461bcd60e51b815260206004820152603560248201527f4552433732314d657461646174613a206174747269627574652071756572792060448201527f666f72206e6f6e6578697374656e7420746f6b656e00000000000000000000006064820152608401610817565b6000878152604f602052604090206004810154600582015482546001840192600285019260038601926001600160a01b03928316929091169086906121519061483f565b80601f016020809104026020016040519081016040528092919081815260200182805461217d9061483f565b80156121ca5780601f1061219f576101008083540402835291602001916121ca565b820191906000526020600020905b8154815290600101906020018083116121ad57829003601f168201915b505050505095508480546121dd9061483f565b80601f01602080910402602001604051908101604052809291908181526020018280546122099061483f565b80156122565780601f1061222b57610100808354040283529160200191612256565b820191906000526020600020905b81548152906001019060200180831161223957829003601f168201915b505050505094508380546122699061483f565b80601f01602080910402602001604051908101604052809291908181526020018280546122959061483f565b80156122e25780601f106122b7576101008083540402835291602001916122e2565b820191906000526020600020905b8154815290600101906020018083116122c557829003601f168201915b505050505093508280546122f59061483f565b80601f01602080910402602001604051908101604052809291908181526020018280546123219061483f565b801561236e5780601f106123435761010080835404028352916020019161236e565b820191906000526020600020905b81548152906001019060200180831161235157829003601f168201915b5050505050925095509550955095509550955091939550919395565b6000828152600a60205260409020600101546123a581612881565b6109de83836128ad565b6123b833610ac6565b6123fc5760405162461bcd60e51b81526020600482015260156024820152742932b9ba3934b1ba32b2103a379030b236b4b7399760591b6044820152606401610817565b60008260405160200161240f91906149a6565b60408051601f19818403018152918152815160209283012060008181526050845282812080546001600160a01b039097166001600160a01b0319909716871790559485526051909252909220919091555050565b6000828152600a602090815260408083206001600160a01b038516845290915290205460ff16610d6c576000828152600a602090815260408083206001600160a01b03851684529091529020805460ff191660011790556124c13390565b6001600160a01b0316816001600160a01b0316837f2f8788117e7eff1d82e926ec794901d17c78024a50270940304540a733656f0d60405160405180910390a45050565b6000611d5d836001600160a01b038416612c45565b60006001600160e01b031982167f5a05180f0000000000000000000000000000000000000000000000000000000014806106e157506106e182612c94565b6000818152600260205260409020546001600160a01b0316610a3b5760405162461bcd60e51b815260206004820152601860248201527f4552433732313a20696e76616c696420746f6b656e20494400000000000000006044820152606401610817565b600081815260046020526040902080546001600160a01b0319166001600160a01b03841690811790915581906125f1826118c8565b6001600160a01b03167f8c5be1e5ebec7d5bd14f71427d1e84f3dd0314c0f7b2291e5b200ac8c7c3b92560405160405180910390a45050565b600080612636836118c8565b9050806001600160a01b0316846001600160a01b0316148061267d57506001600160a01b0380821660009081526005602090815260408083209388168352929052205460ff165b806126a15750836001600160a01b031661269684610779565b6001600160a01b0316145b949350505050565b826001600160a01b03166126bc826118c8565b6001600160a01b0316146127385760405162461bcd60e51b815260206004820152602560248201527f4552433732313a207472616e736665722066726f6d20696e636f72726563742060448201527f6f776e65720000000000000000000000000000000000000000000000000000006064820152608401610817565b6001600160a01b0382166127b35760405162461bcd60e51b8152602060048201526024808201527f4552433732313a207472616e7366657220746f20746865207a65726f2061646460448201527f72657373000000000000000000000000000000000000000000000000000000006064820152608401610817565b6127be838383612cd2565b6127c96000826125bc565b6001600160a01b03831660009081526003602052604081208054600192906127f29084906149b8565b90915550506001600160a01b03821660009081526003602052604081208054600192906128209084906149cf565b909155505060008181526002602052604080822080546001600160a01b0319166001600160a01b0386811691821790925591518493918716917fddf252ad1be2c89b69c2b068fc378daa952ba7f163c4a11628f55a4df523b3ef91a4505050565b610a3b8133612fe2565b6128958282612463565b6000828152600b602052604090206109de9082612505565b6128b78282613062565b6000828152600b602052604090206109de90826130e5565b60006128da826118c8565b90506128e881600084612cd2565b6128f36000836125bc565b6001600160a01b038116600090815260036020526040812080546001929061291c9084906149b8565b909155505060008281526002602052604080822080546001600160a01b0319169055518391906001600160a01b038416907fddf252ad1be2c89b69c2b068fc378daa952ba7f163c4a11628f55a4df523b3ef908390a45050565b6000808260405160200161298a91906149a6565b60408051601f198184030181529181528151602092830120600081815260509093529120549091506001600160a01b0316612a075760405162461bcd60e51b815260206004820152601760248201527f53747564656e7420646f6573206e6f742065786973742e0000000000000000006044820152606401610817565b6000908152605060205260409020546001600160a01b031692915050565b610d6c8282604051806020016040528060008152506130fa565b6000611d5d8383613183565b816001600160a01b0316836001600160a01b031603612aac5760405162461bcd60e51b815260206004820152601960248201527f4552433732313a20617070726f766520746f2063616c6c6572000000000000006044820152606401610817565b6001600160a01b03838116600081815260056020908152604080832094871680845294825291829020805460ff191686151590811790915591519182527f17307eab39ab6107e8899845ad3d59bd9653f200f220920489ca2b5937696c31910160405180910390a3505050565b612b248484846126a9565b612b30848484846131ad565b6115055760405162461bcd60e51b815260206004820152603260248201527f4552433732313a207472616e7366657220746f206e6f6e20455243373231526560448201527f63656976657220696d706c656d656e74657200000000000000000000000000006064820152608401610817565b60606000612baf83613304565b6000848152604f6020526040812091925090612c1090612bce86613317565b6000878152604f60209081526040918290209151612bfc949392889290916001830191600384019101614a80565b604051602081830303815290604052613418565b905080604051602001612c239190614d1d565b60405160208183030381529060405292505050919050565b60006106e1825490565b6000818152600183016020526040812054612c8c575081546001818101845560008481526020808220909301849055845484825282860190935260409020919091556106e1565b5060006106e1565b60006001600160e01b031982167f7965db0b0000000000000000000000000000000000000000000000000000000014806106e157506106e1826135b6565b612cdd8383836135f4565b6000818152604f6020526040808220815160c08101909252805482908290612d049061483f565b80601f0160208091040260200160405190810160405280929190818152602001828054612d309061483f565b8015612d7d5780601f10612d5257610100808354040283529160200191612d7d565b820191906000526020600020905b815481529060010190602001808311612d6057829003601f168201915b50505050508152602001600182018054612d969061483f565b80601f0160208091040260200160405190810160405280929190818152602001828054612dc29061483f565b8015612e0f5780601f10612de457610100808354040283529160200191612e0f565b820191906000526020600020905b815481529060010190602001808311612df257829003601f168201915b50505050508152602001600282018054612e289061483f565b80601f0160208091040260200160405190810160405280929190818152602001828054612e549061483f565b8015612ea15780601f10612e7657610100808354040283529160200191612ea1565b820191906000526020600020905b815481529060010190602001808311612e8457829003601f168201915b50505050508152602001600382018054612eba9061483f565b80601f0160208091040260200160405190810160405280929190818152602001828054612ee69061483f565b8015612f335780601f10612f0857610100808354040283529160200191612f33565b820191906000526020600020905b815481529060010190602001808311612f1657829003601f168201915b505050918352505060048201546001600160a01b039081166020830152600590920154821660409091015260a082015191925084811691161480612f845750600c546001600160a01b038481169116145b80612f9657506001600160a01b038316155b6115055760405162461bcd60e51b815260206004820152601c60248201527f546172676574206973206e6f742074686520726563697069656e742e000000006044820152606401610817565b6000828152600a602090815260408083206001600160a01b038516845290915290205460ff16610d6c57613020816001600160a01b031660146136ac565b61302b8360206136ac565b60405160200161303c929190614d62565b60408051601f198184030181529082905262461bcd60e51b82526108179160040161421a565b6000828152600a602090815260408083206001600160a01b038516845290915290205460ff1615610d6c576000828152600a602090815260408083206001600160a01b0385168085529252808320805460ff1916905551339285917ff6391f5c32d9c69d2a47ea670b442974b53935d1edc7fd64eb21e047a839171b9190a45050565b6000611d5d836001600160a01b038416613855565b6131048383613948565b61311160008484846131ad565b6109de5760405162461bcd60e51b815260206004820152603260248201527f4552433732313a207472616e7366657220746f206e6f6e20455243373231526560448201527f63656976657220696d706c656d656e74657200000000000000000000000000006064820152608401610817565b600082600001828154811061319a5761319a614879565b9060005260206000200154905092915050565b60006001600160a01b0384163b156132f957604051630a85bd0160e11b81526001600160a01b0385169063150b7a02906131f1903390899088908890600401614de3565b6020604051808303816000875af192505050801561322c575060408051601f3d908101601f1916820190925261322991810190614e1f565b60015b6132df573d80801561325a576040519150601f19603f3d011682016040523d82523d6000602084013e61325f565b606091505b5080516000036132d75760405162461bcd60e51b815260206004820152603260248201527f4552433732313a207472616e7366657220746f206e6f6e20455243373231526560448201527f63656976657220696d706c656d656e74657200000000000000000000000000006064820152608401610817565b805181602001fd5b6001600160e01b031916630a85bd0160e11b1490506126a1565b506001949350505050565b60606106e161331283613a96565b613418565b60608160000361333e5750506040805180820190915260018152600360fc1b602082015290565b8160005b8115613368578061335281614925565b91506133619050600a83614e52565b9150613342565b60008167ffffffffffffffff81111561338357613383614427565b6040519080825280601f01601f1916602001820160405280156133ad576020820181803683370190505b5090505b84156126a1576133c26001836149b8565b91506133cf600a86614e66565b6133da9060306149cf565b60f81b8183815181106133ef576133ef614879565b60200101906001600160f81b031916908160001a905350613411600a86614e52565b94506133b1565b6060815160000361343757505060408051602081019091526000815290565b6000604051806060016040528060408152602001615be7604091399050600060038451600261346691906149cf565b6134709190614e52565b61347b906004614e7a565b9050600061348a8260206149cf565b67ffffffffffffffff8111156134a2576134a2614427565b6040519080825280601f01601f1916602001820160405280156134cc576020820181803683370190505b509050818152600183018586518101602084015b8183101561353a5760039283018051603f601282901c811687015160f890811b8552600c83901c8216880151811b6001860152600683901c8216880151811b60028601529116860151901b938201939093526004016134e0565b6003895106600181146135545760028114613580576135a8565b7f3d3d0000000000000000000000000000000000000000000000000000000000006001198301526135a8565b7f3d000000000000000000000000000000000000000000000000000000000000006000198301525b509398975050505050505050565b60006001600160e01b031982167f780e9d630000000000000000000000000000000000000000000000000000000014806106e157506106e182613b77565b6001600160a01b03831661364f5761364a81600880546000838152600960205260408120829055600182018355919091527ff3f7a9fe364faab93b216da50a3214154f22a0a2b415b23a84c8169e8b636ee30155565b613672565b816001600160a01b0316836001600160a01b031614613672576136728382613c12565b6001600160a01b038216613689576109de81613caf565b826001600160a01b0316826001600160a01b0316146109de576109de8282613d5e565b606060006136bb836002614e7a565b6136c69060026149cf565b67ffffffffffffffff8111156136de576136de614427565b6040519080825280601f01601f191660200182016040528015613708576020820181803683370190505b509050600360fc1b8160008151811061372357613723614879565b60200101906001600160f81b031916908160001a905350600f60fb1b8160018151811061375257613752614879565b60200101906001600160f81b031916908160001a9053506000613776846002614e7a565b6137819060016149cf565b90505b6001811115613806577f303132333435363738396162636465660000000000000000000000000000000085600f16601081106137c2576137c2614879565b1a60f81b8282815181106137d8576137d8614879565b60200101906001600160f81b031916908160001a90535060049490941c936137ff81614e99565b9050613784565b508315611d5d5760405162461bcd60e51b815260206004820181905260248201527f537472696e67733a20686578206c656e67746820696e73756666696369656e746044820152606401610817565b6000818152600183016020526040812054801561393e5760006138796001836149b8565b855490915060009061388d906001906149b8565b90508181146138f25760008660000182815481106138ad576138ad614879565b90600052602060002001549050808760000184815481106138d0576138d0614879565b6000918252602080832090910192909255918252600188019052604090208390555b855486908061390357613903614eb0565b6001900381819060005260206000200160009055905585600101600086815260200190815260200160002060009055600193505050506106e1565b60009150506106e1565b6001600160a01b03821661399e5760405162461bcd60e51b815260206004820181905260248201527f4552433732313a206d696e7420746f20746865207a65726f20616464726573736044820152606401610817565b6000818152600260205260409020546001600160a01b031615613a035760405162461bcd60e51b815260206004820152601c60248201527f4552433732313a20746f6b656e20616c7265616479206d696e746564000000006044820152606401610817565b613a0f60008383612cd2565b6001600160a01b0382166000908152600360205260408120805460019290613a389084906149cf565b909155505060008181526002602052604080822080546001600160a01b0319166001600160a01b03861690811790915590518392907fddf252ad1be2c89b69c2b068fc378daa952ba7f163c4a11628f55a4df523b3ef908290a45050565b606060004233604051602001613adb92919091825260601b7fffffffffffffffffffffffffffffffffffffffff00000000000000000000000016602082015260340190565b60408051808303601f190181528282528051602091820120908301819052925060009101604051602081830303815290604052905060006010613b1f836000613da2565b613b299190614ec6565b60ff1690506000613b3a8683613e62565b90506000613b4787613eef565b90508181604051602001613b5c929190614ee8565b60405160208183030381529060405295505050505050919050565b60006001600160e01b031982167f80ac58cd000000000000000000000000000000000000000000000000000000001480613bda57506001600160e01b031982167f5b5e139f00000000000000000000000000000000000000000000000000000000145b806106e157507f01ffc9a7000000000000000000000000000000000000000000000000000000006001600160e01b03198316146106e1565b60006001613c1f846119db565b613c2991906149b8565b600083815260076020526040902054909150808214613c7c576001600160a01b03841660009081526006602090815260408083208584528252808320548484528184208190558352600790915290208190555b5060009182526007602090815260408084208490556001600160a01b039094168352600681528383209183525290812055565b600854600090613cc1906001906149b8565b60008381526009602052604081205460088054939450909284908110613ce957613ce9614879565b906000526020600020015490508060088381548110613d0a57613d0a614879565b6000918252602080832090910192909255828152600990915260408082208490558582528120556008805480613d4257613d42614eb0565b6001900381819060005260206000200160009055905550505050565b6000613d69836119db565b6001600160a01b039093166000908152600660209081526040808320868452825280832085905593825260079052919091209190915550565b600081613db08160016149cf565b1015613dfe5760405162461bcd60e51b815260206004820152601060248201527f746f55696e74385f6f766572666c6f77000000000000000000000000000000006044820152606401610817565b613e098260016149cf565b83511015613e595760405162461bcd60e51b815260206004820152601360248201527f746f55696e74385f6f75744f66426f756e6473000000000000000000000000006044820152606401610817565b50016001015190565b6060600e8260108110613e7757613e77614879565b60040201600e8360108110613e8e57613e8e614879565b60040201600101600e8460108110613ea857613ea8614879565b60040201600201604f6000878152602001908152602001600020600101604051602001613ed89493929190614fb5565b604051602081830303815290604052905092915050565b6000818152604f6020526040902060058101546060919060038201906002830190613f24906001600160a01b03166014613f4d565b604051602001613f37949392919061582b565b6040516020818303038152906040529050919050565b60606000613f5c836002614e7a565b613f679060026149cf565b67ffffffffffffffff811115613f7f57613f7f614427565b6040519080825280601f01601f191660200182016040528015613fa9576020820181803683370190505b509050600360fc1b81600081518110613fc457613fc4614879565b60200101906001600160f81b031916908160001a905350600f60fb1b81600181518110613ff357613ff3614879565b60200101906001600160f81b031916908160001a9053506000614017846002614e7a565b6140229060016149cf565b90505b60018111156140a7577f303132333435363738396162636465660000000000000000000000000000000085600f166010811061406357614063614879565b1a60f81b82828151811061407957614079614879565b60200101906001600160f81b031916908160001a90535060049490941c936140a081614e99565b9050614025565b508315611d5d5760405162461bcd60e51b815260206004820152600560248201527f4845585f4c0000000000000000000000000000000000000000000000000000006044820152606401610817565b8280546141029061483f565b90600052602060002090601f016020900481019282614124576000855561416a565b82601f1061413d57805160ff191683800117855561416a565b8280016001018555821561416a579182015b8281111561416a57825182559160200191906001019061414f565b5061417692915061417a565b5090565b5b80821115614176576000815560010161417b565b6001600160e01b031981168114610a3b57600080fd5b6000602082840312156141b757600080fd5b8135611d5d8161418f565b60005b838110156141dd5781810151838201526020016141c5565b838111156115055750506000910152565b600081518084526142068160208601602086016141c2565b601f01601f19169290920160200192915050565b602081526000611d5d60208301846141ee565b60006020828403121561423f57600080fd5b5035919050565b80356001600160a01b038116811461425d57600080fd5b919050565b6000806040838503121561427557600080fd5b61427e83614246565b946020939093013593505050565b60006020828403121561429e57600080fd5b611d5d82614246565b6000806000606084860312156142bc57600080fd5b6142c584614246565b92506142d360208501614246565b9150604084013590509250925092565b60006020808301818452808551808352604092508286019150828160051b87010184880160005b8381101561435f57603f19898403018552815160606001600160a01b03825116855288820151818a870152614341828701826141ee565b9289015195890195909552509487019492509086019060010161430a565b509098975050505050505050565b6000806040838503121561438057600080fd5b8235915061439060208401614246565b90509250929050565b60008083601f8401126143ab57600080fd5b50813567ffffffffffffffff8111156143c357600080fd5b6020830191508360208260051b85010111156143de57600080fd5b9250929050565b600080602083850312156143f857600080fd5b823567ffffffffffffffff81111561440f57600080fd5b61441b85828601614399565b90969095509350505050565b634e487b7160e01b600052604160045260246000fd5b600067ffffffffffffffff8084111561445857614458614427565b604051601f8501601f19908116603f0116810190828211818310171561448057614480614427565b8160405280935085815286868601111561449957600080fd5b858560208301376000602087830101525050509392505050565b600082601f8301126144c457600080fd5b611d5d8383356020850161443d565b600080604083850312156144e657600080fd5b82359150602083013567ffffffffffffffff81111561450457600080fd5b614510858286016144b3565b9150509250929050565b60006020828403121561452c57600080fd5b813567ffffffffffffffff81111561454357600080fd5b6126a1848285016144b3565b60008083601f84011261456157600080fd5b50813567ffffffffffffffff81111561457957600080fd5b6020830191508360208285010111156143de57600080fd5b60008060008060008060008060008060a08b8d0312156145b057600080fd5b8a3567ffffffffffffffff808211156145c857600080fd5b6145d48e838f0161454f565b909c509a5060208d01359150808211156145ed57600080fd5b6145f98e838f0161454f565b909a50985060408d013591508082111561461257600080fd5b61461e8e838f0161454f565b909850965060608d013591508082111561463757600080fd5b6146438e838f0161454f565b909650945060808d013591508082111561465c57600080fd5b506146698d828e0161454f565b915080935050809150509295989b9194979a5092959850565b6000806040838503121561469557600080fd5b50508035926020909101359150565b600080604083850312156146b757600080fd5b6146c083614246565b9150602083013580151581146146d557600080fd5b809150509250929050565b600080600080608085870312156146f657600080fd5b6146ff85614246565b935061470d60208601614246565b925060408501359150606085013567ffffffffffffffff81111561473057600080fd5b8501601f8101871361474157600080fd5b6147508782356020840161443d565b91505092959194509250565b60c08152600061476f60c08301896141ee565b828103602084015261478181896141ee565b9050828103604084015261479581886141ee565b905082810360608401526147a981876141ee565b9150506001600160a01b03808516608084015280841660a084015250979650505050505050565b600080604083850312156147e357600080fd5b6147ec83614246565b915061439060208401614246565b6000806040838503121561480d57600080fd5b823567ffffffffffffffff81111561482457600080fd5b614830858286016144b3565b92505061439060208401614246565b600181811c9082168061485357607f821691505b60208210810361487357634e487b7160e01b600052602260045260246000fd5b50919050565b634e487b7160e01b600052603260045260246000fd5b60008235609e198336030181126148a557600080fd5b9190910192915050565b6000808335601e198436030181126148c657600080fd5b83018035915067ffffffffffffffff8211156148e157600080fd5b6020019150368190038213156143de57600080fd5b8281526040602082015260006126a160408301846141ee565b634e487b7160e01b600052601160045260246000fd5b6000600182016149375761493761490f565b5060010190565b83815260406020820152816040820152818360608301376000818301606090810191909152601f909201601f1916010192915050565b60008235603e198336030181126148a557600080fd5b6000815161499c8185602086016141c2565b9290920192915050565b600082516148a58184602087016141c2565b6000828210156149ca576149ca61490f565b500390565b600082198211156149e2576149e261490f565b500190565b8054600090600181811c9080831680614a0157607f831692505b60208084108203614a2257634e487b7160e01b600052602260045260246000fd5b818015614a365760018114614a4757614a74565b60ff19861689528489019650614a74565b60008881526020902060005b86811015614a6c5781548b820152908501908301614a53565b505084890196505b50505050505092915050565b7f7b226e616d65223a20220000000000000000000000000000000000000000000081526000614ab2600a8301896149e7565b7f204365727469666963617465200000000000000000000000000000000000000081528751614ae881600d840160208c016141c2565b8082019150507f222c00000000000000000000000000000000000000000000000000000000000080600d8301527f22696d616765223a202200000000000000000000000000000000000000000000600f8301527f646174613a696d6167652f7376672b786d6c3b6261736536342c00000000000060198301528751614b74816033850160208c016141c2565b60339201918201527f2261747472696275746573223a205b7b2274726169745f74797065223a20224d60358201527f6f64756c65436f6465222c202276616c7565223a2022000000000000000000006055820152614d10614ce7614cbe614cb8614c69614beb614c63614c1482606b8a018f6149e7565b7f227d2c0000000000000000000000000000000000000000000000000000000000815260030190565b7f7b2274726169745f74797065223a202254797065222c202276616c7565223a2081527f2200000000000000000000000000000000000000000000000000000000000000602082015260210190565b8b6149e7565b7f7b2274726169745f74797065223a20225472696d6573746572222c202276616c81527f7565223a20220000000000000000000000000000000000000000000000000000602082015260260190565b876149e7565b7f227d000000000000000000000000000000000000000000000000000000000000815260020190565b7f5d7d000000000000000000000000000000000000000000000000000000000000815260020190565b9998505050505050505050565b7f646174613a6170706c69636174696f6e2f6a736f6e3b6261736536342c000000815260008251614d5581601d8501602087016141c2565b91909101601d0192915050565b7f416363657373436f6e74726f6c3a206163636f756e7420000000000000000000815260008351614d9a8160178501602088016141c2565b7f206973206d697373696e6720726f6c65200000000000000000000000000000006017918401918201528351614dd78160288401602088016141c2565b01602801949350505050565b60006001600160a01b03808716835280861660208401525083604083015260806060830152614e1560808301846141ee565b9695505050505050565b600060208284031215614e3157600080fd5b8151611d5d8161418f565b634e487b7160e01b600052601260045260246000fd5b600082614e6157614e61614e3c565b500490565b600082614e7557614e75614e3c565b500690565b6000816000190483118215151615614e9457614e9461490f565b500290565b600081614ea857614ea861490f565b506000190190565b634e487b7160e01b600052603160045260246000fd5b600060ff831680614ed957614ed9614e3c565b8060ff84160491505092915050565b7f3c73766720636c6173733d22737667426f6479222077696474683d223330302281527f206865696768743d22333030222076696577426f783d2230203020333030203360208201527f30302220786d6c6e733d22687474703a2f2f7777772e77332e6f72672f32303060408201527f302f737667223e00000000000000000000000000000000000000000000000000606082015260008351614f928160678501602088016141c2565b835190830190614fa98160678401602088016141c2565b01606701949350505050565b7f3c726563742077696474683d2233303022206865696768743d2233303022207281527f783d22313022207374796c653d2266696c6c3a000000000000000000000000006020820152600061500d60338301876149e7565b7f22202f3e000000000000000000000000000000000000000000000000000000008082527f3c7265637420793d223630222077696474683d2233303022206865696768743d60048301527f2231313522207374796c653d2266696c6c3a0000000000000000000000000000602483015261508a60368301886149e7565b91507f222f3e000000000000000000000000000000000000000000000000000000000082527f3c7265637420793d22313735222077696474683d22333030222068656967687460038301527f3d22343022207374796c653d2266696c6c3a0000000000000000000000000000602383015261510860358301876149e7565b9081527f3c7465787420783d2231352220793d2232352220636c6173733d226d6564697560048201527f6d223e00000000000000000000000000000000000000000000000000000000006024820152905061582061523361519861516f60278501886149e7565b7f2043657274696669636174653c2f746578743e00000000000000000000000000815260130190565b7f3c67207472616e73666f726d3d227472616e736c617465283236302e3030303081527f30302c34302e30303030303029207363616c6528302e3031303030302c2d302e60208201527f30313030303029222066696c6c3d222330303030303022207374726f6b653d2260408201527f6e6f6e65223e0000000000000000000000000000000000000000000000000000606082015260660190565b7f3c7061746820643d224d343436203330323120632d33202d39202d3132202d3581527f39202d3231202d313131202d3235202d313536202d3133202d313430202d313160208201527f30202d313430206c2d383520302030202d3438382030202d343838202d31313060408201527f202d36323920632d3630202d333437202d313132202d363430202d313135202d60608201527f363531202d34202d32302032202d3233203933202d3339203533202d3920313060808201527f35202d313920313134202d3231203136202d35203138202d3139203138202d3160a08201527f3230206c30202d31313420363634203020363633203020363333202d3131302060c08201527f63343632202d383120363335202d31303820363431202d39392034203620313060e08201527f2033352031342036332033203238203131203732203136203939206c313120346101008201527f37203739203020373920302030203435382030203435382031323020363930206101208201527f63363620333739203132322036393620313233203730342031203131202d32366101408201527f203139202d313138203335206c2d313230203231202d33203932202d332039326101608201527f202d3532332030202d3532322030202d3633352031313120632d3334392036306101808201527f202d36393420313230202d37363620313333202d313230203231202d313333206101a08201527f3232202d31333720377a206d393634202d373733206330202d37202d38202d366101c08201527f33202d3137202d313235206c2d3136202d313132202d333336202d3320632d336101e08201527f3136202d33202d333339202d34202d333831202d3234202d3836202d3339202d6102008201527f313233202d313133202d3938202d313930203131202d3334203232202d3433206102208201527f3738202d3731203430202d323020313435202d353320323730202d38342031326102408201527f34202d333120323334202d363520323830202d3837203838202d3431203137346102608201527f202d31323220323131202d313937203231202d3435203234202d3633203234206102808201527f2d3137302030202d313130202d32202d313235202d3238202d313739202d35376102a08201527f202d313232202d313434202d313936202d323937202d323530206c2d3835202d6102c08201527f3331202d333933202d33202d333933202d3320332031323320332031323320336102e08201527f36352035203336352035203532203237206336392033372039372037372039386103008201527f203134342030203931202d363220313435202d32323020313838202d343920316103208201527f34202d313438203431202d323230203631202d323330203633202d33343420316103408201527f3335202d34303220323534202d3235203531202d3238203636202d32382031366103608201527f36203020313030203320313135203238203136362036382031333920313934206103808201527f3232372033373720323634203931203138203736302032312037363020337a206103a08201527f6d31363230202d313333206c30202d313335202d3230352030202d32303520306103c08201527f2030202d3633302030202d363330202d3136352030202d3136352030203020366103e08201527f3330203020363330202d313635203020632d3133342030202d3136352033202d6104008201527f31363520313420302031322033312031373520343520323334206c35203232206104208201527f35313020302035313020302030202d3133357a206d2d31313937202d373832206104408201527f6c2d33202d353938202d313630202d33202d313630202d3220302035373420306104608201527f20353734203733203132206333392037203130312031382031333720323520336104808201527f362037203736203133203930203134206c32352031202d32202d3539377a222f6104a08201527f3e3c2f673e0000000000000000000000000000000000000000000000000000006104c08201526104c50190565b979650505050505050565b7f3c7465787420783d2231352220793d2238302220636c6173733d226d6564697581527f6d223e4d6f64756c653e2000000000000000000000000000000000000000000060208201526000615883602b8301876149e7565b7f3c2f746578743e000000000000000000000000000000000000000000000000008082527f3c7465787420783d2231352220793d223130302220636c6173733d226d65646960078301527f756d223e5472696d65737465723e200000000000000000000000000000000000602783015261590060368301886149e7565b9081527f3c7465787420783d2231352220793d223132302220636c6173733d226d65646960078201527f756d223e47726164653a3c2f746578743e00000000000000000000000000000060278201527f3c7265637420783d2231352220793d22313235222077696474683d223230352260388201527f206865696768743d22343022207374796c653d2266696c6c3a77686974653b6f60588201527f7061636974793a302e35222f3e0000000000000000000000000000000000000060788201527f3c7465787420783d2231352220793d223134302220636c6173733d226d65646960858201527f756d223e0000000000000000000000000000000000000000000000000000000060a58201529050615820615bbd615afc615a2f615af6615aa7615a588360a989018d6149e7565b7f3c2f746578743e00000000000000000000000000000000000000000000000000815260070190565b7f3c7465787420783d2231352220793d223139302220636c6173733d22736d616c81527f6c223e526563697069656e743a3c2f746578743e000000000000000000000000602082015260340190565b7f3c7465787420783d2231352220793d2232303522207374796c653d22666f6e7481527f2d73697a653a387078223e0000000000000000000000000000000000000000006020820152602b0190565b8861498a565b7f3c7374796c653e2e737667426f6479207b666f6e742d66616d696c793a20224381527f6f7572696572204e657722207d202e74696e79207b666f6e742d73697a653a3660208201527f70783b207d202e736d616c6c207b666f6e742d73697a653a20313270783b7d2e60408201527f6d656469756d207b666f6e742d73697a653a20313870783b7d3c2f7374796c6560608201527f3e00000000000000000000000000000000000000000000000000000000000000608082015260810190565b7f3c2f7376673e000000000000000000000000000000000000000000000000000081526006019056fe4142434445464748494a4b4c4d4e4f505152535455565758595a6162636465666768696a6b6c6d6e6f707172737475767778797a303132333435363738392b2fa264697066735822122036ab637f9056dd55740d2e67990ec0f4a13d60a8664baf0f30660a6f753d3f4564736f6c634300080e0033",
  "immutableReferences": {},
  "source": "// SPDX-License-Identifier: MIT\r\n\r\npragma solidity ^0.8.0;\r\n\r\nimport \"@openzeppelin/contracts/token/ERC721/extensions/ERC721Enumerable.sol\";\r\nimport \"@openzeppelin/contracts/utils/Counters.sol\";\r\n\r\nimport \"./Base64.sol\";\r\nimport \"./RoleControl.sol\";\r\n\r\ncontract SITNFT is ERC721, ERC721Enumerable,RoleControl {\r\n  using Counters for Counters.Counter;\r\n  Counters.Counter private _tokenIdCounter;\r\n  using Strings for uint256;\r\n  // Design Codes\r\n  // 16 palettes\r\n  string[4][16] palette = [\r\n        [\"#eca3f5\", \"#fdbaf9\", \"#b0efeb\", \"#edffa9\"],\r\n        [\"#75cfb8\", \"#bbdfc8\", \"#f0e5d8\", \"#ffc478\"],\r\n        [\"#ffab73\", \"#ffd384\", \"#fff9b0\", \"#ffaec0\"],\r\n        [\"#94b4a4\", \"#d2f5e3\", \"#e5c5b5\", \"#f4d9c6\"],\r\n        [\"#f4f9f9\", \"#ccf2f4\", \"#a4ebf3\", \"#aaaaaa\"],\r\n        [\"#caf7e3\", \"#edffec\", \"#f6dfeb\", \"#e4bad4\"],\r\n        [\"#f4f9f9\", \"#f1d1d0\", \"#fbaccc\", \"#f875aa\"],\r\n        [\"#fdffbc\", \"#ffeebb\", \"#ffdcb8\", \"#ffc1b6\"],\r\n        [\"#f0e4d7\", \"#f5c0c0\", \"#ff7171\", \"#9fd8df\"],\r\n        [\"#e4fbff\", \"#b8b5ff\", \"#7868e6\", \"#edeef7\"],\r\n        [\"#ffcb91\", \"#ffefa1\", \"#94ebcd\", \"#6ddccf\"],\r\n        [\"#bedcfa\", \"#98acf8\", \"#b088f9\", \"#da9ff9\"],\r\n        [\"#bce6eb\", \"#fdcfdf\", \"#fbbedf\", \"#fca3cc\"],\r\n        [\"#ff75a0\", \"#fce38a\", \"#eaffd0\", \"#95e1d3\"],\r\n        [\"#fbe0c4\", \"#8ab6d6\", \"#2978b5\", \"#0061a8\"],\r\n        [\"#dddddd\", \"#f9f3f3\", \"#f7d9d9\", \"#f25287\"]\r\n  ];\r\n \r\n  struct IdAddress {\r\n      string id;\r\n      address addr;\r\n  }\r\n  struct ParamAttribute {\r\n      string moduleCode;\r\n      string testType;\r\n      string grade;\r\n      string trimester;\r\n      string recipient;\r\n  }\r\n\r\n  struct Attribute {\r\n      string moduleCode;\r\n      string testType;\r\n      string grade;\r\n      string trimester;\r\n      address faculty;\r\n      address recipient;\r\n  }\r\n  struct TransferStruct {\r\n        address sender;\r\n        string message;\r\n        uint256 timestamp;\r\n  }\r\n  TransferStruct[] transactions;\r\n\r\n  // Events\r\n  \r\n  event Log(string message);\r\n  event Mint(address indexed sender, uint256 tokenId, string moduleCode);\r\n\r\n\r\n\r\n// Mapping\r\n  mapping(uint256 => Attribute) private _attributes;\r\n  mapping(bytes32 => address) private _studentAddress;\r\n  mapping(address => bytes32) private _getStudentFromAddress;\r\n\r\n  constructor() ERC721(\"SIT NFT\", \"SIT\") RoleControl(msg.sender) {\r\n  }\r\n\r\n    /**\r\n     * @dev Add student address to mapping.\r\n     *\r\n     * Requirements:\r\n     *\r\n     * - The caller must be an admin.\r\n     */\r\n  function addStudentAddress(string memory _id, address _address ) public onlyAdmin {\r\n    bytes32 encryptedId = keccak256(abi.encodePacked(_id));\r\n    _studentAddress[encryptedId] = _address;\r\n    _getStudentFromAddress[_address] = encryptedId;\r\n    // emit IndexedLog(msg.sender,\"addStudentSucceed\");\r\n  }\r\n\r\n    /**\r\n     * @dev Takes in an array of studentAddresses and calls addStudentAddress.\r\n     *\r\n     * Requirements:\r\n     *\r\n     * - The caller must be an admin.\r\n     */\r\n  function multiAddStudentAddress(IdAddress[] calldata _array) external onlyAdmin {\r\n    for(uint i=0; i <_array.length; i++) {\r\n      addStudentAddress(_array[i].id, _array[i].addr);\r\n    }\r\n    // emit IndexedLog(msg.sender,\"multiAddStudentSucceed\");\r\n  }\r\n\r\n\r\n    /**\r\n     * @dev For contract to getStudentAddress\r\n     *\r\n     */\r\n  function _getStudentAddress(string memory _id) private view returns (address){\r\n    bytes32 encryptedId = keccak256(abi.encodePacked(_id));\r\n    require(_studentAddress[encryptedId] != address(0) , \"Student does not exist.\");\r\n    return _studentAddress[encryptedId];\r\n  }\r\n\r\n  /**\r\n  * @dev Check if address is student\r\n  *\r\n   */\r\n   function isStudent(address account) public view returns(bool){\r\n        return _getStudentFromAddress[account] != 0;\r\n   }\r\n\r\n    /**\r\n     * @dev Mint with parameters\r\n     *\r\n     * Requirements:\r\n     *\r\n     * - The caller must be a faculty\r\n     */\r\n\r\n  function mint(string calldata moduleCode, string calldata testType, string calldata grade, string calldata trimester, string calldata recipient) external onlyFaculty {\r\n    Attribute memory newAttribute = Attribute(\r\n      moduleCode,\r\n      testType,\r\n      grade,\r\n      trimester,\r\n      msg.sender,\r\n      _getStudentAddress(recipient)\r\n    );\r\n    _tokenIdCounter.increment();\r\n    uint256 tokenId = _tokenIdCounter.current();\r\n    _attributes[tokenId] = newAttribute;\r\n    _safeMint(newAttribute.recipient,tokenId);\r\n    emit Mint(msg.sender, tokenId, moduleCode);\r\n  }\r\n\r\n      /**\r\n    * Batch mint tokens\r\n    */\r\n    function batchMint(ParamAttribute[] calldata _array) external onlyFaculty{\r\n        uint numberOfTokens = _array.length;\r\n        require(numberOfTokens <= 10, \"Can only mint 10 tokens at a time\");\r\n        for(uint i = 0; i < numberOfTokens; i++) {\r\n            Attribute memory newAttribute = Attribute(\r\n                _array[i].moduleCode,\r\n                _array[i].testType,\r\n                _array[i].grade,\r\n                _array[i].trimester,\r\n                msg.sender,\r\n                _getStudentAddress(_array[i].recipient)\r\n            );\r\n            _tokenIdCounter.increment();\r\n            uint256 tokenId = _tokenIdCounter.current();\r\n            _attributes[tokenId] = newAttribute;\r\n            _safeMint(newAttribute.recipient,tokenId);\r\n            emit Mint(msg.sender, tokenId, newAttribute.moduleCode);\r\n        }\r\n        // emit IndexedLog(msg.sender,\"BatchMintComplete\");\r\n    }\r\n\r\n  function addToBlockchain( string memory message) public {\r\n    transactions.push(TransferStruct(msg.sender, message, block.timestamp));\r\n    // emit Transfer(msg.sender, receiver, amount, message, block.timestamp, keyword);\r\n  }\r\n  function getAllTransactions() public view returns (TransferStruct[] memory) {\r\n    return transactions;\r\n  }\r\n  function setMetadata(uint256 _tokenId, string memory grade) public onlyFaculty returns (string memory) {\r\n        // attributes[_tokenId].testType = \"EditedTest\";\r\n        _attributes[_tokenId].grade = grade;\r\n        return \"success\";\r\n  }\r\n\r\n    function generatePaletteSection(uint256 _tokenId, uint256 pIndex) private view returns (string memory) {\r\n        return string(abi.encodePacked(\r\n                '<rect width=\"300\" height=\"300\" rx=\"10\" style=\"fill:',palette[pIndex][0],'\" />',\r\n                '<rect y=\"60\" width=\"300\" height=\"115\" style=\"fill:',palette[pIndex][1],'\"/>',\r\n                '<rect y=\"175\" width=\"300\" height=\"40\" style=\"fill:',palette[pIndex][2],'\" />', \r\n                '<text x=\"15\" y=\"25\" class=\"medium\">',_attributes[_tokenId].testType,' Certificate</text>',\r\n                // '<text x=\"17\" y=\"50\" class=\"small\" opacity=\"0.5\">',substring(toString(_tokenId),0,24),'</text>',\r\n                '<g transform=\"translate(260.000000,40.000000) scale(0.010000,-0.010000)\" fill=\"#000000\" stroke=\"none\">',\r\n                '<path d=\"M446 3021 c-3 -9 -12 -59 -21 -111 -25 -156 -13 -140 -110 -140 l-85 0 0 -488 0 -488 -110 -629 c-60 -347 -112 -640 -115 -651 -4 -20 2 -23 93 -39 53 -9 105 -19 114 -21 16 -5 18 -19 18 -120 l0 -114 664 0 663 0 633 -110 c462 -81 635 -108 641 -99 4 6 10 35 14 63 3 28 11 72 16 99 l11 47 79 0 79 0 0 458 0 458 120 690 c66 379 122 696 123 704 1 11 -26 19 -118 35 l-120 21 -3 92 -3 92 -523 0 -522 0 -635 111 c-349 60 -694 120 -766 133 -120 21 -133 22 -137 7z m964 -773 c0 -7 -8 -63 -17 -125 l-16 -112 -336 -3 c-316 -3 -339 -4 -381 -24 -86 -39 -123 -113 -98 -190 11 -34 22 -43 78 -71 40 -20 145 -53 270 -84 124 -31 234 -65 280 -87 88 -41 174 -122 211 -197 21 -45 24 -63 24 -170 0 -110 -2 -125 -28 -179 -57 -122 -144 -196 -297 -250 l-85 -31 -393 -3 -393 -3 3 123 3 123 365 5 365 5 52 27 c69 37 97 77 98 144 0 91 -62 145 -220 188 -49 14 -148 41 -220 61 -230 63 -344 135 -402 254 -25 51 -28 66 -28 166 0 100 3 115 28 166 68 139 194 227 377 264 91 18 760 21 760 3z m1620 -133 l0 -135 -205 0 -205 0 0 -630 0 -630 -165 0 -165 0 0 630 0 630 -165 0 c-134 0 -165 3 -165 14 0 12 31 175 45 234 l5 22 510 0 510 0 0 -135z m-1197 -782 l-3 -598 -160 -3 -160 -2 0 574 0 574 73 12 c39 7 101 18 137 25 36 7 76 13 90 14 l25 1 -2 -597z\"/></g>'\r\n                \r\n            )\r\n        );\r\n    }  \r\n\r\n  function generateBase64Image(uint256 _tokenId) private view returns (string memory) {\r\n        return Base64.encode(bytes(generateImage(_tokenId)));\r\n  }\r\n  \r\n  function generateImage(uint256 _tokenId) private view returns (string memory) {\r\n        // bytes memory hash = abi.encodePacked(bytes32(_tokenId));\r\n        uint256 random = uint(keccak256(abi.encodePacked(block.timestamp, msg.sender)));\r\n        bytes memory hash = abi.encodePacked(bytes32(random));\r\n        uint256 pIndex = toUint8(hash,0)/16; // 16 palettes\r\n        \r\n        /* this is broken into functions to avoid stack too deep errors */\r\n        string memory paletteSection = generatePaletteSection(_tokenId, pIndex);\r\n        string memory svgSection = buildImageSvg(_tokenId);\r\n        return string(\r\n            abi.encodePacked(\r\n                '<svg class=\"svgBody\" width=\"300\" height=\"300\" viewBox=\"0 0 300 300\" xmlns=\"http://www.w3.org/2000/svg\">',\r\n                paletteSection,\r\n                svgSection\r\n            )\r\n        );\r\n    }\r\n    function buildImageSvg(uint256 _tokenId) private view returns (string memory) {\r\n        return string(\r\n            abi.encodePacked(\r\n                '<text x=\"15\" y=\"80\" class=\"medium\">Module> ',_attributes[_tokenId].moduleCode,'</text>',\r\n                '<text x=\"15\" y=\"100\" class=\"medium\">Trimester> ',_attributes[_tokenId].trimester,'</text>',\r\n                '<text x=\"15\" y=\"120\" class=\"medium\">Grade:</text>',\r\n                '<rect x=\"15\" y=\"125\" width=\"205\" height=\"40\" style=\"fill:white;opacity:0.5\"/>',\r\n                '<text x=\"15\" y=\"140\" class=\"medium\">',_attributes[_tokenId].grade,'</text>',\r\n                '<text x=\"15\" y=\"190\" class=\"small\">Recipient:</text>',\r\n                '<text x=\"15\" y=\"205\" style=\"font-size:8px\">',toHexString(uint160(_attributes[_tokenId].recipient), 20),'</text>',\r\n                '<style>.svgBody {font-family: \"Courier New\" } .tiny {font-size:6px; } .small {font-size: 12px;}.medium {font-size: 18px;}</style>',\r\n                '</svg>'\r\n            )\r\n        );\r\n    }\r\n\r\n    function buildMetadata(uint256 _tokenId) private view returns(string memory) {\r\n        string memory image = generateBase64Image(_tokenId);\r\n        string memory json = Base64.encode(\r\n            bytes(string(\r\n                abi.encodePacked(\r\n                    '{\"name\": \"', _attributes[_tokenId].moduleCode,' Certificate ',toString(_tokenId),'\",',\r\n                    '\"image\": \"', \r\n                    'data:image/svg+xml;base64,',\r\n                    image,'\",',\r\n                    '\"attributes\": [{\"trait_type\": \"ModuleCode\", \"value\": \"', _attributes[_tokenId].moduleCode, '\"},',\r\n                    '{\"trait_type\": \"Type\", \"value\": \"', _attributes[_tokenId].testType, '\"},',\r\n                    '{\"trait_type\": \"Trimester\", \"value\": \"', _attributes[_tokenId].trimester, '\"}',\r\n                    ']}'\r\n                )\r\n            ))\r\n        );\r\n        return string(abi.encodePacked('data:application/json;base64,', json));\r\n    }\r\n\r\n  \r\n\r\n    function tokenURI(uint256 _tokenId) public view virtual override returns (string memory) {\r\n        require(_exists(_tokenId), \"ERC721Metadata: URI query for nonexistent token\");\r\n        return buildMetadata(_tokenId);\r\n    }\r\n\r\n    function attributes(uint256 _tokenId) external view virtual returns (string memory, string memory, string memory, string memory, address ,address) {\r\n        require(_exists(_tokenId), \"ERC721Metadata: attribute query for nonexistent token\");\r\n        return (_attributes[_tokenId].moduleCode,_attributes[_tokenId].testType,_attributes[_tokenId].grade,_attributes[_tokenId].trimester,_attributes[_tokenId].faculty,_attributes[_tokenId].recipient);\r\n    }\r\n\r\n      function _beforeTokenTransfer(address from, address to, uint256 _tokenId)\r\n        internal\r\n        override(ERC721, ERC721Enumerable)\r\n    {\r\n        super._beforeTokenTransfer(from, to, _tokenId);\r\n\r\n        Attribute memory currentAttribute = _attributes[_tokenId];\r\n        \r\n        require(to == currentAttribute.recipient || to == getOwner() || to == address(0), \"Target is not the recipient.\");\r\n    }\r\n\r\n    function supportsInterface(bytes4 interfaceId)\r\n        public\r\n        view\r\n        override(ERC721,ERC721Enumerable, AccessControlEnumerable)\r\n        returns (bool)\r\n    {\r\n        return super.supportsInterface(interfaceId);\r\n    }\r\n\r\n    bytes16 private constant _ALPHABET = \"0123456789abcdef\";\r\n\r\n    /**\r\n     * @dev Converts a `uint256` to its ASCII `string` hexadecimal representation with fixed length.\r\n     */\r\n    function toHexString(uint256 value, uint256 length) internal pure returns (string memory) {\r\n        bytes memory buffer = new bytes(2 * length + 2);\r\n        buffer[0] = \"0\";\r\n        buffer[1] = \"x\";\r\n        for (uint256 i = 2 * length + 1; i > 1; --i) {\r\n            buffer[i] = _ALPHABET[value & 0xf];\r\n            value >>= 4;\r\n        }\r\n        require(value == 0, \"HEX_L\");\r\n        return string(buffer);\r\n    }\r\n\r\n    function toUint8(bytes memory _bytes, uint256 _start) internal pure returns (uint8) {\r\n        require(_start + 1 >= _start, \"toUint8_overflow\");\r\n        require(_bytes.length >= _start + 1 , \"toUint8_outOfBounds\");\r\n        uint8 tempUint;\r\n\r\n        assembly {\r\n            tempUint := mload(add(add(_bytes, 0x1), _start))\r\n        }\r\n        return tempUint;\r\n    }    \r\n    function toString(uint256 value) internal pure returns (string memory) {\r\n\r\n        if (value == 0) {\r\n            return \"0\";\r\n        }\r\n        uint256 temp = value;\r\n        uint256 digits;\r\n        while (temp != 0) {\r\n            digits++;\r\n            temp /= 10;\r\n        }\r\n        bytes memory buffer = new bytes(digits);\r\n        while (value != 0) {\r\n            digits -= 1;\r\n            buffer[digits] = bytes1(uint8(48 + uint256(value % 10)));\r\n            value /= 10;\r\n        }\r\n        return string(buffer);\r\n    }\r\n\r\n    /**\r\n     * @dev Burns `tokenId`. See {ERC721-_burn}.\r\n     *\r\n     * Requirements:\r\n     *\r\n     * - The caller must own `tokenId` or be an approved operator.\r\n     */\r\n    function burn(uint256 tokenId) external onlyFaculty {\r\n        //solhint-disable-next-line max-line-length\r\n        require(_isApprovedOrOwner(_msgSender(), tokenId), \"ERC721Burnable: caller is not owner nor approved\");\r\n        require(msg.sender == _attributes[tokenId].faculty, \"Only faculty who minted this token can burn it.\");\r\n        Attribute memory burnAttribute = Attribute(\r\n        \"\",\r\n        \"\",\r\n        \"\",\r\n        \"\",\r\n        address(0),\r\n        address(0)\r\n        );\r\n        _attributes[tokenId] =  burnAttribute;\r\n        _burn(tokenId);\r\n    }\r\n\r\n    /**\r\n     * @dev Override inherited approve. Allow only faculty to burn token. \r\n     *\r\n     * Requirements:\r\n     *\r\n     * - to: must be a faculty address\r\n     */\r\n    function approve(address to, uint256 tokenId) public virtual override(ERC721,IERC721) {\r\n        require(isFaculty(to) ,\"Only faculty can be approved to burn tokens.\");\r\n        require(to == _attributes[tokenId].faculty, \"Only faculty who minted this token can be approved.\");\r\n        address tokenOwner = ERC721.ownerOf(tokenId);\r\n        require(to != tokenOwner, \"ERC721: approval to current owner\");\r\n        require(\r\n            _msgSender() == tokenOwner || isApprovedForAll(tokenOwner, _msgSender()),\r\n            \"ERC721: approve caller is not owner nor approved for all\"\r\n        );\r\n        _approve(to, tokenId);\r\n    }\r\n\r\n}",
  "sourcePath": "C:\\Users\\ngjun\\Downloads\\Blockchain-Trusted-Model\\contracts\\SITNFT.sol",
  "compiler": {
    "name": "solc",
    "version": "0.8.14+commit.80d49f37.Emscripten.clang"
  },
  "schemaVersion": "3.4.8",
  "updatedAt": "2022-07-18T06:57:00.037Z",
  "networkType": "ethereum",
  "devdoc": {
    "kind": "dev",
    "methods": {
      "addStudentAddress(string,address)": {
        "details": "Add student address to mapping. Requirements: - The caller must be an admin."
      },
      "approve(address,uint256)": {
        "details": "Override inherited approve. Allow only faculty to burn token.  Requirements: - to: must be a faculty address"
      },
      "balanceOf(address)": {
        "details": "See {IERC721-balanceOf}."
      },
      "burn(uint256)": {
        "details": "Burns `tokenId`. See {ERC721-_burn}. Requirements: - The caller must own `tokenId` or be an approved operator."
      },
      "getApproved(uint256)": {
        "details": "See {IERC721-getApproved}."
      },
      "getRoleAdmin(bytes32)": {
        "details": "Returns the admin role that controls `role`. See {grantRole} and {revokeRole}. To change a role's admin, use {_setRoleAdmin}."
      },
      "getRoleMember(bytes32,uint256)": {
        "details": "Returns one of the accounts that have `role`. `index` must be a value between 0 and {getRoleMemberCount}, non-inclusive. Role bearers are not sorted in any particular way, and their ordering may change at any point. WARNING: When using {getRoleMember} and {getRoleMemberCount}, make sure you perform all queries on the same block. See the following https://forum.openzeppelin.com/t/iterating-over-elements-on-enumerableset-in-openzeppelin-contracts/2296[forum post] for more information."
      },
      "getRoleMemberCount(bytes32)": {
        "details": "Returns the number of accounts that have `role`. Can be used together with {getRoleMember} to enumerate all bearers of a role."
      },
      "grantRole(bytes32,address)": {
        "details": "Grants `role` to `account`. If `account` had not been already granted `role`, emits a {RoleGranted} event. Requirements: - the caller must have ``role``'s admin role. May emit a {RoleGranted} event."
      },
      "hasRole(bytes32,address)": {
        "details": "Returns `true` if `account` has been granted `role`."
      },
      "isApprovedForAll(address,address)": {
        "details": "See {IERC721-isApprovedForAll}."
      },
      "isStudent(address)": {
        "details": "Check if address is student"
      },
      "mint(string,string,string,string,string)": {
        "details": "Mint with parameters Requirements: - The caller must be a faculty"
      },
      "multiAddStudentAddress((string,address)[])": {
        "details": "Takes in an array of studentAddresses and calls addStudentAddress. Requirements: - The caller must be an admin."
      },
      "name()": {
        "details": "See {IERC721Metadata-name}."
      },
      "ownerOf(uint256)": {
        "details": "See {IERC721-ownerOf}."
      },
      "renounceRole(bytes32,address)": {
        "details": "Revokes `role` from the calling account. Roles are often managed via {grantRole} and {revokeRole}: this function's purpose is to provide a mechanism for accounts to lose their privileges if they are compromised (such as when a trusted device is misplaced). If the calling account had been revoked `role`, emits a {RoleRevoked} event. Requirements: - the caller must be `account`. May emit a {RoleRevoked} event."
      },
      "revokeRole(bytes32,address)": {
        "details": "Revokes `role` from `account`. If `account` had been granted `role`, emits a {RoleRevoked} event. Requirements: - the caller must have ``role``'s admin role. May emit a {RoleRevoked} event."
      },
      "safeTransferFrom(address,address,uint256)": {
        "details": "See {IERC721-safeTransferFrom}."
      },
      "safeTransferFrom(address,address,uint256,bytes)": {
        "details": "See {IERC721-safeTransferFrom}."
      },
      "setApprovalForAll(address,bool)": {
        "details": "See {IERC721-setApprovalForAll}."
      },
      "symbol()": {
        "details": "See {IERC721Metadata-symbol}."
      },
      "tokenByIndex(uint256)": {
        "details": "See {IERC721Enumerable-tokenByIndex}."
      },
      "tokenOfOwnerByIndex(address,uint256)": {
        "details": "See {IERC721Enumerable-tokenOfOwnerByIndex}."
      },
      "totalSupply()": {
        "details": "See {IERC721Enumerable-totalSupply}."
      },
      "transferFrom(address,address,uint256)": {
        "details": "See {IERC721-transferFrom}."
      }
    },
    "version": 1
  },
  "userdoc": {
    "kind": "user",
    "methods": {
      "batchMint((string,string,string,string,string)[])": {
        "notice": "Batch mint tokens"
      }
    },
    "version": 1
  }
}