{
  "contractName": "SITNFT",
  "abi": [
    {
      "inputs": [],
      "stateMutability": "nonpayable",
      "type": "constructor"
    },
    {
      "anonymous": false,
      "inputs": [
        {
          "indexed": true,
          "internalType": "address",
          "name": "owner",
          "type": "address"
        },
        {
          "indexed": true,
          "internalType": "address",
          "name": "approved",
          "type": "address"
        },
        {
          "indexed": true,
          "internalType": "uint256",
          "name": "tokenId",
          "type": "uint256"
        }
      ],
      "name": "Approval",
      "type": "event"
    },
    {
      "anonymous": false,
      "inputs": [
        {
          "indexed": true,
          "internalType": "address",
          "name": "owner",
          "type": "address"
        },
        {
          "indexed": true,
          "internalType": "address",
          "name": "operator",
          "type": "address"
        },
        {
          "indexed": false,
          "internalType": "bool",
          "name": "approved",
          "type": "bool"
        }
      ],
      "name": "ApprovalForAll",
      "type": "event"
    },
    {
      "anonymous": false,
      "inputs": [
        {
          "indexed": true,
          "internalType": "address",
          "name": "sender",
          "type": "address"
        },
        {
          "indexed": false,
          "internalType": "string",
          "name": "message",
          "type": "string"
        }
      ],
      "name": "IndexedLog",
      "type": "event"
    },
    {
      "anonymous": false,
      "inputs": [
        {
          "indexed": false,
          "internalType": "string",
          "name": "message",
          "type": "string"
        }
      ],
      "name": "Log",
      "type": "event"
    },
    {
      "anonymous": false,
      "inputs": [
        {
          "indexed": true,
          "internalType": "address",
          "name": "sender",
          "type": "address"
        },
        {
          "indexed": false,
          "internalType": "uint256",
          "name": "tokenId",
          "type": "uint256"
        },
        {
          "indexed": false,
          "internalType": "string",
          "name": "moduleCode",
          "type": "string"
        }
      ],
      "name": "Mint",
      "type": "event"
    },
    {
      "anonymous": false,
      "inputs": [
        {
          "indexed": true,
          "internalType": "address",
          "name": "sender",
          "type": "address"
        },
        {
          "indexed": false,
          "internalType": "uint256",
          "name": "tokenId",
          "type": "uint256"
        },
        {
          "indexed": false,
          "internalType": "string",
          "name": "message",
          "type": "string"
        }
      ],
      "name": "RemodRequest",
      "type": "event"
    },
    {
      "anonymous": false,
      "inputs": [
        {
          "indexed": true,
          "internalType": "bytes32",
          "name": "role",
          "type": "bytes32"
        },
        {
          "indexed": true,
          "internalType": "bytes32",
          "name": "previousAdminRole",
          "type": "bytes32"
        },
        {
          "indexed": true,
          "internalType": "bytes32",
          "name": "newAdminRole",
          "type": "bytes32"
        }
      ],
      "name": "RoleAdminChanged",
      "type": "event"
    },
    {
      "anonymous": false,
      "inputs": [
        {
          "indexed": true,
          "internalType": "bytes32",
          "name": "role",
          "type": "bytes32"
        },
        {
          "indexed": true,
          "internalType": "address",
          "name": "account",
          "type": "address"
        },
        {
          "indexed": true,
          "internalType": "address",
          "name": "sender",
          "type": "address"
        }
      ],
      "name": "RoleGranted",
      "type": "event"
    },
    {
      "anonymous": false,
      "inputs": [
        {
          "indexed": true,
          "internalType": "bytes32",
          "name": "role",
          "type": "bytes32"
        },
        {
          "indexed": true,
          "internalType": "address",
          "name": "account",
          "type": "address"
        },
        {
          "indexed": true,
          "internalType": "address",
          "name": "sender",
          "type": "address"
        }
      ],
      "name": "RoleRevoked",
      "type": "event"
    },
    {
      "anonymous": false,
      "inputs": [
        {
          "indexed": true,
          "internalType": "address",
          "name": "from",
          "type": "address"
        },
        {
          "indexed": true,
          "internalType": "address",
          "name": "to",
          "type": "address"
        },
        {
          "indexed": true,
          "internalType": "uint256",
          "name": "tokenId",
          "type": "uint256"
        }
      ],
      "name": "Transfer",
      "type": "event"
    },
    {
      "inputs": [],
      "name": "DEFAULT_ADMIN_ROLE",
      "outputs": [
        {
          "internalType": "bytes32",
          "name": "",
          "type": "bytes32"
        }
      ],
      "stateMutability": "view",
      "type": "function"
    },
    {
      "inputs": [],
      "name": "FACULTY_ROLE",
      "outputs": [
        {
          "internalType": "bytes32",
          "name": "",
          "type": "bytes32"
        }
      ],
      "stateMutability": "view",
      "type": "function"
    },
    {
      "inputs": [
        {
          "internalType": "address",
          "name": "account",
          "type": "address"
        }
      ],
      "name": "addAdmin",
      "outputs": [],
      "stateMutability": "nonpayable",
      "type": "function"
    },
    {
      "inputs": [
        {
          "internalType": "address",
          "name": "account",
          "type": "address"
        }
      ],
      "name": "addFaculty",
      "outputs": [],
      "stateMutability": "nonpayable",
      "type": "function"
    },
    {
      "inputs": [
        {
          "internalType": "string",
          "name": "_id",
          "type": "string"
        },
        {
          "internalType": "address",
          "name": "_address",
          "type": "address"
        }
      ],
      "name": "addStudentAddress",
      "outputs": [],
      "stateMutability": "nonpayable",
      "type": "function"
    },
    {
      "inputs": [
        {
          "internalType": "address",
          "name": "to",
          "type": "address"
        },
        {
          "internalType": "uint256",
          "name": "tokenId",
          "type": "uint256"
        }
      ],
      "name": "approve",
      "outputs": [],
      "stateMutability": "nonpayable",
      "type": "function"
    },
    {
      "inputs": [
        {
          "internalType": "address",
          "name": "owner",
          "type": "address"
        }
      ],
      "name": "balanceOf",
      "outputs": [
        {
          "internalType": "uint256",
          "name": "",
          "type": "uint256"
        }
      ],
      "stateMutability": "view",
      "type": "function"
    },
    {
      "inputs": [
        {
          "internalType": "uint256",
          "name": "tokenId",
          "type": "uint256"
        }
      ],
      "name": "getApproved",
      "outputs": [
        {
          "internalType": "address",
          "name": "",
          "type": "address"
        }
      ],
      "stateMutability": "view",
      "type": "function"
    },
    {
      "inputs": [],
      "name": "getOwner",
      "outputs": [
        {
          "internalType": "address",
          "name": "",
          "type": "address"
        }
      ],
      "stateMutability": "view",
      "type": "function"
    },
    {
      "inputs": [
        {
          "internalType": "bytes32",
          "name": "role",
          "type": "bytes32"
        }
      ],
      "name": "getRoleAdmin",
      "outputs": [
        {
          "internalType": "bytes32",
          "name": "",
          "type": "bytes32"
        }
      ],
      "stateMutability": "view",
      "type": "function"
    },
    {
      "inputs": [
        {
          "internalType": "bytes32",
          "name": "role",
          "type": "bytes32"
        },
        {
          "internalType": "uint256",
          "name": "index",
          "type": "uint256"
        }
      ],
      "name": "getRoleMember",
      "outputs": [
        {
          "internalType": "address",
          "name": "",
          "type": "address"
        }
      ],
      "stateMutability": "view",
      "type": "function"
    },
    {
      "inputs": [
        {
          "internalType": "bytes32",
          "name": "role",
          "type": "bytes32"
        }
      ],
      "name": "getRoleMemberCount",
      "outputs": [
        {
          "internalType": "uint256",
          "name": "",
          "type": "uint256"
        }
      ],
      "stateMutability": "view",
      "type": "function"
    },
    {
      "inputs": [
        {
          "internalType": "bytes32",
          "name": "role",
          "type": "bytes32"
        },
        {
          "internalType": "address",
          "name": "account",
          "type": "address"
        }
      ],
      "name": "grantRole",
      "outputs": [],
      "stateMutability": "nonpayable",
      "type": "function"
    },
    {
      "inputs": [
        {
          "internalType": "bytes32",
          "name": "role",
          "type": "bytes32"
        },
        {
          "internalType": "address",
          "name": "account",
          "type": "address"
        }
      ],
      "name": "hasRole",
      "outputs": [
        {
          "internalType": "bool",
          "name": "",
          "type": "bool"
        }
      ],
      "stateMutability": "view",
      "type": "function"
    },
    {
      "inputs": [
        {
          "internalType": "address",
          "name": "account",
          "type": "address"
        }
      ],
      "name": "isAdmin",
      "outputs": [
        {
          "internalType": "bool",
          "name": "",
          "type": "bool"
        }
      ],
      "stateMutability": "view",
      "type": "function"
    },
    {
      "inputs": [
        {
          "internalType": "address",
          "name": "owner",
          "type": "address"
        },
        {
          "internalType": "address",
          "name": "operator",
          "type": "address"
        }
      ],
      "name": "isApprovedForAll",
      "outputs": [
        {
          "internalType": "bool",
          "name": "",
          "type": "bool"
        }
      ],
      "stateMutability": "view",
      "type": "function"
    },
    {
      "inputs": [
        {
          "internalType": "address",
          "name": "account",
          "type": "address"
        }
      ],
      "name": "isFaculty",
      "outputs": [
        {
          "internalType": "bool",
          "name": "",
          "type": "bool"
        }
      ],
      "stateMutability": "view",
      "type": "function"
    },
    {
      "inputs": [
        {
          "internalType": "address",
          "name": "account",
          "type": "address"
        }
      ],
      "name": "isStudent",
      "outputs": [
        {
          "internalType": "bool",
          "name": "",
          "type": "bool"
        }
      ],
      "stateMutability": "view",
      "type": "function"
    },
    {
      "inputs": [
        {
          "internalType": "address[]",
          "name": "_array",
          "type": "address[]"
        }
      ],
      "name": "multiAddFaculty",
      "outputs": [],
      "stateMutability": "nonpayable",
      "type": "function"
    },
    {
      "inputs": [
        {
          "components": [
            {
              "internalType": "string",
              "name": "id",
              "type": "string"
            },
            {
              "internalType": "address",
              "name": "addr",
              "type": "address"
            }
          ],
          "internalType": "struct RoleControl.IdAddress[]",
          "name": "_array",
          "type": "tuple[]"
        }
      ],
      "name": "multiAddStudentAddress",
      "outputs": [],
      "stateMutability": "nonpayable",
      "type": "function"
    },
    {
      "inputs": [],
      "name": "name",
      "outputs": [
        {
          "internalType": "string",
          "name": "",
          "type": "string"
        }
      ],
      "stateMutability": "view",
      "type": "function"
    },
    {
      "inputs": [
        {
          "internalType": "uint256",
          "name": "tokenId",
          "type": "uint256"
        }
      ],
      "name": "ownerOf",
      "outputs": [
        {
          "internalType": "address",
          "name": "",
          "type": "address"
        }
      ],
      "stateMutability": "view",
      "type": "function"
    },
    {
      "inputs": [
        {
          "internalType": "address",
          "name": "account",
          "type": "address"
        }
      ],
      "name": "removeAdmin",
      "outputs": [],
      "stateMutability": "nonpayable",
      "type": "function"
    },
    {
      "inputs": [
        {
          "internalType": "address",
          "name": "account",
          "type": "address"
        }
      ],
      "name": "removeFaculty",
      "outputs": [],
      "stateMutability": "nonpayable",
      "type": "function"
    },
    {
      "inputs": [
        {
          "internalType": "bytes32",
          "name": "role",
          "type": "bytes32"
        },
        {
          "internalType": "address",
          "name": "account",
          "type": "address"
        }
      ],
      "name": "renounceRole",
      "outputs": [],
      "stateMutability": "nonpayable",
      "type": "function"
    },
    {
      "inputs": [
        {
          "internalType": "bytes32",
          "name": "role",
          "type": "bytes32"
        },
        {
          "internalType": "address",
          "name": "account",
          "type": "address"
        }
      ],
      "name": "revokeRole",
      "outputs": [],
      "stateMutability": "nonpayable",
      "type": "function"
    },
    {
      "inputs": [
        {
          "internalType": "address",
          "name": "from",
          "type": "address"
        },
        {
          "internalType": "address",
          "name": "to",
          "type": "address"
        },
        {
          "internalType": "uint256",
          "name": "tokenId",
          "type": "uint256"
        }
      ],
      "name": "safeTransferFrom",
      "outputs": [],
      "stateMutability": "nonpayable",
      "type": "function"
    },
    {
      "inputs": [
        {
          "internalType": "address",
          "name": "from",
          "type": "address"
        },
        {
          "internalType": "address",
          "name": "to",
          "type": "address"
        },
        {
          "internalType": "uint256",
          "name": "tokenId",
          "type": "uint256"
        },
        {
          "internalType": "bytes",
          "name": "data",
          "type": "bytes"
        }
      ],
      "name": "safeTransferFrom",
      "outputs": [],
      "stateMutability": "nonpayable",
      "type": "function"
    },
    {
      "inputs": [
        {
          "internalType": "address",
          "name": "operator",
          "type": "address"
        },
        {
          "internalType": "bool",
          "name": "approved",
          "type": "bool"
        }
      ],
      "name": "setApprovalForAll",
      "outputs": [],
      "stateMutability": "nonpayable",
      "type": "function"
    },
    {
      "inputs": [],
      "name": "symbol",
      "outputs": [
        {
          "internalType": "string",
          "name": "",
          "type": "string"
        }
      ],
      "stateMutability": "view",
      "type": "function"
    },
    {
      "inputs": [
        {
          "internalType": "uint256",
          "name": "index",
          "type": "uint256"
        }
      ],
      "name": "tokenByIndex",
      "outputs": [
        {
          "internalType": "uint256",
          "name": "",
          "type": "uint256"
        }
      ],
      "stateMutability": "view",
      "type": "function"
    },
    {
      "inputs": [
        {
          "internalType": "address",
          "name": "owner",
          "type": "address"
        },
        {
          "internalType": "uint256",
          "name": "index",
          "type": "uint256"
        }
      ],
      "name": "tokenOfOwnerByIndex",
      "outputs": [
        {
          "internalType": "uint256",
          "name": "",
          "type": "uint256"
        }
      ],
      "stateMutability": "view",
      "type": "function"
    },
    {
      "inputs": [],
      "name": "totalSupply",
      "outputs": [
        {
          "internalType": "uint256",
          "name": "",
          "type": "uint256"
        }
      ],
      "stateMutability": "view",
      "type": "function"
    },
    {
      "inputs": [
        {
          "internalType": "address",
          "name": "from",
          "type": "address"
        },
        {
          "internalType": "address",
          "name": "to",
          "type": "address"
        },
        {
          "internalType": "uint256",
          "name": "tokenId",
          "type": "uint256"
        }
      ],
      "name": "transferFrom",
      "outputs": [],
      "stateMutability": "nonpayable",
      "type": "function"
    },
    {
      "inputs": [
        {
          "internalType": "string",
          "name": "moduleCode",
          "type": "string"
        },
        {
          "internalType": "string",
          "name": "testType",
          "type": "string"
        },
        {
          "internalType": "string",
          "name": "grade",
          "type": "string"
        },
        {
          "internalType": "string",
          "name": "trimester",
          "type": "string"
        },
        {
          "internalType": "string",
          "name": "recipient",
          "type": "string"
        }
      ],
      "name": "mint",
      "outputs": [],
      "stateMutability": "nonpayable",
      "type": "function"
    },
    {
      "inputs": [
        {
          "components": [
            {
              "internalType": "string",
              "name": "moduleCode",
              "type": "string"
            },
            {
              "internalType": "string",
              "name": "testType",
              "type": "string"
            },
            {
              "internalType": "string",
              "name": "grade",
              "type": "string"
            },
            {
              "internalType": "string",
              "name": "trimester",
              "type": "string"
            },
            {
              "internalType": "string",
              "name": "recipient",
              "type": "string"
            }
          ],
          "internalType": "struct SITNFT.ParamAttribute[]",
          "name": "_array",
          "type": "tuple[]"
        }
      ],
      "name": "batchMint",
      "outputs": [],
      "stateMutability": "nonpayable",
      "type": "function"
    },
    {
      "inputs": [
        {
          "internalType": "string",
          "name": "message",
          "type": "string"
        },
        {
          "internalType": "string",
          "name": "tokenName",
          "type": "string"
        },
        {
          "internalType": "uint256",
          "name": "tokenId",
          "type": "uint256"
        },
        {
          "internalType": "address",
          "name": "faculty",
          "type": "address"
        }
      ],
      "name": "addToBlockchain",
      "outputs": [],
      "stateMutability": "nonpayable",
      "type": "function"
    },
    {
      "inputs": [
        {
          "internalType": "address",
          "name": "faculty",
          "type": "address"
        }
      ],
      "name": "getAllTransactions",
      "outputs": [
        {
          "components": [
            {
              "internalType": "address",
              "name": "sender",
              "type": "address"
            },
            {
              "internalType": "string",
              "name": "message",
              "type": "string"
            },
            {
              "internalType": "string",
              "name": "tokenName",
              "type": "string"
            },
            {
              "internalType": "uint256",
              "name": "tokenId",
              "type": "uint256"
            },
            {
              "internalType": "address",
              "name": "faculty",
              "type": "address"
            },
            {
              "internalType": "uint256",
              "name": "timestamp",
              "type": "uint256"
            },
            {
              "internalType": "bool",
              "name": "reviewed",
              "type": "bool"
            }
          ],
          "internalType": "struct SITNFT.TransferStruct[]",
          "name": "",
          "type": "tuple[]"
        }
      ],
      "stateMutability": "view",
      "type": "function"
    },
    {
      "inputs": [
        {
          "internalType": "uint256",
          "name": "_tokenId",
          "type": "uint256"
        },
        {
          "internalType": "string",
          "name": "grade",
          "type": "string"
        },
        {
          "internalType": "uint256",
          "name": "position",
          "type": "uint256"
        }
      ],
      "name": "setMetadata",
      "outputs": [],
      "stateMutability": "nonpayable",
      "type": "function"
    },
    {
      "inputs": [
        {
          "internalType": "uint256",
          "name": "_tokenId",
          "type": "uint256"
        }
      ],
      "name": "tokenURI",
      "outputs": [
        {
          "internalType": "string",
          "name": "",
          "type": "string"
        }
      ],
      "stateMutability": "view",
      "type": "function"
    },
    {
      "inputs": [
        {
          "internalType": "uint256",
          "name": "_tokenId",
          "type": "uint256"
        }
      ],
      "name": "attributes",
      "outputs": [
        {
          "internalType": "string",
          "name": "",
          "type": "string"
        },
        {
          "internalType": "string",
          "name": "",
          "type": "string"
        },
        {
          "internalType": "string",
          "name": "",
          "type": "string"
        },
        {
          "internalType": "string",
          "name": "",
          "type": "string"
        },
        {
          "internalType": "address",
          "name": "",
          "type": "address"
        },
        {
          "internalType": "address",
          "name": "",
          "type": "address"
        }
      ],
      "stateMutability": "view",
      "type": "function"
    },
    {
      "inputs": [
        {
          "internalType": "bytes4",
          "name": "interfaceId",
          "type": "bytes4"
        }
      ],
      "name": "supportsInterface",
      "outputs": [
        {
          "internalType": "bool",
          "name": "",
          "type": "bool"
        }
      ],
      "stateMutability": "view",
      "type": "function"
    }
  ],
  "bytecode": "0x6007610300818152662365636133663560c81b61032052610280908152610340828152662366646261663960c81b610360526102a0526103808281526611b11832b332b160c91b6103a0526102c0526103c0828152662365646666613960c81b6103e0526102e0526080908152610480828152660466e6ac6ccc4760cb1b6104a0526104009081526104c083815266046c4c4c8ccc6760cb1b6104e0526104205261050083815266046cc60ca6ac8760cb1b610520526104405261054083815266046ccccc6686e760cb1b610560526104605260a052610600828152662366666162373360c81b610620526105809081526106408381526608d999990cce0d60ca1b610660526105a052610680838152660236666663962360cc1b6106a0526105c0526106c0838152660236666616563360cc1b6106e0526105e05260c0526107808281526608ce4d188d184d60ca1b6107a0526107009081526107c0838152662364326635653360c81b6107e05261072052610800838152662365356335623560c81b61082052610740526108408381526611b31a321cb19b60c91b610860526107605260e052610900828152662366346639663960c81b6109208190526108809182526109408481526608d8d8d98c998d60ca1b610960526108a052610980848152662361346562663360c81b6109a0526108c0526109c0848152662361616161616160c81b6109e0526108e05261010091909152610a80838152662363616637653360c81b610aa052610a00908152610ac0848152662365646666656360c81b610ae052610a2052610b008481526611b31b323332b160c91b610b2052610a4052610b408481526608d94d1898590d60ca1b610b6052610a605261012052610c00838152610c2091909152610b80908152610c40838152660236631643164360cc1b610c6052610ba052610c80838152662366626163636360c81b610ca052610bc052610cc0838152662366383735616160c81b610ce052610be05261014052610d80828152662366646666626360c81b610da052610d00908152610dc08381526611b33332b2b13160c91b610de052610d2052610e0083815266046ccccc8c6c4760cb1b610e2052610d4052610e408381526611b3333198b11b60c91b610e6052610d605261016052610f00828152662366306534643760c81b610f2052610e80908152610f40838152660236635633063360cc1b610f6052610ea052610f80838152662366663731373160c81b610fa052610ec052610fc083815266119cb3321c323360c91b610fe052610ee052610180526110808281526611b29a3331333360c91b6110a0526110009081526110c08381526611b11c311ab33360c91b6110e0526110205261110083815266119b9c1b1c329b60c91b6111205261104052611140838152662365646565663760c81b61116052611060526101a052611200828152662366666362393160c81b61122052611180908152611240838152662366666566613160c81b611260526111a0526112808381526608ce4d195898d960ca1b6112a0526111c0526112c083815266119b323231b1b360c91b6112e0526111e0526101c052611380828152662362656463666160c81b6113a0526113009081526113c0838152660467270c2c6cc760cb1b6113e05261132052611400838152662362303838663960c81b6114205261134052611440838152662364613966663960c81b61146052611360526101e0526115008281526611b131b29b32b160c91b611520526114809081526115408381526611b33231b3323360c91b611560526114a0526115808381526611b3313132b23360c91b6115a0526114c0526115c0838152662366636133636360c81b6115e0526114e05261020052611680828152660236666373561360cc1b6116a0526116009081526116c0838152662366636533386160c81b6116e05261162052611700838152660236561666664360cc1b6117205261164052611740838152662339356531643360c81b6117605261166052610220526118008281526608d998994c18cd60ca1b6118205261178090815261184083815266119c30b11b321b60c91b611860526117a052611880838152662332393738623560c81b6118a0526117c0526118c08381526604660606c62c2760cb1b6118e0526117e052610240526119808281526608d9191919191960ca1b6119a0526119009081526119c0838152662366396633663360c81b6119e05261192052611a00838152662366376439643960c81b611a205261194052611a80604052611a40928352662366323532383760c81b611a60526119609290925261026091909152620006b790601090816200094e565b50348015620006c557600080fd5b50604080518082018252600781526614d2550813919560ca1b60208083019182528351808501909452600384526214d25560ea1b908401528151339391620007119160009190620009a0565b50805162000727906001906020840190620009a0565b5050506001600160a01b0381166200073e57600080fd5b600c80546001600160a01b0319166001600160a01b038316179055620007666000826200079a565b620007937f573a495ec6f39d095bd4855f18069a9236d77216cfb96e453909f2408c333cfa6000620007aa565b5062000b9b565b620007a68282620007f5565b5050565b6000828152600a6020526040808220600101805490849055905190918391839186917fbd79b86ffe0ab8e8776151514217cd7cacd52c909f66475c3af44e129f0b00ff9190a4505050565b6200080c82826200083860201b620025ec1760201c565b6000828152600b60209081526040909120620008339183906200268e620008dc821b17901c565b505050565b6000828152600a602090815260408083206001600160a01b038516845290915290205460ff16620007a6576000828152600a602090815260408083206001600160a01b03851684529091529020805460ff19166001179055620008983390565b6001600160a01b0316816001600160a01b0316837f2f8788117e7eff1d82e926ec794901d17c78024a50270940304540a733656f0d60405160405180910390a45050565b6000620008f3836001600160a01b038416620008fc565b90505b92915050565b60008181526001830160205260408120546200094557508154600181810184556000848152602080822090930184905584548482528286019093526040902091909155620008f6565b506000620008f6565b6040830191839082156200098e579160200282015b828111156200098e5782516200097d908390600462000a2b565b509160200191906004019062000963565b506200099c92915062000a7e565b5090565b828054620009ae9062000b5f565b90600052602060002090601f016020900481019282620009d2576000855562000a1d565b82601f10620009ed57805160ff191683800117855562000a1d565b8280016001018555821562000a1d579182015b8281111562000a1d57825182559160200191906001019062000a00565b506200099c92915062000a9f565b826004810192821562000a70579160200282015b8281111562000a70578251805162000a5f918491602090910190620009a0565b509160200191906001019062000a3f565b506200099c92915062000ab6565b808211156200099c57600062000a95828262000ad7565b5060040162000a7e565b5b808211156200099c576000815560010162000aa0565b808211156200099c57600062000acd828262000b1d565b5060010162000ab6565b50600062000ae6828262000b1d565b50600101600062000af8828262000b1d565b50600101600062000b0a828262000b1d565b5062000b1b90600101600062000b1d565b565b50805462000b2b9062000b5f565b6000825580601f1062000b3c575050565b601f01602090049060005260206000209081019062000b5c919062000a9f565b50565b600181811c9082168062000b7457607f821691505b60208210810362000b9557634e487b7160e01b600052602260045260246000fd5b50919050565b615f0b8062000bab6000396000f3fe608060405234801561001057600080fd5b50600436106102de5760003560e01c80637048027511610186578063a22cb465116100e3578063ca15c87311610097578063dab3b7aa11610071578063dab3b7aa14610654578063e985e9c514610674578063f408977b146106b057600080fd5b8063ca15c87314610609578063d05dcc6a1461061c578063d547741f1461064157600080fd5b8063c2a78702116100c8578063c2a78702146105d0578063c8360ce8146105e3578063c87b56dd146105f657600080fd5b8063a22cb465146105aa578063b88d4fde146105bd57600080fd5b80639010d07c1161013a57806393a865321161011f57806393a865321461058757806395d89b411461059a578063a217fddf146105a257600080fd5b80639010d07c1461053b57806391d148541461054e57600080fd5b806382f7d3921161016b57806382f7d392146104ec57806386833e9114610517578063893d20e81461052a57600080fd5b806370480275146104c657806370a08231146104d957600080fd5b80632f745c591161023f57806343f2e326116101f357806362f746d2116101cd57806362f746d2146104795780636352211e1461048c5780636fe3ceb81461049f57600080fd5b806343f2e32614610440578063456f46c4146104535780634f6ccce71461046657600080fd5b806336568abe1161022457806336568abe14610407578063396ff3ed1461041a57806342842e0e1461042d57600080fd5b80632f745c59146103e15780633570ef01146103f457600080fd5b806318160ddd11610296578063248a9ca31161027b578063248a9ca31461039857806324d7806c146103bb5780632f2ff15d146103ce57600080fd5b806318160ddd1461037357806323b872dd1461038557600080fd5b8063081812fc116102c7578063081812fc14610320578063095ea7b31461034b5780631785f53c1461036057600080fd5b806301ffc9a7146102e357806306fdde031461030b575b600080fd5b6102f66102f13660046142cb565b6106c3565b60405190151581526020015b60405180910390f35b6103136106d4565b6040516103029190614340565b61033361032e366004614353565b610766565b6040516001600160a01b039091168152602001610302565b61035e610359366004614388565b61078d565b005b61035e61036e3660046143b2565b6108c3565b6008545b604051908152602001610302565b61035e6103933660046143cd565b61091e565b6103776103a6366004614353565b6000908152600a602052604090206001015490565b6102f66103c93660046143b2565b6109a5565b61035e6103dc366004614409565b6109e5565b6103776103ef366004614388565b610a0a565b61035e6104023660046144e1565b610ab2565b61035e610415366004614409565b610c1c565b61035e6104283660046143b2565b610ca8565b61035e61043b3660046143cd565b610ddb565b61035e61044e36600461455f565b610df6565b61035e6104613660046145fb565b610f1c565b610377610474366004614353565b6113cc565b61035e6104873660046145fb565b611470565b61033361049a366004614353565b611689565b6103777f573a495ec6f39d095bd4855f18069a9236d77216cfb96e453909f2408c333cfa81565b61035e6104d43660046143b2565b6116ee565b6103776104e73660046143b2565b611802565b6102f66104fa3660046143b2565b6001600160a01b03166000908152600e6020526040902054151590565b61035e61052536600461467f565b61189c565b600c546001600160a01b0316610333565b610333610549366004614770565b611b6c565b6102f661055c366004614409565b6000918252600a602090815260408084206001600160a01b0393909316845291905290205460ff1690565b61035e6105953660046143b2565b611b8b565b610313611c02565b610377600081565b61035e6105b8366004614792565b611c11565b61035e6105cb3660046147ce565b611c1c565b6102f66105de3660046143b2565b611caa565b61035e6105f13660046145fb565b611cea565b610313610604366004614353565b611e5b565b610377610617366004614353565b611ef1565b61062f61062a366004614353565b611f08565b6040516103029695949392919061484a565b61035e61064f366004614409565b612221565b6106676106623660046143b2565b612246565b60405161030291906148be565b6102f6610682366004614989565b6001600160a01b03918216600090815260056020908152604080832093909416825291909152205460ff1690565b61035e6106be3660046149b3565b612431565b60006106ce826126a3565b92915050565b6060600080546106e3906149f8565b80601f016020809104026020016040519081016040528092919081815260200182805461070f906149f8565b801561075c5780601f106107315761010080835404028352916020019161075c565b820191906000526020600020905b81548152906001019060200180831161073f57829003601f168201915b5050505050905090565b6000610771826126e1565b506000908152600460205260409020546001600160a01b031690565b600061079882611689565b9050806001600160a01b0316836001600160a01b0316036108265760405162461bcd60e51b815260206004820152602160248201527f4552433732313a20617070726f76616c20746f2063757272656e74206f776e6560448201527f720000000000000000000000000000000000000000000000000000000000000060648201526084015b60405180910390fd5b336001600160a01b038216148061084257506108428133610682565b6108b45760405162461bcd60e51b815260206004820152603e60248201527f4552433732313a20617070726f76652063616c6c6572206973206e6f7420746f60448201527f6b656e206f776e6572206e6f7220617070726f76656420666f7220616c6c0000606482015260840161081d565b6108be8383612745565b505050565b6108cc336109a5565b6109105760405162461bcd60e51b81526020600482015260156024820152742932b9ba3934b1ba32b2103a379030b236b4b7399760591b604482015260640161081d565b61091b600082612221565b50565b61092833826127b3565b61099a5760405162461bcd60e51b815260206004820152602e60248201527f4552433732313a2063616c6c6572206973206e6f7420746f6b656e206f776e6560448201527f72206e6f7220617070726f766564000000000000000000000000000000000000606482015260840161081d565b6108be838383612832565b6001600160a01b03811660009081527f13da86008ba1c6922daee3e07db95305ef49ebced9f5467a0b8613fcc6b343e3602052604081205460ff166106ce565b6000828152600a6020526040902060010154610a0081612a0a565b6108be8383612a14565b6000610a1583611802565b8210610a895760405162461bcd60e51b815260206004820152602b60248201527f455243373231456e756d657261626c653a206f776e657220696e646578206f7560448201527f74206f6620626f756e6473000000000000000000000000000000000000000000606482015260840161081d565b506001600160a01b03919091166000908152600660209081526040808320938352929052205490565b6001600160a01b038181166000818152605160209081526040808320815160e0810183523381528084018b81529281018a90526060810189905260808101959095524260a086015260c0850184905280546001808201835591855293839020855160079095020180546001600160a01b03191694909616939093178555518051939493610b4693850192919091019061421c565b5060408201518051610b6291600284019160209091019061421c565b506060820151600382015560808201516004820180546001600160a01b0319166001600160a01b0390921691909117905560a0820151600582015560c0909101516006909101805460ff1916911515919091179055337fee730ba09a71e13f60eb06860893374cd24a2d1661cc0a10f19bc976106c33e183610be381612a36565b604051602001610bf39190614a4e565b60408051601f1981840301815290829052610c0e9291614a93565b60405180910390a250505050565b6001600160a01b0381163314610c9a5760405162461bcd60e51b815260206004820152602f60248201527f416363657373436f6e74726f6c3a2063616e206f6e6c792072656e6f756e636560448201527f20726f6c657320666f722073656c660000000000000000000000000000000000606482015260840161081d565b610ca48282612b37565b5050565b610cb1336109a5565b610cf55760405162461bcd60e51b81526020600482015260156024820152742932b9ba3934b1ba32b2103a379030b236b4b7399760591b604482015260640161081d565b610cfe816109a5565b15610d4b5760405162461bcd60e51b815260206004820152601a60248201527f41646d696e2063616e6e6f74206265206120666163756c74792e000000000000604482015260640161081d565b6001600160a01b0381166000908152600e602052604090205415610db15760405162461bcd60e51b815260206004820152601b60248201527f53747564656e742063616e6e6f74206265206120666163756c74790000000000604482015260640161081d565b61091b7f573a495ec6f39d095bd4855f18069a9236d77216cfb96e453909f2408c333cfa826109e5565b6108be83838360405180602001604052806000815250611c1c565b610dff33611caa565b610e4b5760405162461bcd60e51b815260206004820152601660248201527f5265737472696374656420746f20666163756c74792e00000000000000000000604482015260640161081d565b60008381526050602090815260409091208351610e709260029092019185019061421c565b5033600090815260516020526040902080546001919083908110610e9657610e96614aac565b60009182526020909120600790910201600601805460ff1916911515919091179055337fee730ba09a71e13f60eb06860893374cd24a2d1661cc0a10f19bc976106c33e184610ee481612a36565b604051602001610ef49190614ac2565b60408051601f1981840301815290829052610f0f9291614a93565b60405180910390a2505050565b610f2533611caa565b610f715760405162461bcd60e51b815260206004820152601660248201527f5265737472696374656420746f20666163756c74792e00000000000000000000604482015260640161081d565b80600a811115610fe95760405162461bcd60e51b815260206004820152602160248201527f43616e206f6e6c79206d696e7420313020746f6b656e7320617420612074696d60448201527f6500000000000000000000000000000000000000000000000000000000000000606482015260840161081d565b60005b818110156113625760006040518060c0016040528086868581811061101357611013614aac565b90506020028101906110259190614b2d565b61102f9080614b4d565b8080601f01602080910402602001604051908101604052809392919081815260200183838082843760009201919091525050509082525060200186868581811061107b5761107b614aac565b905060200281019061108d9190614b2d565b61109b906020810190614b4d565b8080601f0160208091040260200160405190810160405280939291908181526020018383808284376000920191909152505050908252506020018686858181106110e7576110e7614aac565b90506020028101906110f99190614b2d565b611107906040810190614b4d565b8080601f01602080910402602001604051908101604052809392919081815260200183838082843760009201919091525050509082525060200186868581811061115357611153614aac565b90506020028101906111659190614b2d565b611173906060810190614b4d565b8080601f0160208091040260200160405190810160405280939291908181526020018383808284376000920191909152505050908252503360208201526040016112228787868181106111c8576111c8614aac565b90506020028101906111da9190614b2d565b6111e8906080810190614b4d565b8080601f016020809104026020016040519081016040528093929190818152602001838380828437600092019190915250612b5992505050565b6001600160a01b03169052905061123d600f80546001019055565b6000611248600f5490565b600081815260506020908152604090912084518051939450859391926112739284929091019061421c565b50602082810151805161128c926001850192019061421c565b50604082015180516112a891600284019160209091019061421c565b50606082015180516112c491600384019160209091019061421c565b5060808201516004820180546001600160a01b039283166001600160a01b03199182161790915560a093840151600590930180549390921692169190911790558201516113119082612c08565b815160405133917f85a66b9141978db9980f7e0ce3b468cebf4f7999f32b23091c5c03e798b1ba7a91611345918591614a93565b60405180910390a25050808061135a90614baa565b915050610fec565b50336001600160a01b03167fa66ae13e5605ba8fbc32dd24e75cd0f527810c48b5d0cbd0290be290217b2da0604051610f0f9060208082526011908201527f42617463684d696e74436f6d706c657465000000000000000000000000000000604082015260600190565b60006113d760085490565b821061144b5760405162461bcd60e51b815260206004820152602c60248201527f455243373231456e756d657261626c653a20676c6f62616c20696e646578206f60448201527f7574206f6620626f756e64730000000000000000000000000000000000000000606482015260840161081d565b6008828154811061145e5761145e614aac565b90600052602060002001549050919050565b611479336109a5565b6114bd5760405162461bcd60e51b81526020600482015260156024820152742932b9ba3934b1ba32b2103a379030b236b4b7399760591b604482015260640161081d565b60005b81811015611613576114f28383838181106114dd576114dd614aac565b90506020020160208101906103c991906143b2565b1561153f5760405162461bcd60e51b815260206004820152601a60248201527f41646d696e2063616e6e6f74206265206120666163756c74792e000000000000604482015260640161081d565b61156983838381811061155457611554614aac565b90506020020160208101906104fa91906143b2565b156115b65760405162461bcd60e51b815260206004820152601b60248201527f53747564656e742063616e6e6f74206265206120666163756c74790000000000604482015260640161081d565b6116017f573a495ec6f39d095bd4855f18069a9236d77216cfb96e453909f2408c333cfa8484848181106115ec576115ec614aac565b90506020020160208101906103dc91906143b2565b8061160b81614baa565b9150506114c0565b50336001600160a01b03167fa66ae13e5605ba8fbc32dd24e75cd0f527810c48b5d0cbd0290be290217b2da060405161167d9060208082526016908201527f6d756c7469416464466163756c74795375636365656400000000000000000000604082015260600190565b60405180910390a25050565b6000818152600260205260408120546001600160a01b0316806106ce5760405162461bcd60e51b815260206004820152601860248201527f4552433732313a20696e76616c696420746f6b656e2049440000000000000000604482015260640161081d565b6116f7336109a5565b61173b5760405162461bcd60e51b81526020600482015260156024820152742932b9ba3934b1ba32b2103a379030b236b4b7399760591b604482015260640161081d565b61174481611caa565b156117915760405162461bcd60e51b815260206004820152601b60248201527f466163756c74792063616e6e6f7420626520616e2061646d696e2e0000000000604482015260640161081d565b6001600160a01b0381166000908152600e6020526040902054156117f75760405162461bcd60e51b815260206004820152601a60248201527f53747564656e742063616e6e6f7420626520616e2061646d696e000000000000604482015260640161081d565b61091b6000826109e5565b60006001600160a01b0382166118805760405162461bcd60e51b815260206004820152602960248201527f4552433732313a2061646472657373207a65726f206973206e6f74206120766160448201527f6c6964206f776e65720000000000000000000000000000000000000000000000606482015260840161081d565b506001600160a01b031660009081526003602052604090205490565b6118a533611caa565b6118f15760405162461bcd60e51b815260206004820152601660248201527f5265737472696374656420746f20666163756c74792e00000000000000000000604482015260640161081d565b6040805160e06020601f8d01819004028201810190925260c081018b81526000928291908e908e9081908501838280828437600092019190915250505090825250604080516020601f8d018190048102820181019092528b815291810191908c908c9081908401838280828437600092019190915250505090825250604080516020601f8b0181900481028201810190925289815291810191908a908a9081908401838280828437600092019190915250505090825250604080516020601f8901819004810282018101909252878152918101919088908890819084018382808284376000920191909152505050908252503360208083019190915260408051601f87018390048302810183018252868152920191611a2a918790879081908401838280828437600092019190915250612b5992505050565b6001600160a01b031690529050611a45600f80546001019055565b6000611a50600f5490565b60008181526050602090815260409091208451805193945085939192611a7b9284929091019061421c565b506020828101518051611a94926001850192019061421c565b5060408201518051611ab091600284019160209091019061421c565b5060608201518051611acc91600384019160209091019061421c565b5060808201516004820180546001600160a01b039283166001600160a01b03199182161790915560a09384015160059093018054939092169216919091179055820151611b199082612c08565b336001600160a01b03167f85a66b9141978db9980f7e0ce3b468cebf4f7999f32b23091c5c03e798b1ba7a828e8e604051611b5693929190614bc3565b60405180910390a2505050505050505050505050565b6000828152600b60205260408120611b849083612c22565b9392505050565b611b94336109a5565b611bd85760405162461bcd60e51b81526020600482015260156024820152742932b9ba3934b1ba32b2103a379030b236b4b7399760591b604482015260640161081d565b61091b7f573a495ec6f39d095bd4855f18069a9236d77216cfb96e453909f2408c333cfa82612221565b6060600180546106e3906149f8565b610ca4338383612c2e565b611c2633836127b3565b611c985760405162461bcd60e51b815260206004820152602e60248201527f4552433732313a2063616c6c6572206973206e6f7420746f6b656e206f776e6560448201527f72206e6f7220617070726f766564000000000000000000000000000000000000606482015260840161081d565b611ca484848484612cfc565b50505050565b6001600160a01b03811660009081527f9019cc2ada0da9adebe4b58b4b78fbab4edc82e8bb6da2a3f362a37225196cd3602052604081205460ff166106ce565b611cf3336109a5565b611d375760405162461bcd60e51b81526020600482015260156024820152742932b9ba3934b1ba32b2103a379030b236b4b7399760591b604482015260640161081d565b60005b81811015611df157611ddf838383818110611d5757611d57614aac565b9050602002810190611d699190614bf9565b611d739080614b4d565b8080601f016020809104026020016040519081016040528093929190818152602001838380828437600092019190915250879250869150859050818110611dbc57611dbc614aac565b9050602002810190611dce9190614bf9565b6106be9060408101906020016143b2565b80611de981614baa565b915050611d3a565b50336001600160a01b03167fa66ae13e5605ba8fbc32dd24e75cd0f527810c48b5d0cbd0290be290217b2da060405161167d9060208082526016908201527f6d756c746941646453747564656e745375636365656400000000000000000000604082015260600190565b6000818152600260205260409020546060906001600160a01b0316611ee85760405162461bcd60e51b815260206004820152602f60248201527f4552433732314d657461646174613a2055524920717565727920666f72206e6f60448201527f6e6578697374656e7420746f6b656e0000000000000000000000000000000000606482015260840161081d565b6106ce82612d85565b6000818152600b602052604081206106ce90612e13565b606080606080600080611f32876000908152600260205260409020546001600160a01b0316151590565b611fa45760405162461bcd60e51b815260206004820152603560248201527f4552433732314d657461646174613a206174747269627574652071756572792060448201527f666f72206e6f6e6578697374656e7420746f6b656e0000000000000000000000606482015260840161081d565b60008781526050602052604090206004810154600582015482546001840192600285019260038601926001600160a01b0392831692909116908690611fe8906149f8565b80601f0160208091040260200160405190810160405280929190818152602001828054612014906149f8565b80156120615780601f1061203657610100808354040283529160200191612061565b820191906000526020600020905b81548152906001019060200180831161204457829003601f168201915b50505050509550848054612074906149f8565b80601f01602080910402602001604051908101604052809291908181526020018280546120a0906149f8565b80156120ed5780601f106120c2576101008083540402835291602001916120ed565b820191906000526020600020905b8154815290600101906020018083116120d057829003601f168201915b50505050509450838054612100906149f8565b80601f016020809104026020016040519081016040528092919081815260200182805461212c906149f8565b80156121795780601f1061214e57610100808354040283529160200191612179565b820191906000526020600020905b81548152906001019060200180831161215c57829003601f168201915b5050505050935082805461218c906149f8565b80601f01602080910402602001604051908101604052809291908181526020018280546121b8906149f8565b80156122055780601f106121da57610100808354040283529160200191612205565b820191906000526020600020905b8154815290600101906020018083116121e857829003601f168201915b5050505050925095509550955095509550955091939550919395565b6000828152600a602052604090206001015461223c81612a0a565b6108be8383612b37565b6001600160a01b0381166000908152605160209081526040808320805482518185028101850190935280835260609492939192909184015b828210156124265760008481526020908190206040805160e081019091526007850290910180546001600160a01b0316825260018101805492939192918401916122c7906149f8565b80601f01602080910402602001604051908101604052809291908181526020018280546122f3906149f8565b80156123405780601f1061231557610100808354040283529160200191612340565b820191906000526020600020905b81548152906001019060200180831161232357829003601f168201915b50505050508152602001600282018054612359906149f8565b80601f0160208091040260200160405190810160405280929190818152602001828054612385906149f8565b80156123d25780601f106123a7576101008083540402835291602001916123d2565b820191906000526020600020905b8154815290600101906020018083116123b557829003601f168201915b5050509183525050600382015460208083019190915260048301546001600160a01b031660408301526005830154606083015260069092015460ff161515608090910152908252600192909201910161227e565b505050509050919050565b61243a336109a5565b61247e5760405162461bcd60e51b81526020600482015260156024820152742932b9ba3934b1ba32b2103a379030b236b4b7399760591b604482015260640161081d565b612487816109a5565b156124d45760405162461bcd60e51b815260206004820152601a60248201527f41646d696e2063616e6e6f7420626520612073747564656e742e000000000000604482015260640161081d565b6124dd81611caa565b1561252a5760405162461bcd60e51b815260206004820152601c60248201527f466163756c74792063616e6e6f7420626520612073747564656e742e00000000604482015260640161081d565b60008260405160200161253d9190614c0f565b60408051601f1981840301815282825280516020918201206000818152600d835283812080546001600160a01b0389166001600160a01b031990911681179091558152600e909252919020819055915033907fa66ae13e5605ba8fbc32dd24e75cd0f527810c48b5d0cbd0290be290217b2da090610f0f9060208082526011908201527f61646453747564656e7453756363656564000000000000000000000000000000604082015260600190565b6000828152600a602090815260408083206001600160a01b038516845290915290205460ff16610ca4576000828152600a602090815260408083206001600160a01b03851684529091529020805460ff1916600117905561264a3390565b6001600160a01b0316816001600160a01b0316837f2f8788117e7eff1d82e926ec794901d17c78024a50270940304540a733656f0d60405160405180910390a45050565b6000611b84836001600160a01b038416612e1d565b60006001600160e01b031982167f5a05180f0000000000000000000000000000000000000000000000000000000014806106ce57506106ce82612e6c565b6000818152600260205260409020546001600160a01b031661091b5760405162461bcd60e51b815260206004820152601860248201527f4552433732313a20696e76616c696420746f6b656e2049440000000000000000604482015260640161081d565b600081815260046020526040902080546001600160a01b0319166001600160a01b038416908117909155819061277a82611689565b6001600160a01b03167f8c5be1e5ebec7d5bd14f71427d1e84f3dd0314c0f7b2291e5b200ac8c7c3b92560405160405180910390a45050565b6000806127bf83611689565b9050806001600160a01b0316846001600160a01b0316148061280657506001600160a01b0380821660009081526005602090815260408083209388168352929052205460ff165b8061282a5750836001600160a01b031661281f84610766565b6001600160a01b0316145b949350505050565b826001600160a01b031661284582611689565b6001600160a01b0316146128c15760405162461bcd60e51b815260206004820152602560248201527f4552433732313a207472616e736665722066726f6d20696e636f72726563742060448201527f6f776e6572000000000000000000000000000000000000000000000000000000606482015260840161081d565b6001600160a01b03821661293c5760405162461bcd60e51b8152602060048201526024808201527f4552433732313a207472616e7366657220746f20746865207a65726f2061646460448201527f7265737300000000000000000000000000000000000000000000000000000000606482015260840161081d565b612947838383612eaa565b612952600082612745565b6001600160a01b038316600090815260036020526040812080546001929061297b908490614c21565b90915550506001600160a01b03821660009081526003602052604081208054600192906129a9908490614c38565b909155505060008181526002602052604080822080546001600160a01b0319166001600160a01b0386811691821790925591518493918716917fddf252ad1be2c89b69c2b068fc378daa952ba7f163c4a11628f55a4df523b3ef91a4505050565b61091b81336131ba565b612a1e82826125ec565b6000828152600b602052604090206108be908261268e565b606081600003612a5d5750506040805180820190915260018152600360fc1b602082015290565b8160005b8115612a875780612a7181614baa565b9150612a809050600a83614c66565b9150612a61565b60008167ffffffffffffffff811115612aa257612aa2614435565b6040519080825280601f01601f191660200182016040528015612acc576020820181803683370190505b5090505b841561282a57612ae1600183614c21565b9150612aee600a86614c7a565b612af9906030614c38565b60f81b818381518110612b0e57612b0e614aac565b60200101906001600160f81b031916908160001a905350612b30600a86614c66565b9450612ad0565b612b41828261323a565b6000828152600b602052604090206108be90826132bd565b60008082604051602001612b6d9190614c0f565b60408051601f1981840301815291815281516020928301206000818152600d9093529120549091506001600160a01b0316612bea5760405162461bcd60e51b815260206004820152601760248201527f53747564656e7420646f6573206e6f742065786973742e000000000000000000604482015260640161081d565b6000908152600d60205260409020546001600160a01b031692915050565b610ca48282604051806020016040528060008152506132d2565b6000611b84838361335b565b816001600160a01b0316836001600160a01b031603612c8f5760405162461bcd60e51b815260206004820152601960248201527f4552433732313a20617070726f766520746f2063616c6c657200000000000000604482015260640161081d565b6001600160a01b03838116600081815260056020908152604080832094871680845294825291829020805460ff191686151590811790915591519182527f17307eab39ab6107e8899845ad3d59bd9653f200f220920489ca2b5937696c31910160405180910390a3505050565b612d07848484612832565b612d1384848484613385565b611ca45760405162461bcd60e51b815260206004820152603260248201527f4552433732313a207472616e7366657220746f206e6f6e20455243373231526560448201527f63656976657220696d706c656d656e7465720000000000000000000000000000606482015260840161081d565b60606000612d92836134dc565b90506000612d9f846134ef565b600085815260506020526040812091925090612de790612dbe87612a36565b8585604051602001612dd39493929190614d27565b60405160208183030381529060405261355a565b905080604051602001612dfa9190614e44565b6040516020818303038152906040529350505050919050565b60006106ce825490565b6000818152600183016020526040812054612e64575081546001818101845560008481526020808220909301849055845484825282860190935260409020919091556106ce565b5060006106ce565b60006001600160e01b031982167f7965db0b0000000000000000000000000000000000000000000000000000000014806106ce57506106ce826136f8565b612eb5838383613736565b600081815260506020526040808220815160c08101909252805482908290612edc906149f8565b80601f0160208091040260200160405190810160405280929190818152602001828054612f08906149f8565b8015612f555780601f10612f2a57610100808354040283529160200191612f55565b820191906000526020600020905b815481529060010190602001808311612f3857829003601f168201915b50505050508152602001600182018054612f6e906149f8565b80601f0160208091040260200160405190810160405280929190818152602001828054612f9a906149f8565b8015612fe75780601f10612fbc57610100808354040283529160200191612fe7565b820191906000526020600020905b815481529060010190602001808311612fca57829003601f168201915b50505050508152602001600282018054613000906149f8565b80601f016020809104026020016040519081016040528092919081815260200182805461302c906149f8565b80156130795780601f1061304e57610100808354040283529160200191613079565b820191906000526020600020905b81548152906001019060200180831161305c57829003601f168201915b50505050508152602001600382018054613092906149f8565b80601f01602080910402602001604051908101604052809291908181526020018280546130be906149f8565b801561310b5780601f106130e05761010080835404028352916020019161310b565b820191906000526020600020905b8154815290600101906020018083116130ee57829003601f168201915b505050918352505060048201546001600160a01b039081166020830152600590920154821660409091015260a08201519192508481169116148061315c5750600c546001600160a01b038481169116145b8061316e57506001600160a01b038316155b611ca45760405162461bcd60e51b815260206004820152601c60248201527f546172676574206973206e6f742074686520726563697069656e742e00000000604482015260640161081d565b6000828152600a602090815260408083206001600160a01b038516845290915290205460ff16610ca4576131f8816001600160a01b031660146137ee565b6132038360206137ee565b604051602001613214929190614e89565b60408051601f198184030181529082905262461bcd60e51b825261081d91600401614340565b6000828152600a602090815260408083206001600160a01b038516845290915290205460ff1615610ca4576000828152600a602090815260408083206001600160a01b0385168085529252808320805460ff1916905551339285917ff6391f5c32d9c69d2a47ea670b442974b53935d1edc7fd64eb21e047a839171b9190a45050565b6000611b84836001600160a01b038416613997565b6132dc8383613a8a565b6132e96000848484613385565b6108be5760405162461bcd60e51b815260206004820152603260248201527f4552433732313a207472616e7366657220746f206e6f6e20455243373231526560448201527f63656976657220696d706c656d656e7465720000000000000000000000000000606482015260840161081d565b600082600001828154811061337257613372614aac565b9060005260206000200154905092915050565b60006001600160a01b0384163b156134d157604051630a85bd0160e11b81526001600160a01b0385169063150b7a02906133c9903390899088908890600401614f0a565b6020604051808303816000875af1925050508015613404575060408051601f3d908101601f1916820190925261340191810190614f46565b60015b6134b7573d808015613432576040519150601f19603f3d011682016040523d82523d6000602084013e613437565b606091505b5080516000036134af5760405162461bcd60e51b815260206004820152603260248201527f4552433732313a207472616e7366657220746f206e6f6e20455243373231526560448201527f63656976657220696d706c656d656e7465720000000000000000000000000000606482015260840161081d565b805181602001fd5b6001600160e01b031916630a85bd0160e11b14905061282a565b506001949350505050565b60606106ce6134ea83613bd8565b61355a565b6000818152605060205260409020600481015460609190600182019061351f906001600160a01b03166014613cb4565b6000858152605060209081526040918290209151613544959493926003019101614f63565b6040516020818303038152906040529050919050565b6060815160000361357957505060408051602081019091526000815290565b6000604051806060016040528060408152602001615e9660409139905060006003845160026135a89190614c38565b6135b29190614c66565b6135bd906004615160565b905060006135cc826020614c38565b67ffffffffffffffff8111156135e4576135e4614435565b6040519080825280601f01601f19166020018201604052801561360e576020820181803683370190505b509050818152600183018586518101602084015b8183101561367c5760039283018051603f601282901c811687015160f890811b8552600c83901c8216880151811b6001860152600683901c8216880151811b60028601529116860151901b93820193909352600401613622565b60038951066001811461369657600281146136c2576136ea565b7f3d3d0000000000000000000000000000000000000000000000000000000000006001198301526136ea565b7f3d000000000000000000000000000000000000000000000000000000000000006000198301525b509398975050505050505050565b60006001600160e01b031982167f780e9d630000000000000000000000000000000000000000000000000000000014806106ce57506106ce82613e5d565b6001600160a01b0383166137915761378c81600880546000838152600960205260408120829055600182018355919091527ff3f7a9fe364faab93b216da50a3214154f22a0a2b415b23a84c8169e8b636ee30155565b6137b4565b816001600160a01b0316836001600160a01b0316146137b4576137b48382613ef8565b6001600160a01b0382166137cb576108be81613f95565b826001600160a01b0316826001600160a01b0316146108be576108be8282614044565b606060006137fd836002615160565b613808906002614c38565b67ffffffffffffffff81111561382057613820614435565b6040519080825280601f01601f19166020018201604052801561384a576020820181803683370190505b509050600360fc1b8160008151811061386557613865614aac565b60200101906001600160f81b031916908160001a905350600f60fb1b8160018151811061389457613894614aac565b60200101906001600160f81b031916908160001a90535060006138b8846002615160565b6138c3906001614c38565b90505b6001811115613948577f303132333435363738396162636465660000000000000000000000000000000085600f166010811061390457613904614aac565b1a60f81b82828151811061391a5761391a614aac565b60200101906001600160f81b031916908160001a90535060049490941c936139418161517f565b90506138c6565b508315611b845760405162461bcd60e51b815260206004820181905260248201527f537472696e67733a20686578206c656e67746820696e73756666696369656e74604482015260640161081d565b60008181526001830160205260408120548015613a805760006139bb600183614c21565b85549091506000906139cf90600190614c21565b9050818114613a345760008660000182815481106139ef576139ef614aac565b9060005260206000200154905080876000018481548110613a1257613a12614aac565b6000918252602080832090910192909255918252600188019052604090208390555b8554869080613a4557613a45615196565b6001900381819060005260206000200160009055905585600101600086815260200190815260200160002060009055600193505050506106ce565b60009150506106ce565b6001600160a01b038216613ae05760405162461bcd60e51b815260206004820181905260248201527f4552433732313a206d696e7420746f20746865207a65726f2061646472657373604482015260640161081d565b6000818152600260205260409020546001600160a01b031615613b455760405162461bcd60e51b815260206004820152601c60248201527f4552433732313a20746f6b656e20616c7265616479206d696e74656400000000604482015260640161081d565b613b5160008383612eaa565b6001600160a01b0382166000908152600360205260408120805460019290613b7a908490614c38565b909155505060008181526002602052604080822080546001600160a01b0319166001600160a01b03861690811790915590518392907fddf252ad1be2c89b69c2b068fc378daa952ba7f163c4a11628f55a4df523b3ef908290a45050565b6060600033604051602001613c18919060609190911b7fffffffffffffffffffffffffffffffffffffffff00000000000000000000000016815260140190565b60408051808303601f190181528282528051602091820120908301819052925060009101604051602081830303815290604052905060006010613c5c836000614088565b613c6691906151ac565b60ff1690506000613c778683614148565b90506000613c84876141d4565b90508181604051602001613c999291906151ce565b60405160208183030381529060405295505050505050919050565b60606000613cc3836002615160565b613cce906002614c38565b67ffffffffffffffff811115613ce657613ce6614435565b6040519080825280601f01601f191660200182016040528015613d10576020820181803683370190505b509050600360fc1b81600081518110613d2b57613d2b614aac565b60200101906001600160f81b031916908160001a905350600f60fb1b81600181518110613d5a57613d5a614aac565b60200101906001600160f81b031916908160001a9053506000613d7e846002615160565b613d89906001614c38565b90505b6001811115613e0e577f303132333435363738396162636465660000000000000000000000000000000085600f1660108110613dca57613dca614aac565b1a60f81b828281518110613de057613de0614aac565b60200101906001600160f81b031916908160001a90535060049490941c93613e078161517f565b9050613d8c565b508315611b845760405162461bcd60e51b815260206004820152600560248201527f4845585f4c000000000000000000000000000000000000000000000000000000604482015260640161081d565b60006001600160e01b031982167f80ac58cd000000000000000000000000000000000000000000000000000000001480613ec057506001600160e01b031982167f5b5e139f00000000000000000000000000000000000000000000000000000000145b806106ce57507f01ffc9a7000000000000000000000000000000000000000000000000000000006001600160e01b03198316146106ce565b60006001613f0584611802565b613f0f9190614c21565b600083815260076020526040902054909150808214613f62576001600160a01b03841660009081526006602090815260408083208584528252808320548484528184208190558352600790915290208190555b5060009182526007602090815260408084208490556001600160a01b039094168352600681528383209183525290812055565b600854600090613fa790600190614c21565b60008381526009602052604081205460088054939450909284908110613fcf57613fcf614aac565b906000526020600020015490508060088381548110613ff057613ff0614aac565b600091825260208083209091019290925582815260099091526040808220849055858252812055600880548061402857614028615196565b6001900381819060005260206000200160009055905550505050565b600061404f83611802565b6001600160a01b039093166000908152600660209081526040808320868452825280832085905593825260079052919091209190915550565b600081614096816001614c38565b10156140e45760405162461bcd60e51b815260206004820152601060248201527f746f55696e74385f6f766572666c6f7700000000000000000000000000000000604482015260640161081d565b6140ef826001614c38565b8351101561413f5760405162461bcd60e51b815260206004820152601360248201527f746f55696e74385f6f75744f66426f756e647300000000000000000000000000604482015260640161081d565b50016001015190565b60606010826010811061415d5761415d614aac565b6004020160108381811061417357614173614aac565b600402016001016010846010811061418d5761418d614aac565b60040201600201605060008781526020019081526020016000206001016040516020016141bd949392919061529b565b604051602081830303815290604052905092915050565b600081815260506020526040902060058101546060919060038201906002830190614209906001600160a01b03166014613cb4565b6040516020016135449493929190615b06565b828054614228906149f8565b90600052602060002090601f01602090048101928261424a5760008555614290565b82601f1061426357805160ff1916838001178555614290565b82800160010185558215614290579182015b82811115614290578251825591602001919060010190614275565b5061429c9291506142a0565b5090565b5b8082111561429c57600081556001016142a1565b6001600160e01b03198116811461091b57600080fd5b6000602082840312156142dd57600080fd5b8135611b84816142b5565b60005b838110156143035781810151838201526020016142eb565b83811115611ca45750506000910152565b6000815180845261432c8160208601602086016142e8565b601f01601f19169290920160200192915050565b602081526000611b846020830184614314565b60006020828403121561436557600080fd5b5035919050565b80356001600160a01b038116811461438357600080fd5b919050565b6000806040838503121561439b57600080fd5b6143a48361436c565b946020939093013593505050565b6000602082840312156143c457600080fd5b611b848261436c565b6000806000606084860312156143e257600080fd5b6143eb8461436c565b92506143f96020850161436c565b9150604084013590509250925092565b6000806040838503121561441c57600080fd5b8235915061442c6020840161436c565b90509250929050565b634e487b7160e01b600052604160045260246000fd5b600067ffffffffffffffff8084111561446657614466614435565b604051601f8501601f19908116603f0116810190828211818310171561448e5761448e614435565b816040528093508581528686860111156144a757600080fd5b858560208301376000602087830101525050509392505050565b600082601f8301126144d257600080fd5b611b848383356020850161444b565b600080600080608085870312156144f757600080fd5b843567ffffffffffffffff8082111561450f57600080fd5b61451b888389016144c1565b9550602087013591508082111561453157600080fd5b5061453e878288016144c1565b935050604085013591506145546060860161436c565b905092959194509250565b60008060006060848603121561457457600080fd5b83359250602084013567ffffffffffffffff81111561459257600080fd5b61459e868287016144c1565b925050604084013590509250925092565b60008083601f8401126145c157600080fd5b50813567ffffffffffffffff8111156145d957600080fd5b6020830191508360208260051b85010111156145f457600080fd5b9250929050565b6000806020838503121561460e57600080fd5b823567ffffffffffffffff81111561462557600080fd5b614631858286016145af565b90969095509350505050565b60008083601f84011261464f57600080fd5b50813567ffffffffffffffff81111561466757600080fd5b6020830191508360208285010111156145f457600080fd5b60008060008060008060008060008060a08b8d03121561469e57600080fd5b8a3567ffffffffffffffff808211156146b657600080fd5b6146c28e838f0161463d565b909c509a5060208d01359150808211156146db57600080fd5b6146e78e838f0161463d565b909a50985060408d013591508082111561470057600080fd5b61470c8e838f0161463d565b909850965060608d013591508082111561472557600080fd5b6147318e838f0161463d565b909650945060808d013591508082111561474a57600080fd5b506147578d828e0161463d565b915080935050809150509295989b9194979a5092959850565b6000806040838503121561478357600080fd5b50508035926020909101359150565b600080604083850312156147a557600080fd5b6147ae8361436c565b9150602083013580151581146147c357600080fd5b809150509250929050565b600080600080608085870312156147e457600080fd5b6147ed8561436c565b93506147fb6020860161436c565b925060408501359150606085013567ffffffffffffffff81111561481e57600080fd5b8501601f8101871361482f57600080fd5b61483e8782356020840161444b565b91505092959194509250565b60c08152600061485d60c0830189614314565b828103602084015261486f8189614314565b905082810360408401526148838188614314565b905082810360608401526148978187614314565b9150506001600160a01b03808516608084015280841660a084015250979650505050505050565b60006020808301818452808551808352604092508286019150828160051b87010184880160005b8381101561497b57603f19898403018552815160e06001600160a01b0380835116865289830151828b88015261491d83880182614314565b925050888301518683038a8801526149358382614314565b60608581015190890152608080860151909316928801929092525060a0808401519087015260c092830151151592909501919091525093860193908601906001016148e5565b509098975050505050505050565b6000806040838503121561499c57600080fd5b6149a58361436c565b915061442c6020840161436c565b600080604083850312156149c657600080fd5b823567ffffffffffffffff8111156149dd57600080fd5b6149e9858286016144c1565b92505061442c6020840161436c565b600181811c90821680614a0c57607f821691505b602082108103614a2c57634e487b7160e01b600052602260045260246000fd5b50919050565b60008151614a448185602086016142e8565b9290920192915050565b7f52652d6576616c756174696f6e20526571756573742053656e6420666f722000815260008251614a8681601f8501602087016142e8565b91909101601f0192915050565b82815260406020820152600061282a6040830184614314565b634e487b7160e01b600052603260045260246000fd5b7f5265717565737420526576696577656420666f7220436572746966696361746581527f2000000000000000000000000000000000000000000000000000000000000000602082015260008251614b208160218501602087016142e8565b9190910160210192915050565b60008235609e19833603018112614b4357600080fd5b9190910192915050565b6000808335601e19843603018112614b6457600080fd5b83018035915067ffffffffffffffff821115614b7f57600080fd5b6020019150368190038213156145f457600080fd5b634e487b7160e01b600052601160045260246000fd5b600060018201614bbc57614bbc614b94565b5060010190565b83815260406020820152816040820152818360608301376000818301606090810191909152601f909201601f1916010192915050565b60008235603e19833603018112614b4357600080fd5b60008251614b438184602087016142e8565b600082821015614c3357614c33614b94565b500390565b60008219821115614c4b57614c4b614b94565b500190565b634e487b7160e01b600052601260045260246000fd5b600082614c7557614c75614c50565b500490565b600082614c8957614c89614c50565b500690565b8054600090600181811c9080831680614ca857607f831692505b60208084108203614cc957634e487b7160e01b600052602260045260246000fd5b818015614cdd5760018114614cee57614d1b565b60ff19861689528489019650614d1b565b60008881526020902060005b86811015614d135781548b820152908501908301614cfa565b505084890196505b50505050505092915050565b7f7b226e616d65223a20220000000000000000000000000000000000000000000081526000614d59600a830187614c8e565b7f204365727469666963617465200000000000000000000000000000000000000081528551614d8f81600d840160208a016142e8565b8082019150507f222c00000000000000000000000000000000000000000000000000000000000080600d8301527f22696d616765223a202200000000000000000000000000000000000000000000600f8301527f646174613a696d6167652f7376672b786d6c3b6261736536342c00000000000060198301528551614e1b816033850160208a016142e8565b60339201918201528351614e368160358401602088016142e8565b016035019695505050505050565b7f646174613a6170706c69636174696f6e2f6a736f6e3b6261736536342c000000815260008251614e7c81601d8501602087016142e8565b91909101601d0192915050565b7f416363657373436f6e74726f6c3a206163636f756e7420000000000000000000815260008351614ec18160178501602088016142e8565b7f206973206d697373696e6720726f6c65200000000000000000000000000000006017918401918201528351614efe8160288401602088016142e8565b01602801949350505050565b60006001600160a01b03808716835280861660208401525083604083015260806060830152614f3c6080830184614314565b9695505050505050565b600060208284031215614f5857600080fd5b8151611b84816142b5565b7f2261747472696275746573223a205b7b2274726169745f74797065223a20224d81527f6f64756c65436f6465222c202276616c7565223a20220000000000000000000060208201526000614fbb6036830187614c8e565b7f227d2c00000000000000000000000000000000000000000000000000000000008082527f7b2274726169745f74797065223a202254797065222c202276616c7565223a2060038301527f220000000000000000000000000000000000000000000000000000000000000060238301526150386024830188614c8e565b91508082527f7b2274726169745f74797065223a2022466163756c7479222c202276616c756560038301527f223a2022000000000000000000000000000000000000000000000000000000006023830152855161509c816027850160208a016142e8565b60279201918201527f7b2274726169745f74797065223a20225472696d6573746572222c202276616c602a8201527f7565223a20220000000000000000000000000000000000000000000000000000604a82015261515561512c6151036050840187614c8e565b7f227d000000000000000000000000000000000000000000000000000000000000815260020190565b7f5d7d000000000000000000000000000000000000000000000000000000000000815260020190565b979650505050505050565b600081600019048311821515161561517a5761517a614b94565b500290565b60008161518e5761518e614b94565b506000190190565b634e487b7160e01b600052603160045260246000fd5b600060ff8316806151bf576151bf614c50565b8060ff84160491505092915050565b7f3c73766720636c6173733d22737667426f6479222077696474683d223330302281527f206865696768743d22333030222076696577426f783d2230203020333030203360208201527f30302220786d6c6e733d22687474703a2f2f7777772e77332e6f72672f32303060408201527f302f737667223e000000000000000000000000000000000000000000000000006060820152600083516152788160678501602088016142e8565b83519083019061528f8160678401602088016142e8565b01606701949350505050565b7f3c726563742077696474683d2233303022206865696768743d2233303022207281527f783d22313022207374796c653d2266696c6c3a00000000000000000000000000602082015260006152f36033830187614c8e565b7f22202f3e000000000000000000000000000000000000000000000000000000008082527f3c7265637420793d223630222077696474683d2233303022206865696768743d60048301527f2231313522207374796c653d2266696c6c3a000000000000000000000000000060248301526153706036830188614c8e565b91507f222f3e000000000000000000000000000000000000000000000000000000000082527f3c7265637420793d22313735222077696474683d22333030222068656967687460038301527f3d22343022207374796c653d2266696c6c3a000000000000000000000000000060238301526153ee6035830187614c8e565b9081527f3c7465787420783d2231352220793d2232352220636c6173733d226d6564697560048201527f6d223e00000000000000000000000000000000000000000000000000000000006024820152905061515561551961547e6154556027850188614c8e565b7f2043657274696669636174653c2f746578743e00000000000000000000000000815260130190565b7f3c67207472616e73666f726d3d227472616e736c617465283236302e3030303081527f30302c34302e30303030303029207363616c6528302e3031303030302c2d302e60208201527f30313030303029222066696c6c3d222330303030303022207374726f6b653d2260408201527f6e6f6e65223e0000000000000000000000000000000000000000000000000000606082015260660190565b7f3c7061746820643d224d343436203330323120632d33202d39202d3132202d3581527f39202d3231202d313131202d3235202d313536202d3133202d313430202d313160208201527f30202d313430206c2d383520302030202d3438382030202d343838202d31313060408201527f202d36323920632d3630202d333437202d313132202d363430202d313135202d60608201527f363531202d34202d32302032202d3233203933202d3339203533202d3920313060808201527f35202d313920313134202d3231203136202d35203138202d3139203138202d3160a08201527f3230206c30202d31313420363634203020363633203020363333202d3131302060c08201527f63343632202d383120363335202d31303820363431202d39392034203620313060e08201527f2033352031342036332033203238203131203732203136203939206c313120346101008201527f37203739203020373920302030203435382030203435382031323020363930206101208201527f63363620333739203132322036393620313233203730342031203131202d32366101408201527f203139202d313138203335206c2d313230203231202d33203932202d332039326101608201527f202d3532332030202d3532322030202d3633352031313120632d3334392036306101808201527f202d36393420313230202d37363620313333202d313230203231202d313333206101a08201527f3232202d31333720377a206d393634202d373733206330202d37202d38202d366101c08201527f33202d3137202d313235206c2d3136202d313132202d333336202d3320632d336101e08201527f3136202d33202d333339202d34202d333831202d3234202d3836202d3339202d6102008201527f313233202d313133202d3938202d313930203131202d3334203232202d3433206102208201527f3738202d3731203430202d323020313435202d353320323730202d38342031326102408201527f34202d333120323334202d363520323830202d3837203838202d3431203137346102608201527f202d31323220323131202d313937203231202d3435203234202d3633203234206102808201527f2d3137302030202d313130202d32202d313235202d3238202d313739202d35376102a08201527f202d313232202d313434202d313936202d323937202d323530206c2d3835202d6102c08201527f3331202d333933202d33202d333933202d3320332031323320332031323320336102e08201527f36352035203336352035203532203237206336392033372039372037372039386103008201527f203134342030203931202d363220313435202d32323020313838202d343920316103208201527f34202d313438203431202d323230203631202d323330203633202d33343420316103408201527f3335202d34303220323534202d3235203531202d3238203636202d32382031366103608201527f36203020313030203320313135203238203136362036382031333920313934206103808201527f3232372033373720323634203931203138203736302032312037363020337a206103a08201527f6d31363230202d313333206c30202d313335202d3230352030202d32303520306103c08201527f2030202d3633302030202d363330202d3136352030202d3136352030203020366103e08201527f3330203020363330202d313635203020632d3133342030202d3136352033202d6104008201527f31363520313420302031322033312031373520343520323334206c35203232206104208201527f35313020302035313020302030202d3133357a206d2d31313937202d373832206104408201527f6c2d33202d353938202d313630202d33202d313630202d3220302035373420306104608201527f20353734203733203132206333392037203130312031382031333720323520336104808201527f362037203736203133203930203134206c32352031202d32202d3539377a222f6104a08201527f3e3c2f673e0000000000000000000000000000000000000000000000000000006104c08201526104c50190565b7f3c7465787420783d2231352220793d2238302220636c6173733d226d6564697581527f6d223e4d6f64756c653e2000000000000000000000000000000000000000000060208201526000615b5e602b830187614c8e565b661e17ba32bc3a1f60c91b8082527f3c7465787420783d2231352220793d223130302220636c6173733d226d65646960078301527f756d223e5472696d65737465723e2000000000000000000000000000000000006027830152615bc56036830188614c8e565b9081527f3c7465787420783d2231352220793d223132302220636c6173733d226d65646960078201527f756d223e47726164653a3c2f746578743e00000000000000000000000000000060278201527f3c7265637420783d2231352220793d22313235222077696474683d223230352260388201527f206865696768743d22343022207374796c653d2266696c6c3a77686974653b6f60588201527f7061636974793a302e35222f3e0000000000000000000000000000000000000060788201527f3c7465787420783d2231352220793d223134302220636c6173733d226d65646960858201527f756d223e0000000000000000000000000000000000000000000000000000000060a58201529050615155615e6c615dab615cf4615da5615d56615d078360a989018d614c8e565b661e17ba32bc3a1f60c91b815260070190565b7f3c7465787420783d2231352220793d223139302220636c6173733d22736d616c81527f6c223e526563697069656e743a3c2f746578743e000000000000000000000000602082015260340190565b7f3c7465787420783d2231352220793d2232303522207374796c653d22666f6e7481527f2d73697a653a387078223e0000000000000000000000000000000000000000006020820152602b0190565b88614a32565b7f3c7374796c653e2e737667426f6479207b666f6e742d66616d696c793a20224381527f6f7572696572204e657722207d202e74696e79207b666f6e742d73697a653a3660208201527f70783b207d202e736d616c6c207b666f6e742d73697a653a20313270783b7d2e60408201527f6d656469756d207b666f6e742d73697a653a20313870783b7d3c2f7374796c6560608201527f3e00000000000000000000000000000000000000000000000000000000000000608082015260810190565b7f3c2f7376673e000000000000000000000000000000000000000000000000000081526006019056fe4142434445464748494a4b4c4d4e4f505152535455565758595a6162636465666768696a6b6c6d6e6f707172737475767778797a303132333435363738392b2fa264697066735822122006b23cab77ea7dbc1bf1a0137bb8c311fddaeb297f205e89528ec20cb47c55f364736f6c634300080e0033",
  "immutableReferences": {},
  "source": "// SPDX-License-Identifier: MIT\r\n\r\npragma solidity ^0.8.12;\r\n\r\nimport \"@openzeppelin/contracts/token/ERC721/extensions/ERC721Enumerable.sol\";\r\nimport \"@openzeppelin/contracts/utils/Counters.sol\";\r\n\r\nimport \"./Base64.sol\";\r\nimport \"./RoleControl.sol\";\r\n\r\ncontract SITNFT is ERC721, ERC721Enumerable, RoleControl {\r\n    using Counters for Counters.Counter;\r\n    Counters.Counter private _tokenIdCounter;\r\n    using Strings for uint256;\r\n    // Design Codes\r\n    // 16 palettes\r\n    string[4][16] palette = [\r\n        [\"#eca3f5\", \"#fdbaf9\", \"#b0efeb\", \"#edffa9\"],\r\n        [\"#75cfb8\", \"#bbdfc8\", \"#f0e5d8\", \"#ffc478\"],\r\n        [\"#ffab73\", \"#ffd384\", \"#fff9b0\", \"#ffaec0\"],\r\n        [\"#94b4a4\", \"#d2f5e3\", \"#e5c5b5\", \"#f4d9c6\"],\r\n        [\"#f4f9f9\", \"#ccf2f4\", \"#a4ebf3\", \"#aaaaaa\"],\r\n        [\"#caf7e3\", \"#edffec\", \"#f6dfeb\", \"#e4bad4\"],\r\n        [\"#f4f9f9\", \"#f1d1d0\", \"#fbaccc\", \"#f875aa\"],\r\n        [\"#fdffbc\", \"#ffeebb\", \"#ffdcb8\", \"#ffc1b6\"],\r\n        [\"#f0e4d7\", \"#f5c0c0\", \"#ff7171\", \"#9fd8df\"],\r\n        [\"#e4fbff\", \"#b8b5ff\", \"#7868e6\", \"#edeef7\"],\r\n        [\"#ffcb91\", \"#ffefa1\", \"#94ebcd\", \"#6ddccf\"],\r\n        [\"#bedcfa\", \"#98acf8\", \"#b088f9\", \"#da9ff9\"],\r\n        [\"#bce6eb\", \"#fdcfdf\", \"#fbbedf\", \"#fca3cc\"],\r\n        [\"#ff75a0\", \"#fce38a\", \"#eaffd0\", \"#95e1d3\"],\r\n        [\"#fbe0c4\", \"#8ab6d6\", \"#2978b5\", \"#0061a8\"],\r\n        [\"#dddddd\", \"#f9f3f3\", \"#f7d9d9\", \"#f25287\"]\r\n    ];\r\n\r\n    struct ParamAttribute {\r\n        string moduleCode;\r\n        string testType;\r\n        string grade;\r\n        string trimester;\r\n        string recipient;\r\n    }\r\n\r\n    struct Attribute {\r\n        string moduleCode;\r\n        string testType;\r\n        string grade;\r\n        string trimester;\r\n        address faculty;\r\n        address recipient;\r\n    }\r\n    struct TransferStruct {\r\n        address sender;\r\n        string message;\r\n        string tokenName;\r\n        uint256 tokenId;\r\n        address faculty;\r\n        uint256 timestamp;\r\n        bool reviewed;\r\n    }\r\n    //   TransferStruct[] transactions;\r\n\r\n    // Events\r\n\r\n    event Log(string message);\r\n    event Mint(address indexed sender, uint256 tokenId, string moduleCode);\r\n    event RemodRequest(address indexed sender, uint256 tokenId, string message);\r\n\r\n    // Mapping\r\n    mapping(uint256 => Attribute) private _attributes;\r\n\r\n    mapping(address => TransferStruct[]) private _remodRequests;\r\n\r\n    constructor() ERC721(\"SIT NFT\", \"SIT\") RoleControl(msg.sender) {}\r\n\r\n    /**\r\n     * @dev Mint with parameters\r\n     *\r\n     * Requirements:\r\n     *\r\n     * - The caller must be a faculty\r\n     */\r\n\r\n    function mint(\r\n        string calldata moduleCode,\r\n        string calldata testType,\r\n        string calldata grade,\r\n        string calldata trimester,\r\n        string calldata recipient\r\n    ) external onlyFaculty {\r\n        Attribute memory newAttribute = Attribute(\r\n            moduleCode,\r\n            testType,\r\n            grade,\r\n            trimester,\r\n            msg.sender,\r\n            _getStudentAddress(recipient)\r\n        );\r\n        _tokenIdCounter.increment();\r\n        uint256 tokenId = _tokenIdCounter.current();\r\n        _attributes[tokenId] = newAttribute;\r\n        _safeMint(newAttribute.recipient, tokenId);\r\n        emit Mint(msg.sender, tokenId, moduleCode);\r\n    }\r\n\r\n    /**\r\n     * Batch mint tokens\r\n     */\r\n    function batchMint(ParamAttribute[] calldata _array) external onlyFaculty {\r\n        uint256 numberOfTokens = _array.length;\r\n        require(numberOfTokens <= 10, \"Can only mint 10 tokens at a time\");\r\n        for (uint256 i = 0; i < numberOfTokens; i++) {\r\n            Attribute memory newAttribute = Attribute(\r\n                _array[i].moduleCode,\r\n                _array[i].testType,\r\n                _array[i].grade,\r\n                _array[i].trimester,\r\n                msg.sender,\r\n                _getStudentAddress(_array[i].recipient)\r\n            );\r\n            _tokenIdCounter.increment();\r\n            uint256 tokenId = _tokenIdCounter.current();\r\n            _attributes[tokenId] = newAttribute;\r\n            _safeMint(newAttribute.recipient, tokenId);\r\n            emit Mint(msg.sender, tokenId, newAttribute.moduleCode);\r\n        }\r\n        emit IndexedLog(msg.sender, \"BatchMintComplete\");\r\n    }\r\n\r\n    function addToBlockchain(\r\n        string memory message,\r\n        string memory tokenName,\r\n        uint256 tokenId,\r\n        address faculty\r\n    ) public {\r\n        // transactions.push(TransferStruct(msg.sender, message,tokenName,tokenId,faculty,block.timestamp,false));\r\n        // address faculty = _attributes[tokenId].faculty;\r\n        _remodRequests[faculty].push(\r\n            TransferStruct(\r\n                msg.sender,\r\n                message,\r\n                tokenName,\r\n                tokenId,\r\n                faculty,\r\n                block.timestamp,\r\n                false\r\n            )\r\n        );\r\n        // emit Transfer(msg.sender, receiver, amount, message, block.timestamp, keyword);\r\n        emit RemodRequest(\r\n            msg.sender,\r\n            tokenId,\r\n            string.concat(\"Re-evaluation Request Send for \", toString(tokenId))\r\n        );\r\n    }\r\n\r\n    function getAllTransactions(address faculty)\r\n        public\r\n        view\r\n        returns (TransferStruct[] memory)\r\n    {\r\n        // return transactions;\r\n        return _remodRequests[faculty];\r\n    }\r\n\r\n    function setMetadata(\r\n        uint256 _tokenId,\r\n        string memory grade,\r\n        uint256 position\r\n    ) public onlyFaculty {\r\n        _attributes[_tokenId].grade = grade;\r\n        _remodRequests[msg.sender][position].reviewed = true;\r\n        emit RemodRequest(\r\n            msg.sender,\r\n            _tokenId,\r\n            string.concat(\r\n                \"Request Reviewed for Certificate \",\r\n                toString(_tokenId)\r\n            )\r\n        );\r\n    }\r\n\r\n    function generatePaletteSection(uint256 _tokenId, uint256 pIndex)\r\n        private\r\n        view\r\n        returns (string memory)\r\n    {\r\n        return\r\n            string(\r\n                abi.encodePacked(\r\n                    '<rect width=\"300\" height=\"300\" rx=\"10\" style=\"fill:',\r\n                    palette[pIndex][0],\r\n                    '\" />',\r\n                    '<rect y=\"60\" width=\"300\" height=\"115\" style=\"fill:',\r\n                    palette[pIndex][1],\r\n                    '\"/>',\r\n                    '<rect y=\"175\" width=\"300\" height=\"40\" style=\"fill:',\r\n                    palette[pIndex][2],\r\n                    '\" />',\r\n                    '<text x=\"15\" y=\"25\" class=\"medium\">',\r\n                    _attributes[_tokenId].testType,\r\n                    \" Certificate</text>\",\r\n                    // '<text x=\"17\" y=\"50\" class=\"small\" opacity=\"0.5\">',substring(toString(_tokenId),0,24),'</text>',\r\n                    '<g transform=\"translate(260.000000,40.000000) scale(0.010000,-0.010000)\" fill=\"#000000\" stroke=\"none\">',\r\n                    '<path d=\"M446 3021 c-3 -9 -12 -59 -21 -111 -25 -156 -13 -140 -110 -140 l-85 0 0 -488 0 -488 -110 -629 c-60 -347 -112 -640 -115 -651 -4 -20 2 -23 93 -39 53 -9 105 -19 114 -21 16 -5 18 -19 18 -120 l0 -114 664 0 663 0 633 -110 c462 -81 635 -108 641 -99 4 6 10 35 14 63 3 28 11 72 16 99 l11 47 79 0 79 0 0 458 0 458 120 690 c66 379 122 696 123 704 1 11 -26 19 -118 35 l-120 21 -3 92 -3 92 -523 0 -522 0 -635 111 c-349 60 -694 120 -766 133 -120 21 -133 22 -137 7z m964 -773 c0 -7 -8 -63 -17 -125 l-16 -112 -336 -3 c-316 -3 -339 -4 -381 -24 -86 -39 -123 -113 -98 -190 11 -34 22 -43 78 -71 40 -20 145 -53 270 -84 124 -31 234 -65 280 -87 88 -41 174 -122 211 -197 21 -45 24 -63 24 -170 0 -110 -2 -125 -28 -179 -57 -122 -144 -196 -297 -250 l-85 -31 -393 -3 -393 -3 3 123 3 123 365 5 365 5 52 27 c69 37 97 77 98 144 0 91 -62 145 -220 188 -49 14 -148 41 -220 61 -230 63 -344 135 -402 254 -25 51 -28 66 -28 166 0 100 3 115 28 166 68 139 194 227 377 264 91 18 760 21 760 3z m1620 -133 l0 -135 -205 0 -205 0 0 -630 0 -630 -165 0 -165 0 0 630 0 630 -165 0 c-134 0 -165 3 -165 14 0 12 31 175 45 234 l5 22 510 0 510 0 0 -135z m-1197 -782 l-3 -598 -160 -3 -160 -2 0 574 0 574 73 12 c39 7 101 18 137 25 36 7 76 13 90 14 l25 1 -2 -597z\"/></g>'\r\n                )\r\n            );\r\n    }\r\n\r\n    function generateBase64Image(uint256 _tokenId)\r\n        private\r\n        view\r\n        returns (string memory)\r\n    {\r\n        return Base64.encode(bytes(generateImage(_tokenId)));\r\n    }\r\n\r\n    function generateImage(uint256 _tokenId)\r\n        private\r\n        view\r\n        returns (string memory)\r\n    {\r\n        // bytes memory hash = abi.encodePacked(bytes32(_tokenId));\r\n        uint256 random = uint256(keccak256(abi.encodePacked(msg.sender)));\r\n        bytes memory hash = abi.encodePacked(bytes32(random));\r\n        uint256 pIndex = toUint8(hash, 0) / 16; // 16 palettes\r\n\r\n        /* this is broken into functions to avoid stack too deep errors */\r\n        string memory paletteSection = generatePaletteSection(_tokenId, pIndex);\r\n        string memory svgSection = buildImageSvg(_tokenId);\r\n        return\r\n            string(\r\n                abi.encodePacked(\r\n                    '<svg class=\"svgBody\" width=\"300\" height=\"300\" viewBox=\"0 0 300 300\" xmlns=\"http://www.w3.org/2000/svg\">',\r\n                    paletteSection,\r\n                    svgSection\r\n                )\r\n            );\r\n    }\r\n\r\n    function buildImageSvg(uint256 _tokenId)\r\n        private\r\n        view\r\n        returns (string memory)\r\n    {\r\n        return\r\n            string(\r\n                abi.encodePacked(\r\n                    '<text x=\"15\" y=\"80\" class=\"medium\">Module> ',\r\n                    _attributes[_tokenId].moduleCode,\r\n                    \"</text>\",\r\n                    '<text x=\"15\" y=\"100\" class=\"medium\">Trimester> ',\r\n                    _attributes[_tokenId].trimester,\r\n                    \"</text>\",\r\n                    '<text x=\"15\" y=\"120\" class=\"medium\">Grade:</text>',\r\n                    '<rect x=\"15\" y=\"125\" width=\"205\" height=\"40\" style=\"fill:white;opacity:0.5\"/>',\r\n                    '<text x=\"15\" y=\"140\" class=\"medium\">',\r\n                    _attributes[_tokenId].grade,\r\n                    \"</text>\",\r\n                    '<text x=\"15\" y=\"190\" class=\"small\">Recipient:</text>',\r\n                    '<text x=\"15\" y=\"205\" style=\"font-size:8px\">',\r\n                    toHexString(uint160(_attributes[_tokenId].recipient), 20),\r\n                    \"</text>\",\r\n                    '<style>.svgBody {font-family: \"Courier New\" } .tiny {font-size:6px; } .small {font-size: 12px;}.medium {font-size: 18px;}</style>',\r\n                    \"</svg>\"\r\n                )\r\n            );\r\n    }\r\n\r\n    function buildMetadata(uint256 _tokenId)\r\n        private\r\n        view\r\n        returns (string memory)\r\n    {\r\n        string memory image = generateBase64Image(_tokenId);\r\n        string memory traits = generateTraitsSection(_tokenId);\r\n        string memory json = Base64.encode(\r\n            bytes(\r\n                string(\r\n                    abi.encodePacked(\r\n                        '{\"name\": \"',\r\n                        _attributes[_tokenId].moduleCode,\r\n                        \" Certificate \",\r\n                        toString(_tokenId),\r\n                        '\",',\r\n                        '\"image\": \"',\r\n                        \"data:image/svg+xml;base64,\",\r\n                        image,\r\n                        '\",',\r\n                        traits\r\n                    )\r\n                )\r\n            )\r\n        );\r\n        return string(abi.encodePacked(\"data:application/json;base64,\", json));\r\n    }\r\n\r\n    function generateTraitsSection(uint256 _tokenId)\r\n        private\r\n        view\r\n        returns (string memory)\r\n    {\r\n        // string memory x =toHexString(uint160(_attributes[_tokenId].faculty), 20);\r\n        return\r\n            string(\r\n                abi.encodePacked(\r\n                    '\"attributes\": [{\"trait_type\": \"ModuleCode\", \"value\": \"',\r\n                    _attributes[_tokenId].moduleCode,\r\n                    '\"},',\r\n                    '{\"trait_type\": \"Type\", \"value\": \"',\r\n                    _attributes[_tokenId].testType,\r\n                    '\"},',\r\n                    '{\"trait_type\": \"Faculty\", \"value\": \"',\r\n                    toHexString(uint160(_attributes[_tokenId].faculty), 20),\r\n                    '\"},',\r\n                    '{\"trait_type\": \"Trimester\", \"value\": \"',\r\n                    _attributes[_tokenId].trimester,\r\n                    '\"}',\r\n                    \"]}\"\r\n                )\r\n            );\r\n    }\r\n\r\n    function tokenURI(uint256 _tokenId)\r\n        public\r\n        view\r\n        virtual\r\n        override\r\n        returns (string memory)\r\n    {\r\n        require(\r\n            _exists(_tokenId),\r\n            \"ERC721Metadata: URI query for nonexistent token\"\r\n        );\r\n        return buildMetadata(_tokenId);\r\n    }\r\n\r\n    function attributes(uint256 _tokenId)\r\n        external\r\n        view\r\n        virtual\r\n        returns (\r\n            string memory,\r\n            string memory,\r\n            string memory,\r\n            string memory,\r\n            address,\r\n            address\r\n        )\r\n    {\r\n        require(\r\n            _exists(_tokenId),\r\n            \"ERC721Metadata: attribute query for nonexistent token\"\r\n        );\r\n        return (\r\n            _attributes[_tokenId].moduleCode,\r\n            _attributes[_tokenId].testType,\r\n            _attributes[_tokenId].grade,\r\n            _attributes[_tokenId].trimester,\r\n            _attributes[_tokenId].faculty,\r\n            _attributes[_tokenId].recipient\r\n        );\r\n    }\r\n\r\n    function _beforeTokenTransfer(\r\n        address from,\r\n        address to,\r\n        uint256 _tokenId\r\n    ) internal override(ERC721, ERC721Enumerable) {\r\n        super._beforeTokenTransfer(from, to, _tokenId);\r\n\r\n        Attribute memory currentAttribute = _attributes[_tokenId];\r\n\r\n        require(\r\n            to == currentAttribute.recipient ||\r\n                to == getOwner() ||\r\n                to == address(0),\r\n            \"Target is not the recipient.\"\r\n        );\r\n    }\r\n\r\n    function supportsInterface(bytes4 interfaceId)\r\n        public\r\n        view\r\n        override(ERC721, ERC721Enumerable, AccessControlEnumerable)\r\n        returns (bool)\r\n    {\r\n        return super.supportsInterface(interfaceId);\r\n    }\r\n\r\n    bytes16 private constant _ALPHABET = \"0123456789abcdef\";\r\n\r\n    /**\r\n     * @dev Converts a `uint256` to its ASCII `string` hexadecimal representation with fixed length.\r\n     */\r\n    function toHexString(uint256 value, uint256 length)\r\n        internal\r\n        pure\r\n        returns (string memory)\r\n    {\r\n        bytes memory buffer = new bytes(2 * length + 2);\r\n        buffer[0] = \"0\";\r\n        buffer[1] = \"x\";\r\n        for (uint256 i = 2 * length + 1; i > 1; --i) {\r\n            buffer[i] = _ALPHABET[value & 0xf];\r\n            value >>= 4;\r\n        }\r\n        require(value == 0, \"HEX_L\");\r\n        return string(buffer);\r\n    }\r\n\r\n    function toUint8(bytes memory _bytes, uint256 _start)\r\n        internal\r\n        pure\r\n        returns (uint8)\r\n    {\r\n        require(_start + 1 >= _start, \"toUint8_overflow\");\r\n        require(_bytes.length >= _start + 1, \"toUint8_outOfBounds\");\r\n        uint8 tempUint;\r\n\r\n        assembly {\r\n            tempUint := mload(add(add(_bytes, 0x1), _start))\r\n        }\r\n        return tempUint;\r\n    }\r\n\r\n    function toString(uint256 value) internal pure returns (string memory) {\r\n        if (value == 0) {\r\n            return \"0\";\r\n        }\r\n        uint256 temp = value;\r\n        uint256 digits;\r\n        while (temp != 0) {\r\n            digits++;\r\n            temp /= 10;\r\n        }\r\n        bytes memory buffer = new bytes(digits);\r\n        while (value != 0) {\r\n            digits -= 1;\r\n            buffer[digits] = bytes1(uint8(48 + uint256(value % 10)));\r\n            value /= 10;\r\n        }\r\n        return string(buffer);\r\n    }\r\n\r\n    /**\r\n     * @dev Burns `tokenId`. See {ERC721-_burn}.\r\n     *\r\n     * Requirements:\r\n     *\r\n     * - The caller must own `tokenId` or be an approved operator.\r\n     */\r\n    // function burn(uint256 tokenId) external onlyFaculty {\r\n    //     //solhint-disable-next-line max-line-length\r\n    //     require(_isApprovedOrOwner(_msgSender(), tokenId), \"ERC721Burnable: caller is not owner nor approved\");\r\n    //     require(msg.sender == _attributes[tokenId].faculty, \"Only faculty who minted this token can burn it.\");\r\n    //     Attribute memory burnAttribute = Attribute(\r\n    //     \"\",\r\n    //     \"\",\r\n    //     \"\",\r\n    //     \"\",\r\n    //     address(0),\r\n    //     address(0)\r\n    //     );\r\n    //     _attributes[tokenId] =  burnAttribute;\r\n    //     _burn(tokenId);\r\n    // }\r\n\r\n    /**\r\n     * @dev Override inherited approve. Allow only faculty to burn token.\r\n     *\r\n     * Requirements:\r\n     *\r\n     * - to: must be a faculty address\r\n     */\r\n    // function approve(address to, uint256 tokenId) public virtual override(ERC721,IERC721) {\r\n    //     require(isFaculty(to) ,\"Only faculty can be approved to burn tokens.\");\r\n    //     require(to == _attributes[tokenId].faculty, \"Only faculty who minted this token can be approved.\");\r\n    //     address tokenOwner = ERC721.ownerOf(tokenId);\r\n    //     require(to != tokenOwner, \"ERC721: approval to current owner\");\r\n    //     require(\r\n    //         _msgSender() == tokenOwner || isApprovedForAll(tokenOwner, _msgSender()),\r\n    //         \"ERC721: approve caller is not owner nor approved for all\"\r\n    //     );\r\n    //     _approve(to, tokenId);\r\n    // }\r\n}\r\n",
  "sourcePath": "C:\\Users\\jaspz\\Documents\\GitHub\\ITP\\Blockchain-Trusted-Model\\contracts\\SITNFT.sol",
  "compiler": {
    "name": "solc",
    "version": "0.8.14+commit.80d49f37.Emscripten.clang"
  },
  "schemaVersion": "3.4.7",
  "updatedAt": "2022-07-25T12:18:42.117Z",
  "devdoc": {
    "kind": "dev",
    "methods": {
      "addStudentAddress(string,address)": {
        "details": "Add student address to mapping. Requirements: - The caller must be an admin."
      },
      "approve(address,uint256)": {
        "details": "See {IERC721-approve}."
      },
      "balanceOf(address)": {
        "details": "See {IERC721-balanceOf}."
      },
      "getApproved(uint256)": {
        "details": "See {IERC721-getApproved}."
      },
      "getRoleAdmin(bytes32)": {
        "details": "Returns the admin role that controls `role`. See {grantRole} and {revokeRole}. To change a role's admin, use {_setRoleAdmin}."
      },
      "getRoleMember(bytes32,uint256)": {
        "details": "Returns one of the accounts that have `role`. `index` must be a value between 0 and {getRoleMemberCount}, non-inclusive. Role bearers are not sorted in any particular way, and their ordering may change at any point. WARNING: When using {getRoleMember} and {getRoleMemberCount}, make sure you perform all queries on the same block. See the following https://forum.openzeppelin.com/t/iterating-over-elements-on-enumerableset-in-openzeppelin-contracts/2296[forum post] for more information."
      },
      "getRoleMemberCount(bytes32)": {
        "details": "Returns the number of accounts that have `role`. Can be used together with {getRoleMember} to enumerate all bearers of a role."
      },
      "grantRole(bytes32,address)": {
        "details": "Grants `role` to `account`. If `account` had not been already granted `role`, emits a {RoleGranted} event. Requirements: - the caller must have ``role``'s admin role. May emit a {RoleGranted} event."
      },
      "hasRole(bytes32,address)": {
        "details": "Returns `true` if `account` has been granted `role`."
      },
      "isApprovedForAll(address,address)": {
        "details": "See {IERC721-isApprovedForAll}."
      },
      "isStudent(address)": {
        "details": "Check if address is student"
      },
      "mint(string,string,string,string,string)": {
        "details": "Mint with parameters Requirements: - The caller must be a faculty"
      },
      "multiAddStudentAddress((string,address)[])": {
        "details": "Takes in an array of studentAddresses and calls addStudentAddress. Requirements: - The caller must be an admin."
      },
      "name()": {
        "details": "See {IERC721Metadata-name}."
      },
      "ownerOf(uint256)": {
        "details": "See {IERC721-ownerOf}."
      },
      "renounceRole(bytes32,address)": {
        "details": "Revokes `role` from the calling account. Roles are often managed via {grantRole} and {revokeRole}: this function's purpose is to provide a mechanism for accounts to lose their privileges if they are compromised (such as when a trusted device is misplaced). If the calling account had been revoked `role`, emits a {RoleRevoked} event. Requirements: - the caller must be `account`. May emit a {RoleRevoked} event."
      },
      "revokeRole(bytes32,address)": {
        "details": "Revokes `role` from `account`. If `account` had been granted `role`, emits a {RoleRevoked} event. Requirements: - the caller must have ``role``'s admin role. May emit a {RoleRevoked} event."
      },
      "safeTransferFrom(address,address,uint256)": {
        "details": "See {IERC721-safeTransferFrom}."
      },
      "safeTransferFrom(address,address,uint256,bytes)": {
        "details": "See {IERC721-safeTransferFrom}."
      },
      "setApprovalForAll(address,bool)": {
        "details": "See {IERC721-setApprovalForAll}."
      },
      "symbol()": {
        "details": "See {IERC721Metadata-symbol}."
      },
      "tokenByIndex(uint256)": {
        "details": "See {IERC721Enumerable-tokenByIndex}."
      },
      "tokenOfOwnerByIndex(address,uint256)": {
        "details": "See {IERC721Enumerable-tokenOfOwnerByIndex}."
      },
      "totalSupply()": {
        "details": "See {IERC721Enumerable-totalSupply}."
      },
      "transferFrom(address,address,uint256)": {
        "details": "See {IERC721-transferFrom}."
      }
    },
    "version": 1
  },
  "userdoc": {
    "kind": "user",
    "methods": {
      "batchMint((string,string,string,string,string)[])": {
        "notice": "Batch mint tokens"
      }
    },
    "version": 1
  }
}