{
  "contractName": "SITNFT",
  "abi": [
    {
      "inputs": [],
      "stateMutability": "nonpayable",
      "type": "constructor"
    },
    {
      "anonymous": false,
      "inputs": [
        {
          "indexed": true,
          "internalType": "address",
          "name": "owner",
          "type": "address"
        },
        {
          "indexed": true,
          "internalType": "address",
          "name": "approved",
          "type": "address"
        },
        {
          "indexed": true,
          "internalType": "uint256",
          "name": "tokenId",
          "type": "uint256"
        }
      ],
      "name": "Approval",
      "type": "event"
    },
    {
      "anonymous": false,
      "inputs": [
        {
          "indexed": true,
          "internalType": "address",
          "name": "owner",
          "type": "address"
        },
        {
          "indexed": true,
          "internalType": "address",
          "name": "operator",
          "type": "address"
        },
        {
          "indexed": false,
          "internalType": "bool",
          "name": "approved",
          "type": "bool"
        }
      ],
      "name": "ApprovalForAll",
      "type": "event"
    },
    {
      "anonymous": false,
      "inputs": [
        {
          "indexed": true,
          "internalType": "address",
          "name": "sender",
          "type": "address"
        },
        {
          "indexed": false,
          "internalType": "string",
          "name": "message",
          "type": "string"
        }
      ],
      "name": "IndexedLog",
      "type": "event"
    },
    {
      "anonymous": false,
      "inputs": [
        {
          "indexed": false,
          "internalType": "string",
          "name": "message",
          "type": "string"
        }
      ],
      "name": "Log",
      "type": "event"
    },
    {
      "anonymous": false,
      "inputs": [
        {
          "indexed": true,
          "internalType": "address",
          "name": "sender",
          "type": "address"
        },
        {
          "indexed": false,
          "internalType": "uint256",
          "name": "tokenId",
          "type": "uint256"
        },
        {
          "indexed": false,
          "internalType": "string",
          "name": "moduleCode",
          "type": "string"
        }
      ],
      "name": "Mint",
      "type": "event"
    },
    {
      "anonymous": false,
      "inputs": [
        {
          "indexed": true,
          "internalType": "address",
          "name": "sender",
          "type": "address"
        },
        {
          "indexed": false,
          "internalType": "uint256",
          "name": "tokenId",
          "type": "uint256"
        },
        {
          "indexed": false,
          "internalType": "string",
          "name": "message",
          "type": "string"
        }
      ],
      "name": "RemodRequest",
      "type": "event"
    },
    {
      "anonymous": false,
      "inputs": [
        {
          "indexed": true,
          "internalType": "bytes32",
          "name": "role",
          "type": "bytes32"
        },
        {
          "indexed": true,
          "internalType": "bytes32",
          "name": "previousAdminRole",
          "type": "bytes32"
        },
        {
          "indexed": true,
          "internalType": "bytes32",
          "name": "newAdminRole",
          "type": "bytes32"
        }
      ],
      "name": "RoleAdminChanged",
      "type": "event"
    },
    {
      "anonymous": false,
      "inputs": [
        {
          "indexed": true,
          "internalType": "bytes32",
          "name": "role",
          "type": "bytes32"
        },
        {
          "indexed": true,
          "internalType": "address",
          "name": "account",
          "type": "address"
        },
        {
          "indexed": true,
          "internalType": "address",
          "name": "sender",
          "type": "address"
        }
      ],
      "name": "RoleGranted",
      "type": "event"
    },
    {
      "anonymous": false,
      "inputs": [
        {
          "indexed": true,
          "internalType": "bytes32",
          "name": "role",
          "type": "bytes32"
        },
        {
          "indexed": true,
          "internalType": "address",
          "name": "account",
          "type": "address"
        },
        {
          "indexed": true,
          "internalType": "address",
          "name": "sender",
          "type": "address"
        }
      ],
      "name": "RoleRevoked",
      "type": "event"
    },
    {
      "anonymous": false,
      "inputs": [
        {
          "indexed": true,
          "internalType": "address",
          "name": "from",
          "type": "address"
        },
        {
          "indexed": true,
          "internalType": "address",
          "name": "to",
          "type": "address"
        },
        {
          "indexed": true,
          "internalType": "uint256",
          "name": "tokenId",
          "type": "uint256"
        }
      ],
      "name": "Transfer",
      "type": "event"
    },
    {
      "inputs": [],
      "name": "DEFAULT_ADMIN_ROLE",
      "outputs": [
        {
          "internalType": "bytes32",
          "name": "",
          "type": "bytes32"
        }
      ],
      "stateMutability": "view",
      "type": "function",
      "constant": true
    },
    {
      "inputs": [],
      "name": "FACULTY_ROLE",
      "outputs": [
        {
          "internalType": "bytes32",
          "name": "",
          "type": "bytes32"
        }
      ],
      "stateMutability": "view",
      "type": "function",
      "constant": true
    },
    {
      "inputs": [
        {
          "internalType": "address",
          "name": "account",
          "type": "address"
        }
      ],
      "name": "addAdmin",
      "outputs": [],
      "stateMutability": "nonpayable",
      "type": "function"
    },
    {
      "inputs": [
        {
          "internalType": "address",
          "name": "account",
          "type": "address"
        }
      ],
      "name": "addFaculty",
      "outputs": [],
      "stateMutability": "nonpayable",
      "type": "function"
    },
    {
      "inputs": [
        {
          "internalType": "address",
          "name": "to",
          "type": "address"
        },
        {
          "internalType": "uint256",
          "name": "tokenId",
          "type": "uint256"
        }
      ],
      "name": "approve",
      "outputs": [],
      "stateMutability": "nonpayable",
      "type": "function"
    },
    {
      "inputs": [
        {
          "internalType": "address",
          "name": "owner",
          "type": "address"
        }
      ],
      "name": "balanceOf",
      "outputs": [
        {
          "internalType": "uint256",
          "name": "",
          "type": "uint256"
        }
      ],
      "stateMutability": "view",
      "type": "function",
      "constant": true
    },
    {
      "inputs": [
        {
          "internalType": "uint256",
          "name": "tokenId",
          "type": "uint256"
        }
      ],
      "name": "getApproved",
      "outputs": [
        {
          "internalType": "address",
          "name": "",
          "type": "address"
        }
      ],
      "stateMutability": "view",
      "type": "function",
      "constant": true
    },
    {
      "inputs": [],
      "name": "getOwner",
      "outputs": [
        {
          "internalType": "address",
          "name": "",
          "type": "address"
        }
      ],
      "stateMutability": "view",
      "type": "function",
      "constant": true
    },
    {
      "inputs": [
        {
          "internalType": "bytes32",
          "name": "role",
          "type": "bytes32"
        }
      ],
      "name": "getRoleAdmin",
      "outputs": [
        {
          "internalType": "bytes32",
          "name": "",
          "type": "bytes32"
        }
      ],
      "stateMutability": "view",
      "type": "function",
      "constant": true
    },
    {
      "inputs": [
        {
          "internalType": "bytes32",
          "name": "role",
          "type": "bytes32"
        },
        {
          "internalType": "uint256",
          "name": "index",
          "type": "uint256"
        }
      ],
      "name": "getRoleMember",
      "outputs": [
        {
          "internalType": "address",
          "name": "",
          "type": "address"
        }
      ],
      "stateMutability": "view",
      "type": "function",
      "constant": true
    },
    {
      "inputs": [
        {
          "internalType": "bytes32",
          "name": "role",
          "type": "bytes32"
        }
      ],
      "name": "getRoleMemberCount",
      "outputs": [
        {
          "internalType": "uint256",
          "name": "",
          "type": "uint256"
        }
      ],
      "stateMutability": "view",
      "type": "function",
      "constant": true
    },
    {
      "inputs": [
        {
          "internalType": "bytes32",
          "name": "role",
          "type": "bytes32"
        },
        {
          "internalType": "address",
          "name": "account",
          "type": "address"
        }
      ],
      "name": "grantRole",
      "outputs": [],
      "stateMutability": "nonpayable",
      "type": "function"
    },
    {
      "inputs": [
        {
          "internalType": "bytes32",
          "name": "role",
          "type": "bytes32"
        },
        {
          "internalType": "address",
          "name": "account",
          "type": "address"
        }
      ],
      "name": "hasRole",
      "outputs": [
        {
          "internalType": "bool",
          "name": "",
          "type": "bool"
        }
      ],
      "stateMutability": "view",
      "type": "function",
      "constant": true
    },
    {
      "inputs": [
        {
          "internalType": "address",
          "name": "account",
          "type": "address"
        }
      ],
      "name": "isAdmin",
      "outputs": [
        {
          "internalType": "bool",
          "name": "",
          "type": "bool"
        }
      ],
      "stateMutability": "view",
      "type": "function",
      "constant": true
    },
    {
      "inputs": [
        {
          "internalType": "address",
          "name": "owner",
          "type": "address"
        },
        {
          "internalType": "address",
          "name": "operator",
          "type": "address"
        }
      ],
      "name": "isApprovedForAll",
      "outputs": [
        {
          "internalType": "bool",
          "name": "",
          "type": "bool"
        }
      ],
      "stateMutability": "view",
      "type": "function",
      "constant": true
    },
    {
      "inputs": [
        {
          "internalType": "address",
          "name": "account",
          "type": "address"
        }
      ],
      "name": "isFaculty",
      "outputs": [
        {
          "internalType": "bool",
          "name": "",
          "type": "bool"
        }
      ],
      "stateMutability": "view",
      "type": "function",
      "constant": true
    },
    {
      "inputs": [
        {
          "internalType": "address[]",
          "name": "_array",
          "type": "address[]"
        }
      ],
      "name": "multiAddFaculty",
      "outputs": [],
      "stateMutability": "nonpayable",
      "type": "function"
    },
    {
      "inputs": [],
      "name": "name",
      "outputs": [
        {
          "internalType": "string",
          "name": "",
          "type": "string"
        }
      ],
      "stateMutability": "view",
      "type": "function",
      "constant": true
    },
    {
      "inputs": [
        {
          "internalType": "uint256",
          "name": "tokenId",
          "type": "uint256"
        }
      ],
      "name": "ownerOf",
      "outputs": [
        {
          "internalType": "address",
          "name": "",
          "type": "address"
        }
      ],
      "stateMutability": "view",
      "type": "function",
      "constant": true
    },
    {
      "inputs": [
        {
          "internalType": "address",
          "name": "account",
          "type": "address"
        }
      ],
      "name": "removeAdmin",
      "outputs": [],
      "stateMutability": "nonpayable",
      "type": "function"
    },
    {
      "inputs": [
        {
          "internalType": "address",
          "name": "account",
          "type": "address"
        }
      ],
      "name": "removeFaculty",
      "outputs": [],
      "stateMutability": "nonpayable",
      "type": "function"
    },
    {
      "inputs": [
        {
          "internalType": "bytes32",
          "name": "role",
          "type": "bytes32"
        },
        {
          "internalType": "address",
          "name": "account",
          "type": "address"
        }
      ],
      "name": "renounceRole",
      "outputs": [],
      "stateMutability": "nonpayable",
      "type": "function"
    },
    {
      "inputs": [
        {
          "internalType": "bytes32",
          "name": "role",
          "type": "bytes32"
        },
        {
          "internalType": "address",
          "name": "account",
          "type": "address"
        }
      ],
      "name": "revokeRole",
      "outputs": [],
      "stateMutability": "nonpayable",
      "type": "function"
    },
    {
      "inputs": [
        {
          "internalType": "address",
          "name": "from",
          "type": "address"
        },
        {
          "internalType": "address",
          "name": "to",
          "type": "address"
        },
        {
          "internalType": "uint256",
          "name": "tokenId",
          "type": "uint256"
        }
      ],
      "name": "safeTransferFrom",
      "outputs": [],
      "stateMutability": "nonpayable",
      "type": "function"
    },
    {
      "inputs": [
        {
          "internalType": "address",
          "name": "from",
          "type": "address"
        },
        {
          "internalType": "address",
          "name": "to",
          "type": "address"
        },
        {
          "internalType": "uint256",
          "name": "tokenId",
          "type": "uint256"
        },
        {
          "internalType": "bytes",
          "name": "data",
          "type": "bytes"
        }
      ],
      "name": "safeTransferFrom",
      "outputs": [],
      "stateMutability": "nonpayable",
      "type": "function"
    },
    {
      "inputs": [
        {
          "internalType": "address",
          "name": "operator",
          "type": "address"
        },
        {
          "internalType": "bool",
          "name": "approved",
          "type": "bool"
        }
      ],
      "name": "setApprovalForAll",
      "outputs": [],
      "stateMutability": "nonpayable",
      "type": "function"
    },
    {
      "inputs": [],
      "name": "symbol",
      "outputs": [
        {
          "internalType": "string",
          "name": "",
          "type": "string"
        }
      ],
      "stateMutability": "view",
      "type": "function",
      "constant": true
    },
    {
      "inputs": [
        {
          "internalType": "uint256",
          "name": "index",
          "type": "uint256"
        }
      ],
      "name": "tokenByIndex",
      "outputs": [
        {
          "internalType": "uint256",
          "name": "",
          "type": "uint256"
        }
      ],
      "stateMutability": "view",
      "type": "function",
      "constant": true
    },
    {
      "inputs": [
        {
          "internalType": "address",
          "name": "owner",
          "type": "address"
        },
        {
          "internalType": "uint256",
          "name": "index",
          "type": "uint256"
        }
      ],
      "name": "tokenOfOwnerByIndex",
      "outputs": [
        {
          "internalType": "uint256",
          "name": "",
          "type": "uint256"
        }
      ],
      "stateMutability": "view",
      "type": "function",
      "constant": true
    },
    {
      "inputs": [],
      "name": "totalSupply",
      "outputs": [
        {
          "internalType": "uint256",
          "name": "",
          "type": "uint256"
        }
      ],
      "stateMutability": "view",
      "type": "function",
      "constant": true
    },
    {
      "inputs": [
        {
          "internalType": "address",
          "name": "from",
          "type": "address"
        },
        {
          "internalType": "address",
          "name": "to",
          "type": "address"
        },
        {
          "internalType": "uint256",
          "name": "tokenId",
          "type": "uint256"
        }
      ],
      "name": "transferFrom",
      "outputs": [],
      "stateMutability": "nonpayable",
      "type": "function"
    },
    {
      "inputs": [
        {
          "internalType": "string",
          "name": "_id",
          "type": "string"
        },
        {
          "internalType": "address",
          "name": "_address",
          "type": "address"
        }
      ],
      "name": "addStudentAddress",
      "outputs": [],
      "stateMutability": "nonpayable",
      "type": "function"
    },
    {
      "inputs": [
        {
          "components": [
            {
              "internalType": "string",
              "name": "id",
              "type": "string"
            },
            {
              "internalType": "address",
              "name": "addr",
              "type": "address"
            }
          ],
          "internalType": "struct SITNFT.IdAddress[]",
          "name": "_array",
          "type": "tuple[]"
        }
      ],
      "name": "multiAddStudentAddress",
      "outputs": [],
      "stateMutability": "nonpayable",
      "type": "function"
    },
    {
      "inputs": [
        {
          "internalType": "address",
          "name": "account",
          "type": "address"
        }
      ],
      "name": "isStudent",
      "outputs": [
        {
          "internalType": "bool",
          "name": "",
          "type": "bool"
        }
      ],
      "stateMutability": "view",
      "type": "function",
      "constant": true
    },
    {
      "inputs": [
        {
          "internalType": "string",
          "name": "moduleCode",
          "type": "string"
        },
        {
          "internalType": "string",
          "name": "testType",
          "type": "string"
        },
        {
          "internalType": "string",
          "name": "grade",
          "type": "string"
        },
        {
          "internalType": "string",
          "name": "trimester",
          "type": "string"
        },
        {
          "internalType": "string",
          "name": "recipient",
          "type": "string"
        }
      ],
      "name": "mint",
      "outputs": [],
      "stateMutability": "nonpayable",
      "type": "function"
    },
    {
      "inputs": [
        {
          "components": [
            {
              "internalType": "string",
              "name": "moduleCode",
              "type": "string"
            },
            {
              "internalType": "string",
              "name": "testType",
              "type": "string"
            },
            {
              "internalType": "string",
              "name": "grade",
              "type": "string"
            },
            {
              "internalType": "string",
              "name": "trimester",
              "type": "string"
            },
            {
              "internalType": "string",
              "name": "recipient",
              "type": "string"
            }
          ],
          "internalType": "struct SITNFT.ParamAttribute[]",
          "name": "_array",
          "type": "tuple[]"
        }
      ],
      "name": "batchMint",
      "outputs": [],
      "stateMutability": "nonpayable",
      "type": "function"
    },
    {
      "inputs": [
        {
          "internalType": "string",
          "name": "message",
          "type": "string"
        },
        {
          "internalType": "string",
          "name": "tokenName",
          "type": "string"
        },
        {
          "internalType": "uint256",
          "name": "tokenId",
          "type": "uint256"
        },
        {
          "internalType": "address",
          "name": "faculty",
          "type": "address"
        }
      ],
      "name": "addToBlockchain",
      "outputs": [],
      "stateMutability": "nonpayable",
      "type": "function"
    },
    {
      "inputs": [
        {
          "internalType": "address",
          "name": "faculty",
          "type": "address"
        }
      ],
      "name": "getAllTransactions",
      "outputs": [
        {
          "components": [
            {
              "internalType": "address",
              "name": "sender",
              "type": "address"
            },
            {
              "internalType": "string",
              "name": "message",
              "type": "string"
            },
            {
              "internalType": "string",
              "name": "tokenName",
              "type": "string"
            },
            {
              "internalType": "uint256",
              "name": "tokenId",
              "type": "uint256"
            },
            {
              "internalType": "address",
              "name": "faculty",
              "type": "address"
            },
            {
              "internalType": "uint256",
              "name": "timestamp",
              "type": "uint256"
            },
            {
              "internalType": "bool",
              "name": "reviewed",
              "type": "bool"
            }
          ],
          "internalType": "struct SITNFT.TransferStruct[]",
          "name": "",
          "type": "tuple[]"
        }
      ],
      "stateMutability": "view",
      "type": "function",
      "constant": true
    },
    {
      "inputs": [
        {
          "internalType": "uint256",
          "name": "_tokenId",
          "type": "uint256"
        },
        {
          "internalType": "string",
          "name": "grade",
          "type": "string"
        },
        {
          "internalType": "uint256",
          "name": "position",
          "type": "uint256"
        }
      ],
      "name": "setMetadata",
      "outputs": [],
      "stateMutability": "nonpayable",
      "type": "function"
    },
    {
      "inputs": [
        {
          "internalType": "uint256",
          "name": "_tokenId",
          "type": "uint256"
        }
      ],
      "name": "tokenURI",
      "outputs": [
        {
          "internalType": "string",
          "name": "",
          "type": "string"
        }
      ],
      "stateMutability": "view",
      "type": "function",
      "constant": true
    },
    {
      "inputs": [
        {
          "internalType": "uint256",
          "name": "_tokenId",
          "type": "uint256"
        }
      ],
      "name": "attributes",
      "outputs": [
        {
          "internalType": "string",
          "name": "",
          "type": "string"
        },
        {
          "internalType": "string",
          "name": "",
          "type": "string"
        },
        {
          "internalType": "string",
          "name": "",
          "type": "string"
        },
        {
          "internalType": "string",
          "name": "",
          "type": "string"
        },
        {
          "internalType": "address",
          "name": "",
          "type": "address"
        },
        {
          "internalType": "address",
          "name": "",
          "type": "address"
        }
      ],
      "stateMutability": "view",
      "type": "function",
      "constant": true
    },
    {
      "inputs": [
        {
          "internalType": "bytes4",
          "name": "interfaceId",
          "type": "bytes4"
        }
      ],
      "name": "supportsInterface",
      "outputs": [
        {
          "internalType": "bool",
          "name": "",
          "type": "bool"
        }
      ],
      "stateMutability": "view",
      "type": "function",
      "constant": true
    }
  ],
  "bytecode": "0x6007610300818152662365636133663560c81b61032052610280908152610340828152662366646261663960c81b610360526102a0526103808281526611b11832b332b160c91b6103a0526102c0526103c0828152662365646666613960c81b6103e0526102e0526080908152610480828152660466e6ac6ccc4760cb1b6104a0526104009081526104c083815266046c4c4c8ccc6760cb1b6104e0526104205261050083815266046cc60ca6ac8760cb1b610520526104405261054083815266046ccccc6686e760cb1b610560526104605260a052610600828152662366666162373360c81b610620526105809081526106408381526608d999990cce0d60ca1b610660526105a052610680838152660236666663962360cc1b6106a0526105c0526106c0838152660236666616563360cc1b6106e0526105e05260c0526107808281526608ce4d188d184d60ca1b6107a0526107009081526107c0838152662364326635653360c81b6107e05261072052610800838152662365356335623560c81b61082052610740526108408381526611b31a321cb19b60c91b610860526107605260e052610900828152662366346639663960c81b6109208190526108809182526109408481526608d8d8d98c998d60ca1b610960526108a052610980848152662361346562663360c81b6109a0526108c0526109c0848152662361616161616160c81b6109e0526108e05261010091909152610a80838152662363616637653360c81b610aa052610a00908152610ac0848152662365646666656360c81b610ae052610a2052610b008481526611b31b323332b160c91b610b2052610a4052610b408481526608d94d1898590d60ca1b610b6052610a605261012052610c00838152610c2091909152610b80908152610c40838152660236631643164360cc1b610c6052610ba052610c80838152662366626163636360c81b610ca052610bc052610cc0838152662366383735616160c81b610ce052610be05261014052610d80828152662366646666626360c81b610da052610d00908152610dc08381526611b33332b2b13160c91b610de052610d2052610e0083815266046ccccc8c6c4760cb1b610e2052610d4052610e408381526611b3333198b11b60c91b610e6052610d605261016052610f00828152662366306534643760c81b610f2052610e80908152610f40838152660236635633063360cc1b610f6052610ea052610f80838152662366663731373160c81b610fa052610ec052610fc083815266119cb3321c323360c91b610fe052610ee052610180526110808281526611b29a3331333360c91b6110a0526110009081526110c08381526611b11c311ab33360c91b6110e0526110205261110083815266119b9c1b1c329b60c91b6111205261104052611140838152662365646565663760c81b61116052611060526101a052611200828152662366666362393160c81b61122052611180908152611240838152662366666566613160c81b611260526111a0526112808381526608ce4d195898d960ca1b6112a0526111c0526112c083815266119b323231b1b360c91b6112e0526111e0526101c052611380828152662362656463666160c81b6113a0526113009081526113c0838152660467270c2c6cc760cb1b6113e05261132052611400838152662362303838663960c81b6114205261134052611440838152662364613966663960c81b61146052611360526101e0526115008281526611b131b29b32b160c91b611520526114809081526115408381526611b33231b3323360c91b611560526114a0526115808381526611b3313132b23360c91b6115a0526114c0526115c0838152662366636133636360c81b6115e0526114e05261020052611680828152660236666373561360cc1b6116a0526116009081526116c0838152662366636533386160c81b6116e05261162052611700838152660236561666664360cc1b6117205261164052611740838152662339356531643360c81b6117605261166052610220526118008281526608d998994c18cd60ca1b6118205261178090815261184083815266119c30b11b321b60c91b611860526117a052611880838152662332393738623560c81b6118a0526117c0526118c08381526604660606c62c2760cb1b6118e0526117e052610240526119808281526608d9191919191960ca1b6119a0526119009081526119c0838152662366396633663360c81b6119e05261192052611a00838152662366376439643960c81b611a205261194052611a80604052611a40928352662366323532383760c81b611a60526119609290925261026091909152620006b890600e9060106200094f565b50348015620006c657600080fd5b50604080518082018252600781526614d2550813919560ca1b60208083019182528351808501909452600384526214d25560ea1b908401528151339391620007129160009190620009a1565b50805162000728906001906020840190620009a1565b5050506001600160a01b0381166200073f57600080fd5b600c80546001600160a01b0319166001600160a01b038316179055620007676000826200079b565b620007947f573a495ec6f39d095bd4855f18069a9236d77216cfb96e453909f2408c333cfa6000620007ab565b5062000b9c565b620007a78282620007f6565b5050565b6000828152600a6020526040808220600101805490849055905190918391839186917fbd79b86ffe0ab8e8776151514217cd7cacd52c909f66475c3af44e129f0b00ff9190a4505050565b6200080d82826200083960201b620024891760201c565b6000828152600b60209081526040909120620008349183906200252b620008dd821b17901c565b505050565b6000828152600a602090815260408083206001600160a01b038516845290915290205460ff16620007a7576000828152600a602090815260408083206001600160a01b03851684529091529020805460ff19166001179055620008993390565b6001600160a01b0316816001600160a01b0316837f2f8788117e7eff1d82e926ec794901d17c78024a50270940304540a733656f0d60405160405180910390a45050565b6000620008f4836001600160a01b038416620008fd565b90505b92915050565b60008181526001830160205260408120546200094657508154600181810184556000848152602080822090930184905584548482528286019093526040902091909155620008f7565b506000620008f7565b6040830191839082156200098f579160200282015b828111156200098f5782516200097e908390600462000a2c565b509160200191906004019062000964565b506200099d92915062000a7f565b5090565b828054620009af9062000b60565b90600052602060002090601f016020900481019282620009d3576000855562000a1e565b82601f10620009ee57805160ff191683800117855562000a1e565b8280016001018555821562000a1e579182015b8281111562000a1e57825182559160200191906001019062000a01565b506200099d92915062000aa0565b826004810192821562000a71579160200282015b8281111562000a71578251805162000a60918491602090910190620009a1565b509160200191906001019062000a40565b506200099d92915062000ab7565b808211156200099d57600062000a96828262000ad8565b5060040162000a7f565b5b808211156200099d576000815560010162000aa1565b808211156200099d57600062000ace828262000b1e565b5060010162000ab7565b50600062000ae7828262000b1e565b50600101600062000af9828262000b1e565b50600101600062000b0b828262000b1e565b5062000b1c90600101600062000b1e565b565b50805462000b2c9062000b60565b6000825580601f1062000b3d575050565b601f01602090049060005260206000209081019062000b5d919062000aa0565b50565b600181811c9082168062000b7557607f821691505b60208210810362000b9657634e487b7160e01b600052602260045260246000fd5b50919050565b615da98062000bac6000396000f3fe608060405234801561001057600080fd5b50600436106102de5760003560e01c80637048027511610186578063a22cb465116100e3578063ca15c87311610097578063dab3b7aa11610071578063dab3b7aa14610654578063e985e9c514610674578063f408977b146106b057600080fd5b8063ca15c87314610609578063d05dcc6a1461061c578063d547741f1461064157600080fd5b8063c2a78702116100c8578063c2a78702146105d0578063c8360ce8146105e3578063c87b56dd146105f657600080fd5b8063a22cb465146105aa578063b88d4fde146105bd57600080fd5b80639010d07c1161013a57806393a865321161011f57806393a865321461058757806395d89b411461059a578063a217fddf146105a257600080fd5b80639010d07c1461053b57806391d148541461054e57600080fd5b806382f7d3921161016b57806382f7d392146104ec57806386833e9114610517578063893d20e81461052a57600080fd5b806370480275146104c657806370a08231146104d957600080fd5b80632f745c591161023f57806343f2e326116101f357806362f746d2116101cd57806362f746d2146104795780636352211e1461048c5780636fe3ceb81461049f57600080fd5b806343f2e32614610440578063456f46c4146104535780634f6ccce71461046657600080fd5b806336568abe1161022457806336568abe14610407578063396ff3ed1461041a57806342842e0e1461042d57600080fd5b80632f745c59146103e15780633570ef01146103f457600080fd5b806318160ddd11610296578063248a9ca31161027b578063248a9ca31461039857806324d7806c146103bb5780632f2ff15d146103ce57600080fd5b806318160ddd1461037357806323b872dd1461038557600080fd5b8063081812fc116102c7578063081812fc14610320578063095ea7b31461034b5780631785f53c1461036057600080fd5b806301ffc9a7146102e357806306fdde031461030b575b600080fd5b6102f66102f1366004614169565b6106c3565b60405190151581526020015b60405180910390f35b6103136106d4565b60405161030291906141de565b61033361032e3660046141f1565b610766565b6040516001600160a01b039091168152602001610302565b61035e610359366004614226565b61078d565b005b61035e61036e366004614250565b6108c3565b6008545b604051908152602001610302565b61035e61039336600461426b565b61091e565b6103776103a63660046141f1565b6000908152600a602052604090206001015490565b6102f66103c9366004614250565b6109a5565b61035e6103dc3660046142a7565b6109e5565b6103776103ef366004614226565b610a0a565b61035e61040236600461437f565b610ab2565b61035e6104153660046142a7565b610c1c565b61035e610428366004614250565b610ca8565b61035e61043b36600461426b565b610d75565b61035e61044e3660046143fd565b610d90565b61035e610461366004614499565b610f35565b6103776104743660046141f1565b6113f2565b61035e610487366004614499565b611496565b61033361049a3660046141f1565b611638565b6103777f573a495ec6f39d095bd4855f18069a9236d77216cfb96e453909f2408c333cfa81565b61035e6104d4366004614250565b61169d565b6103776104e7366004614250565b61174b565b6102f66104fa366004614250565b6001600160a01b0316600090815260506020526040902054151590565b61035e61052536600461451d565b6117e5565b600c546001600160a01b0316610333565b61033361054936600461460e565b611ab5565b6102f661055c3660046142a7565b6000918252600a602090815260408084206001600160a01b0393909316845291905290205460ff1690565b61035e610595366004614250565b611ad4565b610313611b4b565b610377600081565b61035e6105b8366004614630565b611b5a565b61035e6105cb36600461466c565b611b65565b6102f66105de366004614250565b611bf3565b61035e6105f1366004614499565b611c33565b6103136106043660046141f1565b611da4565b6103776106173660046141f1565b611e3a565b61062f61062a3660046141f1565b611e51565b604051610302969594939291906146e8565b61035e61064f3660046142a7565b61216a565b610667610662366004614250565b61218f565b604051610302919061475c565b6102f6610682366004614827565b6001600160a01b03918216600090815260056020908152604080832093909416825291909152205460ff1690565b61035e6106be366004614851565b61237a565b60006106ce82612540565b92915050565b6060600080546106e390614896565b80601f016020809104026020016040519081016040528092919081815260200182805461070f90614896565b801561075c5780601f106107315761010080835404028352916020019161075c565b820191906000526020600020905b81548152906001019060200180831161073f57829003601f168201915b5050505050905090565b60006107718261257e565b506000908152600460205260409020546001600160a01b031690565b600061079882611638565b9050806001600160a01b0316836001600160a01b0316036108265760405162461bcd60e51b815260206004820152602160248201527f4552433732313a20617070726f76616c20746f2063757272656e74206f776e6560448201527f720000000000000000000000000000000000000000000000000000000000000060648201526084015b60405180910390fd5b336001600160a01b038216148061084257506108428133610682565b6108b45760405162461bcd60e51b815260206004820152603e60248201527f4552433732313a20617070726f76652063616c6c6572206973206e6f7420746f60448201527f6b656e206f776e6572206e6f7220617070726f76656420666f7220616c6c0000606482015260840161081d565b6108be83836125e2565b505050565b6108cc336109a5565b6109105760405162461bcd60e51b81526020600482015260156024820152742932b9ba3934b1ba32b2103a379030b236b4b7399760591b604482015260640161081d565b61091b60008261216a565b50565b6109283382612650565b61099a5760405162461bcd60e51b815260206004820152602e60248201527f4552433732313a2063616c6c6572206973206e6f7420746f6b656e206f776e6560448201527f72206e6f7220617070726f766564000000000000000000000000000000000000606482015260840161081d565b6108be8383836126cf565b6001600160a01b03811660009081527f13da86008ba1c6922daee3e07db95305ef49ebced9f5467a0b8613fcc6b343e3602052604081205460ff166106ce565b6000828152600a6020526040902060010154610a00816128a7565b6108be83836128b1565b6000610a158361174b565b8210610a895760405162461bcd60e51b815260206004820152602b60248201527f455243373231456e756d657261626c653a206f776e657220696e646578206f7560448201527f74206f6620626f756e6473000000000000000000000000000000000000000000606482015260840161081d565b506001600160a01b03919091166000908152600660209081526040808320938352929052205490565b6001600160a01b038181166000818152605160209081526040808320815160e0810183523381528084018b81529281018a90526060810189905260808101959095524260a086015260c0850184905280546001808201835591855293839020855160079095020180546001600160a01b03191694909616939093178555518051939493610b469385019291909101906140ba565b5060408201518051610b629160028401916020909101906140ba565b506060820151600382015560808201516004820180546001600160a01b0319166001600160a01b0390921691909117905560a0820151600582015560c0909101516006909101805460ff1916911515919091179055337fee730ba09a71e13f60eb06860893374cd24a2d1661cc0a10f19bc976106c33e183610be3816128d3565b604051602001610bf391906148ec565b60408051601f1981840301815290829052610c0e9291614931565b60405180910390a250505050565b6001600160a01b0381163314610c9a5760405162461bcd60e51b815260206004820152602f60248201527f416363657373436f6e74726f6c3a2063616e206f6e6c792072656e6f756e636560448201527f20726f6c657320666f722073656c660000000000000000000000000000000000606482015260840161081d565b610ca482826129d4565b5050565b610cb1336109a5565b610cf55760405162461bcd60e51b81526020600482015260156024820152742932b9ba3934b1ba32b2103a379030b236b4b7399760591b604482015260640161081d565b610cfe816109a5565b15610d4b5760405162461bcd60e51b815260206004820152601a60248201527f41646d696e2063616e6e6f74206265206120666163756c74792e000000000000604482015260640161081d565b61091b7f573a495ec6f39d095bd4855f18069a9236d77216cfb96e453909f2408c333cfa826109e5565b6108be83838360405180602001604052806000815250611b65565b610d9933611bf3565b610de55760405162461bcd60e51b815260206004820152601660248201527f5265737472696374656420746f20666163756c74792e00000000000000000000604482015260640161081d565b6000838152604e602090815260409091208351610e0a926002909201918501906140ba565b5033600090815260516020526040902080546001919083908110610e3057610e3061494a565b60009182526020808320600792909202909101600601805460ff191693151593909317909255848152604e909152604081206002018054610e7090614896565b80601f0160208091040260200160405190810160405280929190818152602001828054610e9c90614896565b8015610ee95780601f10610ebe57610100808354040283529160200191610ee9565b820191906000526020600020905b815481529060010190602001808311610ecc57829003601f168201915b50505050509050336001600160a01b03167fee730ba09a71e13f60eb06860893374cd24a2d1661cc0a10f19bc976106c33e185610f25876128d3565b604051602001610bf39190614960565b610f3e33611bf3565b610f8a5760405162461bcd60e51b815260206004820152601660248201527f5265737472696374656420746f20666163756c74792e00000000000000000000604482015260640161081d565b80600a8111156110025760405162461bcd60e51b815260206004820152602160248201527f43616e206f6e6c79206d696e7420313020746f6b656e7320617420612074696d60448201527f6500000000000000000000000000000000000000000000000000000000000000606482015260840161081d565b60005b8181101561137b5760006040518060c0016040528086868581811061102c5761102c61494a565b905060200281019061103e91906149cb565b61104890806149eb565b8080601f0160208091040260200160405190810160405280939291908181526020018383808284376000920191909152505050908252506020018686858181106110945761109461494a565b90506020028101906110a691906149cb565b6110b49060208101906149eb565b8080601f0160208091040260200160405190810160405280939291908181526020018383808284376000920191909152505050908252506020018686858181106111005761110061494a565b905060200281019061111291906149cb565b6111209060408101906149eb565b8080601f01602080910402602001604051908101604052809392919081815260200183838082843760009201919091525050509082525060200186868581811061116c5761116c61494a565b905060200281019061117e91906149cb565b61118c9060608101906149eb565b8080601f01602080910402602001604051908101604052809392919081815260200183838082843760009201919091525050509082525033602082015260400161123b8787868181106111e1576111e161494a565b90506020028101906111f391906149cb565b6112019060808101906149eb565b8080601f0160208091040260200160405190810160405280939291908181526020018383808284376000920191909152506129f692505050565b6001600160a01b031690529050611256600d80546001019055565b6000611261600d5490565b6000818152604e60209081526040909120845180519394508593919261128c928492909101906140ba565b5060208281015180516112a592600185019201906140ba565b50604082015180516112c19160028401916020909101906140ba565b50606082015180516112dd9160038401916020909101906140ba565b5060808201516004820180546001600160a01b039283166001600160a01b03199182161790915560a0938401516005909301805493909216921691909117905582015161132a9082612aa5565b815160405133917f85a66b9141978db9980f7e0ce3b468cebf4f7999f32b23091c5c03e798b1ba7a9161135e918591614931565b60405180910390a25050808061137390614a48565b915050611005565b50336001600160a01b03167fa66ae13e5605ba8fbc32dd24e75cd0f527810c48b5d0cbd0290be290217b2da06040516113e59060208082526011908201527f42617463684d696e74436f6d706c657465000000000000000000000000000000604082015260600190565b60405180910390a2505050565b60006113fd60085490565b82106114715760405162461bcd60e51b815260206004820152602c60248201527f455243373231456e756d657261626c653a20676c6f62616c20696e646578206f60448201527f7574206f6620626f756e64730000000000000000000000000000000000000000606482015260840161081d565b600882815481106114845761148461494a565b90600052602060002001549050919050565b61149f336109a5565b6114e35760405162461bcd60e51b81526020600482015260156024820152742932b9ba3934b1ba32b2103a379030b236b4b7399760591b604482015260640161081d565b60005b818110156115c2576115188383838181106115035761150361494a565b90506020020160208101906103c99190614250565b156115655760405162461bcd60e51b815260206004820152601a60248201527f41646d696e2063616e6e6f74206265206120666163756c74792e000000000000604482015260640161081d565b6115b07f573a495ec6f39d095bd4855f18069a9236d77216cfb96e453909f2408c333cfa84848481811061159b5761159b61494a565b90506020020160208101906103dc9190614250565b806115ba81614a48565b9150506114e6565b50336001600160a01b03167fa66ae13e5605ba8fbc32dd24e75cd0f527810c48b5d0cbd0290be290217b2da060405161162c9060208082526016908201527f6d756c7469416464466163756c74795375636365656400000000000000000000604082015260600190565b60405180910390a25050565b6000818152600260205260408120546001600160a01b0316806106ce5760405162461bcd60e51b815260206004820152601860248201527f4552433732313a20696e76616c696420746f6b656e2049440000000000000000604482015260640161081d565b6116a6336109a5565b6116ea5760405162461bcd60e51b81526020600482015260156024820152742932b9ba3934b1ba32b2103a379030b236b4b7399760591b604482015260640161081d565b6116f381611bf3565b156117405760405162461bcd60e51b815260206004820152601b60248201527f466163756c74792063616e6e6f7420626520616e2061646d696e2e0000000000604482015260640161081d565b61091b6000826109e5565b60006001600160a01b0382166117c95760405162461bcd60e51b815260206004820152602960248201527f4552433732313a2061646472657373207a65726f206973206e6f74206120766160448201527f6c6964206f776e65720000000000000000000000000000000000000000000000606482015260840161081d565b506001600160a01b031660009081526003602052604090205490565b6117ee33611bf3565b61183a5760405162461bcd60e51b815260206004820152601660248201527f5265737472696374656420746f20666163756c74792e00000000000000000000604482015260640161081d565b6040805160e06020601f8d01819004028201810190925260c081018b81526000928291908e908e9081908501838280828437600092019190915250505090825250604080516020601f8d018190048102820181019092528b815291810191908c908c9081908401838280828437600092019190915250505090825250604080516020601f8b0181900481028201810190925289815291810191908a908a9081908401838280828437600092019190915250505090825250604080516020601f8901819004810282018101909252878152918101919088908890819084018382808284376000920191909152505050908252503360208083019190915260408051601f870183900483028101830182528681529201916119739187908790819084018382808284376000920191909152506129f692505050565b6001600160a01b03169052905061198e600d80546001019055565b6000611999600d5490565b6000818152604e6020908152604090912084518051939450859391926119c4928492909101906140ba565b5060208281015180516119dd92600185019201906140ba565b50604082015180516119f99160028401916020909101906140ba565b5060608201518051611a159160038401916020909101906140ba565b5060808201516004820180546001600160a01b039283166001600160a01b03199182161790915560a09384015160059093018054939092169216919091179055820151611a629082612aa5565b336001600160a01b03167f85a66b9141978db9980f7e0ce3b468cebf4f7999f32b23091c5c03e798b1ba7a828e8e604051611a9f93929190614a61565b60405180910390a2505050505050505050505050565b6000828152600b60205260408120611acd9083612abf565b9392505050565b611add336109a5565b611b215760405162461bcd60e51b81526020600482015260156024820152742932b9ba3934b1ba32b2103a379030b236b4b7399760591b604482015260640161081d565b61091b7f573a495ec6f39d095bd4855f18069a9236d77216cfb96e453909f2408c333cfa8261216a565b6060600180546106e390614896565b610ca4338383612acb565b611b6f3383612650565b611be15760405162461bcd60e51b815260206004820152602e60248201527f4552433732313a2063616c6c6572206973206e6f7420746f6b656e206f776e6560448201527f72206e6f7220617070726f766564000000000000000000000000000000000000606482015260840161081d565b611bed84848484612b99565b50505050565b6001600160a01b03811660009081527f9019cc2ada0da9adebe4b58b4b78fbab4edc82e8bb6da2a3f362a37225196cd3602052604081205460ff166106ce565b611c3c336109a5565b611c805760405162461bcd60e51b81526020600482015260156024820152742932b9ba3934b1ba32b2103a379030b236b4b7399760591b604482015260640161081d565b60005b81811015611d3a57611d28838383818110611ca057611ca061494a565b9050602002810190611cb29190614a97565b611cbc90806149eb565b8080601f016020809104026020016040519081016040528093929190818152602001838380828437600092019190915250879250869150859050818110611d0557611d0561494a565b9050602002810190611d179190614a97565b6106be906040810190602001614250565b80611d3281614a48565b915050611c83565b50336001600160a01b03167fa66ae13e5605ba8fbc32dd24e75cd0f527810c48b5d0cbd0290be290217b2da060405161162c9060208082526016908201527f6d756c746941646453747564656e745375636365656400000000000000000000604082015260600190565b6000818152600260205260409020546060906001600160a01b0316611e315760405162461bcd60e51b815260206004820152602f60248201527f4552433732314d657461646174613a2055524920717565727920666f72206e6f60448201527f6e6578697374656e7420746f6b656e0000000000000000000000000000000000606482015260840161081d565b6106ce82612c22565b6000818152600b602052604081206106ce90612cb0565b606080606080600080611e7b876000908152600260205260409020546001600160a01b0316151590565b611eed5760405162461bcd60e51b815260206004820152603560248201527f4552433732314d657461646174613a206174747269627574652071756572792060448201527f666f72206e6f6e6578697374656e7420746f6b656e0000000000000000000000606482015260840161081d565b6000878152604e602052604090206004810154600582015482546001840192600285019260038601926001600160a01b0392831692909116908690611f3190614896565b80601f0160208091040260200160405190810160405280929190818152602001828054611f5d90614896565b8015611faa5780601f10611f7f57610100808354040283529160200191611faa565b820191906000526020600020905b815481529060010190602001808311611f8d57829003601f168201915b50505050509550848054611fbd90614896565b80601f0160208091040260200160405190810160405280929190818152602001828054611fe990614896565b80156120365780601f1061200b57610100808354040283529160200191612036565b820191906000526020600020905b81548152906001019060200180831161201957829003601f168201915b5050505050945083805461204990614896565b80601f016020809104026020016040519081016040528092919081815260200182805461207590614896565b80156120c25780601f10612097576101008083540402835291602001916120c2565b820191906000526020600020905b8154815290600101906020018083116120a557829003601f168201915b505050505093508280546120d590614896565b80601f016020809104026020016040519081016040528092919081815260200182805461210190614896565b801561214e5780601f106121235761010080835404028352916020019161214e565b820191906000526020600020905b81548152906001019060200180831161213157829003601f168201915b5050505050925095509550955095509550955091939550919395565b6000828152600a6020526040902060010154612185816128a7565b6108be83836129d4565b6001600160a01b0381166000908152605160209081526040808320805482518185028101850190935280835260609492939192909184015b8282101561236f5760008481526020908190206040805160e081019091526007850290910180546001600160a01b03168252600181018054929391929184019161221090614896565b80601f016020809104026020016040519081016040528092919081815260200182805461223c90614896565b80156122895780601f1061225e57610100808354040283529160200191612289565b820191906000526020600020905b81548152906001019060200180831161226c57829003601f168201915b505050505081526020016002820180546122a290614896565b80601f01602080910402602001604051908101604052809291908181526020018280546122ce90614896565b801561231b5780601f106122f05761010080835404028352916020019161231b565b820191906000526020600020905b8154815290600101906020018083116122fe57829003601f168201915b5050509183525050600382015460208083019190915260048301546001600160a01b031660408301526005830154606083015260069092015460ff16151560809091015290825260019290920191016121c7565b505050509050919050565b612383336109a5565b6123c75760405162461bcd60e51b81526020600482015260156024820152742932b9ba3934b1ba32b2103a379030b236b4b7399760591b604482015260640161081d565b6000826040516020016123da9190614aad565b60408051601f1981840301815282825280516020918201206000818152604f835283812080546001600160a01b0389166001600160a01b0319909116811790915581526050909252919020819055915033907fa66ae13e5605ba8fbc32dd24e75cd0f527810c48b5d0cbd0290be290217b2da0906113e59060208082526011908201527f61646453747564656e7453756363656564000000000000000000000000000000604082015260600190565b6000828152600a602090815260408083206001600160a01b038516845290915290205460ff16610ca4576000828152600a602090815260408083206001600160a01b03851684529091529020805460ff191660011790556124e73390565b6001600160a01b0316816001600160a01b0316837f2f8788117e7eff1d82e926ec794901d17c78024a50270940304540a733656f0d60405160405180910390a45050565b6000611acd836001600160a01b038416612cba565b60006001600160e01b031982167f5a05180f0000000000000000000000000000000000000000000000000000000014806106ce57506106ce82612d09565b6000818152600260205260409020546001600160a01b031661091b5760405162461bcd60e51b815260206004820152601860248201527f4552433732313a20696e76616c696420746f6b656e2049440000000000000000604482015260640161081d565b600081815260046020526040902080546001600160a01b0319166001600160a01b038416908117909155819061261782611638565b6001600160a01b03167f8c5be1e5ebec7d5bd14f71427d1e84f3dd0314c0f7b2291e5b200ac8c7c3b92560405160405180910390a45050565b60008061265c83611638565b9050806001600160a01b0316846001600160a01b031614806126a357506001600160a01b0380821660009081526005602090815260408083209388168352929052205460ff165b806126c75750836001600160a01b03166126bc84610766565b6001600160a01b0316145b949350505050565b826001600160a01b03166126e282611638565b6001600160a01b03161461275e5760405162461bcd60e51b815260206004820152602560248201527f4552433732313a207472616e736665722066726f6d20696e636f72726563742060448201527f6f776e6572000000000000000000000000000000000000000000000000000000606482015260840161081d565b6001600160a01b0382166127d95760405162461bcd60e51b8152602060048201526024808201527f4552433732313a207472616e7366657220746f20746865207a65726f2061646460448201527f7265737300000000000000000000000000000000000000000000000000000000606482015260840161081d565b6127e4838383612d47565b6127ef6000826125e2565b6001600160a01b0383166000908152600360205260408120805460019290612818908490614abf565b90915550506001600160a01b0382166000908152600360205260408120805460019290612846908490614ad6565b909155505060008181526002602052604080822080546001600160a01b0319166001600160a01b0386811691821790925591518493918716917fddf252ad1be2c89b69c2b068fc378daa952ba7f163c4a11628f55a4df523b3ef91a4505050565b61091b8133613057565b6128bb8282612489565b6000828152600b602052604090206108be908261252b565b6060816000036128fa5750506040805180820190915260018152600360fc1b602082015290565b8160005b8115612924578061290e81614a48565b915061291d9050600a83614b04565b91506128fe565b60008167ffffffffffffffff81111561293f5761293f6142d3565b6040519080825280601f01601f191660200182016040528015612969576020820181803683370190505b5090505b84156126c75761297e600183614abf565b915061298b600a86614b18565b612996906030614ad6565b60f81b8183815181106129ab576129ab61494a565b60200101906001600160f81b031916908160001a9053506129cd600a86614b04565b945061296d565b6129de82826130d7565b6000828152600b602052604090206108be908261315a565b60008082604051602001612a0a9190614aad565b60408051601f1981840301815291815281516020928301206000818152604f9093529120549091506001600160a01b0316612a875760405162461bcd60e51b815260206004820152601760248201527f53747564656e7420646f6573206e6f742065786973742e000000000000000000604482015260640161081d565b6000908152604f60205260409020546001600160a01b031692915050565b610ca482826040518060200160405280600081525061316f565b6000611acd83836131f8565b816001600160a01b0316836001600160a01b031603612b2c5760405162461bcd60e51b815260206004820152601960248201527f4552433732313a20617070726f766520746f2063616c6c657200000000000000604482015260640161081d565b6001600160a01b03838116600081815260056020908152604080832094871680845294825291829020805460ff191686151590811790915591519182527f17307eab39ab6107e8899845ad3d59bd9653f200f220920489ca2b5937696c31910160405180910390a3505050565b612ba48484846126cf565b612bb084848484613222565b611bed5760405162461bcd60e51b815260206004820152603260248201527f4552433732313a207472616e7366657220746f206e6f6e20455243373231526560448201527f63656976657220696d706c656d656e7465720000000000000000000000000000606482015260840161081d565b60606000612c2f83613379565b90506000612c3c8461338c565b6000858152604e6020526040812091925090612c8490612c5b876128d3565b8585604051602001612c709493929190614bc5565b6040516020818303038152906040526133f7565b905080604051602001612c979190614ce2565b6040516020818303038152906040529350505050919050565b60006106ce825490565b6000818152600183016020526040812054612d01575081546001818101845560008481526020808220909301849055845484825282860190935260409020919091556106ce565b5060006106ce565b60006001600160e01b031982167f7965db0b0000000000000000000000000000000000000000000000000000000014806106ce57506106ce82613595565b612d528383836135d3565b6000818152604e6020526040808220815160c08101909252805482908290612d7990614896565b80601f0160208091040260200160405190810160405280929190818152602001828054612da590614896565b8015612df25780601f10612dc757610100808354040283529160200191612df2565b820191906000526020600020905b815481529060010190602001808311612dd557829003601f168201915b50505050508152602001600182018054612e0b90614896565b80601f0160208091040260200160405190810160405280929190818152602001828054612e3790614896565b8015612e845780601f10612e5957610100808354040283529160200191612e84565b820191906000526020600020905b815481529060010190602001808311612e6757829003601f168201915b50505050508152602001600282018054612e9d90614896565b80601f0160208091040260200160405190810160405280929190818152602001828054612ec990614896565b8015612f165780601f10612eeb57610100808354040283529160200191612f16565b820191906000526020600020905b815481529060010190602001808311612ef957829003601f168201915b50505050508152602001600382018054612f2f90614896565b80601f0160208091040260200160405190810160405280929190818152602001828054612f5b90614896565b8015612fa85780601f10612f7d57610100808354040283529160200191612fa8565b820191906000526020600020905b815481529060010190602001808311612f8b57829003601f168201915b505050918352505060048201546001600160a01b039081166020830152600590920154821660409091015260a082015191925084811691161480612ff95750600c546001600160a01b038481169116145b8061300b57506001600160a01b038316155b611bed5760405162461bcd60e51b815260206004820152601c60248201527f546172676574206973206e6f742074686520726563697069656e742e00000000604482015260640161081d565b6000828152600a602090815260408083206001600160a01b038516845290915290205460ff16610ca457613095816001600160a01b0316601461368b565b6130a083602061368b565b6040516020016130b1929190614d27565b60408051601f198184030181529082905262461bcd60e51b825261081d916004016141de565b6000828152600a602090815260408083206001600160a01b038516845290915290205460ff1615610ca4576000828152600a602090815260408083206001600160a01b0385168085529252808320805460ff1916905551339285917ff6391f5c32d9c69d2a47ea670b442974b53935d1edc7fd64eb21e047a839171b9190a45050565b6000611acd836001600160a01b038416613834565b6131798383613927565b6131866000848484613222565b6108be5760405162461bcd60e51b815260206004820152603260248201527f4552433732313a207472616e7366657220746f206e6f6e20455243373231526560448201527f63656976657220696d706c656d656e7465720000000000000000000000000000606482015260840161081d565b600082600001828154811061320f5761320f61494a565b9060005260206000200154905092915050565b60006001600160a01b0384163b1561336e57604051630a85bd0160e11b81526001600160a01b0385169063150b7a0290613266903390899088908890600401614da8565b6020604051808303816000875af19250505080156132a1575060408051601f3d908101601f1916820190925261329e91810190614de4565b60015b613354573d8080156132cf576040519150601f19603f3d011682016040523d82523d6000602084013e6132d4565b606091505b50805160000361334c5760405162461bcd60e51b815260206004820152603260248201527f4552433732313a207472616e7366657220746f206e6f6e20455243373231526560448201527f63656976657220696d706c656d656e7465720000000000000000000000000000606482015260840161081d565b805181602001fd5b6001600160e01b031916630a85bd0160e11b1490506126c7565b506001949350505050565b60606106ce61338783613a75565b6133f7565b6000818152604e6020526040902060048101546060919060018201906133bc906001600160a01b03166014613b51565b6000858152604e602090815260409182902091516133e1959493926003019101614e01565b6040516020818303038152906040529050919050565b6060815160000361341657505060408051602081019091526000815290565b6000604051806060016040528060408152602001615d3460409139905060006003845160026134459190614ad6565b61344f9190614b04565b61345a906004614ffe565b90506000613469826020614ad6565b67ffffffffffffffff811115613481576134816142d3565b6040519080825280601f01601f1916602001820160405280156134ab576020820181803683370190505b509050818152600183018586518101602084015b818310156135195760039283018051603f601282901c811687015160f890811b8552600c83901c8216880151811b6001860152600683901c8216880151811b60028601529116860151901b938201939093526004016134bf565b600389510660018114613533576002811461355f57613587565b7f3d3d000000000000000000000000000000000000000000000000000000000000600119830152613587565b7f3d000000000000000000000000000000000000000000000000000000000000006000198301525b509398975050505050505050565b60006001600160e01b031982167f780e9d630000000000000000000000000000000000000000000000000000000014806106ce57506106ce82613cfa565b6001600160a01b03831661362e5761362981600880546000838152600960205260408120829055600182018355919091527ff3f7a9fe364faab93b216da50a3214154f22a0a2b415b23a84c8169e8b636ee30155565b613651565b816001600160a01b0316836001600160a01b031614613651576136518382613d95565b6001600160a01b038216613668576108be81613e32565b826001600160a01b0316826001600160a01b0316146108be576108be8282613ee1565b6060600061369a836002614ffe565b6136a5906002614ad6565b67ffffffffffffffff8111156136bd576136bd6142d3565b6040519080825280601f01601f1916602001820160405280156136e7576020820181803683370190505b509050600360fc1b816000815181106137025761370261494a565b60200101906001600160f81b031916908160001a905350600f60fb1b816001815181106137315761373161494a565b60200101906001600160f81b031916908160001a9053506000613755846002614ffe565b613760906001614ad6565b90505b60018111156137e5577f303132333435363738396162636465660000000000000000000000000000000085600f16601081106137a1576137a161494a565b1a60f81b8282815181106137b7576137b761494a565b60200101906001600160f81b031916908160001a90535060049490941c936137de8161501d565b9050613763565b508315611acd5760405162461bcd60e51b815260206004820181905260248201527f537472696e67733a20686578206c656e67746820696e73756666696369656e74604482015260640161081d565b6000818152600183016020526040812054801561391d576000613858600183614abf565b855490915060009061386c90600190614abf565b90508181146138d157600086600001828154811061388c5761388c61494a565b90600052602060002001549050808760000184815481106138af576138af61494a565b6000918252602080832090910192909255918252600188019052604090208390555b85548690806138e2576138e2615034565b6001900381819060005260206000200160009055905585600101600086815260200190815260200160002060009055600193505050506106ce565b60009150506106ce565b6001600160a01b03821661397d5760405162461bcd60e51b815260206004820181905260248201527f4552433732313a206d696e7420746f20746865207a65726f2061646472657373604482015260640161081d565b6000818152600260205260409020546001600160a01b0316156139e25760405162461bcd60e51b815260206004820152601c60248201527f4552433732313a20746f6b656e20616c7265616479206d696e74656400000000604482015260640161081d565b6139ee60008383612d47565b6001600160a01b0382166000908152600360205260408120805460019290613a17908490614ad6565b909155505060008181526002602052604080822080546001600160a01b0319166001600160a01b03861690811790915590518392907fddf252ad1be2c89b69c2b068fc378daa952ba7f163c4a11628f55a4df523b3ef908290a45050565b6060600033604051602001613ab5919060609190911b7fffffffffffffffffffffffffffffffffffffffff00000000000000000000000016815260140190565b60408051808303601f190181528282528051602091820120908301819052925060009101604051602081830303815290604052905060006010613af9836000613f25565b613b03919061504a565b60ff1690506000613b148683613fe5565b90506000613b2187614072565b90508181604051602001613b3692919061506c565b60405160208183030381529060405295505050505050919050565b60606000613b60836002614ffe565b613b6b906002614ad6565b67ffffffffffffffff811115613b8357613b836142d3565b6040519080825280601f01601f191660200182016040528015613bad576020820181803683370190505b509050600360fc1b81600081518110613bc857613bc861494a565b60200101906001600160f81b031916908160001a905350600f60fb1b81600181518110613bf757613bf761494a565b60200101906001600160f81b031916908160001a9053506000613c1b846002614ffe565b613c26906001614ad6565b90505b6001811115613cab577f303132333435363738396162636465660000000000000000000000000000000085600f1660108110613c6757613c6761494a565b1a60f81b828281518110613c7d57613c7d61494a565b60200101906001600160f81b031916908160001a90535060049490941c93613ca48161501d565b9050613c29565b508315611acd5760405162461bcd60e51b815260206004820152600560248201527f4845585f4c000000000000000000000000000000000000000000000000000000604482015260640161081d565b60006001600160e01b031982167f80ac58cd000000000000000000000000000000000000000000000000000000001480613d5d57506001600160e01b031982167f5b5e139f00000000000000000000000000000000000000000000000000000000145b806106ce57507f01ffc9a7000000000000000000000000000000000000000000000000000000006001600160e01b03198316146106ce565b60006001613da28461174b565b613dac9190614abf565b600083815260076020526040902054909150808214613dff576001600160a01b03841660009081526006602090815260408083208584528252808320548484528184208190558352600790915290208190555b5060009182526007602090815260408084208490556001600160a01b039094168352600681528383209183525290812055565b600854600090613e4490600190614abf565b60008381526009602052604081205460088054939450909284908110613e6c57613e6c61494a565b906000526020600020015490508060088381548110613e8d57613e8d61494a565b6000918252602080832090910192909255828152600990915260408082208490558582528120556008805480613ec557613ec5615034565b6001900381819060005260206000200160009055905550505050565b6000613eec8361174b565b6001600160a01b039093166000908152600660209081526040808320868452825280832085905593825260079052919091209190915550565b600081613f33816001614ad6565b1015613f815760405162461bcd60e51b815260206004820152601060248201527f746f55696e74385f6f766572666c6f7700000000000000000000000000000000604482015260640161081d565b613f8c826001614ad6565b83511015613fdc5760405162461bcd60e51b815260206004820152601360248201527f746f55696e74385f6f75744f66426f756e647300000000000000000000000000604482015260640161081d565b50016001015190565b6060600e8260108110613ffa57613ffa61494a565b60040201600e83601081106140115761401161494a565b60040201600101600e846010811061402b5761402b61494a565b60040201600201604e600087815260200190815260200160002060010160405160200161405b9493929190615139565b604051602081830303815290604052905092915050565b6000818152604e60205260409020600581015460609190600382019060028301906140a7906001600160a01b03166014613b51565b6040516020016133e194939291906159a4565b8280546140c690614896565b90600052602060002090601f0160209004810192826140e8576000855561412e565b82601f1061410157805160ff191683800117855561412e565b8280016001018555821561412e579182015b8281111561412e578251825591602001919060010190614113565b5061413a92915061413e565b5090565b5b8082111561413a576000815560010161413f565b6001600160e01b03198116811461091b57600080fd5b60006020828403121561417b57600080fd5b8135611acd81614153565b60005b838110156141a1578181015183820152602001614189565b83811115611bed5750506000910152565b600081518084526141ca816020860160208601614186565b601f01601f19169290920160200192915050565b602081526000611acd60208301846141b2565b60006020828403121561420357600080fd5b5035919050565b80356001600160a01b038116811461422157600080fd5b919050565b6000806040838503121561423957600080fd5b6142428361420a565b946020939093013593505050565b60006020828403121561426257600080fd5b611acd8261420a565b60008060006060848603121561428057600080fd5b6142898461420a565b92506142976020850161420a565b9150604084013590509250925092565b600080604083850312156142ba57600080fd5b823591506142ca6020840161420a565b90509250929050565b634e487b7160e01b600052604160045260246000fd5b600067ffffffffffffffff80841115614304576143046142d3565b604051601f8501601f19908116603f0116810190828211818310171561432c5761432c6142d3565b8160405280935085815286868601111561434557600080fd5b858560208301376000602087830101525050509392505050565b600082601f83011261437057600080fd5b611acd838335602085016142e9565b6000806000806080858703121561439557600080fd5b843567ffffffffffffffff808211156143ad57600080fd5b6143b98883890161435f565b955060208701359150808211156143cf57600080fd5b506143dc8782880161435f565b935050604085013591506143f26060860161420a565b905092959194509250565b60008060006060848603121561441257600080fd5b83359250602084013567ffffffffffffffff81111561443057600080fd5b61443c8682870161435f565b925050604084013590509250925092565b60008083601f84011261445f57600080fd5b50813567ffffffffffffffff81111561447757600080fd5b6020830191508360208260051b850101111561449257600080fd5b9250929050565b600080602083850312156144ac57600080fd5b823567ffffffffffffffff8111156144c357600080fd5b6144cf8582860161444d565b90969095509350505050565b60008083601f8401126144ed57600080fd5b50813567ffffffffffffffff81111561450557600080fd5b60208301915083602082850101111561449257600080fd5b60008060008060008060008060008060a08b8d03121561453c57600080fd5b8a3567ffffffffffffffff8082111561455457600080fd5b6145608e838f016144db565b909c509a5060208d013591508082111561457957600080fd5b6145858e838f016144db565b909a50985060408d013591508082111561459e57600080fd5b6145aa8e838f016144db565b909850965060608d01359150808211156145c357600080fd5b6145cf8e838f016144db565b909650945060808d01359150808211156145e857600080fd5b506145f58d828e016144db565b915080935050809150509295989b9194979a5092959850565b6000806040838503121561462157600080fd5b50508035926020909101359150565b6000806040838503121561464357600080fd5b61464c8361420a565b91506020830135801515811461466157600080fd5b809150509250929050565b6000806000806080858703121561468257600080fd5b61468b8561420a565b93506146996020860161420a565b925060408501359150606085013567ffffffffffffffff8111156146bc57600080fd5b8501601f810187136146cd57600080fd5b6146dc878235602084016142e9565b91505092959194509250565b60c0815260006146fb60c08301896141b2565b828103602084015261470d81896141b2565b9050828103604084015261472181886141b2565b9050828103606084015261473581876141b2565b9150506001600160a01b03808516608084015280841660a084015250979650505050505050565b60006020808301818452808551808352604092508286019150828160051b87010184880160005b8381101561481957603f19898403018552815160e06001600160a01b0380835116865289830151828b8801526147bb838801826141b2565b925050888301518683038a8801526147d383826141b2565b60608581015190890152608080860151909316928801929092525060a0808401519087015260c09283015115159290950191909152509386019390860190600101614783565b509098975050505050505050565b6000806040838503121561483a57600080fd5b6148438361420a565b91506142ca6020840161420a565b6000806040838503121561486457600080fd5b823567ffffffffffffffff81111561487b57600080fd5b6148878582860161435f565b9250506142ca6020840161420a565b600181811c908216806148aa57607f821691505b6020821081036148ca57634e487b7160e01b600052602260045260246000fd5b50919050565b600081516148e2818560208601614186565b9290920192915050565b7f52652d6576616c756174696f6e20526571756573742053656e6420666f72200081526000825161492481601f850160208701614186565b91909101601f0192915050565b8281526040602082015260006126c760408301846141b2565b634e487b7160e01b600052603260045260246000fd5b7f5265717565737420526576696577656420666f7220436572746966696361746581527f20000000000000000000000000000000000000000000000000000000000000006020820152600082516149be816021850160208701614186565b9190910160210192915050565b60008235609e198336030181126149e157600080fd5b9190910192915050565b6000808335601e19843603018112614a0257600080fd5b83018035915067ffffffffffffffff821115614a1d57600080fd5b60200191503681900382131561449257600080fd5b634e487b7160e01b600052601160045260246000fd5b600060018201614a5a57614a5a614a32565b5060010190565b83815260406020820152816040820152818360608301376000818301606090810191909152601f909201601f1916010192915050565b60008235603e198336030181126149e157600080fd5b600082516149e1818460208701614186565b600082821015614ad157614ad1614a32565b500390565b60008219821115614ae957614ae9614a32565b500190565b634e487b7160e01b600052601260045260246000fd5b600082614b1357614b13614aee565b500490565b600082614b2757614b27614aee565b500690565b8054600090600181811c9080831680614b4657607f831692505b60208084108203614b6757634e487b7160e01b600052602260045260246000fd5b818015614b7b5760018114614b8c57614bb9565b60ff19861689528489019650614bb9565b60008881526020902060005b86811015614bb15781548b820152908501908301614b98565b505084890196505b50505050505092915050565b7f7b226e616d65223a20220000000000000000000000000000000000000000000081526000614bf7600a830187614b2c565b7f204365727469666963617465200000000000000000000000000000000000000081528551614c2d81600d840160208a01614186565b8082019150507f222c00000000000000000000000000000000000000000000000000000000000080600d8301527f22696d616765223a202200000000000000000000000000000000000000000000600f8301527f646174613a696d6167652f7376672b786d6c3b6261736536342c00000000000060198301528551614cb9816033850160208a01614186565b60339201918201528351614cd4816035840160208801614186565b016035019695505050505050565b7f646174613a6170706c69636174696f6e2f6a736f6e3b6261736536342c000000815260008251614d1a81601d850160208701614186565b91909101601d0192915050565b7f416363657373436f6e74726f6c3a206163636f756e7420000000000000000000815260008351614d5f816017850160208801614186565b7f206973206d697373696e6720726f6c65200000000000000000000000000000006017918401918201528351614d9c816028840160208801614186565b01602801949350505050565b60006001600160a01b03808716835280861660208401525083604083015260806060830152614dda60808301846141b2565b9695505050505050565b600060208284031215614df657600080fd5b8151611acd81614153565b7f2261747472696275746573223a205b7b2274726169745f74797065223a20224d81527f6f64756c65436f6465222c202276616c7565223a20220000000000000000000060208201526000614e596036830187614b2c565b7f227d2c00000000000000000000000000000000000000000000000000000000008082527f7b2274726169745f74797065223a202254797065222c202276616c7565223a2060038301527f22000000000000000000000000000000000000000000000000000000000000006023830152614ed66024830188614b2c565b91508082527f7b2274726169745f74797065223a2022466163756c7479222c202276616c756560038301527f223a20220000000000000000000000000000000000000000000000000000000060238301528551614f3a816027850160208a01614186565b60279201918201527f7b2274726169745f74797065223a20225472696d6573746572222c202276616c602a8201527f7565223a20220000000000000000000000000000000000000000000000000000604a820152614ff3614fca614fa16050840187614b2c565b7f227d000000000000000000000000000000000000000000000000000000000000815260020190565b7f5d7d000000000000000000000000000000000000000000000000000000000000815260020190565b979650505050505050565b600081600019048311821515161561501857615018614a32565b500290565b60008161502c5761502c614a32565b506000190190565b634e487b7160e01b600052603160045260246000fd5b600060ff83168061505d5761505d614aee565b8060ff84160491505092915050565b7f3c73766720636c6173733d22737667426f6479222077696474683d223330302281527f206865696768743d22333030222076696577426f783d2230203020333030203360208201527f30302220786d6c6e733d22687474703a2f2f7777772e77332e6f72672f32303060408201527f302f737667223e00000000000000000000000000000000000000000000000000606082015260008351615116816067850160208801614186565b83519083019061512d816067840160208801614186565b01606701949350505050565b7f3c726563742077696474683d2233303022206865696768743d2233303022207281527f783d22313022207374796c653d2266696c6c3a00000000000000000000000000602082015260006151916033830187614b2c565b7f22202f3e000000000000000000000000000000000000000000000000000000008082527f3c7265637420793d223630222077696474683d2233303022206865696768743d60048301527f2231313522207374796c653d2266696c6c3a0000000000000000000000000000602483015261520e6036830188614b2c565b91507f222f3e000000000000000000000000000000000000000000000000000000000082527f3c7265637420793d22313735222077696474683d22333030222068656967687460038301527f3d22343022207374796c653d2266696c6c3a0000000000000000000000000000602383015261528c6035830187614b2c565b9081527f3c7465787420783d2231352220793d2232352220636c6173733d226d6564697560048201527f6d223e000000000000000000000000000000000000000000000000000000000060248201529050614ff36153b761531c6152f36027850188614b2c565b7f2043657274696669636174653c2f746578743e00000000000000000000000000815260130190565b7f3c67207472616e73666f726d3d227472616e736c617465283236302e3030303081527f30302c34302e30303030303029207363616c6528302e3031303030302c2d302e60208201527f30313030303029222066696c6c3d222330303030303022207374726f6b653d2260408201527f6e6f6e65223e0000000000000000000000000000000000000000000000000000606082015260660190565b7f3c7061746820643d224d343436203330323120632d33202d39202d3132202d3581527f39202d3231202d313131202d3235202d313536202d3133202d313430202d313160208201527f30202d313430206c2d383520302030202d3438382030202d343838202d31313060408201527f202d36323920632d3630202d333437202d313132202d363430202d313135202d60608201527f363531202d34202d32302032202d3233203933202d3339203533202d3920313060808201527f35202d313920313134202d3231203136202d35203138202d3139203138202d3160a08201527f3230206c30202d31313420363634203020363633203020363333202d3131302060c08201527f63343632202d383120363335202d31303820363431202d39392034203620313060e08201527f2033352031342036332033203238203131203732203136203939206c313120346101008201527f37203739203020373920302030203435382030203435382031323020363930206101208201527f63363620333739203132322036393620313233203730342031203131202d32366101408201527f203139202d313138203335206c2d313230203231202d33203932202d332039326101608201527f202d3532332030202d3532322030202d3633352031313120632d3334392036306101808201527f202d36393420313230202d37363620313333202d313230203231202d313333206101a08201527f3232202d31333720377a206d393634202d373733206330202d37202d38202d366101c08201527f33202d3137202d313235206c2d3136202d313132202d333336202d3320632d336101e08201527f3136202d33202d333339202d34202d333831202d3234202d3836202d3339202d6102008201527f313233202d313133202d3938202d313930203131202d3334203232202d3433206102208201527f3738202d3731203430202d323020313435202d353320323730202d38342031326102408201527f34202d333120323334202d363520323830202d3837203838202d3431203137346102608201527f202d31323220323131202d313937203231202d3435203234202d3633203234206102808201527f2d3137302030202d313130202d32202d313235202d3238202d313739202d35376102a08201527f202d313232202d313434202d313936202d323937202d323530206c2d3835202d6102c08201527f3331202d333933202d33202d333933202d3320332031323320332031323320336102e08201527f36352035203336352035203532203237206336392033372039372037372039386103008201527f203134342030203931202d363220313435202d32323020313838202d343920316103208201527f34202d313438203431202d323230203631202d323330203633202d33343420316103408201527f3335202d34303220323534202d3235203531202d3238203636202d32382031366103608201527f36203020313030203320313135203238203136362036382031333920313934206103808201527f3232372033373720323634203931203138203736302032312037363020337a206103a08201527f6d31363230202d313333206c30202d313335202d3230352030202d32303520306103c08201527f2030202d3633302030202d363330202d3136352030202d3136352030203020366103e08201527f3330203020363330202d313635203020632d3133342030202d3136352033202d6104008201527f31363520313420302031322033312031373520343520323334206c35203232206104208201527f35313020302035313020302030202d3133357a206d2d31313937202d373832206104408201527f6c2d33202d353938202d313630202d33202d313630202d3220302035373420306104608201527f20353734203733203132206333392037203130312031382031333720323520336104808201527f362037203736203133203930203134206c32352031202d32202d3539377a222f6104a08201527f3e3c2f673e0000000000000000000000000000000000000000000000000000006104c08201526104c50190565b7f3c7465787420783d2231352220793d2238302220636c6173733d226d6564697581527f6d223e4d6f64756c653e20000000000000000000000000000000000000000000602082015260006159fc602b830187614b2c565b661e17ba32bc3a1f60c91b8082527f3c7465787420783d2231352220793d223130302220636c6173733d226d65646960078301527f756d223e5472696d65737465723e2000000000000000000000000000000000006027830152615a636036830188614b2c565b9081527f3c7465787420783d2231352220793d223132302220636c6173733d226d65646960078201527f756d223e47726164653a3c2f746578743e00000000000000000000000000000060278201527f3c7265637420783d2231352220793d22313235222077696474683d223230352260388201527f206865696768743d22343022207374796c653d2266696c6c3a77686974653b6f60588201527f7061636974793a302e35222f3e0000000000000000000000000000000000000060788201527f3c7465787420783d2231352220793d223134302220636c6173733d226d65646960858201527f756d223e0000000000000000000000000000000000000000000000000000000060a58201529050614ff3615d0a615c49615b92615c43615bf4615ba58360a989018d614b2c565b661e17ba32bc3a1f60c91b815260070190565b7f3c7465787420783d2231352220793d223139302220636c6173733d22736d616c81527f6c223e526563697069656e743a3c2f746578743e000000000000000000000000602082015260340190565b7f3c7465787420783d2231352220793d2232303522207374796c653d22666f6e7481527f2d73697a653a387078223e0000000000000000000000000000000000000000006020820152602b0190565b886148d0565b7f3c7374796c653e2e737667426f6479207b666f6e742d66616d696c793a20224381527f6f7572696572204e657722207d202e74696e79207b666f6e742d73697a653a3660208201527f70783b207d202e736d616c6c207b666f6e742d73697a653a20313270783b7d2e60408201527f6d656469756d207b666f6e742d73697a653a20313870783b7d3c2f7374796c6560608201527f3e00000000000000000000000000000000000000000000000000000000000000608082015260810190565b7f3c2f7376673e000000000000000000000000000000000000000000000000000081526006019056fe4142434445464748494a4b4c4d4e4f505152535455565758595a6162636465666768696a6b6c6d6e6f707172737475767778797a303132333435363738392b2fa2646970667358221220a42f66bfa3a3359d28ab10352cb6bc23dcfceaf97ef5eff27d92e1d7e139907f64736f6c634300080e0033",
  "immutableReferences": {},
  "source": "// SPDX-License-Identifier: MIT\r\n\r\npragma solidity ^0.8.12;\r\n\r\nimport \"@openzeppelin/contracts/token/ERC721/extensions/ERC721Enumerable.sol\";\r\nimport \"@openzeppelin/contracts/utils/Counters.sol\";\r\n\r\nimport \"./Base64.sol\";\r\nimport \"./RoleControl.sol\";\r\n\r\ncontract SITNFT is ERC721, ERC721Enumerable,RoleControl {\r\n  using Counters for Counters.Counter;\r\n  Counters.Counter private _tokenIdCounter;\r\n  using Strings for uint256;\r\n  // Design Codes\r\n  // 16 palettes\r\n  string[4][16] palette = [\r\n        [\"#eca3f5\", \"#fdbaf9\", \"#b0efeb\", \"#edffa9\"],\r\n        [\"#75cfb8\", \"#bbdfc8\", \"#f0e5d8\", \"#ffc478\"],\r\n        [\"#ffab73\", \"#ffd384\", \"#fff9b0\", \"#ffaec0\"],\r\n        [\"#94b4a4\", \"#d2f5e3\", \"#e5c5b5\", \"#f4d9c6\"],\r\n        [\"#f4f9f9\", \"#ccf2f4\", \"#a4ebf3\", \"#aaaaaa\"],\r\n        [\"#caf7e3\", \"#edffec\", \"#f6dfeb\", \"#e4bad4\"],\r\n        [\"#f4f9f9\", \"#f1d1d0\", \"#fbaccc\", \"#f875aa\"],\r\n        [\"#fdffbc\", \"#ffeebb\", \"#ffdcb8\", \"#ffc1b6\"],\r\n        [\"#f0e4d7\", \"#f5c0c0\", \"#ff7171\", \"#9fd8df\"],\r\n        [\"#e4fbff\", \"#b8b5ff\", \"#7868e6\", \"#edeef7\"],\r\n        [\"#ffcb91\", \"#ffefa1\", \"#94ebcd\", \"#6ddccf\"],\r\n        [\"#bedcfa\", \"#98acf8\", \"#b088f9\", \"#da9ff9\"],\r\n        [\"#bce6eb\", \"#fdcfdf\", \"#fbbedf\", \"#fca3cc\"],\r\n        [\"#ff75a0\", \"#fce38a\", \"#eaffd0\", \"#95e1d3\"],\r\n        [\"#fbe0c4\", \"#8ab6d6\", \"#2978b5\", \"#0061a8\"],\r\n        [\"#dddddd\", \"#f9f3f3\", \"#f7d9d9\", \"#f25287\"]\r\n  ];\r\n \r\n  struct IdAddress {\r\n      string id;\r\n      address addr;\r\n  }\r\n  struct ParamAttribute {\r\n      string moduleCode;\r\n      string testType;\r\n      string grade;\r\n      string trimester;\r\n      string recipient;\r\n  }\r\n\r\n  struct Attribute {\r\n      string moduleCode;\r\n      string testType;\r\n      string grade;\r\n      string trimester;\r\n      address faculty;\r\n      address recipient;\r\n  }\r\n  struct TransferStruct {\r\n        address sender;\r\n        string message;\r\n        string tokenName;\r\n        uint256 tokenId;\r\n        address faculty;\r\n        uint256 timestamp;\r\n        bool reviewed;\r\n  }\r\n//   TransferStruct[] transactions;\r\n\r\n  // Events\r\n  \r\n  event Log(string message);\r\n  event Mint(address indexed sender, uint256 tokenId, string moduleCode);\r\n  event RemodRequest(address indexed sender,uint256 tokenId, string message);\r\n\r\n\r\n// Mapping\r\n  mapping(uint256 => Attribute) private _attributes;\r\n  mapping(bytes32 => address) private _studentAddress;\r\n  mapping(address => bytes32) private _getStudentFromAddress;\r\n  mapping(address => TransferStruct[]) private _remodRequests;\r\n  constructor() ERC721(\"SIT NFT\", \"SIT\") RoleControl(msg.sender) {\r\n  }\r\n\r\n    /**\r\n     * @dev Add student address to mapping.\r\n     *\r\n     * Requirements:\r\n     *\r\n     * - The caller must be an admin.\r\n     */\r\n  function addStudentAddress(string memory _id, address _address ) public onlyAdmin {\r\n    bytes32 encryptedId = keccak256(abi.encodePacked(_id));\r\n    _studentAddress[encryptedId] = _address;\r\n    _getStudentFromAddress[_address] = encryptedId;\r\n    emit IndexedLog(msg.sender,\"addStudentSucceed\");\r\n  }\r\n\r\n    /**\r\n     * @dev Takes in an array of studentAddresses and calls addStudentAddress.\r\n     *\r\n     * Requirements:\r\n     *\r\n     * - The caller must be an admin.\r\n     */\r\n  function multiAddStudentAddress(IdAddress[] calldata _array) external onlyAdmin {\r\n    for(uint i=0; i <_array.length; i++) {\r\n      addStudentAddress(_array[i].id, _array[i].addr);\r\n    }\r\n    emit IndexedLog(msg.sender,\"multiAddStudentSucceed\");\r\n  }\r\n\r\n\r\n    /**\r\n     * @dev For contract to getStudentAddress\r\n     *\r\n     */\r\n  function _getStudentAddress(string memory _id) private view returns (address){\r\n    bytes32 encryptedId = keccak256(abi.encodePacked(_id));\r\n    require(_studentAddress[encryptedId] != address(0) , \"Student does not exist.\");\r\n    return _studentAddress[encryptedId];\r\n  }\r\n\r\n  /**\r\n  * @dev Check if address is student\r\n  *\r\n   */\r\n   function isStudent(address account) public view returns(bool){\r\n        return _getStudentFromAddress[account] != 0;\r\n   }\r\n\r\n    /**\r\n     * @dev Mint with parameters\r\n     *\r\n     * Requirements:\r\n     *\r\n     * - The caller must be a faculty\r\n     */\r\n\r\n  function mint(string calldata moduleCode, string calldata testType, string calldata grade, string calldata trimester, string calldata recipient) external onlyFaculty {\r\n    Attribute memory newAttribute = Attribute(\r\n      moduleCode,\r\n      testType,\r\n      grade,\r\n      trimester,\r\n      msg.sender,\r\n      _getStudentAddress(recipient)\r\n    );\r\n    _tokenIdCounter.increment();\r\n    uint256 tokenId = _tokenIdCounter.current();\r\n    _attributes[tokenId] = newAttribute;\r\n    _safeMint(newAttribute.recipient,tokenId);\r\n    emit Mint(msg.sender, tokenId, moduleCode);\r\n  }\r\n\r\n      /**\r\n    * Batch mint tokens\r\n    */\r\n    function batchMint(ParamAttribute[] calldata _array) external onlyFaculty{\r\n        uint numberOfTokens = _array.length;\r\n        require(numberOfTokens <= 10, \"Can only mint 10 tokens at a time\");\r\n        for(uint i = 0; i < numberOfTokens; i++) {\r\n            Attribute memory newAttribute = Attribute(\r\n                _array[i].moduleCode,\r\n                _array[i].testType,\r\n                _array[i].grade,\r\n                _array[i].trimester,\r\n                msg.sender,\r\n                _getStudentAddress(_array[i].recipient)\r\n            );\r\n            _tokenIdCounter.increment();\r\n            uint256 tokenId = _tokenIdCounter.current();\r\n            _attributes[tokenId] = newAttribute;\r\n            _safeMint(newAttribute.recipient,tokenId);\r\n            emit Mint(msg.sender, tokenId, newAttribute.moduleCode);\r\n        }\r\n        emit IndexedLog(msg.sender,\"BatchMintComplete\");\r\n    }\r\n\r\n  function addToBlockchain( string memory message,string memory tokenName, uint256 tokenId, address faculty) public {\r\n    // transactions.push(TransferStruct(msg.sender, message,tokenName,tokenId,faculty,block.timestamp,false));\r\n    // address faculty = _attributes[tokenId].faculty;\r\n    _remodRequests[faculty].push(TransferStruct(msg.sender,message,tokenName,tokenId,faculty,block.timestamp,false));\r\n    // emit Transfer(msg.sender, receiver, amount, message, block.timestamp, keyword);\r\n    emit RemodRequest(msg.sender,tokenId, string.concat(\"Re-evaluation Request Send for \",toString(tokenId)));\r\n  }\r\n  function getAllTransactions(address faculty) public view returns (TransferStruct[] memory) { \r\n    // return transactions;\r\n    return _remodRequests[faculty];\r\n  }\r\n  function setMetadata(uint256 _tokenId, string memory grade,uint256 position) public onlyFaculty {\r\n        _attributes[_tokenId].grade = grade;\r\n        _remodRequests[msg.sender][position].reviewed = true;\r\n        string memory oldgrade = _attributes[_tokenId].grade;\r\n        emit RemodRequest(msg.sender,_tokenId, string.concat(\"Request Reviewed for Certificate \",toString(_tokenId)));\r\n        \r\n  }\r\n\r\n    function generatePaletteSection(uint256 _tokenId, uint256 pIndex) private view returns (string memory) {\r\n        return string(abi.encodePacked(\r\n                '<rect width=\"300\" height=\"300\" rx=\"10\" style=\"fill:',palette[pIndex][0],'\" />',\r\n                '<rect y=\"60\" width=\"300\" height=\"115\" style=\"fill:',palette[pIndex][1],'\"/>',\r\n                '<rect y=\"175\" width=\"300\" height=\"40\" style=\"fill:',palette[pIndex][2],'\" />', \r\n                '<text x=\"15\" y=\"25\" class=\"medium\">',_attributes[_tokenId].testType,' Certificate</text>',\r\n                // '<text x=\"17\" y=\"50\" class=\"small\" opacity=\"0.5\">',substring(toString(_tokenId),0,24),'</text>',\r\n                '<g transform=\"translate(260.000000,40.000000) scale(0.010000,-0.010000)\" fill=\"#000000\" stroke=\"none\">',\r\n                '<path d=\"M446 3021 c-3 -9 -12 -59 -21 -111 -25 -156 -13 -140 -110 -140 l-85 0 0 -488 0 -488 -110 -629 c-60 -347 -112 -640 -115 -651 -4 -20 2 -23 93 -39 53 -9 105 -19 114 -21 16 -5 18 -19 18 -120 l0 -114 664 0 663 0 633 -110 c462 -81 635 -108 641 -99 4 6 10 35 14 63 3 28 11 72 16 99 l11 47 79 0 79 0 0 458 0 458 120 690 c66 379 122 696 123 704 1 11 -26 19 -118 35 l-120 21 -3 92 -3 92 -523 0 -522 0 -635 111 c-349 60 -694 120 -766 133 -120 21 -133 22 -137 7z m964 -773 c0 -7 -8 -63 -17 -125 l-16 -112 -336 -3 c-316 -3 -339 -4 -381 -24 -86 -39 -123 -113 -98 -190 11 -34 22 -43 78 -71 40 -20 145 -53 270 -84 124 -31 234 -65 280 -87 88 -41 174 -122 211 -197 21 -45 24 -63 24 -170 0 -110 -2 -125 -28 -179 -57 -122 -144 -196 -297 -250 l-85 -31 -393 -3 -393 -3 3 123 3 123 365 5 365 5 52 27 c69 37 97 77 98 144 0 91 -62 145 -220 188 -49 14 -148 41 -220 61 -230 63 -344 135 -402 254 -25 51 -28 66 -28 166 0 100 3 115 28 166 68 139 194 227 377 264 91 18 760 21 760 3z m1620 -133 l0 -135 -205 0 -205 0 0 -630 0 -630 -165 0 -165 0 0 630 0 630 -165 0 c-134 0 -165 3 -165 14 0 12 31 175 45 234 l5 22 510 0 510 0 0 -135z m-1197 -782 l-3 -598 -160 -3 -160 -2 0 574 0 574 73 12 c39 7 101 18 137 25 36 7 76 13 90 14 l25 1 -2 -597z\"/></g>'\r\n                \r\n            )\r\n        );\r\n    }  \r\n\r\n  function generateBase64Image(uint256 _tokenId) private view returns (string memory) {\r\n        return Base64.encode(bytes(generateImage(_tokenId)));\r\n  }\r\n  \r\n  function generateImage(uint256 _tokenId) private view returns (string memory) {\r\n        // bytes memory hash = abi.encodePacked(bytes32(_tokenId));\r\n        uint256 random = uint(keccak256(abi.encodePacked(msg.sender)));\r\n        bytes memory hash = abi.encodePacked(bytes32(random));\r\n        uint256 pIndex = toUint8(hash,0)/16; // 16 palettes\r\n\r\n        \r\n        /* this is broken into functions to avoid stack too deep errors */\r\n        string memory paletteSection = generatePaletteSection(_tokenId, pIndex);\r\n        string memory svgSection = buildImageSvg(_tokenId);\r\n        return string(\r\n            abi.encodePacked(\r\n                '<svg class=\"svgBody\" width=\"300\" height=\"300\" viewBox=\"0 0 300 300\" xmlns=\"http://www.w3.org/2000/svg\">',\r\n                paletteSection,\r\n                svgSection\r\n            )\r\n        );\r\n    }\r\n    function buildImageSvg(uint256 _tokenId) private view returns (string memory) {\r\n        return string(\r\n            abi.encodePacked(\r\n                '<text x=\"15\" y=\"80\" class=\"medium\">Module> ',_attributes[_tokenId].moduleCode,'</text>',\r\n                '<text x=\"15\" y=\"100\" class=\"medium\">Trimester> ',_attributes[_tokenId].trimester,'</text>',\r\n                '<text x=\"15\" y=\"120\" class=\"medium\">Grade:</text>',\r\n                '<rect x=\"15\" y=\"125\" width=\"205\" height=\"40\" style=\"fill:white;opacity:0.5\"/>',\r\n                '<text x=\"15\" y=\"140\" class=\"medium\">',_attributes[_tokenId].grade,'</text>',\r\n                '<text x=\"15\" y=\"190\" class=\"small\">Recipient:</text>',\r\n                '<text x=\"15\" y=\"205\" style=\"font-size:8px\">',toHexString(uint160(_attributes[_tokenId].recipient), 20),'</text>',\r\n                '<style>.svgBody {font-family: \"Courier New\" } .tiny {font-size:6px; } .small {font-size: 12px;}.medium {font-size: 18px;}</style>',\r\n                '</svg>'\r\n            )\r\n        );\r\n    }\r\n\r\n    function buildMetadata(uint256 _tokenId) private view returns(string memory) {\r\n        string memory image = generateBase64Image(_tokenId);\r\n        string memory traits = generateTraitsSection(_tokenId);\r\n        string memory json = Base64.encode(\r\n            bytes(string(\r\n                abi.encodePacked(\r\n                    '{\"name\": \"', _attributes[_tokenId].moduleCode,' Certificate ',toString(_tokenId),'\",',\r\n                    '\"image\": \"', \r\n                    'data:image/svg+xml;base64,',\r\n                    image,'\",',\r\n                    traits\r\n                )\r\n            ))\r\n        );\r\n        return string(abi.encodePacked('data:application/json;base64,', json));\r\n    }\r\n    function generateTraitsSection(uint256 _tokenId) private view returns (string memory) {\r\n        // string memory x =toHexString(uint160(_attributes[_tokenId].faculty), 20);\r\n        return string(abi.encodePacked(\r\n                    '\"attributes\": [{\"trait_type\": \"ModuleCode\", \"value\": \"', _attributes[_tokenId].moduleCode, '\"},',\r\n                    '{\"trait_type\": \"Type\", \"value\": \"', _attributes[_tokenId].testType, '\"},',\r\n                    '{\"trait_type\": \"Faculty\", \"value\": \"', toHexString(uint160(_attributes[_tokenId].faculty), 20), '\"},',\r\n                    '{\"trait_type\": \"Trimester\", \"value\": \"', _attributes[_tokenId].trimester, '\"}',\r\n                    ']}'\r\n            )\r\n            \r\n        );\r\n    }  \r\n\r\n\r\n\r\n  \r\n\r\n    function tokenURI(uint256 _tokenId) public view virtual override returns (string memory) {\r\n        require(_exists(_tokenId), \"ERC721Metadata: URI query for nonexistent token\");\r\n        return buildMetadata(_tokenId);\r\n    }\r\n\r\n    function attributes(uint256 _tokenId) external view virtual returns (string memory, string memory, string memory, string memory, address ,address) {\r\n        require(_exists(_tokenId), \"ERC721Metadata: attribute query for nonexistent token\");\r\n        return (_attributes[_tokenId].moduleCode,_attributes[_tokenId].testType,_attributes[_tokenId].grade,_attributes[_tokenId].trimester,_attributes[_tokenId].faculty,_attributes[_tokenId].recipient);\r\n    }\r\n\r\n      function _beforeTokenTransfer(address from, address to, uint256 _tokenId)\r\n        internal\r\n        override(ERC721, ERC721Enumerable)\r\n    {\r\n        super._beforeTokenTransfer(from, to, _tokenId);\r\n\r\n        Attribute memory currentAttribute = _attributes[_tokenId];\r\n        \r\n        require(to == currentAttribute.recipient || to == getOwner() || to == address(0), \"Target is not the recipient.\");\r\n    }\r\n\r\n    function supportsInterface(bytes4 interfaceId)\r\n        public\r\n        view\r\n        override(ERC721,ERC721Enumerable, AccessControlEnumerable)\r\n        returns (bool)\r\n    {\r\n        return super.supportsInterface(interfaceId);\r\n    }\r\n\r\n    bytes16 private constant _ALPHABET = \"0123456789abcdef\";\r\n\r\n    /**\r\n     * @dev Converts a `uint256` to its ASCII `string` hexadecimal representation with fixed length.\r\n     */\r\n    function toHexString(uint256 value, uint256 length) internal pure returns (string memory) {\r\n        bytes memory buffer = new bytes(2 * length + 2);\r\n        buffer[0] = \"0\";\r\n        buffer[1] = \"x\";\r\n        for (uint256 i = 2 * length + 1; i > 1; --i) {\r\n            buffer[i] = _ALPHABET[value & 0xf];\r\n            value >>= 4;\r\n        }\r\n        require(value == 0, \"HEX_L\");\r\n        return string(buffer);\r\n    }\r\n\r\n    function toUint8(bytes memory _bytes, uint256 _start) internal pure returns (uint8) {\r\n        require(_start + 1 >= _start, \"toUint8_overflow\");\r\n        require(_bytes.length >= _start + 1 , \"toUint8_outOfBounds\");\r\n        uint8 tempUint;\r\n\r\n        assembly {\r\n            tempUint := mload(add(add(_bytes, 0x1), _start))\r\n        }\r\n        return tempUint;\r\n    }    \r\n    function toString(uint256 value) internal pure returns (string memory) {\r\n\r\n        if (value == 0) {\r\n            return \"0\";\r\n        }\r\n        uint256 temp = value;\r\n        uint256 digits;\r\n        while (temp != 0) {\r\n            digits++;\r\n            temp /= 10;\r\n        }\r\n        bytes memory buffer = new bytes(digits);\r\n        while (value != 0) {\r\n            digits -= 1;\r\n            buffer[digits] = bytes1(uint8(48 + uint256(value % 10)));\r\n            value /= 10;\r\n        }\r\n        return string(buffer);\r\n    }\r\n\r\n    /**\r\n     * @dev Burns `tokenId`. See {ERC721-_burn}.\r\n     *\r\n     * Requirements:\r\n     *\r\n     * - The caller must own `tokenId` or be an approved operator.\r\n     */\r\n    // function burn(uint256 tokenId) external onlyFaculty {\r\n    //     //solhint-disable-next-line max-line-length\r\n    //     require(_isApprovedOrOwner(_msgSender(), tokenId), \"ERC721Burnable: caller is not owner nor approved\");\r\n    //     require(msg.sender == _attributes[tokenId].faculty, \"Only faculty who minted this token can burn it.\");\r\n    //     Attribute memory burnAttribute = Attribute(\r\n    //     \"\",\r\n    //     \"\",\r\n    //     \"\",\r\n    //     \"\",\r\n    //     address(0),\r\n    //     address(0)\r\n    //     );\r\n    //     _attributes[tokenId] =  burnAttribute;\r\n    //     _burn(tokenId);\r\n    // }\r\n\r\n    /**\r\n     * @dev Override inherited approve. Allow only faculty to burn token. \r\n     *\r\n     * Requirements:\r\n     *\r\n     * - to: must be a faculty address\r\n     */\r\n    // function approve(address to, uint256 tokenId) public virtual override(ERC721,IERC721) {\r\n    //     require(isFaculty(to) ,\"Only faculty can be approved to burn tokens.\");\r\n    //     require(to == _attributes[tokenId].faculty, \"Only faculty who minted this token can be approved.\");\r\n    //     address tokenOwner = ERC721.ownerOf(tokenId);\r\n    //     require(to != tokenOwner, \"ERC721: approval to current owner\");\r\n    //     require(\r\n    //         _msgSender() == tokenOwner || isApprovedForAll(tokenOwner, _msgSender()),\r\n    //         \"ERC721: approve caller is not owner nor approved for all\"\r\n    //     );\r\n    //     _approve(to, tokenId);\r\n    // }\r\n\r\n}",
  "sourcePath": "C:\\Users\\ngjun\\Downloads\\Blockchain-Trusted-Model\\contracts\\SITNFT.sol",
  "compiler": {
    "name": "solc",
    "version": "0.8.14+commit.80d49f37.Emscripten.clang"
  },
  "schemaVersion": "3.4.8",
  "updatedAt": "2022-07-20T10:20:46.810Z",
  "networkType": "ethereum",
  "devdoc": {
    "kind": "dev",
    "methods": {
      "addStudentAddress(string,address)": {
        "details": "Add student address to mapping. Requirements: - The caller must be an admin."
      },
      "approve(address,uint256)": {
        "details": "See {IERC721-approve}."
      },
      "balanceOf(address)": {
        "details": "See {IERC721-balanceOf}."
      },
      "getApproved(uint256)": {
        "details": "See {IERC721-getApproved}."
      },
      "getRoleAdmin(bytes32)": {
        "details": "Returns the admin role that controls `role`. See {grantRole} and {revokeRole}. To change a role's admin, use {_setRoleAdmin}."
      },
      "getRoleMember(bytes32,uint256)": {
        "details": "Returns one of the accounts that have `role`. `index` must be a value between 0 and {getRoleMemberCount}, non-inclusive. Role bearers are not sorted in any particular way, and their ordering may change at any point. WARNING: When using {getRoleMember} and {getRoleMemberCount}, make sure you perform all queries on the same block. See the following https://forum.openzeppelin.com/t/iterating-over-elements-on-enumerableset-in-openzeppelin-contracts/2296[forum post] for more information."
      },
      "getRoleMemberCount(bytes32)": {
        "details": "Returns the number of accounts that have `role`. Can be used together with {getRoleMember} to enumerate all bearers of a role."
      },
      "grantRole(bytes32,address)": {
        "details": "Grants `role` to `account`. If `account` had not been already granted `role`, emits a {RoleGranted} event. Requirements: - the caller must have ``role``'s admin role. May emit a {RoleGranted} event."
      },
      "hasRole(bytes32,address)": {
        "details": "Returns `true` if `account` has been granted `role`."
      },
      "isApprovedForAll(address,address)": {
        "details": "See {IERC721-isApprovedForAll}."
      },
      "isStudent(address)": {
        "details": "Check if address is student"
      },
      "mint(string,string,string,string,string)": {
        "details": "Mint with parameters Requirements: - The caller must be a faculty"
      },
      "multiAddStudentAddress((string,address)[])": {
        "details": "Takes in an array of studentAddresses and calls addStudentAddress. Requirements: - The caller must be an admin."
      },
      "name()": {
        "details": "See {IERC721Metadata-name}."
      },
      "ownerOf(uint256)": {
        "details": "See {IERC721-ownerOf}."
      },
      "renounceRole(bytes32,address)": {
        "details": "Revokes `role` from the calling account. Roles are often managed via {grantRole} and {revokeRole}: this function's purpose is to provide a mechanism for accounts to lose their privileges if they are compromised (such as when a trusted device is misplaced). If the calling account had been revoked `role`, emits a {RoleRevoked} event. Requirements: - the caller must be `account`. May emit a {RoleRevoked} event."
      },
      "revokeRole(bytes32,address)": {
        "details": "Revokes `role` from `account`. If `account` had been granted `role`, emits a {RoleRevoked} event. Requirements: - the caller must have ``role``'s admin role. May emit a {RoleRevoked} event."
      },
      "safeTransferFrom(address,address,uint256)": {
        "details": "See {IERC721-safeTransferFrom}."
      },
      "safeTransferFrom(address,address,uint256,bytes)": {
        "details": "See {IERC721-safeTransferFrom}."
      },
      "setApprovalForAll(address,bool)": {
        "details": "See {IERC721-setApprovalForAll}."
      },
      "symbol()": {
        "details": "See {IERC721Metadata-symbol}."
      },
      "tokenByIndex(uint256)": {
        "details": "See {IERC721Enumerable-tokenByIndex}."
      },
      "tokenOfOwnerByIndex(address,uint256)": {
        "details": "See {IERC721Enumerable-tokenOfOwnerByIndex}."
      },
      "totalSupply()": {
        "details": "See {IERC721Enumerable-totalSupply}."
      },
      "transferFrom(address,address,uint256)": {
        "details": "See {IERC721-transferFrom}."
      }
    },
    "version": 1
  },
  "userdoc": {
    "kind": "user",
    "methods": {
      "batchMint((string,string,string,string,string)[])": {
        "notice": "Batch mint tokens"
      }
    },
    "version": 1
  }
}