{
  "contractName": "SITNFT",
  "abi": [
    {
      "inputs": [],
      "stateMutability": "nonpayable",
      "type": "constructor"
    },
    {
      "anonymous": false,
      "inputs": [
        {
          "indexed": true,
          "internalType": "address",
          "name": "owner",
          "type": "address"
        },
        {
          "indexed": true,
          "internalType": "address",
          "name": "approved",
          "type": "address"
        },
        {
          "indexed": true,
          "internalType": "uint256",
          "name": "tokenId",
          "type": "uint256"
        }
      ],
      "name": "Approval",
      "type": "event"
    },
    {
      "anonymous": false,
      "inputs": [
        {
          "indexed": true,
          "internalType": "address",
          "name": "owner",
          "type": "address"
        },
        {
          "indexed": true,
          "internalType": "address",
          "name": "operator",
          "type": "address"
        },
        {
          "indexed": false,
          "internalType": "bool",
          "name": "approved",
          "type": "bool"
        }
      ],
      "name": "ApprovalForAll",
      "type": "event"
    },
    {
      "anonymous": false,
      "inputs": [
        {
          "indexed": true,
          "internalType": "address",
          "name": "sender",
          "type": "address"
        },
        {
          "indexed": false,
          "internalType": "string",
          "name": "message",
          "type": "string"
        }
      ],
      "name": "IndexedLog",
      "type": "event"
    },
    {
      "anonymous": false,
      "inputs": [
        {
          "indexed": false,
          "internalType": "string",
          "name": "message",
          "type": "string"
        }
      ],
      "name": "Log",
      "type": "event"
    },
    {
      "anonymous": false,
      "inputs": [
        {
          "indexed": true,
          "internalType": "address",
          "name": "sender",
          "type": "address"
        },
        {
          "indexed": false,
          "internalType": "uint256",
          "name": "tokenId",
          "type": "uint256"
        }
      ],
      "name": "Mint",
      "type": "event"
    },
    {
      "anonymous": false,
      "inputs": [
        {
          "indexed": true,
          "internalType": "bytes32",
          "name": "role",
          "type": "bytes32"
        },
        {
          "indexed": true,
          "internalType": "bytes32",
          "name": "previousAdminRole",
          "type": "bytes32"
        },
        {
          "indexed": true,
          "internalType": "bytes32",
          "name": "newAdminRole",
          "type": "bytes32"
        }
      ],
      "name": "RoleAdminChanged",
      "type": "event"
    },
    {
      "anonymous": false,
      "inputs": [
        {
          "indexed": true,
          "internalType": "bytes32",
          "name": "role",
          "type": "bytes32"
        },
        {
          "indexed": true,
          "internalType": "address",
          "name": "account",
          "type": "address"
        },
        {
          "indexed": true,
          "internalType": "address",
          "name": "sender",
          "type": "address"
        }
      ],
      "name": "RoleGranted",
      "type": "event"
    },
    {
      "anonymous": false,
      "inputs": [
        {
          "indexed": true,
          "internalType": "bytes32",
          "name": "role",
          "type": "bytes32"
        },
        {
          "indexed": true,
          "internalType": "address",
          "name": "account",
          "type": "address"
        },
        {
          "indexed": true,
          "internalType": "address",
          "name": "sender",
          "type": "address"
        }
      ],
      "name": "RoleRevoked",
      "type": "event"
    },
    {
      "anonymous": false,
      "inputs": [
        {
          "indexed": true,
          "internalType": "address",
          "name": "from",
          "type": "address"
        },
        {
          "indexed": true,
          "internalType": "address",
          "name": "to",
          "type": "address"
        },
        {
          "indexed": true,
          "internalType": "uint256",
          "name": "tokenId",
          "type": "uint256"
        }
      ],
      "name": "Transfer",
      "type": "event"
    },
    {
      "inputs": [],
      "name": "DEFAULT_ADMIN_ROLE",
      "outputs": [
        {
          "internalType": "bytes32",
          "name": "",
          "type": "bytes32"
        }
      ],
      "stateMutability": "view",
      "type": "function",
      "constant": true
    },
    {
      "inputs": [],
      "name": "FACULTY_ROLE",
      "outputs": [
        {
          "internalType": "bytes32",
          "name": "",
          "type": "bytes32"
        }
      ],
      "stateMutability": "view",
      "type": "function",
      "constant": true
    },
    {
      "inputs": [
        {
          "internalType": "address",
          "name": "account",
          "type": "address"
        }
      ],
      "name": "addAdmin",
      "outputs": [],
      "stateMutability": "nonpayable",
      "type": "function"
    },
    {
      "inputs": [
        {
          "internalType": "address",
          "name": "account",
          "type": "address"
        }
      ],
      "name": "addFaculty",
      "outputs": [],
      "stateMutability": "nonpayable",
      "type": "function"
    },
    {
      "inputs": [
        {
          "internalType": "address",
          "name": "owner",
          "type": "address"
        }
      ],
      "name": "balanceOf",
      "outputs": [
        {
          "internalType": "uint256",
          "name": "",
          "type": "uint256"
        }
      ],
      "stateMutability": "view",
      "type": "function",
      "constant": true
    },
    {
      "inputs": [
        {
          "internalType": "uint256",
          "name": "tokenId",
          "type": "uint256"
        }
      ],
      "name": "getApproved",
      "outputs": [
        {
          "internalType": "address",
          "name": "",
          "type": "address"
        }
      ],
      "stateMutability": "view",
      "type": "function",
      "constant": true
    },
    {
      "inputs": [],
      "name": "getOwner",
      "outputs": [
        {
          "internalType": "address",
          "name": "",
          "type": "address"
        }
      ],
      "stateMutability": "view",
      "type": "function",
      "constant": true
    },
    {
      "inputs": [
        {
          "internalType": "bytes32",
          "name": "role",
          "type": "bytes32"
        }
      ],
      "name": "getRoleAdmin",
      "outputs": [
        {
          "internalType": "bytes32",
          "name": "",
          "type": "bytes32"
        }
      ],
      "stateMutability": "view",
      "type": "function",
      "constant": true
    },
    {
      "inputs": [
        {
          "internalType": "bytes32",
          "name": "role",
          "type": "bytes32"
        },
        {
          "internalType": "uint256",
          "name": "index",
          "type": "uint256"
        }
      ],
      "name": "getRoleMember",
      "outputs": [
        {
          "internalType": "address",
          "name": "",
          "type": "address"
        }
      ],
      "stateMutability": "view",
      "type": "function",
      "constant": true
    },
    {
      "inputs": [
        {
          "internalType": "bytes32",
          "name": "role",
          "type": "bytes32"
        }
      ],
      "name": "getRoleMemberCount",
      "outputs": [
        {
          "internalType": "uint256",
          "name": "",
          "type": "uint256"
        }
      ],
      "stateMutability": "view",
      "type": "function",
      "constant": true
    },
    {
      "inputs": [
        {
          "internalType": "bytes32",
          "name": "role",
          "type": "bytes32"
        },
        {
          "internalType": "address",
          "name": "account",
          "type": "address"
        }
      ],
      "name": "grantRole",
      "outputs": [],
      "stateMutability": "nonpayable",
      "type": "function"
    },
    {
      "inputs": [
        {
          "internalType": "bytes32",
          "name": "role",
          "type": "bytes32"
        },
        {
          "internalType": "address",
          "name": "account",
          "type": "address"
        }
      ],
      "name": "hasRole",
      "outputs": [
        {
          "internalType": "bool",
          "name": "",
          "type": "bool"
        }
      ],
      "stateMutability": "view",
      "type": "function",
      "constant": true
    },
    {
      "inputs": [
        {
          "internalType": "address",
          "name": "account",
          "type": "address"
        }
      ],
      "name": "isAdmin",
      "outputs": [
        {
          "internalType": "bool",
          "name": "",
          "type": "bool"
        }
      ],
      "stateMutability": "view",
      "type": "function",
      "constant": true
    },
    {
      "inputs": [
        {
          "internalType": "address",
          "name": "owner",
          "type": "address"
        },
        {
          "internalType": "address",
          "name": "operator",
          "type": "address"
        }
      ],
      "name": "isApprovedForAll",
      "outputs": [
        {
          "internalType": "bool",
          "name": "",
          "type": "bool"
        }
      ],
      "stateMutability": "view",
      "type": "function",
      "constant": true
    },
    {
      "inputs": [
        {
          "internalType": "address",
          "name": "account",
          "type": "address"
        }
      ],
      "name": "isFaculty",
      "outputs": [
        {
          "internalType": "bool",
          "name": "",
          "type": "bool"
        }
      ],
      "stateMutability": "view",
      "type": "function",
      "constant": true
    },
    {
      "inputs": [],
      "name": "name",
      "outputs": [
        {
          "internalType": "string",
          "name": "",
          "type": "string"
        }
      ],
      "stateMutability": "view",
      "type": "function",
      "constant": true
    },
    {
      "inputs": [
        {
          "internalType": "uint256",
          "name": "tokenId",
          "type": "uint256"
        }
      ],
      "name": "ownerOf",
      "outputs": [
        {
          "internalType": "address",
          "name": "",
          "type": "address"
        }
      ],
      "stateMutability": "view",
      "type": "function",
      "constant": true
    },
    {
      "inputs": [
        {
          "internalType": "address",
          "name": "account",
          "type": "address"
        }
      ],
      "name": "removeAdmin",
      "outputs": [],
      "stateMutability": "nonpayable",
      "type": "function"
    },
    {
      "inputs": [
        {
          "internalType": "address",
          "name": "account",
          "type": "address"
        }
      ],
      "name": "removeFaculty",
      "outputs": [],
      "stateMutability": "nonpayable",
      "type": "function"
    },
    {
      "inputs": [
        {
          "internalType": "bytes32",
          "name": "role",
          "type": "bytes32"
        },
        {
          "internalType": "address",
          "name": "account",
          "type": "address"
        }
      ],
      "name": "renounceRole",
      "outputs": [],
      "stateMutability": "nonpayable",
      "type": "function"
    },
    {
      "inputs": [
        {
          "internalType": "bytes32",
          "name": "role",
          "type": "bytes32"
        },
        {
          "internalType": "address",
          "name": "account",
          "type": "address"
        }
      ],
      "name": "revokeRole",
      "outputs": [],
      "stateMutability": "nonpayable",
      "type": "function"
    },
    {
      "inputs": [
        {
          "internalType": "address",
          "name": "from",
          "type": "address"
        },
        {
          "internalType": "address",
          "name": "to",
          "type": "address"
        },
        {
          "internalType": "uint256",
          "name": "tokenId",
          "type": "uint256"
        }
      ],
      "name": "safeTransferFrom",
      "outputs": [],
      "stateMutability": "nonpayable",
      "type": "function"
    },
    {
      "inputs": [
        {
          "internalType": "address",
          "name": "from",
          "type": "address"
        },
        {
          "internalType": "address",
          "name": "to",
          "type": "address"
        },
        {
          "internalType": "uint256",
          "name": "tokenId",
          "type": "uint256"
        },
        {
          "internalType": "bytes",
          "name": "_data",
          "type": "bytes"
        }
      ],
      "name": "safeTransferFrom",
      "outputs": [],
      "stateMutability": "nonpayable",
      "type": "function"
    },
    {
      "inputs": [
        {
          "internalType": "address",
          "name": "operator",
          "type": "address"
        },
        {
          "internalType": "bool",
          "name": "approved",
          "type": "bool"
        }
      ],
      "name": "setApprovalForAll",
      "outputs": [],
      "stateMutability": "nonpayable",
      "type": "function"
    },
    {
      "inputs": [],
      "name": "symbol",
      "outputs": [
        {
          "internalType": "string",
          "name": "",
          "type": "string"
        }
      ],
      "stateMutability": "view",
      "type": "function",
      "constant": true
    },
    {
      "inputs": [
        {
          "internalType": "uint256",
          "name": "index",
          "type": "uint256"
        }
      ],
      "name": "tokenByIndex",
      "outputs": [
        {
          "internalType": "uint256",
          "name": "",
          "type": "uint256"
        }
      ],
      "stateMutability": "view",
      "type": "function",
      "constant": true
    },
    {
      "inputs": [
        {
          "internalType": "address",
          "name": "owner",
          "type": "address"
        },
        {
          "internalType": "uint256",
          "name": "index",
          "type": "uint256"
        }
      ],
      "name": "tokenOfOwnerByIndex",
      "outputs": [
        {
          "internalType": "uint256",
          "name": "",
          "type": "uint256"
        }
      ],
      "stateMutability": "view",
      "type": "function",
      "constant": true
    },
    {
      "inputs": [],
      "name": "totalSupply",
      "outputs": [
        {
          "internalType": "uint256",
          "name": "",
          "type": "uint256"
        }
      ],
      "stateMutability": "view",
      "type": "function",
      "constant": true
    },
    {
      "inputs": [
        {
          "internalType": "address",
          "name": "from",
          "type": "address"
        },
        {
          "internalType": "address",
          "name": "to",
          "type": "address"
        },
        {
          "internalType": "uint256",
          "name": "tokenId",
          "type": "uint256"
        }
      ],
      "name": "transferFrom",
      "outputs": [],
      "stateMutability": "nonpayable",
      "type": "function"
    },
    {
      "inputs": [
        {
          "internalType": "string",
          "name": "_id",
          "type": "string"
        },
        {
          "internalType": "address",
          "name": "_address",
          "type": "address"
        }
      ],
      "name": "addStudentAddress",
      "outputs": [],
      "stateMutability": "nonpayable",
      "type": "function"
    },
    {
      "inputs": [
        {
          "components": [
            {
              "internalType": "string",
              "name": "id",
              "type": "string"
            },
            {
              "internalType": "address",
              "name": "addr",
              "type": "address"
            }
          ],
          "internalType": "struct SITNFT.IdAddress[]",
          "name": "_array",
          "type": "tuple[]"
        }
      ],
      "name": "multiAddStudentAddress",
      "outputs": [],
      "stateMutability": "nonpayable",
      "type": "function"
    },
    {
      "inputs": [
        {
          "internalType": "string",
          "name": "moduleCode",
          "type": "string"
        },
        {
          "internalType": "string",
          "name": "testType",
          "type": "string"
        },
        {
          "internalType": "string",
          "name": "grade",
          "type": "string"
        },
        {
          "internalType": "string",
          "name": "trimester",
          "type": "string"
        },
        {
          "internalType": "string",
          "name": "recipient",
          "type": "string"
        }
      ],
      "name": "mint",
      "outputs": [],
      "stateMutability": "nonpayable",
      "type": "function"
    },
    {
      "inputs": [
        {
          "internalType": "uint256",
          "name": "_tokenId",
          "type": "uint256"
        }
      ],
      "name": "tokenURI",
      "outputs": [
        {
          "internalType": "string",
          "name": "",
          "type": "string"
        }
      ],
      "stateMutability": "view",
      "type": "function",
      "constant": true
    },
    {
      "inputs": [
        {
          "internalType": "uint256",
          "name": "_tokenId",
          "type": "uint256"
        }
      ],
      "name": "attributes",
      "outputs": [
        {
          "internalType": "string",
          "name": "",
          "type": "string"
        },
        {
          "internalType": "string",
          "name": "",
          "type": "string"
        },
        {
          "internalType": "string",
          "name": "",
          "type": "string"
        },
        {
          "internalType": "string",
          "name": "",
          "type": "string"
        },
        {
          "internalType": "address",
          "name": "",
          "type": "address"
        }
      ],
      "stateMutability": "view",
      "type": "function",
      "constant": true
    },
    {
      "inputs": [
        {
          "internalType": "bytes4",
          "name": "interfaceId",
          "type": "bytes4"
        }
      ],
      "name": "supportsInterface",
      "outputs": [
        {
          "internalType": "bool",
          "name": "",
          "type": "bool"
        }
      ],
      "stateMutability": "view",
      "type": "function",
      "constant": true
    },
    {
      "inputs": [
        {
          "internalType": "uint256",
          "name": "tokenId",
          "type": "uint256"
        }
      ],
      "name": "burn",
      "outputs": [],
      "stateMutability": "nonpayable",
      "type": "function"
    },
    {
      "inputs": [
        {
          "internalType": "address",
          "name": "to",
          "type": "address"
        },
        {
          "internalType": "uint256",
          "name": "tokenId",
          "type": "uint256"
        }
      ],
      "name": "approve",
      "outputs": [],
      "stateMutability": "nonpayable",
      "type": "function"
    }
  ],
  "bytecode": "0x6007610300818152662365636133663560c81b61032052610280908152610340828152662366646261663960c81b610360526102a0526103808281526611b11832b332b160c91b6103a0526102c0526103c0828152662365646666613960c81b6103e0526102e0526080908152610480828152660466e6ac6ccc4760cb1b6104a0526104009081526104c083815266046c4c4c8ccc6760cb1b6104e0526104205261050083815266046cc60ca6ac8760cb1b610520526104405261054083815266046ccccc6686e760cb1b610560526104605260a052610600828152662366666162373360c81b610620526105809081526106408381526608d999990cce0d60ca1b610660526105a052610680838152660236666663962360cc1b6106a0526105c0526106c0838152660236666616563360cc1b6106e0526105e05260c0526107808281526608ce4d188d184d60ca1b6107a0526107009081526107c0838152662364326635653360c81b6107e05261072052610800838152662365356335623560c81b61082052610740526108408381526611b31a321cb19b60c91b610860526107605260e052610900828152662366346639663960c81b6109208190526108809182526109408481526608d8d8d98c998d60ca1b610960526108a052610980848152662361346562663360c81b6109a0526108c0526109c0848152662361616161616160c81b6109e0526108e05261010091909152610a80838152662363616637653360c81b610aa052610a00908152610ac0848152662365646666656360c81b610ae052610a2052610b008481526611b31b323332b160c91b610b2052610a4052610b408481526608d94d1898590d60ca1b610b6052610a605261012052610c00838152610c2091909152610b80908152610c40838152660236631643164360cc1b610c6052610ba052610c80838152662366626163636360c81b610ca052610bc052610cc0838152662366383735616160c81b610ce052610be05261014052610d80828152662366646666626360c81b610da052610d00908152610dc08381526611b33332b2b13160c91b610de052610d2052610e0083815266046ccccc8c6c4760cb1b610e2052610d4052610e408381526611b3333198b11b60c91b610e6052610d605261016052610f00828152662366306534643760c81b610f2052610e80908152610f40838152660236635633063360cc1b610f6052610ea052610f80838152662366663731373160c81b610fa052610ec052610fc083815266119cb3321c323360c91b610fe052610ee052610180526110808281526611b29a3331333360c91b6110a0526110009081526110c08381526611b11c311ab33360c91b6110e0526110205261110083815266119b9c1b1c329b60c91b6111205261104052611140838152662365646565663760c81b61116052611060526101a052611200828152662366666362393160c81b61122052611180908152611240838152662366666566613160c81b611260526111a0526112808381526608ce4d195898d960ca1b6112a0526111c0526112c083815266119b323231b1b360c91b6112e0526111e0526101c052611380828152662362656463666160c81b6113a0526113009081526113c0838152660467270c2c6cc760cb1b6113e05261132052611400838152662362303838663960c81b6114205261134052611440838152662364613966663960c81b61146052611360526101e0526115008281526611b131b29b32b160c91b611520526114809081526115408381526611b33231b3323360c91b611560526114a0526115808381526611b3313132b23360c91b6115a0526114c0526115c0838152662366636133636360c81b6115e0526114e05261020052611680828152660236666373561360cc1b6116a0526116009081526116c0838152662366636533386160c81b6116e05261162052611700838152660236561666664360cc1b6117205261164052611740838152662339356531643360c81b6117605261166052610220526118008281526608d998994c18cd60ca1b6118205261178090815261184083815266119c30b11b321b60c91b611860526117a052611880838152662332393738623560c81b6118a0526117c0526118c08381526604660606c62c2760cb1b6118e0526117e052610240526119808281526608d9191919191960ca1b6119a0526119009081526119c0838152662366396633663360c81b6119e05261192052611a00838152662366376439643960c81b611a205261194052611a80604052611a40928352662366323532383760c81b611a60526119609290925261026091909152620006b890600e9060106200094f565b50348015620006c657600080fd5b50604080518082018252600781526614d2550813919560ca1b60208083019182528351808501909452600384526214d25560ea1b908401528151339391620007129160009190620009a1565b50805162000728906001906020840190620009a1565b5050506001600160a01b0381166200073f57600080fd5b600c80546001600160a01b0319166001600160a01b038316179055620007676000826200079b565b620007947f573a495ec6f39d095bd4855f18069a9236d77216cfb96e453909f2408c333cfa6000620007ab565b5062000b9c565b620007a78282620007f6565b5050565b6000828152600a6020526040808220600101805490849055905190918391839186917fbd79b86ffe0ab8e8776151514217cd7cacd52c909f66475c3af44e129f0b00ff9190a4505050565b6200080d82826200083960201b62001b9f1760201c565b6000828152600b602090815260409091206200083491839062001c41620008dd821b17901c565b505050565b6000828152600a602090815260408083206001600160a01b038516845290915290205460ff16620007a7576000828152600a602090815260408083206001600160a01b03851684529091529020805460ff19166001179055620008993390565b6001600160a01b0316816001600160a01b0316837f2f8788117e7eff1d82e926ec794901d17c78024a50270940304540a733656f0d60405160405180910390a45050565b6000620008f4836001600160a01b038416620008fd565b90505b92915050565b60008181526001830160205260408120546200094657508154600181810184556000848152602080822090930184905584548482528286019093526040902091909155620008f7565b506000620008f7565b6040830191839082156200098f579160200282015b828111156200098f5782516200097e908390600462000a2c565b509160200191906004019062000964565b506200099d92915062000a7f565b5090565b828054620009af9062000b60565b90600052602060002090601f016020900481019282620009d3576000855562000a1e565b82601f10620009ee57805160ff191683800117855562000a1e565b8280016001018555821562000a1e579182015b8281111562000a1e57825182559160200191906001019062000a01565b506200099d92915062000aa0565b826004810192821562000a71579160200282015b8281111562000a71578251805162000a60918491602090910190620009a1565b509160200191906001019062000a40565b506200099d92915062000ab7565b808211156200099d57600062000a96828262000ad8565b5060040162000a7f565b5b808211156200099d576000815560010162000aa1565b808211156200099d57600062000ace828262000b1e565b5060010162000ab7565b50600062000ae7828262000b1e565b50600101600062000af9828262000b1e565b50600101600062000b0b828262000b1e565b5062000b1c90600101600062000b1e565b565b50805462000b2c9062000b60565b6000825580601f1062000b3d575050565b601f01602090049060005260206000209081019062000b5d919062000aa0565b50565b600181811c9082168062000b7557607f821691505b60208210810362000b9657634e487b7160e01b600052602260045260246000fd5b50919050565b6152298062000bac6000396000f3fe608060405234801561001057600080fd5b50600436106102775760003560e01c80637048027511610160578063a22cb465116100d8578063ca15c8731161008c578063d547741f11610071578063d547741f14610575578063e985e9c514610588578063f408977b146105c457600080fd5b8063ca15c8731461053e578063d05dcc6a1461055157600080fd5b8063c2a78702116100bd578063c2a7870214610505578063c8360ce814610518578063c87b56dd1461052b57600080fd5b8063a22cb465146104df578063b88d4fde146104f257600080fd5b80639010d07c1161012f57806393a865321161011457806393a86532146104bc57806395d89b41146104cf578063a217fddf146104d757600080fd5b80639010d07c1461047057806391d148541461048357600080fd5b8063704802751461042657806370a082311461043957806386833e911461044c578063893d20e81461045f57600080fd5b80632f2ff15d116101f357806342842e0e116101c25780634f6ccce7116101a75780634f6ccce7146103d95780636352211e146103ec5780636fe3ceb8146103ff57600080fd5b806342842e0e146103b357806342966c68146103c657600080fd5b80632f2ff15d146103675780632f745c591461037a57806336568abe1461038d578063396ff3ed146103a057600080fd5b80631785f53c1161024a57806323b872dd1161022f57806323b872dd1461031e578063248a9ca31461033157806324d7806c1461035457600080fd5b80631785f53c146102f957806318160ddd1461030c57600080fd5b806301ffc9a71461027c57806306fdde03146102a4578063081812fc146102b9578063095ea7b3146102e4575b600080fd5b61028f61028a366004613906565b6105d7565b60405190151581526020015b60405180910390f35b6102ac6105e8565b60405161029b919061397b565b6102cc6102c736600461398e565b61067a565b6040516001600160a01b03909116815260200161029b565b6102f76102f23660046139c3565b610725565b005b6102f76103073660046139ed565b610963565b6008545b60405190815260200161029b565b6102f761032c366004613a08565b6109be565b61031061033f36600461398e565b6000908152600a602052604090206001015490565b61028f6103623660046139ed565b610a46565b6102f7610375366004613a44565b610a86565b6103106103883660046139c3565b610aab565b6102f761039b366004613a44565b610b53565b6102f76103ae3660046139ed565b610bdf565b6102f76103c1366004613a08565b610c56565b6102f76103d436600461398e565b610c71565b6103106103e736600461398e565b610ed8565b6102cc6103fa36600461398e565b610f7c565b6103107f573a495ec6f39d095bd4855f18069a9236d77216cfb96e453909f2408c333cfa81565b6102f76104343660046139ed565b611007565b6103106104473660046139ed565b61105f565b6102f761045a366004613ab9565b6110f9565b600c546001600160a01b03166102cc565b6102cc61047e366004613baa565b6113b9565b61028f610491366004613a44565b6000918252600a602090815260408084206001600160a01b0393909316845291905290205460ff1690565b6102f76104ca3660046139ed565b6113d8565b6102ac61144f565b610310600081565b6102f76104ed366004613bcc565b61145e565b6102f7610500366004613c94565b611469565b61028f6105133660046139ed565b6114f7565b6102f7610526366004613d10565b611537565b6102ac61053936600461398e565b6116b4565b61031061054c36600461398e565b61174a565b61056461055f36600461398e565b611761565b60405161029b959493929190613d85565b6102f7610583366004613a44565b611a6c565b61028f610596366004613dee565b6001600160a01b03918216600090815260056020908152604080832093909416825291909152205460ff1690565b6102f76105d2366004613e18565b611a91565b60006105e282611c56565b92915050565b6060600080546105f790613e71565b80601f016020809104026020016040519081016040528092919081815260200182805461062390613e71565b80156106705780601f1061064557610100808354040283529160200191610670565b820191906000526020600020905b81548152906001019060200180831161065357829003601f168201915b5050505050905090565b6000818152600260205260408120546001600160a01b03166107095760405162461bcd60e51b815260206004820152602c60248201527f4552433732313a20617070726f76656420717565727920666f72206e6f6e657860448201527f697374656e7420746f6b656e000000000000000000000000000000000000000060648201526084015b60405180910390fd5b506000908152600460205260409020546001600160a01b031690565b61072e826114f7565b6107a05760405162461bcd60e51b815260206004820152602c60248201527f4f6e6c7920666163756c74792063616e20626520617070726f76656420746f2060448201527f6275726e20746f6b656e732e00000000000000000000000000000000000000006064820152608401610700565b6000818152604e60205260409020600401546001600160a01b038381169116146108325760405162461bcd60e51b815260206004820152603360248201527f4f6e6c7920666163756c74792077686f206d696e746564207468697320746f6b60448201527f656e2063616e20626520617070726f7665642e000000000000000000000000006064820152608401610700565b600061083d82610f7c565b9050806001600160a01b0316836001600160a01b0316036108c65760405162461bcd60e51b815260206004820152602160248201527f4552433732313a20617070726f76616c20746f2063757272656e74206f776e6560448201527f72000000000000000000000000000000000000000000000000000000000000006064820152608401610700565b336001600160a01b03821614806108e257506108e28133610596565b6109545760405162461bcd60e51b815260206004820152603860248201527f4552433732313a20617070726f76652063616c6c6572206973206e6f74206f7760448201527f6e6572206e6f7220617070726f76656420666f7220616c6c00000000000000006064820152608401610700565b61095e8383611c94565b505050565b61096c33610a46565b6109b05760405162461bcd60e51b81526020600482015260156024820152742932b9ba3934b1ba32b2103a379030b236b4b7399760591b6044820152606401610700565b6109bb600082611a6c565b50565b6109c9335b82611d02565b610a3b5760405162461bcd60e51b815260206004820152603160248201527f4552433732313a207472616e736665722063616c6c6572206973206e6f74206f60448201527f776e6572206e6f7220617070726f7665640000000000000000000000000000006064820152608401610700565b61095e838383611e0a565b6001600160a01b03811660009081527f13da86008ba1c6922daee3e07db95305ef49ebced9f5467a0b8613fcc6b343e3602052604081205460ff166105e2565b6000828152600a6020526040902060010154610aa181611fe2565b61095e8383611fec565b6000610ab68361105f565b8210610b2a5760405162461bcd60e51b815260206004820152602b60248201527f455243373231456e756d657261626c653a206f776e657220696e646578206f7560448201527f74206f6620626f756e64730000000000000000000000000000000000000000006064820152608401610700565b506001600160a01b03919091166000908152600660209081526040808320938352929052205490565b6001600160a01b0381163314610bd15760405162461bcd60e51b815260206004820152602f60248201527f416363657373436f6e74726f6c3a2063616e206f6e6c792072656e6f756e636560448201527f20726f6c657320666f722073656c6600000000000000000000000000000000006064820152608401610700565b610bdb828261200e565b5050565b610be833610a46565b610c2c5760405162461bcd60e51b81526020600482015260156024820152742932b9ba3934b1ba32b2103a379030b236b4b7399760591b6044820152606401610700565b6109bb7f573a495ec6f39d095bd4855f18069a9236d77216cfb96e453909f2408c333cfa82610a86565b61095e83838360405180602001604052806000815250611469565b610c7a336114f7565b610cc65760405162461bcd60e51b815260206004820152601660248201527f5265737472696374656420746f20666163756c74792e000000000000000000006044820152606401610700565b610ccf336109c3565b610d415760405162461bcd60e51b815260206004820152603060248201527f4552433732314275726e61626c653a2063616c6c6572206973206e6f74206f7760448201527f6e6572206e6f7220617070726f766564000000000000000000000000000000006064820152608401610700565b6000818152604e60205260409020600401546001600160a01b03163314610dd05760405162461bcd60e51b815260206004820152602f60248201527f4f6e6c7920666163756c74792077686f206d696e746564207468697320746f6b60448201527f656e2063616e206275726e2069742e00000000000000000000000000000000006064820152608401610700565b6040805160e081018252600060c0820181815282528251602081810185528282528084019190915283518082018552828152838501528351808201855282815260608401526080830182905260a08301829052848252604e81529290208151805192938493610e429284920190613857565b506020828101518051610e5b9260018501920190613857565b5060408201518051610e77916002840191602090910190613857565b5060608201518051610e93916003840191602090910190613857565b5060808201516004820180546001600160a01b03199081166001600160a01b039384161790915560a090930151600590920180549093169116179055610bdb82612030565b6000610ee360085490565b8210610f575760405162461bcd60e51b815260206004820152602c60248201527f455243373231456e756d657261626c653a20676c6f62616c20696e646578206f60448201527f7574206f6620626f756e647300000000000000000000000000000000000000006064820152608401610700565b60088281548110610f6a57610f6a613eab565b90600052602060002001549050919050565b6000818152600260205260408120546001600160a01b0316806105e25760405162461bcd60e51b815260206004820152602960248201527f4552433732313a206f776e657220717565727920666f72206e6f6e657869737460448201527f656e7420746f6b656e00000000000000000000000000000000000000000000006064820152608401610700565b61101033610a46565b6110545760405162461bcd60e51b81526020600482015260156024820152742932b9ba3934b1ba32b2103a379030b236b4b7399760591b6044820152606401610700565b6109bb600082610a86565b60006001600160a01b0382166110dd5760405162461bcd60e51b815260206004820152602a60248201527f4552433732313a2062616c616e636520717565727920666f7220746865207a6560448201527f726f2061646472657373000000000000000000000000000000000000000000006064820152608401610700565b506001600160a01b031660009081526003602052604090205490565b611102336114f7565b61114e5760405162461bcd60e51b815260206004820152601660248201527f5265737472696374656420746f20666163756c74792e000000000000000000006044820152606401610700565b6040805160e06020601f8d01819004028201810190925260c081018b81526000928291908e908e9081908501838280828437600092019190915250505090825250604080516020601f8d018190048102820181019092528b815291810191908c908c9081908401838280828437600092019190915250505090825250604080516020601f8b0181900481028201810190925289815291810191908a908a9081908401838280828437600092019190915250505090825250604080516020601f8901819004810282018101909252878152918101919088908890819084018382808284376000920191909152505050908252503360208083019190915260408051601f870183900483028101830182528681529201916112879187908790819084018382808284376000920191909152506120d792505050565b6001600160a01b0316905290506112a2600d80546001019055565b60006112ad600d5490565b6000818152604e6020908152604090912084518051939450859391926112d892849290910190613857565b5060208281015180516112f19260018501920190613857565b506040820151805161130d916002840191602090910190613857565b5060608201518051611329916003840191602090910190613857565b5060808201516004820180546001600160a01b039283166001600160a01b03199182161790915560a093840151600590930180549390921692169190911790558201516113769082612186565b60405181815233907f0f6798a560793a54c3bcfe86a93cde1e73087d944c0ea20544137d41213968859060200160405180910390a2505050505050505050505050565b6000828152600b602052604081206113d190836121a0565b9392505050565b6113e133610a46565b6114255760405162461bcd60e51b81526020600482015260156024820152742932b9ba3934b1ba32b2103a379030b236b4b7399760591b6044820152606401610700565b6109bb7f573a495ec6f39d095bd4855f18069a9236d77216cfb96e453909f2408c333cfa82611a6c565b6060600180546105f790613e71565b610bdb3383836121ac565b6114733383611d02565b6114e55760405162461bcd60e51b815260206004820152603160248201527f4552433732313a207472616e736665722063616c6c6572206973206e6f74206f60448201527f776e6572206e6f7220617070726f7665640000000000000000000000000000006064820152608401610700565b6114f18484848461227a565b50505050565b6001600160a01b03811660009081527f9019cc2ada0da9adebe4b58b4b78fbab4edc82e8bb6da2a3f362a37225196cd3602052604081205460ff166105e2565b61154033610a46565b6115845760405162461bcd60e51b81526020600482015260156024820152742932b9ba3934b1ba32b2103a379030b236b4b7399760591b6044820152606401610700565b60005b8181101561163e5761162c8383838181106115a4576115a4613eab565b90506020028101906115b69190613ec1565b6115c09080613ee1565b8080601f01602080910402602001604051908101604052809392919081815260200183838082843760009201919091525087925086915085905081811061160957611609613eab565b905060200281019061161b9190613ec1565b6105d29060408101906020016139ed565b8061163681613f3e565b915050611587565b50336001600160a01b03167fa66ae13e5605ba8fbc32dd24e75cd0f527810c48b5d0cbd0290be290217b2da06040516116a89060208082526016908201527f6d756c746941646453747564656e745375636365656400000000000000000000604082015260600190565b60405180910390a25050565b6000818152600260205260409020546060906001600160a01b03166117415760405162461bcd60e51b815260206004820152602f60248201527f4552433732314d657461646174613a2055524920717565727920666f72206e6f60448201527f6e6578697374656e7420746f6b656e00000000000000000000000000000000006064820152608401610700565b6105e282612303565b6000818152600b602052604081206105e29061239c565b606080606080600061178a866000908152600260205260409020546001600160a01b0316151590565b6117fc5760405162461bcd60e51b815260206004820152603560248201527f4552433732314d657461646174613a206174747269627574652071756572792060448201527f666f72206e6f6e6578697374656e7420746f6b656e00000000000000000000006064820152608401610700565b6000868152604e60205260409020600581015481546001830191600284019160038501916001600160a01b031690859061183590613e71565b80601f016020809104026020016040519081016040528092919081815260200182805461186190613e71565b80156118ae5780601f10611883576101008083540402835291602001916118ae565b820191906000526020600020905b81548152906001019060200180831161189157829003601f168201915b505050505094508380546118c190613e71565b80601f01602080910402602001604051908101604052809291908181526020018280546118ed90613e71565b801561193a5780601f1061190f5761010080835404028352916020019161193a565b820191906000526020600020905b81548152906001019060200180831161191d57829003601f168201915b5050505050935082805461194d90613e71565b80601f016020809104026020016040519081016040528092919081815260200182805461197990613e71565b80156119c65780601f1061199b576101008083540402835291602001916119c6565b820191906000526020600020905b8154815290600101906020018083116119a957829003601f168201915b505050505092508180546119d990613e71565b80601f0160208091040260200160405190810160405280929190818152602001828054611a0590613e71565b8015611a525780601f10611a2757610100808354040283529160200191611a52565b820191906000526020600020905b815481529060010190602001808311611a3557829003601f168201915b505050505091509450945094509450945091939590929450565b6000828152600a6020526040902060010154611a8781611fe2565b61095e838361200e565b611a9a33610a46565b611ade5760405162461bcd60e51b81526020600482015260156024820152742932b9ba3934b1ba32b2103a379030b236b4b7399760591b6044820152606401610700565b600082604051602001611af19190613f73565b60408051601f1981840301815282825280516020918201206000818152604f90925291902080546001600160a01b0386166001600160a01b0319909116179055915033907fa66ae13e5605ba8fbc32dd24e75cd0f527810c48b5d0cbd0290be290217b2da090611b929060208082526011908201527f61646453747564656e7453756363656564000000000000000000000000000000604082015260600190565b60405180910390a2505050565b6000828152600a602090815260408083206001600160a01b038516845290915290205460ff16610bdb576000828152600a602090815260408083206001600160a01b03851684529091529020805460ff19166001179055611bfd3390565b6001600160a01b0316816001600160a01b0316837f2f8788117e7eff1d82e926ec794901d17c78024a50270940304540a733656f0d60405160405180910390a45050565b60006113d1836001600160a01b0384166123a6565b60006001600160e01b031982167f5a05180f0000000000000000000000000000000000000000000000000000000014806105e257506105e2826123f5565b600081815260046020526040902080546001600160a01b0319166001600160a01b0384169081179091558190611cc982610f7c565b6001600160a01b03167f8c5be1e5ebec7d5bd14f71427d1e84f3dd0314c0f7b2291e5b200ac8c7c3b92560405160405180910390a45050565b6000818152600260205260408120546001600160a01b0316611d8c5760405162461bcd60e51b815260206004820152602c60248201527f4552433732313a206f70657261746f7220717565727920666f72206e6f6e657860448201527f697374656e7420746f6b656e00000000000000000000000000000000000000006064820152608401610700565b6000611d9783610f7c565b9050806001600160a01b0316846001600160a01b03161480611dde57506001600160a01b0380821660009081526005602090815260408083209388168352929052205460ff165b80611e025750836001600160a01b0316611df78461067a565b6001600160a01b0316145b949350505050565b826001600160a01b0316611e1d82610f7c565b6001600160a01b031614611e995760405162461bcd60e51b815260206004820152602560248201527f4552433732313a207472616e736665722066726f6d20696e636f72726563742060448201527f6f776e65720000000000000000000000000000000000000000000000000000006064820152608401610700565b6001600160a01b038216611f145760405162461bcd60e51b8152602060048201526024808201527f4552433732313a207472616e7366657220746f20746865207a65726f2061646460448201527f72657373000000000000000000000000000000000000000000000000000000006064820152608401610700565b611f1f838383612433565b611f2a600082611c94565b6001600160a01b0383166000908152600360205260408120805460019290611f53908490613f85565b90915550506001600160a01b0382166000908152600360205260408120805460019290611f81908490613f9c565b909155505060008181526002602052604080822080546001600160a01b0319166001600160a01b0386811691821790925591518493918716917fddf252ad1be2c89b69c2b068fc378daa952ba7f163c4a11628f55a4df523b3ef91a4505050565b6109bb8133612743565b611ff68282611b9f565b6000828152600b6020526040902061095e9082611c41565b61201882826127c3565b6000828152600b6020526040902061095e9082612846565b600061203b82610f7c565b905061204981600084612433565b612054600083611c94565b6001600160a01b038116600090815260036020526040812080546001929061207d908490613f85565b909155505060008281526002602052604080822080546001600160a01b0319169055518391906001600160a01b038416907fddf252ad1be2c89b69c2b068fc378daa952ba7f163c4a11628f55a4df523b3ef908390a45050565b600080826040516020016120eb9190613f73565b60408051601f1981840301815291815281516020928301206000818152604f9093529120549091506001600160a01b03166121685760405162461bcd60e51b815260206004820152601760248201527f53747564656e7420646f6573206e6f742065786973742e0000000000000000006044820152606401610700565b6000908152604f60205260409020546001600160a01b031692915050565b610bdb82826040518060200160405280600081525061285b565b60006113d183836128e4565b816001600160a01b0316836001600160a01b03160361220d5760405162461bcd60e51b815260206004820152601960248201527f4552433732313a20617070726f766520746f2063616c6c6572000000000000006044820152606401610700565b6001600160a01b03838116600081815260056020908152604080832094871680845294825291829020805460ff191686151590811790915591519182527f17307eab39ab6107e8899845ad3d59bd9653f200f220920489ca2b5937696c31910160405180910390a3505050565b612285848484611e0a565b6122918484848461290e565b6114f15760405162461bcd60e51b815260206004820152603260248201527f4552433732313a207472616e7366657220746f206e6f6e20455243373231526560448201527f63656976657220696d706c656d656e74657200000000000000000000000000006064820152608401610700565b6060600061231083612a65565b6000848152604e60205260408120919250906123719061232f86612a78565b6000878152604e6020908152604091829020915161235d94939288929091600183019160038401910161404d565b604051602081830303815290604052612b79565b90508060405160200161238491906142ea565b60405160208183030381529060405292505050919050565b60006105e2825490565b60008181526001830160205260408120546123ed575081546001818101845560008481526020808220909301849055845484825282860190935260409020919091556105e2565b5060006105e2565b60006001600160e01b031982167f7965db0b0000000000000000000000000000000000000000000000000000000014806105e257506105e282612d17565b61243e838383612d55565b6000818152604e6020526040808220815160c0810190925280548290829061246590613e71565b80601f016020809104026020016040519081016040528092919081815260200182805461249190613e71565b80156124de5780601f106124b3576101008083540402835291602001916124de565b820191906000526020600020905b8154815290600101906020018083116124c157829003601f168201915b505050505081526020016001820180546124f790613e71565b80601f016020809104026020016040519081016040528092919081815260200182805461252390613e71565b80156125705780601f1061254557610100808354040283529160200191612570565b820191906000526020600020905b81548152906001019060200180831161255357829003601f168201915b5050505050815260200160028201805461258990613e71565b80601f01602080910402602001604051908101604052809291908181526020018280546125b590613e71565b80156126025780601f106125d757610100808354040283529160200191612602565b820191906000526020600020905b8154815290600101906020018083116125e557829003601f168201915b5050505050815260200160038201805461261b90613e71565b80601f016020809104026020016040519081016040528092919081815260200182805461264790613e71565b80156126945780601f1061266957610100808354040283529160200191612694565b820191906000526020600020905b81548152906001019060200180831161267757829003601f168201915b505050918352505060048201546001600160a01b039081166020830152600590920154821660409091015260a0820151919250848116911614806126e55750600c546001600160a01b038481169116145b806126f757506001600160a01b038316155b6114f15760405162461bcd60e51b815260206004820152601c60248201527f546172676574206973206e6f742074686520726563697069656e742e000000006044820152606401610700565b6000828152600a602090815260408083206001600160a01b038516845290915290205460ff16610bdb57612781816001600160a01b03166014612e0d565b61278c836020612e0d565b60405160200161279d92919061432f565b60408051601f198184030181529082905262461bcd60e51b82526107009160040161397b565b6000828152600a602090815260408083206001600160a01b038516845290915290205460ff1615610bdb576000828152600a602090815260408083206001600160a01b0385168085529252808320805460ff1916905551339285917ff6391f5c32d9c69d2a47ea670b442974b53935d1edc7fd64eb21e047a839171b9190a45050565b60006113d1836001600160a01b038416612fb6565b61286583836130a9565b612872600084848461290e565b61095e5760405162461bcd60e51b815260206004820152603260248201527f4552433732313a207472616e7366657220746f206e6f6e20455243373231526560448201527f63656976657220696d706c656d656e74657200000000000000000000000000006064820152608401610700565b60008260000182815481106128fb576128fb613eab565b9060005260206000200154905092915050565b60006001600160a01b0384163b15612a5a57604051630a85bd0160e11b81526001600160a01b0385169063150b7a02906129529033908990889088906004016143b0565b6020604051808303816000875af192505050801561298d575060408051601f3d908101601f1916820190925261298a918101906143ec565b60015b612a40573d8080156129bb576040519150601f19603f3d011682016040523d82523d6000602084013e6129c0565b606091505b508051600003612a385760405162461bcd60e51b815260206004820152603260248201527f4552433732313a207472616e7366657220746f206e6f6e20455243373231526560448201527f63656976657220696d706c656d656e74657200000000000000000000000000006064820152608401610700565b805181602001fd5b6001600160e01b031916630a85bd0160e11b149050611e02565b506001949350505050565b60606105e2612a73836131f7565b612b79565b606081600003612a9f5750506040805180820190915260018152600360fc1b602082015290565b8160005b8115612ac95780612ab381613f3e565b9150612ac29050600a8361441f565b9150612aa3565b60008167ffffffffffffffff811115612ae457612ae4613c08565b6040519080825280601f01601f191660200182016040528015612b0e576020820181803683370190505b5090505b8415611e0257612b23600183613f85565b9150612b30600a86614433565b612b3b906030613f9c565b60f81b818381518110612b5057612b50613eab565b60200101906001600160f81b031916908160001a905350612b72600a8661441f565b9450612b12565b60608151600003612b9857505060408051602081019091526000815290565b60006040518060600160405280604081526020016151b46040913990506000600384516002612bc79190613f9c565b612bd1919061441f565b612bdc906004614447565b90506000612beb826020613f9c565b67ffffffffffffffff811115612c0357612c03613c08565b6040519080825280601f01601f191660200182016040528015612c2d576020820181803683370190505b509050818152600183018586518101602084015b81831015612c9b5760039283018051603f601282901c811687015160f890811b8552600c83901c8216880151811b6001860152600683901c8216880151811b60028601529116860151901b93820193909352600401612c41565b600389510660018114612cb55760028114612ce157612d09565b7f3d3d000000000000000000000000000000000000000000000000000000000000600119830152612d09565b7f3d000000000000000000000000000000000000000000000000000000000000006000198301525b509398975050505050505050565b60006001600160e01b031982167f780e9d630000000000000000000000000000000000000000000000000000000014806105e257506105e2826132d8565b6001600160a01b038316612db057612dab81600880546000838152600960205260408120829055600182018355919091527ff3f7a9fe364faab93b216da50a3214154f22a0a2b415b23a84c8169e8b636ee30155565b612dd3565b816001600160a01b0316836001600160a01b031614612dd357612dd38382613373565b6001600160a01b038216612dea5761095e81613410565b826001600160a01b0316826001600160a01b03161461095e5761095e82826134bf565b60606000612e1c836002614447565b612e27906002613f9c565b67ffffffffffffffff811115612e3f57612e3f613c08565b6040519080825280601f01601f191660200182016040528015612e69576020820181803683370190505b509050600360fc1b81600081518110612e8457612e84613eab565b60200101906001600160f81b031916908160001a905350600f60fb1b81600181518110612eb357612eb3613eab565b60200101906001600160f81b031916908160001a9053506000612ed7846002614447565b612ee2906001613f9c565b90505b6001811115612f67577f303132333435363738396162636465660000000000000000000000000000000085600f1660108110612f2357612f23613eab565b1a60f81b828281518110612f3957612f39613eab565b60200101906001600160f81b031916908160001a90535060049490941c93612f6081614466565b9050612ee5565b5083156113d15760405162461bcd60e51b815260206004820181905260248201527f537472696e67733a20686578206c656e67746820696e73756666696369656e746044820152606401610700565b6000818152600183016020526040812054801561309f576000612fda600183613f85565b8554909150600090612fee90600190613f85565b905081811461305357600086600001828154811061300e5761300e613eab565b906000526020600020015490508087600001848154811061303157613031613eab565b6000918252602080832090910192909255918252600188019052604090208390555b85548690806130645761306461447d565b6001900381819060005260206000200160009055905585600101600086815260200190815260200160002060009055600193505050506105e2565b60009150506105e2565b6001600160a01b0382166130ff5760405162461bcd60e51b815260206004820181905260248201527f4552433732313a206d696e7420746f20746865207a65726f20616464726573736044820152606401610700565b6000818152600260205260409020546001600160a01b0316156131645760405162461bcd60e51b815260206004820152601c60248201527f4552433732313a20746f6b656e20616c7265616479206d696e746564000000006044820152606401610700565b61317060008383612433565b6001600160a01b0382166000908152600360205260408120805460019290613199908490613f9c565b909155505060008181526002602052604080822080546001600160a01b0319166001600160a01b03861690811790915590518392907fddf252ad1be2c89b69c2b068fc378daa952ba7f163c4a11628f55a4df523b3ef908290a45050565b60606000423360405160200161323c92919091825260601b7fffffffffffffffffffffffffffffffffffffffff00000000000000000000000016602082015260340190565b60408051808303601f190181528282528051602091820120908301819052925060009101604051602081830303815290604052905060006010613280836000613503565b61328a9190614493565b60ff169050600061329b86836135c3565b905060006132a887613650565b905081816040516020016132bd9291906144b5565b60405160208183030381529060405295505050505050919050565b60006001600160e01b031982167f80ac58cd00000000000000000000000000000000000000000000000000000000148061333b57506001600160e01b031982167f5b5e139f00000000000000000000000000000000000000000000000000000000145b806105e257507f01ffc9a7000000000000000000000000000000000000000000000000000000006001600160e01b03198316146105e2565b600060016133808461105f565b61338a9190613f85565b6000838152600760205260409020549091508082146133dd576001600160a01b03841660009081526006602090815260408083208584528252808320548484528184208190558352600790915290208190555b5060009182526007602090815260408084208490556001600160a01b039094168352600681528383209183525290812055565b60085460009061342290600190613f85565b6000838152600960205260408120546008805493945090928490811061344a5761344a613eab565b90600052602060002001549050806008838154811061346b5761346b613eab565b60009182526020808320909101929092558281526009909152604080822084905585825281205560088054806134a3576134a361447d565b6001900381819060005260206000200160009055905550505050565b60006134ca8361105f565b6001600160a01b039093166000908152600660209081526040808320868452825280832085905593825260079052919091209190915550565b600081613511816001613f9c565b101561355f5760405162461bcd60e51b815260206004820152601060248201527f746f55696e74385f6f766572666c6f77000000000000000000000000000000006044820152606401610700565b61356a826001613f9c565b835110156135ba5760405162461bcd60e51b815260206004820152601360248201527f746f55696e74385f6f75744f66426f756e6473000000000000000000000000006044820152606401610700565b50016001015190565b6060600e82601081106135d8576135d8613eab565b60040201600e83601081106135ef576135ef613eab565b60040201600101600e846010811061360957613609613eab565b60040201600201604e60008781526020019081526020016000206001016040516020016136399493929190614582565b604051602081830303815290604052905092915050565b6000818152604e6020526040902060058101546060919060038201906002830190613685906001600160a01b031660146136ae565b6040516020016136989493929190614df8565b6040516020818303038152906040529050919050565b606060006136bd836002614447565b6136c8906002613f9c565b67ffffffffffffffff8111156136e0576136e0613c08565b6040519080825280601f01601f19166020018201604052801561370a576020820181803683370190505b509050600360fc1b8160008151811061372557613725613eab565b60200101906001600160f81b031916908160001a905350600f60fb1b8160018151811061375457613754613eab565b60200101906001600160f81b031916908160001a9053506000613778846002614447565b613783906001613f9c565b90505b6001811115613808577f303132333435363738396162636465660000000000000000000000000000000085600f16601081106137c4576137c4613eab565b1a60f81b8282815181106137da576137da613eab565b60200101906001600160f81b031916908160001a90535060049490941c9361380181614466565b9050613786565b5083156113d15760405162461bcd60e51b815260206004820152600560248201527f4845585f4c0000000000000000000000000000000000000000000000000000006044820152606401610700565b82805461386390613e71565b90600052602060002090601f01602090048101928261388557600085556138cb565b82601f1061389e57805160ff19168380011785556138cb565b828001600101855582156138cb579182015b828111156138cb5782518255916020019190600101906138b0565b506138d79291506138db565b5090565b5b808211156138d757600081556001016138dc565b6001600160e01b0319811681146109bb57600080fd5b60006020828403121561391857600080fd5b81356113d1816138f0565b60005b8381101561393e578181015183820152602001613926565b838111156114f15750506000910152565b60008151808452613967816020860160208601613923565b601f01601f19169290920160200192915050565b6020815260006113d1602083018461394f565b6000602082840312156139a057600080fd5b5035919050565b80356001600160a01b03811681146139be57600080fd5b919050565b600080604083850312156139d657600080fd5b6139df836139a7565b946020939093013593505050565b6000602082840312156139ff57600080fd5b6113d1826139a7565b600080600060608486031215613a1d57600080fd5b613a26846139a7565b9250613a34602085016139a7565b9150604084013590509250925092565b60008060408385031215613a5757600080fd5b82359150613a67602084016139a7565b90509250929050565b60008083601f840112613a8257600080fd5b50813567ffffffffffffffff811115613a9a57600080fd5b602083019150836020828501011115613ab257600080fd5b9250929050565b60008060008060008060008060008060a08b8d031215613ad857600080fd5b8a3567ffffffffffffffff80821115613af057600080fd5b613afc8e838f01613a70565b909c509a5060208d0135915080821115613b1557600080fd5b613b218e838f01613a70565b909a50985060408d0135915080821115613b3a57600080fd5b613b468e838f01613a70565b909850965060608d0135915080821115613b5f57600080fd5b613b6b8e838f01613a70565b909650945060808d0135915080821115613b8457600080fd5b50613b918d828e01613a70565b915080935050809150509295989b9194979a5092959850565b60008060408385031215613bbd57600080fd5b50508035926020909101359150565b60008060408385031215613bdf57600080fd5b613be8836139a7565b915060208301358015158114613bfd57600080fd5b809150509250929050565b634e487b7160e01b600052604160045260246000fd5b600067ffffffffffffffff80841115613c3957613c39613c08565b604051601f8501601f19908116603f01168101908282118183101715613c6157613c61613c08565b81604052809350858152868686011115613c7a57600080fd5b858560208301376000602087830101525050509392505050565b60008060008060808587031215613caa57600080fd5b613cb3856139a7565b9350613cc1602086016139a7565b925060408501359150606085013567ffffffffffffffff811115613ce457600080fd5b8501601f81018713613cf557600080fd5b613d0487823560208401613c1e565b91505092959194509250565b60008060208385031215613d2357600080fd5b823567ffffffffffffffff80821115613d3b57600080fd5b818501915085601f830112613d4f57600080fd5b813581811115613d5e57600080fd5b8660208260051b8501011115613d7357600080fd5b60209290920196919550909350505050565b60a081526000613d9860a083018861394f565b8281036020840152613daa818861394f565b90508281036040840152613dbe818761394f565b90508281036060840152613dd2818661394f565b9150506001600160a01b03831660808301529695505050505050565b60008060408385031215613e0157600080fd5b613e0a836139a7565b9150613a67602084016139a7565b60008060408385031215613e2b57600080fd5b823567ffffffffffffffff811115613e4257600080fd5b8301601f81018513613e5357600080fd5b613e6285823560208401613c1e565b925050613a67602084016139a7565b600181811c90821680613e8557607f821691505b602082108103613ea557634e487b7160e01b600052602260045260246000fd5b50919050565b634e487b7160e01b600052603260045260246000fd5b60008235603e19833603018112613ed757600080fd5b9190910192915050565b6000808335601e19843603018112613ef857600080fd5b83018035915067ffffffffffffffff821115613f1357600080fd5b602001915036819003821315613ab257600080fd5b634e487b7160e01b600052601160045260246000fd5b600060018201613f5057613f50613f28565b5060010190565b60008151613f69818560208601613923565b9290920192915050565b60008251613ed7818460208701613923565b600082821015613f9757613f97613f28565b500390565b60008219821115613faf57613faf613f28565b500190565b8054600090600181811c9080831680613fce57607f831692505b60208084108203613fef57634e487b7160e01b600052602260045260246000fd5b818015614003576001811461401457614041565b60ff19861689528489019650614041565b60008881526020902060005b868110156140395781548b820152908501908301614020565b505084890196505b50505050505092915050565b7f7b226e616d65223a2022000000000000000000000000000000000000000000008152600061407f600a830189613fb4565b7f2043657274696669636174652000000000000000000000000000000000000000815287516140b581600d840160208c01613923565b8082019150507f222c00000000000000000000000000000000000000000000000000000000000080600d8301527f22696d616765223a202200000000000000000000000000000000000000000000600f8301527f646174613a696d6167652f7376672b786d6c3b6261736536342c00000000000060198301528751614141816033850160208c01613923565b60339201918201527f2261747472696275746573223a205b7b2274726169745f74797065223a20224d60358201527f6f64756c65436f6465222c202276616c7565223a20220000000000000000000060558201526142dd6142b461428b6142856142366141b86142306141e182606b8a018f613fb4565b7f227d2c0000000000000000000000000000000000000000000000000000000000815260030190565b7f7b2274726169745f74797065223a202254797065222c202276616c7565223a2081527f2200000000000000000000000000000000000000000000000000000000000000602082015260210190565b8b613fb4565b7f7b2274726169745f74797065223a20225472696d6573746572222c202276616c81527f7565223a20220000000000000000000000000000000000000000000000000000602082015260260190565b87613fb4565b7f227d000000000000000000000000000000000000000000000000000000000000815260020190565b7f5d7d000000000000000000000000000000000000000000000000000000000000815260020190565b9998505050505050505050565b7f646174613a6170706c69636174696f6e2f6a736f6e3b6261736536342c00000081526000825161432281601d850160208701613923565b91909101601d0192915050565b7f416363657373436f6e74726f6c3a206163636f756e7420000000000000000000815260008351614367816017850160208801613923565b7f206973206d697373696e6720726f6c652000000000000000000000000000000060179184019182015283516143a4816028840160208801613923565b01602801949350505050565b60006001600160a01b038087168352808616602084015250836040830152608060608301526143e2608083018461394f565b9695505050505050565b6000602082840312156143fe57600080fd5b81516113d1816138f0565b634e487b7160e01b600052601260045260246000fd5b60008261442e5761442e614409565b500490565b60008261444257614442614409565b500690565b600081600019048311821515161561446157614461613f28565b500290565b60008161447557614475613f28565b506000190190565b634e487b7160e01b600052603160045260246000fd5b600060ff8316806144a6576144a6614409565b8060ff84160491505092915050565b7f3c73766720636c6173733d22737667426f6479222077696474683d223330302281527f206865696768743d22333030222076696577426f783d2230203020333030203360208201527f30302220786d6c6e733d22687474703a2f2f7777772e77332e6f72672f32303060408201527f302f737667223e0000000000000000000000000000000000000000000000000060608201526000835161455f816067850160208801613923565b835190830190614576816067840160208801613923565b01606701949350505050565b7f3c726563742077696474683d2233303022206865696768743d2233303022207281527f783d22313022207374796c653d2266696c6c3a00000000000000000000000000602082015260006145da6033830187613fb4565b7f22202f3e000000000000000000000000000000000000000000000000000000008082527f3c7265637420793d223630222077696474683d2233303022206865696768743d60048301527f2231313522207374796c653d2266696c6c3a000000000000000000000000000060248301526146576036830188613fb4565b91507f222f3e000000000000000000000000000000000000000000000000000000000082527f3c7265637420793d22313735222077696474683d22333030222068656967687460038301527f3d22343022207374796c653d2266696c6c3a000000000000000000000000000060238301526146d56035830187613fb4565b9081527f3c7465787420783d2231352220793d2232352220636c6173733d226d6564697560048201527f6d223e000000000000000000000000000000000000000000000000000000000060248201529050614ded61480061476561473c6027850188613fb4565b7f2043657274696669636174653c2f746578743e00000000000000000000000000815260130190565b7f3c67207472616e73666f726d3d227472616e736c617465283236302e3030303081527f30302c34302e30303030303029207363616c6528302e3031303030302c2d302e60208201527f30313030303029222066696c6c3d222330303030303022207374726f6b653d2260408201527f6e6f6e65223e0000000000000000000000000000000000000000000000000000606082015260660190565b7f3c7061746820643d224d343436203330323120632d33202d39202d3132202d3581527f39202d3231202d313131202d3235202d313536202d3133202d313430202d313160208201527f30202d313430206c2d383520302030202d3438382030202d343838202d31313060408201527f202d36323920632d3630202d333437202d313132202d363430202d313135202d60608201527f363531202d34202d32302032202d3233203933202d3339203533202d3920313060808201527f35202d313920313134202d3231203136202d35203138202d3139203138202d3160a08201527f3230206c30202d31313420363634203020363633203020363333202d3131302060c08201527f63343632202d383120363335202d31303820363431202d39392034203620313060e08201527f2033352031342036332033203238203131203732203136203939206c313120346101008201527f37203739203020373920302030203435382030203435382031323020363930206101208201527f63363620333739203132322036393620313233203730342031203131202d32366101408201527f203139202d313138203335206c2d313230203231202d33203932202d332039326101608201527f202d3532332030202d3532322030202d3633352031313120632d3334392036306101808201527f202d36393420313230202d37363620313333202d313230203231202d313333206101a08201527f3232202d31333720377a206d393634202d373733206330202d37202d38202d366101c08201527f33202d3137202d313235206c2d3136202d313132202d333336202d3320632d336101e08201527f3136202d33202d333339202d34202d333831202d3234202d3836202d3339202d6102008201527f313233202d313133202d3938202d313930203131202d3334203232202d3433206102208201527f3738202d3731203430202d323020313435202d353320323730202d38342031326102408201527f34202d333120323334202d363520323830202d3837203838202d3431203137346102608201527f202d31323220323131202d313937203231202d3435203234202d3633203234206102808201527f2d3137302030202d313130202d32202d313235202d3238202d313739202d35376102a08201527f202d313232202d313434202d313936202d323937202d323530206c2d3835202d6102c08201527f3331202d333933202d33202d333933202d3320332031323320332031323320336102e08201527f36352035203336352035203532203237206336392033372039372037372039386103008201527f203134342030203931202d363220313435202d32323020313838202d343920316103208201527f34202d313438203431202d323230203631202d323330203633202d33343420316103408201527f3335202d34303220323534202d3235203531202d3238203636202d32382031366103608201527f36203020313030203320313135203238203136362036382031333920313934206103808201527f3232372033373720323634203931203138203736302032312037363020337a206103a08201527f6d31363230202d313333206c30202d313335202d3230352030202d32303520306103c08201527f2030202d3633302030202d363330202d3136352030202d3136352030203020366103e08201527f3330203020363330202d313635203020632d3133342030202d3136352033202d6104008201527f31363520313420302031322033312031373520343520323334206c35203232206104208201527f35313020302035313020302030202d3133357a206d2d31313937202d373832206104408201527f6c2d33202d353938202d313630202d33202d313630202d3220302035373420306104608201527f20353734203733203132206333392037203130312031382031333720323520336104808201527f362037203736203133203930203134206c32352031202d32202d3539377a222f6104a08201527f3e3c2f673e0000000000000000000000000000000000000000000000000000006104c08201526104c50190565b979650505050505050565b7f3c7465787420783d2231352220793d2238302220636c6173733d226d6564697581527f6d223e4d6f64756c653e2000000000000000000000000000000000000000000060208201526000614e50602b830187613fb4565b7f3c2f746578743e000000000000000000000000000000000000000000000000008082527f3c7465787420783d2231352220793d223130302220636c6173733d226d65646960078301527f756d223e5472696d65737465723e2000000000000000000000000000000000006027830152614ecd6036830188613fb4565b9081527f3c7465787420783d2231352220793d223132302220636c6173733d226d65646960078201527f756d223e47726164653a3c2f746578743e00000000000000000000000000000060278201527f3c7265637420783d2231352220793d22313235222077696474683d223230352260388201527f206865696768743d22343022207374796c653d2266696c6c3a77686974653b6f60588201527f7061636974793a302e35222f3e0000000000000000000000000000000000000060788201527f3c7465787420783d2231352220793d223134302220636c6173733d226d65646960858201527f756d223e0000000000000000000000000000000000000000000000000000000060a58201529050614ded61518a6150c9614ffc6150c36150746150258360a989018d613fb4565b7f3c2f746578743e00000000000000000000000000000000000000000000000000815260070190565b7f3c7465787420783d2231352220793d223139302220636c6173733d22736d616c81527f6c223e526563697069656e743a3c2f746578743e000000000000000000000000602082015260340190565b7f3c7465787420783d2231352220793d2232303522207374796c653d22666f6e7481527f2d73697a653a387078223e0000000000000000000000000000000000000000006020820152602b0190565b88613f57565b7f3c7374796c653e2e737667426f6479207b666f6e742d66616d696c793a20224381527f6f7572696572204e657722207d202e74696e79207b666f6e742d73697a653a3660208201527f70783b207d202e736d616c6c207b666f6e742d73697a653a20313270783b7d2e60408201527f6d656469756d207b666f6e742d73697a653a20313870783b7d3c2f7374796c6560608201527f3e00000000000000000000000000000000000000000000000000000000000000608082015260810190565b7f3c2f7376673e000000000000000000000000000000000000000000000000000081526006019056fe4142434445464748494a4b4c4d4e4f505152535455565758595a6162636465666768696a6b6c6d6e6f707172737475767778797a303132333435363738392b2fa26469706673582212203b719d98f2244293c49cc2d93e93ed2d5e9c107bdc111cfe70dbcca245958d8a64736f6c634300080e0033",
  "immutableReferences": {},
  "source": "// SPDX-License-Identifier: MIT\r\n\r\npragma solidity ^0.8.0;\r\n\r\nimport \"@openzeppelin/contracts/token/ERC721/extensions/ERC721Enumerable.sol\";\r\nimport \"@openzeppelin/contracts/utils/Counters.sol\";\r\n\r\nimport \"./Base64.sol\";\r\nimport \"./RoleControl.sol\";\r\n\r\ncontract SITNFT is ERC721, ERC721Enumerable,RoleControl {\r\n  using Counters for Counters.Counter;\r\n  Counters.Counter private _tokenIdCounter;\r\n  using Strings for uint256;\r\n  // Design Codes\r\n  // 16 palettes\r\n  string[4][16] palette = [\r\n        [\"#eca3f5\", \"#fdbaf9\", \"#b0efeb\", \"#edffa9\"],\r\n        [\"#75cfb8\", \"#bbdfc8\", \"#f0e5d8\", \"#ffc478\"],\r\n        [\"#ffab73\", \"#ffd384\", \"#fff9b0\", \"#ffaec0\"],\r\n        [\"#94b4a4\", \"#d2f5e3\", \"#e5c5b5\", \"#f4d9c6\"],\r\n        [\"#f4f9f9\", \"#ccf2f4\", \"#a4ebf3\", \"#aaaaaa\"],\r\n        [\"#caf7e3\", \"#edffec\", \"#f6dfeb\", \"#e4bad4\"],\r\n        [\"#f4f9f9\", \"#f1d1d0\", \"#fbaccc\", \"#f875aa\"],\r\n        [\"#fdffbc\", \"#ffeebb\", \"#ffdcb8\", \"#ffc1b6\"],\r\n        [\"#f0e4d7\", \"#f5c0c0\", \"#ff7171\", \"#9fd8df\"],\r\n        [\"#e4fbff\", \"#b8b5ff\", \"#7868e6\", \"#edeef7\"],\r\n        [\"#ffcb91\", \"#ffefa1\", \"#94ebcd\", \"#6ddccf\"],\r\n        [\"#bedcfa\", \"#98acf8\", \"#b088f9\", \"#da9ff9\"],\r\n        [\"#bce6eb\", \"#fdcfdf\", \"#fbbedf\", \"#fca3cc\"],\r\n        [\"#ff75a0\", \"#fce38a\", \"#eaffd0\", \"#95e1d3\"],\r\n        [\"#fbe0c4\", \"#8ab6d6\", \"#2978b5\", \"#0061a8\"],\r\n        [\"#dddddd\", \"#f9f3f3\", \"#f7d9d9\", \"#f25287\"]\r\n  ];\r\n \r\n  struct IdAddress {\r\n      string id;\r\n      address addr;\r\n  }\r\n\r\n  struct Attribute {\r\n      string moduleCode;\r\n      string testType;\r\n      string grade;\r\n      string trimester;\r\n      address faculty;\r\n      address recipient;\r\n  }\r\n\r\n  // Events\r\n  \r\n  event Log(string message);\r\n  event IndexedLog(address indexed sender, string message);\r\n  event Mint(address indexed sender, uint256 tokenId);\r\n\r\n\r\n// Mapping\r\n  mapping(uint256 => Attribute) private _attributes;\r\n  mapping(bytes32 => address) private _studentAddress;\r\n\r\n  constructor() ERC721(\"SIT NFT\", \"SIT\") RoleControl(msg.sender) {\r\n  }\r\n\r\n    /**\r\n     * @dev Add student address to mapping.\r\n     *\r\n     * Requirements:\r\n     *\r\n     * - The caller must be an admin.\r\n     */\r\n  function addStudentAddress(string memory _id, address _address ) public onlyAdmin {\r\n    bytes32 encryptedId = keccak256(abi.encodePacked(_id));\r\n    _studentAddress[encryptedId] = _address;\r\n    emit IndexedLog(msg.sender,\"addStudentSucceed\");\r\n  }\r\n\r\n    /**\r\n     * @dev Takes in an array of studentAddresses and calls addStudentAddress.\r\n     *\r\n     * Requirements:\r\n     *\r\n     * - The caller must be an admin.\r\n     */\r\n  function multiAddStudentAddress(IdAddress[] calldata _array) external onlyAdmin {\r\n    for(uint i=0; i <_array.length; i++) {\r\n      addStudentAddress(_array[i].id, _array[i].addr);\r\n    }\r\n    emit IndexedLog(msg.sender,\"multiAddStudentSucceed\");\r\n  }\r\n\r\n\r\n    /**\r\n     * @dev For contract to getStudentAddress\r\n     *\r\n     */\r\n  function _getStudentAddress(string memory _id) private view returns (address){\r\n    bytes32 encryptedId = keccak256(abi.encodePacked(_id));\r\n    require(_studentAddress[encryptedId] != address(0) , \"Student does not exist.\");\r\n    return _studentAddress[encryptedId];\r\n  }\r\n\r\n    /**\r\n     * @dev Mint with parameters\r\n     *\r\n     * Requirements:\r\n     *\r\n     * - The caller must be a faculty\r\n     */\r\n\r\n  function mint(string calldata moduleCode, string calldata testType, string calldata grade, string calldata trimester, string calldata recipient) external onlyFaculty {\r\n    Attribute memory newAttribute = Attribute(\r\n      moduleCode,\r\n      testType,\r\n      grade,\r\n      trimester,\r\n      msg.sender,\r\n      _getStudentAddress(recipient)\r\n    );\r\n    _tokenIdCounter.increment();\r\n    uint256 tokenId = _tokenIdCounter.current();\r\n    _attributes[tokenId] = newAttribute;\r\n    _safeMint(newAttribute.recipient,tokenId);\r\n    emit Mint(msg.sender, tokenId);\r\n  }\r\n\r\n    function generatePaletteSection(uint256 _tokenId, uint256 pIndex) private view returns (string memory) {\r\n        return string(abi.encodePacked(\r\n                '<rect width=\"300\" height=\"300\" rx=\"10\" style=\"fill:',palette[pIndex][0],'\" />',\r\n                '<rect y=\"60\" width=\"300\" height=\"115\" style=\"fill:',palette[pIndex][1],'\"/>',\r\n                '<rect y=\"175\" width=\"300\" height=\"40\" style=\"fill:',palette[pIndex][2],'\" />', \r\n                '<text x=\"15\" y=\"25\" class=\"medium\">',_attributes[_tokenId].testType,' Certificate</text>',\r\n                // '<text x=\"17\" y=\"50\" class=\"small\" opacity=\"0.5\">',substring(toString(_tokenId),0,24),'</text>',\r\n                '<g transform=\"translate(260.000000,40.000000) scale(0.010000,-0.010000)\" fill=\"#000000\" stroke=\"none\">',\r\n                '<path d=\"M446 3021 c-3 -9 -12 -59 -21 -111 -25 -156 -13 -140 -110 -140 l-85 0 0 -488 0 -488 -110 -629 c-60 -347 -112 -640 -115 -651 -4 -20 2 -23 93 -39 53 -9 105 -19 114 -21 16 -5 18 -19 18 -120 l0 -114 664 0 663 0 633 -110 c462 -81 635 -108 641 -99 4 6 10 35 14 63 3 28 11 72 16 99 l11 47 79 0 79 0 0 458 0 458 120 690 c66 379 122 696 123 704 1 11 -26 19 -118 35 l-120 21 -3 92 -3 92 -523 0 -522 0 -635 111 c-349 60 -694 120 -766 133 -120 21 -133 22 -137 7z m964 -773 c0 -7 -8 -63 -17 -125 l-16 -112 -336 -3 c-316 -3 -339 -4 -381 -24 -86 -39 -123 -113 -98 -190 11 -34 22 -43 78 -71 40 -20 145 -53 270 -84 124 -31 234 -65 280 -87 88 -41 174 -122 211 -197 21 -45 24 -63 24 -170 0 -110 -2 -125 -28 -179 -57 -122 -144 -196 -297 -250 l-85 -31 -393 -3 -393 -3 3 123 3 123 365 5 365 5 52 27 c69 37 97 77 98 144 0 91 -62 145 -220 188 -49 14 -148 41 -220 61 -230 63 -344 135 -402 254 -25 51 -28 66 -28 166 0 100 3 115 28 166 68 139 194 227 377 264 91 18 760 21 760 3z m1620 -133 l0 -135 -205 0 -205 0 0 -630 0 -630 -165 0 -165 0 0 630 0 630 -165 0 c-134 0 -165 3 -165 14 0 12 31 175 45 234 l5 22 510 0 510 0 0 -135z m-1197 -782 l-3 -598 -160 -3 -160 -2 0 574 0 574 73 12 c39 7 101 18 137 25 36 7 76 13 90 14 l25 1 -2 -597z\"/></g>'\r\n                \r\n            )\r\n        );\r\n    }  \r\n\r\n  function generateBase64Image(uint256 _tokenId) private view returns (string memory) {\r\n        return Base64.encode(bytes(generateImage(_tokenId)));\r\n  }\r\n  \r\n  function generateImage(uint256 _tokenId) private view returns (string memory) {\r\n        // bytes memory hash = abi.encodePacked(bytes32(_tokenId));\r\n        uint256 random = uint(keccak256(abi.encodePacked(block.timestamp, msg.sender)));\r\n        bytes memory hash = abi.encodePacked(bytes32(random));\r\n        uint256 pIndex = toUint8(hash,0)/16; // 16 palettes\r\n        \r\n        /* this is broken into functions to avoid stack too deep errors */\r\n        string memory paletteSection = generatePaletteSection(_tokenId, pIndex);\r\n        string memory svgSection = buildImageSvg(_tokenId);\r\n        return string(\r\n            abi.encodePacked(\r\n                '<svg class=\"svgBody\" width=\"300\" height=\"300\" viewBox=\"0 0 300 300\" xmlns=\"http://www.w3.org/2000/svg\">',\r\n                paletteSection,\r\n                svgSection\r\n            )\r\n        );\r\n    }\r\n    function buildImageSvg(uint256 _tokenId) private view returns (string memory) {\r\n        return string(\r\n            abi.encodePacked(\r\n                '<text x=\"15\" y=\"80\" class=\"medium\">Module> ',_attributes[_tokenId].moduleCode,'</text>',\r\n                '<text x=\"15\" y=\"100\" class=\"medium\">Trimester> ',_attributes[_tokenId].trimester,'</text>',\r\n                '<text x=\"15\" y=\"120\" class=\"medium\">Grade:</text>',\r\n                '<rect x=\"15\" y=\"125\" width=\"205\" height=\"40\" style=\"fill:white;opacity:0.5\"/>',\r\n                '<text x=\"15\" y=\"140\" class=\"medium\">',_attributes[_tokenId].grade,'</text>',\r\n                '<text x=\"15\" y=\"190\" class=\"small\">Recipient:</text>',\r\n                '<text x=\"15\" y=\"205\" style=\"font-size:8px\">',toHexString(uint160(_attributes[_tokenId].recipient), 20),'</text>',\r\n                '<style>.svgBody {font-family: \"Courier New\" } .tiny {font-size:6px; } .small {font-size: 12px;}.medium {font-size: 18px;}</style>',\r\n                '</svg>'\r\n            )\r\n        );\r\n    }\r\n\r\n    function buildMetadata(uint256 _tokenId) private view returns(string memory) {\r\n        string memory image = generateBase64Image(_tokenId);\r\n        string memory json = Base64.encode(\r\n            bytes(string(\r\n                abi.encodePacked(\r\n                    '{\"name\": \"', _attributes[_tokenId].moduleCode,' Certificate ',toString(_tokenId),'\",',\r\n                    '\"image\": \"', \r\n                    'data:image/svg+xml;base64,',\r\n                    image,'\",',\r\n                    '\"attributes\": [{\"trait_type\": \"ModuleCode\", \"value\": \"', _attributes[_tokenId].moduleCode, '\"},',\r\n                    '{\"trait_type\": \"Type\", \"value\": \"', _attributes[_tokenId].testType, '\"},',\r\n                    '{\"trait_type\": \"Trimester\", \"value\": \"', _attributes[_tokenId].trimester, '\"}',\r\n                    ']}'\r\n                )\r\n            ))\r\n        );\r\n        return string(abi.encodePacked('data:application/json;base64,', json));\r\n    }\r\n\r\n  \r\n\r\n    function tokenURI(uint256 _tokenId) public view virtual override returns (string memory) {\r\n        require(_exists(_tokenId), \"ERC721Metadata: URI query for nonexistent token\");\r\n        return buildMetadata(_tokenId);\r\n    }\r\n\r\n    function attributes(uint256 _tokenId) external view virtual returns (string memory, string memory, string memory, string memory, address) {\r\n        require(_exists(_tokenId), \"ERC721Metadata: attribute query for nonexistent token\");\r\n        return (_attributes[_tokenId].moduleCode,_attributes[_tokenId].testType,_attributes[_tokenId].grade,_attributes[_tokenId].trimester,_attributes[_tokenId].recipient);\r\n    }\r\n\r\n      function _beforeTokenTransfer(address from, address to, uint256 _tokenId)\r\n        internal\r\n        override(ERC721, ERC721Enumerable)\r\n    {\r\n        super._beforeTokenTransfer(from, to, _tokenId);\r\n\r\n        Attribute memory currentAttribute = _attributes[_tokenId];\r\n        \r\n        require(to == currentAttribute.recipient || to == getOwner() || to == address(0), \"Target is not the recipient.\");\r\n    }\r\n\r\n    function supportsInterface(bytes4 interfaceId)\r\n        public\r\n        view\r\n        override(ERC721,ERC721Enumerable, AccessControlEnumerable)\r\n        returns (bool)\r\n    {\r\n        return super.supportsInterface(interfaceId);\r\n    }\r\n\r\n    bytes16 private constant _ALPHABET = \"0123456789abcdef\";\r\n\r\n    /**\r\n     * @dev Converts a `uint256` to its ASCII `string` hexadecimal representation with fixed length.\r\n     */\r\n    function toHexString(uint256 value, uint256 length) internal pure returns (string memory) {\r\n        bytes memory buffer = new bytes(2 * length + 2);\r\n        buffer[0] = \"0\";\r\n        buffer[1] = \"x\";\r\n        for (uint256 i = 2 * length + 1; i > 1; --i) {\r\n            buffer[i] = _ALPHABET[value & 0xf];\r\n            value >>= 4;\r\n        }\r\n        require(value == 0, \"HEX_L\");\r\n        return string(buffer);\r\n    }\r\n\r\n    function toUint8(bytes memory _bytes, uint256 _start) internal pure returns (uint8) {\r\n        require(_start + 1 >= _start, \"toUint8_overflow\");\r\n        require(_bytes.length >= _start + 1 , \"toUint8_outOfBounds\");\r\n        uint8 tempUint;\r\n\r\n        assembly {\r\n            tempUint := mload(add(add(_bytes, 0x1), _start))\r\n        }\r\n        return tempUint;\r\n    }    \r\n    function toString(uint256 value) internal pure returns (string memory) {\r\n\r\n        if (value == 0) {\r\n            return \"0\";\r\n        }\r\n        uint256 temp = value;\r\n        uint256 digits;\r\n        while (temp != 0) {\r\n            digits++;\r\n            temp /= 10;\r\n        }\r\n        bytes memory buffer = new bytes(digits);\r\n        while (value != 0) {\r\n            digits -= 1;\r\n            buffer[digits] = bytes1(uint8(48 + uint256(value % 10)));\r\n            value /= 10;\r\n        }\r\n        return string(buffer);\r\n    }\r\n\r\n    /**\r\n     * @dev Burns `tokenId`. See {ERC721-_burn}.\r\n     *\r\n     * Requirements:\r\n     *\r\n     * - The caller must own `tokenId` or be an approved operator.\r\n     */\r\n    function burn(uint256 tokenId) external onlyFaculty {\r\n        //solhint-disable-next-line max-line-length\r\n        require(_isApprovedOrOwner(_msgSender(), tokenId), \"ERC721Burnable: caller is not owner nor approved\");\r\n        require(msg.sender == _attributes[tokenId].faculty, \"Only faculty who minted this token can burn it.\");\r\n        Attribute memory burnAttribute = Attribute(\r\n        \"\",\r\n        \"\",\r\n        \"\",\r\n        \"\",\r\n        address(0),\r\n        address(0)\r\n        );\r\n        _attributes[tokenId] =  burnAttribute;\r\n        _burn(tokenId);\r\n    }\r\n\r\n    /**\r\n     * @dev Override inherited approve. Allow only faculty to burn token. \r\n     *\r\n     * Requirements:\r\n     *\r\n     * - to: must be a faculty address\r\n     */\r\n    function approve(address to, uint256 tokenId) public virtual override(ERC721,IERC721) {\r\n        require(isFaculty(to) ,\"Only faculty can be approved to burn tokens.\");\r\n        require(to == _attributes[tokenId].faculty, \"Only faculty who minted this token can be approved.\");\r\n        address tokenOwner = ERC721.ownerOf(tokenId);\r\n        require(to != tokenOwner, \"ERC721: approval to current owner\");\r\n        require(\r\n            _msgSender() == tokenOwner || isApprovedForAll(tokenOwner, _msgSender()),\r\n            \"ERC721: approve caller is not owner nor approved for all\"\r\n        );\r\n        _approve(to, tokenId);\r\n    }\r\n\r\n}",
  "sourcePath": "C:\\Users\\jaspz\\Documents\\GitHub\\ITP\\Blockchain-Trusted-Model\\contracts\\SITNFT.sol",
  "compiler": {
    "name": "solc",
    "version": "0.8.14+commit.80d49f37.Emscripten.clang"
  },
  "schemaVersion": "3.4.7",
  "updatedAt": "2022-07-08T14:56:32.214Z",
  "networkType": "ethereum",
  "devdoc": {
    "kind": "dev",
    "methods": {
      "addStudentAddress(string,address)": {
        "details": "Add student address to mapping. Requirements: - The caller must be an admin."
      },
      "approve(address,uint256)": {
        "details": "Override inherited approve. Allow only faculty to burn token.  Requirements: - to: must be a faculty address"
      },
      "balanceOf(address)": {
        "details": "See {IERC721-balanceOf}."
      },
      "burn(uint256)": {
        "details": "Burns `tokenId`. See {ERC721-_burn}. Requirements: - The caller must own `tokenId` or be an approved operator."
      },
      "getApproved(uint256)": {
        "details": "See {IERC721-getApproved}."
      },
      "getRoleAdmin(bytes32)": {
        "details": "Returns the admin role that controls `role`. See {grantRole} and {revokeRole}. To change a role's admin, use {_setRoleAdmin}."
      },
      "getRoleMember(bytes32,uint256)": {
        "details": "Returns one of the accounts that have `role`. `index` must be a value between 0 and {getRoleMemberCount}, non-inclusive. Role bearers are not sorted in any particular way, and their ordering may change at any point. WARNING: When using {getRoleMember} and {getRoleMemberCount}, make sure you perform all queries on the same block. See the following https://forum.openzeppelin.com/t/iterating-over-elements-on-enumerableset-in-openzeppelin-contracts/2296[forum post] for more information."
      },
      "getRoleMemberCount(bytes32)": {
        "details": "Returns the number of accounts that have `role`. Can be used together with {getRoleMember} to enumerate all bearers of a role."
      },
      "grantRole(bytes32,address)": {
        "details": "Grants `role` to `account`. If `account` had not been already granted `role`, emits a {RoleGranted} event. Requirements: - the caller must have ``role``'s admin role."
      },
      "hasRole(bytes32,address)": {
        "details": "Returns `true` if `account` has been granted `role`."
      },
      "isApprovedForAll(address,address)": {
        "details": "See {IERC721-isApprovedForAll}."
      },
      "mint(string,string,string,string,string)": {
        "details": "Mint with parameters Requirements: - The caller must be a faculty"
      },
      "multiAddStudentAddress((string,address)[])": {
        "details": "Takes in an array of studentAddresses and calls addStudentAddress. Requirements: - The caller must be an admin."
      },
      "name()": {
        "details": "See {IERC721Metadata-name}."
      },
      "ownerOf(uint256)": {
        "details": "See {IERC721-ownerOf}."
      },
      "renounceRole(bytes32,address)": {
        "details": "Revokes `role` from the calling account. Roles are often managed via {grantRole} and {revokeRole}: this function's purpose is to provide a mechanism for accounts to lose their privileges if they are compromised (such as when a trusted device is misplaced). If the calling account had been revoked `role`, emits a {RoleRevoked} event. Requirements: - the caller must be `account`."
      },
      "revokeRole(bytes32,address)": {
        "details": "Revokes `role` from `account`. If `account` had been granted `role`, emits a {RoleRevoked} event. Requirements: - the caller must have ``role``'s admin role."
      },
      "safeTransferFrom(address,address,uint256)": {
        "details": "See {IERC721-safeTransferFrom}."
      },
      "safeTransferFrom(address,address,uint256,bytes)": {
        "details": "See {IERC721-safeTransferFrom}."
      },
      "setApprovalForAll(address,bool)": {
        "details": "See {IERC721-setApprovalForAll}."
      },
      "symbol()": {
        "details": "See {IERC721Metadata-symbol}."
      },
      "tokenByIndex(uint256)": {
        "details": "See {IERC721Enumerable-tokenByIndex}."
      },
      "tokenOfOwnerByIndex(address,uint256)": {
        "details": "See {IERC721Enumerable-tokenOfOwnerByIndex}."
      },
      "totalSupply()": {
        "details": "See {IERC721Enumerable-totalSupply}."
      },
      "transferFrom(address,address,uint256)": {
        "details": "See {IERC721-transferFrom}."
      }
    },
    "version": 1
  },
  "userdoc": {
    "kind": "user",
    "methods": {},
    "version": 1
  }
}